:020000022000DC
:1060000000000120B5C90200DDC90200C98F0200ED
:10601000E1C90200E3C90200E5C902000000000076
:10602000000000000000000000000000E7C90200BE
:10603000E9C9020000000000EBC90200EDC902003E
:10604000999C0200EFC9020061A1020055AB020059
:1060500051A40200EFC90200C99F0200A9A20200D8
:1060600009AB02001DAB0200EFC90200EFC902003C
:10607000EFC90200EFC90200EFC90200EFC9020038
:10608000EFC902004D8A0200EFC90200EFC9020009
:10609000E98A0200EFC9020061BC0200EFC90200F8
:1060A000EFC90200EFC9020031AB0200EFC90200E4
:1060B00061A20200EFC90200000000000000000021
:1060C000EFC9020071A2020081A20200EFC9020022
:1060D000EFC90200EFC90200EFC902000000000092
:1060E00000000000000000000000000000000000B0
:1060F00000000000000000000000000000000000A0
:10610000000000000000000000000000000000008F
:10611000000000000000000000000000000000007F
:10612000000000000000000000000000000000006F
:10613000000000000000000000000000000000005F
:10614000000000000000000000000000000000004F
:10615000000000000000000000000000000000003F
:10616000000000000000000000000000000000002F
:10617000000000000000000000000000000000001F
:10618000000000000000000000000000000000000F
:1061900000000000000000000000000000000000FF
:1061A00000000000000000000000000000000000EF
:1061B00000000000000000000000000000000000DF
:1061C00000000000000000000000000000000000CF
:1061D00000000000000000000000000000000000BF
:1061E00000000000000000000000000000000000AF
:1061F000000000000000000000000000000000009F
:106200000348044B834202D0034B03B11847704745
:1062100080A3002080A3002000000000054806495C
:106220000B1AD90F01EBA301491002D0034B03B1A4
:106230001847704780A3002080A3002000000000C2
:1062400010B5064C237843B9FFF7DAFF044B13B1BE
:106250000448AFF300800123237010BD80A3002009
:1062600000000000D8A7030008B5044B1BB1044987
:106270000448AFF30080BDE80840CFE7000000000D
:1062800084A30020D8A70300A3F5803A704700BF7D
:10629000154B002B08BF114B9D46FFF7F5FF002162
:1062A0008B460F461148124A121A07F011F90C4B8F
:1062B000002B00D098470B4B002B00D098470020B4
:1062C000002104000D000B4806F0B6FB06F056FC5A
:1062D0002000290002F0AEF806F004FC00000800DF
:1062E00000000000000000000000012080A300204A
:1062F0001CB6002005CB0200B0F5A47F03D1054BEE
:1063000001221A707047B0F5A67F02BF024B01222E
:106310001A6070479DA30020A8A30020154B07B565
:1063200000200021C3E90001134B00221A6003F092
:10633000C1FB18B1114A9A2102F035FB104A92E8CC
:1063400003006B4683E803000E4A0F48194604F029
:106350009FFA18B1094AAB2102F025FB0123002264
:106360000321094804F090FB074804F04BFB03B0FD
:106370005DF804FBA0A30020A8A30020987D0300E3
:10638000D47D0300F9620200EC7D030070B5044681
:10639000B0B10D4D0D482E68012104F04FFB2D6862
:1063A000AE4203D00948012104F048FB4FF47A7152
:1063B000A0FB012301FB0533C4E90023002070BDCD
:1063C0004FF0FF30FBE700BFA8A30020EC7D0300E7
:1063D000024B9868003818BF0120704708B60020AB
:1063E00070B5EFF3108672B60D4A0E48946801231B
:1063F000A4B993600C4B0D4DD3F880102940116067
:10640000C3F88050D3F8841051604FF0FF32C3F8C6
:106410008420047006B962B6002070BD0370F9E7ED
:1064200008B600209CA3002000E100E0FC06FFBDB0
:1064300010B5094B9A686AB1084A127852B9EFF35D
:10644000108072B606491C680C605C684C609A60EB
:1064500000B962B6002010BD08B600209CA3002041
:1064600000E100E02DE97343224E00230446684614
:106470000D463370FFF78AFF009B1F4AB4EB0308F9
:10648000019B65EB030940F2E733424573EB0903D7
:106490002CDB4FF47A7200232046294611F0A4FA2F
:1064A00002210446154804F0C9FAFFF791FF30B9FC
:1064B000134B144A14484FF48B7106F099FAFFF706
:1064C000B7FF012322460D48022104F0DDFA03F054
:1064D00007FB0A48022104F0F3FAFFF781FF307846
:1064E00080F00100404202B0BDE870834FF0FF3001
:1064F000F9E700BF9DA3002018FCFFFFEC7D03001F
:10650000BB7D0300DC7D0300987D03002DE9F84F7F
:10651000436A53F821700369054638460C4698478C
:10652000660882468946012C6A6A4FEA840808D9BF
:10653000D5E903B352F82600984752464B46D84750
:1065400048B96B6A43F808703846AB6921469847EA
:106550002046BDE8F88F6B6A53F8262043F80820E0
:106560006A6AAB6952F808002146984734467608B3
:10657000D9E72DE9F04F2DED028B436A03EB810340
:1065800093ED008A036983B0044618EE100A0D46A5
:10659000984708EE901A80462368B3EB450F4FEA00
:1065A00045060ED8636A18EE102A43F8252018EE27
:1065B000100AA369294603B0BDEC028BBDE8F04F79
:1065C000184706F1010B5B4518D9E368616AEA00D8
:1065D0001F4651F83500236901929847019A636A72
:1065E00013448246226958688946904702460B4602
:1065F00050464946B847002818BF5E46626A4FEACF
:106600008509002ECED0D4E903A352F8260098477E
:1066100002460B46404618EE901AD0470028C1D0DB
:10662000636A53F8262043F80920626AA36952F886
:106630000900294698473546AEE78B4208BF82429B
:1066400034BF0120002070470020704780688B68AD
:10665000C31A5842584170470B1A58425841704764
:10666000D0E900017047D0E904017047C068704765
:10667000006A7047C1607047016270477047000050
:1066800038B50446D0E902030B4DDB680B4A00EB3A
:1066900000101121284407F01BFBA16801EB011039
:1066A0002844C9B201F05CFF28B1BDE83840044A73
:1066B0004B2102F078B938BD58B500203A85030067
:1066C000F47D03001FB50C4C0C4805F0D9FE2046A4
:1066D00005F01EFF0A4BCDE902430A4B0193042348
:1066E0000093012100231A46084605F035FF04B047
:1066F000BDE8104005F0BCBFFC980020C498002005
:10670000E098002022A4002070B50446D9B1D0E959
:106710000006361AB1EBA60F05D20B4B0B4A9F2190
:106720000B4806F065F98D00294606F049FF18B9B7
:10673000084B064AA121F3E70644002320602844C1
:1067400023616660A06070BD397E0300E0860300AF
:106750004E7E0300627E030030B5144B1D7885B079
:1067600015BB01221A70124B0FCB6C4684E80F0048
:1067700010482B462A46214602F026FE18B10E4A42
:106780003C2102F010F90B4801F072FE18B10A4AE0
:10679000402102F008F90948002101F0E1FE18B19A
:1067A000054A432102F0FFF805B030BD00A40020E7
:1067B000C086030024990020F47D0300687E030056
:1067C0007047000010B5034B04460FCB84E80F0060
:1067D000204610BD08A400202DE9F04716461F46AC
:1067E00056EA07038EB0044606D1374907F0D4FABB
:1067F00001200EB0BDE8F087002A77F1000315DB19
:106800006D464FF00008E5E8026700233046394640
:106810004FF47A7211F0E8F806460F4656EA07037D
:1068200008F10108EFD14FF0000907E0274907F010
:10683000B3FA01344FF000084FF001090EAB08F134
:10684000FF3503EBC50151E90E014FF47A720023C5
:1068500011F0CAF81E49164620461F4607F09CFA5A
:10686000642E77F1000315DB033409F1030908F105
:106870000056023EDFF85CA00DEBC6062F46002F47
:1068800013DCB8F1000F4FEA8505D8BF002505EBF2
:106890000900AEE70A2E77F10003A7BF023409F121
:1068A0000209013409F10109E1E776E802014FF438
:1068B0007A72002311F098F82046514607F06CFADE
:1068C0000434013FDBE700BFEC8E0300747E03005D
:1068D000767E03007B7E03002DE9F84305462820E1
:1068E000894690461F4606F097FA044650B1013596
:1068F000A80006F091FA0646606230B9204606F01C
:1069000093FA34462046BDE8F88301232360089BB0
:10691000A361099BE3610A9B6761C4E90155C4E96E
:1069200003982362EEE708B100680138704770B53C
:106930000E46044608B9012070BDD0E900539D42BF
:1069400009D38368406A1D44A90006F039FE002877
:10695000F1D06062656021684B1C2360636A204649
:1069600043F82160FFF7D2FD0020E5E710B50346AC
:1069700068B10268012A0CD0416A013A4C68026091
:1069800051F822304B600121FFF7F3FD23461846F2
:1069900010BD0023FBE730B10368012B02D0436A2E
:1069A000586870470020704738B50A4604460168A9
:1069B00063689500281D0844984288BF6060D4E948
:1069C0000103984209D3E0685B1A0130E060591076
:1069D000914205D92046FFF797FE2068284438BD2C
:1069E0004900F5E72DE9FF411D46234B1B6817467B
:1069F000022B0A9AB8BF0223934280460E4637DB29
:106A0000084607F0BDFB0446384607F0B9FB2044B2
:106A100000F120012130039106F0FEF9174B039994
:106A20001B68002B044617DA154A0097334607F017
:106A30004FF9144B1B68BBB9134B2A461B68214600
:106A4000B8F1000F0ED0D8680BF0BCFB204604B0A4
:106A5000BDE8F04106F0E8B9CDE900670B4A07F060
:106A600037F9E6E79868EFE7294620469847EDE7CB
:106A700004B0BDE8F08100BFF8980020B89800206D
:106A8000907E030028A4002060990020837E0300EC
:106A900007B50B4600210246009101200249FFF78D
:106AA000A1FF03B05DF804FBC97E03000FB407B576
:106AB00004A951F8040B0191FFF7EAFF03B05DF858
:106AC00004EB04B07047000038B51148FFF75EFCD6
:106AD00010B11048FFF7EAFF0D4A0F48D2E9003223
:106AE000D0E900105B1840EB02020C48D0E900101E
:106AF0005C180B4B42EB0005D3E90001A04271EB9F
:106B00000502B8BFC3E90045D3E9000138BD00BFA5
:106B1000B0980020967E0300E0A30020E8A30020A8
:106B2000C8A3002008B504281CD8DFE800F003073C
:106B30000B1519000D4BD3E900010CE0BDE808402E
:106B4000FFF7C2BF094B0A4AD3E90001D2E900327C
:106B5000C01A61EB020108BDFFF7B6FF054AF5E771
:106B6000034BE8E700204FF00041F4E708A40020C1
:106B700038990020F09800200220FFF7D3BF0000D2
:106B800007B5024601200B4600900349FFF72AFF94
:106B900003B05DF804FB00BFB97E03000FB407B576
:106BA00004A951F8040B0191FFF7EAFF03B05DF867
:106BB00004EB04B07047000007B50B460021024605
:106BC000009101200249FFF70DFF03B05DF804FBBF
:106BD000C37E03000FB407B504A951F8040B01915B
:106BE000FFF7EAFF012005F07DFF00002DE9F047E7
:106BF00004460F461646002E02DA1E48FFF7EAFF4B
:106C0000002C35D02368B34232D9636A53F826503A
:106C100075B3D4E903A328469847236981463846CB
:106C20008846984702460B4648464146D047F8B941
:106C300023692846984723698046384689469847FD
:106C4000894508BF80450AD076003246394620463D
:106C5000FFF7CCFF054648B12846BDE8F087E36959
:106C60003946284698470028EED0F5E70136C2E7B6
:106C70000025F1E7D17E03000122FFF7B7BF000036
:106C800038B5154605F0EEFE044610B90748FFF783
:106C9000A1FF4DB10821012005F0E4FE0028F5D048
:106CA0002B68046028604360204638BD0E7F0300D7
:106CB0000146024A0120FFF7E3BF00BFD8A300202E
:106CC00070B5054610B104680CB92C6070BD206821
:106CD00006F0AAF86668204606F0A6F83446F3E700
:106CE00010B50446FFF7ECFF2046BDE8104006F063
:106CF0009BB8000070B5074D2C680CB92C6070BDB6
:106D00002068FFF7EDFF6668204606F08DF83446F0
:106D1000F3E700BFD8A30020F0B585B06D4685E845
:106D20000F000B4CDDE90023D4E90001824273EB34
:106D3000010607DB904271EB0303029FA66805DBA7
:106D4000B74203D295E80F0084E80F0005B0F0BD0C
:106D50004099002010B5044610B3006870B1144A81
:106D6000217E1368012903F1FF33136003D12369E6
:106D7000BBB906F059F8002323600120237E7BB1C4
:106D80000C4A1368B3F5007F0DDA0B49013308682C
:106D9000E0610C601360094A1368013B1360022034
:106DA00010BD9847E7E7204606F03EF8F3E700BF3E
:106DB000ACA30020F4A30020F0A30020B0A3002087
:106DC00008B5014620B1C36823B90648FFF7E6FEBF
:106DD000002008BD013BC360002BF9D1BDE808408D
:106DE000FFF7B8BF1D7F03002DE9F041284E294D64
:106DF000002433689C4218DB274C206840BB274B9B
:106E0000274E1968274B32681B689342BEBF264A3B
:106E100011681A46002318469A421EDC234C236848
:106E20008BBB00233360BDE8F0812A680C236343E9
:106E30001A4451680878012808D1127A0AB1002250
:106E40000A702A68D3581868FFF7BAFF0134D0E7F0
:106E5000C569FFF7B5FF2560CFE751F8234001333F
:106E60002070D9E729463846FFF79EFD18B1036820
:106E70000BB1C3F800800135D4E900239B1AB5EBB0
:106E8000A30FEFD3CDE700252746A846F4E700BFC0
:106E9000FCA30020F8A30020D0A30020BCA3002066
:106EA000C0A30020C4A30020B8A300203CB500204C
:106EB00010B5324C88B0FFF797FF2068A0B1FFF7FC
:106EC00032FD014680B12E48FFF768FE20682D4C48
:106ED000FFF761FDD4E90023D0E900108A1A60EBC6
:106EE00003032948FFF75AFE284C2368002B06DDD0
:106EF0002748FFF753FE21682648FFF74FFE264C30
:106F00002368002B06DD2548FFF748FE216824484A
:106F1000FFF744FEFFF730FE0B46002873F1000137
:106F200002461BDB1F4C6846FFF756FC1E486946AD
:106F300006F032FBD4E90023012A73F100030DDBD4
:106F4000FFF7C2FDD4E90023821A61EB0303684610
:106F5000FFF742FC1548694606F01EFBFFF7CAFE24
:106F6000134B186805F060FF124B186805F05CFFC2
:106F7000114B186805F058FF08B010BD8CB5002003
:106F80004F7F030038990020907F0300ACA30020BE
:106F9000D17F030003800300B0A3002023800300FF
:106FA00053800300F0980020718003009A80030052
:106FB000F8A30020B8A30020BCA3002010B50C4B00
:106FC0000446186878B1C2691A600A4A1368013B1E
:106FD00013600023C0E90143C0E903330360436148
:106FE0000376C36110BD202005F016FFF1E700BF56
:106FF000F0A30020F4A3002008B5044A136801336D
:107000001360FFF7DBFF0123037608BDB0A3002068
:1070100038B50D46144630B9074B084A084840F2C7
:10702000352105F0E5FCC368002B02DD4068FFF761
:10703000E3FF0560846038BDC4800300EE86030072
:10704000D280030030B585B004AC04E90F000F4CCA
:10705000029DD4E90001DDE90023824273EB010CBB
:10706000A46810DB904271EB03030ADBA5420AD34C
:107070008CBF012000200028D4BF0020012005B0D3
:1070800030BD0120F7E74FF0FF30F4E740990020D2
:1070900008B5074B1868FFF769FC38B920210120B3
:1070A00005F0E0FC10B90348FFF794FD08BD00BFF0
:1070B00050B500200E7F030000230022C0E900230A
:1070C0000023C0E90233036103758361024B01466B
:1070D0001868FFF72CBC00BF50B5002038B5044637
:1070E000006988420D4601D0FFF76AFE256138BD70
:1070F0002DE9F04F944D91B0044616461F4695E891
:107100000F00FFF79FFFDDF868B0AA4638B1584678
:10711000FFF756FE8D48FFF741FD0020B3E0002E3B
:1071200077F1000306DA32463B468948FFF736FD21
:10713000002600271CB95846FFF742FEEDE7BBF1D9
:10714000000F04D0DBF80C300133CBF80C30237A7D
:1071500023B9D4E90432F61842EB0707DAF8003015
:10716000DAF8042007930692D4E90623CDE9042334
:10717000FFF78EFF00218161C0F810B0846094F8A1
:107180002410DDE90623054649B3FFF79DFC16EB05
:10719000000847EB0109D4E90623002A73F1000334
:1071A00035DAC5E900896B4B29461868FFF764FD9D
:1071B000002800F0C5800123044680691A46013387
:1071C0000028F9D1CDE90C890E9210AB13E90F001C
:1071D000FFF738FFC8B12846FFF76EFF9DE7DAE9F1
:1071E000000113EB060842EB0709804579EB010328
:1071F000D1DAB0EB0802CDE9000161EB0903564892
:10720000FFF7CCFCDAE90089C5E7A56185E7277AB5
:10721000002F40F09580A66A002E00F09180D6E9FC
:107220000001049BC3180293059B41EB03030393E6
:10723000DDE90223424573EB0903C0F2818094F833
:107240002C30012B22D0022B34D0DAE900239942D2
:1072500008BF904246D13F4B31461868FFF70CFDFE
:1072600000283FD0D6E900230CA8CDE90823FFF77A
:10727000A9FA0E9B01330A9308AB0FCBFFF7E2FE8E
:107280000028A8D1B56111B0BDE8F08FDDE9042375
:10729000012A73F1000306DB33695B459BD0584636
:1072A000FFF78EFD97E72B4B31461868FFF7E4FC9C
:1072B0000028F1D1D6E90001DAE90023824273EB1C
:1072C000010704DA59463046FFF708FF83E7994281
:1072D00008BF904206D11F4B31461868FFF7CCFC1F
:1072E0000028EFD1DAE90001DDE9022382428B4177
:1072F0000DDA029BC21A039BCDE9000161EB030387
:107300001548FFF7D3FBDAE90023CDE90223DDE9D5
:107310000223C5E90023114BDDE90201D3E9002373
:1073200082428B41BBDB0B4BA56218682946FFF7F5
:10733000FEFA0B4B1868421C48BF01221A60A2E7F4
:10734000CDE90289CEE700BF08A40020E880030051
:107350000D8103008CB5002054810300409900206A
:10736000A89800202DE93348194B044618680D46AB
:10737000FFF711FBA0B1D0E900BCA3457CEB0103F2
:107380000EDA144BD3E90023BBEB02006CEB0301D4
:10739000A21ACDE9000165EB03030F48FFF71AFCC1
:1073A0000E4BD3E90001A04271EB050206DAC3E9F6
:1073B000004500229A6002B0BDE83088A94208BFAB
:1073C000A04202D19A680132F4E70548FFF702FCB7
:1073D0008CB5002038990020BF81030008A400204C
:1073E0002C82030010B5436804465860D0E9003091
:1073F0009847636800225A6010BD0000F8B5054642
:107400001B481C4F0E4606F0C7F81B4806F0C4F890
:107410001A4806F0C1F81A4806F0BEF8194806F0F6
:10742000BBF8194806F0B8F8184806F0B5F818483F
:1074300006F0B2F8174806F0AFF8174806F0ACF8B7
:10744000164806F0A9F8164806F0A6F8154806F002
:10745000A3F80024AC4204DBBDE8F840124806F073
:107460009BB856F82410384606F096F80134F1E738
:107470006C820300AB84030088820300A5820300B2
:10748000E38203000783030053830300A183030007
:10749000B4830300FE8303001384030050840300BD
:1074A000608403009B840300858203002DE9F74F6D
:1074B000964CDFF8FCA205460E464FF0010BAB459B
:1074C00001DB012014E056F82B80914940460BF176
:1074D00001094FEA8B0706F087FC60B94D451BDCBC
:1074E0008C48FFF7E3FA28463146FFF787FF002074
:1074F00003B0BDE8F08F8849404606F075FC0028CF
:10750000ECD08649404606F06FFCF8B90BF1020357
:10751000AB4233DB8248E4E7374482497F68384630
:107520000BF1020906F060FC18B97F4B01221A70BA
:107530004DE07E49384606F057FC10B97A4B18707A
:1075400045E07B483946FFF7B1FA40E079494046CB
:1075500006F04AFC0028D9D07749404606F044FCA2
:107560000028D3D07549404606F03EFC002840F084
:1075700085804D4500F392807148B2E737440BF1A6
:107580000309D7F80480BF68404605F063FA024655
:107590000B46C4E9002313430AD16A49012240463D
:1075A00006F05CFE20B168484146FFF77FFA9AE793
:1075B00066490322384606F051FE50B960686449B6
:1075C0002268A2FB012301FB0033C4E90023CB4660
:1075D00075E760490422384606F040FE10B960683D
:1075E0005D49EDE75D490422384606F037FE18B9DB
:1075F00060684FF47A71E3E759490422384606F08F
:107600002DFE0028E3D057490322384606F026FE17
:1076100048B9D4E900230D2151430AFB0311A2FB11
:107620000A230B44D1E750490422384606F016FEDF
:1076300050B963684D48226840F24631514300FB1F
:107640000311A2FB0023ECE749490322384606F068
:1076500005FE28B963684748226844F69461EDE75F
:1076600045490422384606F0F9FD20B963684348CD
:1076700022684349E2E74348394696E74249404693
:1076800006F0B2FB00283FF474AF4049404606F0D4
:10769000ABFBC0B94D4526DC3D4822E737442149C4
:1076A0007F6838460BF1020906F09EFB08B9394B9A
:1076B0003CE71E49384606F097FB08B9354B3EE7D4
:1076C000354839463FE73549404606F08DFB0028EE
:1076D000E0D03349404606F087FB00283FF477AFFF
:1076E0003048414661E737440BF10209796801915E
:1076F000084605F0A7F90028019903DC2A48FFF79E
:10770000D5F90120294B186061E700BFD898002007
:10771000AF840300B9840300B2840300F98403003A
:1077200006850300D184030020A40020D684030032
:10773000DC840300FC840300FD84030075850300E2
:1077400084850300EC8E0300268503003E8503003C
:1077500000CA9A3B3D85030040420F00428503006A
:10776000478503004C8503005085030000A0B83016
:107770005585030000004F9159850300000029F949
:107780000F2602005E85030078850300C385030091
:10779000D085030021A40020A1850300C685030035
:1077A000208603002B860300F6850300D4A3002067
:1077B000005847F8124B13491A6809688A42BEBF3D
:1077C0001149096841F822001A6801321A604268BA
:1077D000012303709AB18368002B10DB1368002B20
:1077E0000DDB591C116042685168994203D84FF073
:1077F000FF33136070470233816842F823107047EB
:10780000C0A30020C4A30020BCA300202DE9F041A8
:107810003A4D04462B78037700F1380800F16007F1
:1078200000F188061030FFF7C5FF606A80B1E1699A
:107830000122FFF7EDFB236AC36001236062037638
:10784000E36A0BB1626A1361236B0BB1626A536125
:107850006B7884F844304046FFF7ACFFE06C80B1B1
:10786000616C0122FFF7D4FBA36CC3600123E064C9
:107870000376636D0BB1E26C1361A36D0BB1E26C27
:107880005361AB7884F86C303846FFF793FF606F34
:1078900088B1E16E0122FFF7BBFB236FC3600123B8
:1078A00060670376E36F0BB1626F1361D4F88030C9
:1078B0000BB1626F5361EB7884F894303046FFF778
:1078C00079FFD4F89C00B8B1D4F894100122FFF7E6
:1078D0009FFBD4F89830C3600123C4F89C00037662
:1078E000D4F8A43013B1D4F89C201361D4F8A83094
:1078F00013B1D4F89C205361BDE8F08122A400208C
:1079000038B50446C06F236BD4F8C4101B7B007BD2
:10791000D4F80C21097B127B002B14BF55255F2561
:107920000028144B636114BF44205F20002914BF5A
:107930004C215F21002A587014BF52225F2204F1AB
:1079400008001D709970DA70FFF734FFE06980B1AC
:1079500061690122FFF75CFBA369C3600123E06159
:107960000376636A0BB1E2691361A36A0BB1E26942
:10797000536138BDEA980020F8B50F4B1B780446D8
:107980000D460BB10020F8BDFFF79EF8261A65EBF7
:107990000107012E77F10003F4DB42F20F7200239E
:1079A000B242BB4105DA20462946BDE8F840FEF761
:1079B00059BD4FF0FF30E6E720A4002090F83830A2
:1079C000014633B9012380F83830024B1868FEF7BE
:1079D000AEBF70477CB500202DE9F7433A4DDFF884
:1079E000F0802868394FFEF7D6FF38B1D0E90001A2
:1079F000D8E90023994208BF904201D0334C5AE0A5
:107A00002868FEF7B3FF067D04465EB1A16911B197
:107A10003868FEF78CFF2046FFF74EFB2868FEF71C
:107A2000BAFFE2E7D0F81090A3685A68B2422EDCA1
:107A3000012283F83420A068037A4BB1D0E90623F1
:107A4000012A73F1000103DB00210091FFF750FBD5
:107A5000A36822691B6A93420BD053B101221A76A4
:107A6000A3681A6AD3680133D360A368186AFFF762
:107A7000A7F9A368C3F82090B9F1000F02D0002342
:107A800089F81830A368012283F83420BEE71B6808
:107A900053F8260090F838301BB94FF0FF31FFF74C
:107AA0008DFF0136C0E710462E68FEF75FFF0146E6
:107AB0003046FEF73CFF22681046FEF76CFF0028B8
:107AC000F1D103B0BDE8F0838CB5002054B500209F
:107AD00008A40020F8B5D0E9046756EA0703044675
:107AE00022D0FFF7D5FA114A8460D2E900329B19FF
:107AF00047EB0202C0E900320D4B01461868BDE8B1
:107B0000F840FEF714BF23684FF0FF3153F825000B
:107B1000FFF754FF01356368AB42F4DCD4E9066734
:107B200056EA0703DDD1F8BD0025F4E708A40020DC
:107B30008CB500202DE9F04F90F8545087B00646E0
:107B40000F46002D72D007B0BDE8F08FF26A52F8F0
:107B50002520AB0004935AB112784AB1726BD35806
:107B600003934FF00009326B049BD25891452DDBF3
:107B70000135B26A9542E9D3002CE4D0D4E9102350
:107B8000002A73F1000354DBFEF79EFFD4E91023B3
:107B9000894652EA030180460CD02848D0E90010FB
:107BA0005118434100910193DDE90023424573EBF5
:107BB00009033EDAE36C2BB16068984739462046EA
:107BC000FFF7B8FF002384F84830BCE7039B53F865
:107BD000292032B34FF0000A20E0116851F82A80C2
:107BE000B8F1000F18D0A04516D00BF1010BBBF176
:107BF000010F03D1D8F824108E4215D02CB139468C
:107C000020460592FFF7DAFE059A0592394640466E
:107C1000FFF7D4FE059A00240AF1010A51688A454B
:107C2000DBDB09F101099EE74446F5E7AB462C464C
:107C30009FE739462046FFF7D5FBBFE708A40020A1
:107C40002DE9F84F294F2A4E4FF0020B3B6818469A
:107C5000FEF769FEA8B92649D1E900238E682549B7
:107C6000D1E90045A24273EB050789683BDB9442EA
:107C700075EB030303DBB14294BF00200120BDE894
:107C8000F88F1846FEF772FED0E91023002A73F130
:107C90000003824680F838B020DBFEF715FFDAE9F2
:107CA00010230D4652EA0301044609D0D6E900101C
:107CB00012EB010843EB0009A04579EB05030DDA4F
:107CC000DAF84C3033B1DAF8040098470021504616
:107CD000FFF730FF00238AF83830B7E7002150461D
:107CE000FFF780FBF2E70120C9E700BF7CB5002069
:107CF00008A4002040990020F0B589B0FEF770FB81
:107D00002B4B1868FEF747FE2A4B05460FCB6C46F7
:107D100084E80F00A5B9284B1B78002B3DD1274BD9
:107D2000D3E900019B68CDE904010133069308AB58
:107D300013E90F00FEF7F0FF214BD3E9006716E0CF
:107D40001E4BD5E90067D3E900239F4208BF964246
:107D500021D104A8FEF736FD069B0133CDE900676B
:107D6000029394E80F00FFF76DF90028E4D1304644
:107D70003946FFF701FEA8B930463946FFF7F2FA57
:107D8000FFF732F8FFF728FEFEF752FB09B0BDE817
:107D9000F040FFF755BF0023E0E74FF0FF366FF0EC
:107DA0000047E4E7FEF744FB012009B0F0BD00BF47
:107DB0008CB50020D086030021A4002008A4002058
:107DC0004099002038B54FF4CC70FEF771FF184C85
:107DD0001849194D00F11402C2600022C0E9254281
:107DE000C0E93F42C0E9212200F13804C0E93B224A
:107DF0000264C0F8302180F81021C0F8782100F129
:107E0000A002C0E90E10C0F84841012100F5A47499
:107E1000C0F8902100F5C872C0E95421C0E928508B
:107E2000C0E942410422C0F8A810C0F8802138BD42
:107E300052860300596702008166020038B54FF48C
:107E40000470FEF735FF174C1749184D0022C0E9A2
:107E50004342C0E95D4200F58C74C0E92C10C0F8C3
:107E6000C041012100F5E074C0E9604100F1B004B7
:107E7000C0F8084200F50274C0E93F22C0E946504C
:107E8000C0E95922C0E97241C0F8B820C0F82011F9
:107E9000C0F8A82180F88811C0F8F02180F8D0211E
:107EA00038BD00BF52860300C56602000D7802008F
:107EB00038B54FF4E470FEF7FBFE6FF00102C262CA
:107EC000C0F85821024600F5B07442F8784F0546D4
:107ED000012182630022C163026645F8C04FC0F8E9
:107EE0008410C0F8CC10C0F814110F49C0F88050AD
:107EF000C0E958100D49C0F80841C0E96B22C0E93B
:107F00006F1200F58475C0F8504100F5A874C0F8F0
:107F1000A820C0F8C850C0F8F020C0F81041C0F840
:107F20003821C0F8682138BD01790200528603006B
:107F30002DE9F74FFEF7F2F90524A34BDFF8ACA2C9
:107F40001C600421204604F08DFDCAF8000010B921
:107F50009E48FEF73FFE0421204604F083FD9C4B23
:107F600018600028F4D09B4B00271F60FFF7A0FF8C
:107F70004FF000084FF00049C0E968890546FFF757
:107F800021FF6FF0010B94498760C0E91E89C0E9A9
:107F9000388900F13803C0F810B006460B60FFF7CF
:107FA0004DFF87A3D3E9002304468B49C0F834B0C2
:107FB000C0E90223C0F85CB0C0F884B0C0F8ACB02F
:107FC000C4E96623B030854B4860C4E93C89C4E904
:107FD000568904F5C0724FF00108002000211A6094
:107FE000C4E96401C4F8B8712A46C5F8888104213F
:107FF0004046FEF745FE2A46C5F894010421404656
:10800000FEF73EFE2A46C5F8900104214046FEF7E1
:1080100037FE05F1080B0421C5F88C012246C0F893
:1080200000B03766C6F8C8700846C4F8D870C4F8FF
:108030004011FEF725FE0421C4F84C0122460846F3
:10804000FEF71EFE0421C4F8480122460846FEF74A
:1080500017FE04F11003C4F844010360D4F844216E
:10806000019304F13809C2F80490D4F8442104F1D2
:1080700060079760D4F8442104F18803D360D5F8F1
:108080009021C5F818800421C2F8008040462A4695
:108090000093FEF7F5FDD5F894211060D5F89421F2
:1080A000126806F5A8701060D4F84821C4F8208042
:1080B000C4F84880C4F87080C4F898800421C2F8DD
:1080C000008040462246FEF7DBFDD4F84C211060CC
:1080D000D4F848210421C2F8048040462246FEF725
:1080E000CFFDD4F84C215060D4F848210421C2F8C7
:1080F000088040462246FEF7C3FDD4F84C2190602C
:10810000D4F848210421C2F80C8040462246FEF7EC
:10811000B7FDD4F84C21019BD060D4F84C213048F5
:108120001268DFF8CC8005F138011160D4F84C21D9
:10813000526805F180011160D4F84C21926805F174
:10814000C8011160D4F84C21D26805F5887111601E
:10815000009AC6F80CB0C5F80C21DAF800202B63A1
:10816000C5F87C90C5F8C470C2F800B0DAF80020F9
:108170006FF00041C2E90139009BD7601361C5E986
:108180005C011848012200236FF000416FF00049A4
:10819000C5E95E23C6E91423C6E91201C6E92E2308
:1081A000C6E92C89C4E93223C4E94C230E4A6FF096
:1081B0000043C4E93001C4E94A2303B0BDE8F08FAD
:1081C00000E1F50500000000C4A300200E7F0300BD
:1081D000BCA30020C0A3002080B5002088B50020EB
:1081E0000200FFFF0000FFFF0100FFFFB8A3002017
:1081F0000300FFFF00000000F0B5354B354F364D52
:10820000364C374A374900268DB01E60364B0A205F
:108210001E60364B029701950094FEF75DFB344BD0
:108220002F4A18603349314B0094CDE901570A2099
:10823000FEF752FB304B2A4A18602E492B4B009414
:10824000CDE901570A20FEF747FB2C4B2C4F186055
:10825000FFF76EFEFEF738FC2A4BC3E900012A4BFC
:10826000C7E90001C3E9000117A3D3E900230546CC
:108270000C460FF0B9FB14A3D3E90023CDE90401A8
:10828000284621460FF0B0FB04A8069204F022FC19
:10829000069A01461D4805F07FF91D4BD3E9000100
:1082A000002871F100030CDBD7E900321B1841EB09
:1082B0000202CDE908320A960CAB13E90F00FEF773
:1082C0002BFD0DB0F0BD00BF00CA9A3B00000000BE
:1082D000ACA30020C16702004D6602007566020073
:1082E000616602003B660200B0A300206D660200DA
:1082F0008CB500204966020050B5002054B500201E
:1083000008A40020F098002038990020548603002B
:10831000D898002070B5084D084E00243368A34259
:1083200000DC70BD55F8040B18B14FF0FF31FFF7BA
:1083300045FB0134F2E700BF80B50020BC98002067
:1083400070B5074D074E00242B68A34200DC70BDBA
:1083500056F8240008B1FFF7BDFB0134F4E700BF75
:10836000C098002088B5002030B5234B0D46196811
:10837000224B85B004461868FFF798F8002838D0DB
:1083800029462046FFF792F8002832D01C4804F016
:1083900053FB10B11B48FEF701FC1B49022005F0FE
:1083A00025FCFFF729FF194B0293194B0193194B39
:1083B000194A1A4900930A20194BFEF78DFA194BF6
:1083C000194A1860D2E90001184B0022C3E90001E4
:1083D0009A60174B01221A70FFF79CFFFFF7B0FF5E
:1083E000FFF72EFC10B9002005B030BDFFF784FC6C
:1083F000F8E74FF0FF30F7E71CA4002018A4002096
:10840000B16E02008F860300E5CA02007D6602009D
:108410005966020079660200676602003B66020048
:10842000716602007CB500203899002008A4002065
:10843000B4A30020FFF798BF1FB5002200910223CC
:1084400069460430CDE90132039202F041F905B0EA
:108450005DF804FB38B5054D0A2445F001054FF4DD
:108460007A40A847013CFAD138BD00BF908703008D
:1084700037B5394D0E2301A92860ADF80430FFF758
:10848000DBFF0446002858D0344A182100F08BFA4C
:10849000204603B030BDFFF7DDFFF9E7FFF7DAFF55
:1084A00040232868ADF8043001A9FFF7C5FF044652
:1084B0000028F0D0294A5421E8E7FFF7CBFF44F227
:1084C00003032868ADF8043001A9FFF7B5FF04469F
:1084D0000028E3D0214A4A21D8E7FFF7BBFF4FF439
:1084E00000432868ADF8043001A9FFF7A5FF044652
:1084F0000028E2D0194A4021C8E7FFF7ABFF48F255
:1085000001032868ADF8043001A9FFF795FF044680
:108510000028E2D0114A3621B8E7FFF79BFF4FF45D
:1085200080432868ADF8043001A9FFF785FF0446B1
:108530000028E2D0094A2C21A8E7FFF78BFF02238D
:108540002868ADF8043001A9FFF776FF044600283B
:10855000E3D0024A222199E72CA400200E870300D1
:108560002DE9F34107460C4605F00AFE10280646A1
:108570003CD85CBB2023ADF80430204B01A918681F
:10858000FFF75AFF0446C8B9DFF870800025B542EE
:1085900038BF7B5DD8F8000028BF20239A0862F01E
:1085A0007F029B0101A98DF804208DF80530FFF7AB
:1085B00043FF0446F0B1124A8E2101E0104A6D21BA
:1085C00000F0F1F9204602B0BDE8F081012C0FD196
:1085D0003023ADF80430094B01A91868FFF72CFFD0
:1085E00004460028D0D0064A7521E9E70924E9E7C6
:1085F0000B24E7E70135102DC9D1E3E72CA40020B7
:108600000E87030038B5054D044645F001054FF4CB
:108610007A40A847013CFAD138BD00BF508803001A
:1086200070B5054686B00E46144672B601F06AF97A
:1086300000F0CAFF0028FBD13E4804F0ADFF44F231
:1086400001039D4266D00AD8012D12D041F20103E8
:108650009D425DD03146384804F09EFF0CE044F264
:1086600002039D42F6D122886168344804F094FFE9
:1086700002E0334804F090FF01F0B2FB08B901F0CA
:1086800077FB0023ADF814308DF8163005A90123CF
:1086900019208DF8153001F0ADFB05A9182001F067
:1086A000A9FB05A9172001F0A5FB192001F05EFC2C
:1086B000182001F05BFC172001F058FC4FF4FA7011
:1086C000FFF7A0FF192001F023FC182001F020FC87
:1086D000172001F01DFC3220FFF794FF192001F054
:1086E00045FC182001F042FC172001F03FFC4FF43C
:1086F000FA70FFF787FF192001F00AFC182001F03B
:1087000007FC172001F004FCFA20FFF77BFFCCE701
:108710000C48AFE7A1680391084601F069FA2368A5
:1087200001960093024663680399074804F034FFFA
:10873000A2E700BF9687030033880300EE8703009B
:10874000AF870300CC8703000988030007B501F059
:1087500047FB08B901F00CFB0023ADF804308DF89D
:10876000063001A9012319208DF8053001F042FBE4
:1087700001A9182001F03EFB01A9172001F03AFBE6
:10878000192001F0F3FB182001F0F0FB172001F095
:10879000EDFB4FF4FA70FFF735FF192001F0B8FB3D
:1087A000182001F0B5FB172001F0B2FB3220FFF7D3
:1087B00029FF192001F0DAFB182001F0D7FB172060
:1087C00001F0D4FB4FF4FA70FFF71CFF192001F001
:1087D0009FFB182001F09CFB172001F099FBFA2069
:1087E000FFF710FFCCE70369C1688B429DBF826829
:1087F000D21802F1FF3203F1FF3394BF501A581A16
:1088000070472DE9F843D0E902940546A9EB040826
:108810004068904520440F46144404D904F0BEFD3E
:10882000EC60BDE8F8834246A4EB090404F0B6FD11
:108830006868224607EB0801F0E72DE9F843C568B0
:108840000646894617464FF000083469B3687068D9
:10885000A54228BFE418013C621B5C1BBC4228BF38
:108860003C46944228BF144649462844224604F018
:1088700095FDB3682544AB4208BF00253F1BA044CB
:10888000A144F560E1D14046BDE8F88310B5114C34
:10889000114AA2610223C4E90433104BE361A264CC
:1088A0004FF400730E4A0F492362E2640023102242
:1088B000E01DA3626362E362A3656365E36522650D
:1088C00005F0FCFB0849204605F0F8FB2023A371C6
:1088D00010BD00BF90B500205688030060A800209E
:1088E00050A800205F88030063880300F8B5184C87
:1088F000182300FB033503FB00402544C46A012C08
:108900000F4616460FD0022C1AD0F4B92846FFF7AE
:108910006AFF864205D8324639462846FFF771FF7E
:1089200034462046F8BD2846FFF75DFF86423446B0
:1089300028BF0446224639462846FFF762FFF0E783
:108940002846BDE8F840FFF778BF0024E9E700BFFC
:1089500090B5002073B50E4B1B7804460D461646A5
:108960000BB9FFF793FF00230DF107008DF80730D7
:1089700000F0D2FA324629462046FFF7B7FF0446F8
:108980009DF8070000F0F8FA204602B070BD00BF65
:1089900090B5002010B511461C461A460020FFF77E
:1089A000D9FF204610BD00B583B00290009101921E
:1089B00044F2010071466A46FFF732FE03B000BD83
:1089C000094A537891780133DBB2994208BF0023FA
:1089D000117899421FBF03705078182303FB0020C1
:1089E00014BF04300020704760AA002073B505460C
:1089F00000240DF107000E468DF8074000F08CFAB8
:108A00000DF10600FFF7DCFF90B10670094B9DF8F1
:108A1000062045605A709DF8070000F0ADFA24B9B1
:108A2000054B4FF48012C3F80021204602B070BD00
:108A30000424F0E760AA002000E100E0024B4FF4BC
:108A40003C6043F00103184770880300F8B51F49E4
:108A50001F4B0025C1F84051C1F84451C1F848519D
:108A6000C1F84C51C1F80051C1F804511B684BB317
:108A7000D1F8044517490968641A24F07F442F4649
:108A80001A68A24209D8A41A15441A7CDE691AB1E0
:108A9000D3E905201F749047AEB90F4A0F4B1178E8
:108AA0001B788B4205D10133DBB2022B08BF0023B8
:108AB000137012780A4B43F822500A4B4FF480127D
:108AC000C3F80021F8BD3346DAE700BF00100140CB
:108AD00080AB00207CAB002079AB002078AB00207D
:108AE00070AB002000E100E02DE9F04FA14AA2495F
:108AF00013780978A14D994285B03CD00133DBB29F
:108B0000022B08BF002313709D4912789D4B0F68FC
:108B100053F822003B1823F07F4300220B602B68A0
:108B200016461446944613B942B12B6006E0196804
:108B300081420ED902B12B60091A196001272B68F6
:108B4000DFF848A201934FF00008BEB9DFF844B245
:108B500062E0401A0C44D968D3F81CE0C3F800C0A6
:108B600031B13A1922F07F42C3E90121DE611E468C
:108B700073460122D7E700263746E0E73446F66918
:108B80007F4A63681268DFF810C2A068991A21F062
:108B90007F41614500F2A8800144216001222274D6
:108BA0002A680023C4E90133E361002A40F0A5806C
:108BB0002C60CAE79BF802105A1CD2B291428BF883
:108BC000002004BF00228BF80020182202FB03B310
:108BD0002A6819799C68022977D0032900F08180DE
:108BE000012919D1207CB8B9D96861601A69A260DD
:108BF0005A69E2609B69A361634B1B78002B18BF25
:108C000001466160BCE78C4200F091808946C969E9
:108C10000029F8D1002323749BF800309BF8012031
:108C20009A42C7D12B68B8F1000F04D1019A9A4239
:108C300001D1002F43D0002B41D0D3F800A0534DD9
:108C40004F4BD5F804751C68DFF850813E1B98F82F
:108C5000003026F07F4603369BB94FF48033C5F8C9
:108C60004433C5F804334A4B4FF400324FF0010946
:108C7000C3F880211A60C5F80090FFF7DFFE88F87E
:108C80000090B2452CBF5444A41924F07F44C5F889
:108C90004045D5F80435DB1B23F07F43E41B033349
:108CA00024F07F44A3420AD9D5F80435C5F84035ED
:108CB000FFF7C4FE364B4FF40032C3F80021324BAD
:108CC00000221A7005B0BDE8F08F114691469FE76B
:108CD0001174D2690123002AFAD1002B9CD02A609A
:108CE0009AE700231946F6E7D31A23F07F4383421D
:108CF00034BFC31A0023236050E7216813689942E8
:108D000013D8591A1160E26152E7091AD8691A4654
:108D100038B1034618688842F7D3401A18601846DD
:108D200013462160E061DC610FE71346F2E74C4532
:108D300011D1D3692B6073B9DFF844E00120CDE98C
:108D40000212CAF80800CEF800300F4B1870FFF777
:108D500075FEDDE902120B68C969C9F81C1011B172
:108D6000086803440B602B68934218BF4FF001085A
:108D700050E700BF78AB002079AB002080AB00202B
:108D80007CAB002070AB00206CAB002000100140D9
:108D900000E100E060AA0020FEFF7F006DAB002034
:108DA000F8B5194E194D1A4F4FF40033C6F88030FC
:108DB00001244FF48033C5F84833C5F808336C609C
:108DC000FFF73CFEAC6000243C60FFF737FE114B20
:108DD0001C70114B0B221C809A70104B1C60104BA6
:108DE0001C70104B4FF480121C70E023C6F88021D9
:108DF00086F814333260C5F8084586F81133D5F883
:108E000004353B602046F8BD00E100E00010014061
:108E10007CAB00206DAB002060AA002080AB00205E
:108E200078AB002079AB0020074B9B784BB132B177
:108E300028B10368187C20B959745A61704707201B
:108E400070470820704700BF60AA00202DE9F74353
:108E5000DFF8848098F8023005460E461746ABB31B
:108E6000A0B3042930D9436983B3437C0024012B88
:108E70000DF107000CBF8946A1468DF8074000F0B0
:108E80004BF80DF10600FFF79BFDD8B101230370ED
:108E90000F4B4560D3F80435C0E90497C0E90236AA
:108EA0009DF8063088F801309DF8070000F064F85E
:108EB00024B9084B4FF48012C3F80021204603B0B8
:108EC000BDE8F0830424EFE70724F7E70824F5E77B
:108ED0000010014000E100E060AA0020064A9278FC
:108EE0003AB130B1426922B1002202740221FFF787
:108EF0007DBD0820704700BF60AA0020EFF3058306
:108F0000C3F308032BB9EFF31480C04300F0010052
:108F1000704701207047000070B50446FFF7EEFF70
:108F2000012803D01049432003F052F9EFF31086D3
:108F300072B60E4A9068012398B993600C4B0D4DA0
:108F4000D3F8801029401160C3F88050D3F8841002
:108F500051604FF0FF32C3F88420207006B962B62A
:108F600070BD2370FAE700BF7688030008B60020C2
:108F700000E100E0FC06FFBD10B50446FFF7BEFFB0
:108F8000012803D00949512003F022F9084B9A68BF
:108F90005AB154B9EFF3108172B6064A18681060DE
:108FA000586850609C6001B962B610BD76880300B5
:108FB00008B6002000E100E0024B1B680021986821
:108FC00004F0CEBC609900201EF0040F1CBFEFF32C
:108FD00009800AE0EFF308800549064A884201D873
:108FE000904202D88D464FF00000034B1847000016
:108FF0000000012000E00020FD8F02002DE9F34772
:10900000054600F07FFC00F0DFFA0028FBD12F4C72
:109010002F48304B241AE40824049F6A44F00104CA
:10902000002D4ED0AA692C49204600F03DFCEB688B
:109030000193AB68294900932046D5E9002300F04D
:1090400052FCEB6900932649D5E90423204600F041
:109050003EFC204BDB6A980703D52249204600F0EE
:109060001FFCDFF89490DFF894A000264FF0010871
:1090700008FA06F33B4206D059F826201AB15146A9
:10908000204600F011FC01361A2EF1D1390605D523
:10909000104B15495A6B204600F006FC3A0405D5E2
:1090A0000C4B12499A6B204600F0FEFB104B1B68DC
:1090B000DB0700D500BE2846FFF748FB02B0BDE83D
:1090C000F0870C49204600F0EBFBC2E754A80300F0
:1090D000ECA7030000ED00E00A8903001F890300EC
:1090E00054890300AF890300FE8903001E8A030030
:1090F000F0ED00E07C890300F88E0300F3890300A3
:1091000010B5034653E8000F0A4643E8002494F0E4
:10911000000FF7D110BD10B5034653E8002F42EA07
:10912000010043E8000494F0000FF6D110BD10B523
:10913000034653E8000F00EA010243E8002494F0DC
:10914000000FF6D110BD10B5034653E8002F02EB17
:10915000010043E8000494F0000FF6D110BD10B5F3
:10916000034653E8002FA2EB010043E8000494F00B
:10917000000FF6D110BD0121FFF7CDBF0021FFF791
:10918000D6BF000037B5044620B914494FF4927099
:1091900003F01EF800250DF107008DF80750FFF7CA
:1091A000BBFE2268616813688B4210D9591E11609A
:1091B00013F8015C228AE36802FB05352268A36884
:1091C00011685B1A1179DBB2994238BF13719DF8AF
:1091D0000700FFF7D1FE284603B030BD608F0300C3
:1091E00037B50C46054620B9104940F2471002F049
:1091F000EFFF24B90D494FF4A47002F0E9FF0023FA
:109200000DF107008DF80730FFF786FE2A68136816
:10921000591C1160E968641A298AB4FBF1F41C70C6
:109220009DF80700FFF7A8FE03B030BD608F030074
:1092300038B5074C051E04F1080318BF1C46236807
:109240002BB11A6822605B6828469847F7E738BD5B
:109250008CAB002020B9054B01225A70FFF7E8BF04
:10926000012802D1014A9070F8E7704784AB0020D2
:1092700020B9034B01225A70FFF7DABF704700BFD5
:1092800084AB002038B50B4C237883B90A4863605F
:10929000A3602361E36000F0B5FC054602F0C6FC64
:1092A00008B900F0C3FC01232370284638BD85258A
:1092B000FBE700BF84AB00205592020013B5164CAB
:1092C000237823B915494FF4857002F081FFE368D4
:1092D00023B9124940F20B1002F07AFF00230DF17E
:1092E00007008DF80730FFF717FEE368013BE360E6
:1092F000E36853B902F09AFC18B10849792002F0EA
:1093000067FF00F0B1FC0023A3709DF80700FFF792
:1093100033FE02B010BD00BF84AB0020EF8F03000E
:10932000012813B508D003281CD018B9144B01220A
:10933000C3F8802002B010BD124C00230DF10700CD
:109340008DF80730FFF7E8FD23780BB9FFF79AFF98
:10935000E3689DF807000133E3600123A370FFF782
:109360000BFEE7E7074B1B7823B9074940F245207E
:1093700002F02EFF00F05AFCFFF7A0FFDAE700BF73
:1093800000E100E084AB0020EF8F03007FB503789D
:109390008DF804304368029383688DF80C30C368FD
:1093A00004930369064A8DF81430064B01A853F85C
:1093B000213052F82110984707B05DF804FB00BF38
:1093C00098AB0020A4AB0020F0B50546174615F871
:1093D00004CB124A42F82C70114A42F82C30114B3F
:1093E0000C460FCB85B06E4686E80F0023680093CD
:1093F00023798DF8053063798DF80630A3680293E0
:10940000002FA389084AADF80C3008BF3A466346DE
:109410003146284601F04EF805B0F0BDA4AB00205F
:1094200098AB0020849003008D930200037813F022
:10943000040216D003F00303012B03D0022B09D042
:10944000012070470A6800880232C0F3831002448A
:109450000A60F5E70B684288023303EB92130B6056
:10946000EEE71046704700002DE9F04F89B0002369
:109470000446861C0DF10F000F4615468DF80F307F
:10948000FFF74AFD494801683960D0E901321344C9
:1094900001335B1A824600F21C4700F5836900F233
:1094A0001448B3421CD30020002D7BD004F00F03DE
:1094B0009B0143F0050363F30F00DAF80020DAF8AC
:1094C00008301340033316444AF823009DF80F0078
:1094D000CAF80060FFF750FD012009B0BDE8F08F29
:1094E00001213846FFF72FFE4846FFF744FE40466D
:1094F000FFF741FEDAF80400DAF808B0049000EA59
:109500000B0003300AEB800004A9FFF78FFF049BD8
:109510000246F8B90BEA03010AEB810103F1020CE0
:10952000C8680590013303EA0B0B0AEB8B0B00F0C4
:1095300003000128DBF80C10CDF810C02AD0022857
:109540000BD01B4901924FF4BF7002F041FE019A0B
:1095500093460CE00BEA0300D3E7BDF81630C3F3E3
:10956000891303334FEA114B0CEB930304934046EA
:10957000FFF704FE10B1049BCAF804305946384680
:10958000FFF7E1FDDAE901231344DAF800200133A3
:109590009B1A86E7BDF81430C3F383134FEA114BCF
:1095A0006344E3E7A40544F0060086E780AC0020AE
:1095B000A1900300034BD3E90030C31A584258412D
:1095C000704700BF80AC00202DE9F04387B0FFF763
:1095D000F1FF0646002840F0F9807D4DC5F81804DB
:1095E000BFF34F8F6B68AC6802932340033305EBE6
:1095F000830002A9FFF71AFF029B18B1D5F81824BF
:10960000002A5FD004EA0302991C013305EB8202B1
:10961000234005EB8303D268DB68049302F0030365
:10962000022B0392029160D1BDF80E306948C3F35A
:109630008917502FB84628BF4FF0500868F38F1392
:1096400008F10801ADF80E3000F0DCF906460028FC
:1096500000F0A78000F005FA0023082203A9304695
:1096600000F012FA029924EA01020132B8EB820FEB
:109670004FEA820332D95FFA88F85BB32140DCB24B
:10968000A8EB040803315FFA88F9A046524C05EBB9
:10969000810108234246304600F0F6F934B108F162
:1096A00008034A462146304600F0EEF9029B033794
:1096B00003EB97070297D5F81834002B49D1D5F85A
:1096C000104459E02A689A428FD86A60304607B041
:1096D000BDE8F08340491C469946DAE70C40E11C9E
:1096E0000823424605EB8101DDE7012B59D1BDF886
:1096F0000C303848C3F38311062928BF062161F3D3
:10970000891302318900ADF80C3000F07BF9064670
:10971000002846D000F0A5F90023082203A930460E
:1097200000F0B2F90027BDF80C20C2F38312BB0091
:10973000974203F10803BED202994A1C214003312B
:10974000029205EB81010422304600F09DF90137B9
:10975000E9E7304600F089F9FFF72CFF80F00100BF
:10976000C6B2B3E7E3685B7923B1236831461B686F
:1097700020469847E3681C68002CF3D1304600F07F
:1097800074F90DF107008DF80740FFF7C5FBD5F818
:1097900018340BB9029B6B609DF80700FFF7ECFBD8
:1097A000DAE7D5F8104454B90C4B0D480D49C01AEE
:1097B000C008000440F0020000F072F8CCE7236813
:1097C00020469B689847E3681C68ECE700267DE725
:1097D00080AC002084A803008CAC0020ECA7030020
:1097E00044A80300379103002DE9F74F274D0446A5
:1097F0000F46914601A901221846D5F808A09846BF
:10980000FFF732FE78B3019E0023B01C434503EB03
:10981000000132D11E480021FFF772FC80F3100BCB
:109820001C4B1D4A4FEA14499B1AB9EBD30F04D3C2
:109830001A4940F2A31002F0CBFC731C03EA0A039E
:10984000E40005EB830304F0380449EA0B4006EA20
:109850000A0644F00104D860033644EA881343EA58
:10986000872345F8263095F820341BB1FFF7ACFE6E
:109870000028FBD103B0BDE8F08F0AEA010105EB37
:10988000810159F82320CA600133BFE780AC002072
:109890009CB0002084A80300ECA70300A190030063
:1098A00000231A46FFF7A0BF07B50123019201AAC2
:1098B000FFF79AFF03B05DF804FB07B5CDE900237D
:1098C00002236A46FFF790FF03B05DF804FB1FB563
:1098D000CDE90123069B039301AA0323FFF784FF2D
:1098E00005B05DF804FB1FB5CDE90023069B02938C
:1098F000079B03936A460423FFF776FF05B05DF8E4
:1099000004FB000038B5094A0123D2F8104482F85C
:1099100020341D4604B938BDE3685D7123682046D4
:109920005B689847E3681C68F4E700BF80AC0020E0
:109930002DE9F74F99469DF83030009388469346BD
:10994000064618B92349B62002F042FCF188727924
:109950004A43043A4A4505D81E490192C42002F000
:1099600037FC019ADBF80070B6F806A007EB090196
:10997000914209F1040488BFA2EB0907B4FBFAF590
:10998000CBF800700AFB154445B9AAEB040BBB45A4
:1099900028BFBB462FB903B0BDE8F08F3668013D44
:1099A000F2E7009B043408EB050034445A466BB1DF
:1099B0002146A7EB0B0703F0F1FCBA455D4436687E
:1099C000D3464FF0000428BFBB46E3E701462046DC
:1099D000EFE700BF4C910300F8B546790146721ECF
:1099E0000546002393422D6803D30024A64202D8E3
:1099F000F8BD0133F6E70F682846FFF7F1FB0134A5
:109A00003946F3E72DE9F843CD1C068A0746FFF7F0
:109A1000B9FB043E35440446B5FBF6F5F0B14FF40E
:109A20008073EDB28380C680013D076081464FF0B0
:109A30000008A84512D23846FFF7A4FB064648B1F5
:109A400063790133637108F10108C9F80000076008
:109A50008146EEE72046FFF7BFFF34462046BDE8CB
:109A6000F88301210430FFF76EBB10B501210446D5
:109A70000430FFF774FB10F0FF0F04D12046BDE85F
:109A80001040FFF7A9BF10BD1FB514460392002276
:109A9000009203AAFFF74CFF039BA34203D00349A4
:109AA000F62002F095FB04B010BD00BF4C910300FE
:109AB00041DF7047064B10B500241C70054B1C603D
:109AC000BFF35F8F0449054800F040F8204610BD01
:109AD000ACB00020B0B0002078920300A4B0002009
:109AE00013B500230DF107008DF80730FFF714FAC6
:109AF000F1EE104A24F09F03E1EE103ABFF35F8FBE
:109B0000104B4022C3F884219DF80700FFF734FA78
:109B1000630703D00C497D2002F05AFB02F086F85F
:109B200058B1FFF7C5FF30F0020304D006494FF4E7
:109B3000B07002F04DFB02B010BD20BF40BF20BF8F
:109B4000F9E700BF00E100E0DB91030038B50D4606
:109B5000044618B90849502002F03AFB1DB90649DD
:109B6000512002F035FB25602B6863606A689342E0
:109B700004BF0023636038BD8492030010B504461F
:109B800018B90B49632002F023FB23681BB908496D
:109B9000642002F01DFB636843B1226891680B44A6
:109BA00063605268934204BF0023636010BD00BF2E
:109BB0008492030010B50D49A1F59472914201D829
:109BC00000200FE08C1AE30F03EBE4035B1002EBC1
:109BD000C30452F83330834205D802D204F108029C
:109BE000ECE7606810BD2146E8E700BF2498030059
:109BF00008B5FFF7DFFF024B002808BF184608BD75
:109C0000E696030010B5044618B90649A02002F0F4
:109C1000DFFA054A107918B901211460918010BD4E
:109C20008520FCE724980300B4B0002008B50B4B56
:109C30001B791BB90A49B92002F0CAFA094B1A6804
:109C4000D2075FBFE02283F8002301221A604FF0A1
:109C500080430122C3F8182508BD00BFB4B000201E
:109C60002498030000E100E008B5084B1B791BB9FC
:109C70000749F32002F0ACFA064B01221A604FF0BC
:109C80008042D2F81834DB03FBD408BDB4B0002006
:109C9000249803000C00004007B5154B1A687AB1F0
:109CA00000221A601B680093009B4FF08043012242
:109CB000C3F808230F4B587910B95A711B6898479D
:109CC0000D4B1A6882B100221A601B680193019B38
:109CD0004FF080430222C3F80823064B1B68012083
:109CE00003B05DF804EB184703B05DF804FB00BF58
:109CF00000010040B4B000200401004000F18040A9
:109D000000F5C040002382B0036003680193019B0B
:109D100002B07047054B4FF0FF32072843F8202070
:109D200084BFC01880F84820704700BFBCB0002036
:109D300002494FF4F37002F04BBA00BFB69803002B
:109D40001F2838B504460D4601D9FFF7F1FFA000E2
:109D500000F1A040D0F8003723F44033C0F80037BA
:109D6000D0F8003743EA0543C0F8003738BD00009B
:109D700010B5174C94F8583043BB04F13003202140
:109D8000FF22013911F0FF0103F8012BF9D1C8B20C
:109D9000FFF7C0FF01310C29F9D1042200210D4841
:109DA00003F096FB0C4BE02283F8062340221A6056
:109DB0004FF4BE70FFF7A2FF084B4FF00042C3F80C
:109DC0000423012384F85830002010BD0820FCE74C
:109DD000BCB0002010B1002000E100E000600040B5
:109DE000034B93F85800003818BF0120704700BF9C
:109DF000BCB000201F2870B504460D4604D9414967
:109E00004FF4987002F0E4F93F4E96F85830012B69
:109E100004D03C4940F2311002F0DAF925B9394951
:109E20004FF4997002F0D4F9331993F930200132CC
:109E300066D1AA78002A55D0334B002253F8041B70
:109E400001314AD1331983F83020002346F82230FB
:109E5000920002F1804202F5C0422B78D2F8100540
:109E6000697820F498101B04090520F4F85001F4D7
:109E7000801103F44033C2F810050B432102D2F8DD
:109E8000100501F4F8510B430343C2F810356B7809
:109E9000012B4FF0010529D11F2C01D9FFF748FFF5
:109EA0004FF0A043A540C3F808551F2C01D9FFF778
:109EB0003FFF04F5E0724FF0A043032143F8221066
:109EC00024FA01F3114A0120D15C04F0070400FADE
:109ED00004F40C43D454002003E00132082AADD12D
:109EE000042070BDFE2283F83020D0E71F2C01D95A
:109EF000FFF71EFF4FF0A043A540C3F80C55D4E771
:109F00000820EEE738990300BCB0002010B1002013
:109F10001F2838B5044604D912494FF4BE7002F028
:109F200057F9114D2A1992F93020013204D10D4907
:109F300040F27D1002F04CF92B1993F83030072BCA
:109F400004D808494FF4BF7002F042F91F2C01D920
:109F5000FFF7EEFE01204FF0A04300FA04F4C3F82F
:109F6000084538BD38990300BCB000201F2838B51B
:109F7000044604D912494FF4C37002F029F9114D77
:109F80002A1992F93020013204D10D4940F287108C
:109F900002F01EF92B1993F83030072B04D808492A
:109FA0004FF4C47002F014F91F2C01D9FFF7C0FE62
:109FB00001204FF0A04300FA04F4C3F80C4538BD6B
:109FC00038990300BCB000202DE9F04F87B0002481
:109FD0005F4D03944FF48072012102F1804303F539
:109FE000C04390B21B68012B06D1D5F804330B4255
:109FF00002D0FFF783FE0C430432B2F5907F4FEAA4
:10A000004101EAD1534B1B68012B0AD14FF4BE70BA
:10A01000FFF774FE4FF0A04344F00044D3F810352E
:10A02000039314F0FF0F1AD04B4F00250126344242
:10A0300010D0AB0003F1804303F5C043D3F8100503
:10A04000D3F8101557F8253023B1C1F30141C0F3FF
:10A05000042098470135082D4FEA4606E7D1002C29
:10A060006EDA00214FF0FF33CDE904133A4FDFF8E9
:10A07000EC800026354618F9013B5A1C55D0C3F335
:10A08000C20201215FFA83FB03F03F0903F00703DB
:10A0900001FA03F406AB991811F8043C234244D0AA
:10A0A00007EB09034FEA9B1B93F9303057F823A0C5
:10A0B000BAF1000F0BD1BBF1030F36D10DF1100E29
:10A0C0001EF802C04CEA040C0EF802C002E0BBF11C
:10A0D000030FF3D0B9F11F0F03D90191FFF728FE49
:10A0E000019911F80C1C09F5E0724FF0A0432142D0
:10A0F00053F82220C2F3014206D0022A15D1BBF147
:10A10000030F0CD1594605E0032A0ED1BBF1030F12
:10A1100005D102214846FFF713FE0135EDB2BAF131
:10A12000000F02D059464846D0470136042EA2D12E
:10A1300035B14FF0A043039AD3F81035934202D1C2
:10A1400007B0BDE8F08F0393049B05938FE700BF32
:10A15000006000407C610040BCB000200CB10020D9
:10A1600010B5054C22681AB90449512002F030F8A4
:10A170002368BDE81040184718B10020D0990300AB
:10A1800037B50D4630B90F49772002F021F800208D
:10A1900003B030BD0C4B9842F9D100230DF10700FC
:10A1A0008DF80730FEF7B8FE084B1C7914B9012270
:10A1B0001D601A719DF80700FEF7DEFE002CE6D048
:10A1C0001120E5E7D09903000020004018B10020DD
:10A1D0000023435082B043580193019B02B0704763
:10A1E00070B5D0F8103105460C4653B14FF4887164
:10A1F000FFF7EEFF63795A0703D523680BB10120FF
:10A200009847D5F814315BB14FF48A712846FFF7AF
:10A21000DFFF63791B0703D523680BB10220984742
:10A22000D5F81C315BB128464FF48E71FFF7D0FF93
:10A23000607910F0100002D1236803B19847D5F877
:10A24000043163B14FF482712846FFF7C1FF012347
:10A25000237123681BB1BDE870400320184770BD0F
:10A2600001490248FFF7BCBF20B1002000C00140F7
:10A2700001490248FFF7B4BF28B100200010024096
:10A2800001490248FFF7ACBF30B100200020024076
:10A2900000F1804000F5E040002382B003600368D5
:10A2A0000193019B02B07047F0B5504B504C1B68B6
:10A2B00085B0002B3DD04FF4827094F82E20FFF72C
:10A2C000E7FF2AB394F82F3013BB4A4B1B68002BCF
:10A2D00033D04FF48070FFF7DBFF638B94F82D10C1
:10A2E0008B424FD922895B1A9BB292B26383D31AF5
:10A2F000626802EB4303404AC2F82C36C2F83016BB
:10A300004FF48270FFF7C4FF3C4B01221A6014E047
:10A31000636802932389ADF80C30E36800218DF85F
:10A32000041023BB2374236801A89847002384F8F2
:10A330002F3094F82E30002BC7D1314B1B685BB106
:10A340004FF48870FFF7A4FF0023237402238DF8D5
:10A35000043001A8236898472A4B1B68EBB14FF4DF
:10A360008A70FFF795FF0023237405B0F0BD208BA2
:10A37000608363602081E160002AD4D11E4B0122FA
:10A380001A60D0E7BCD1E368012284F82F2013B112
:10A3900000226283AFE76383B2E766694FF000474C
:10A3A0000125002EE1D0B6FA86F227FA02F34632F2
:10A3B000920026EA030602F1804303F5E0431B689E
:10A3C000002BEED01046FFF763FFA2F58C72D30886
:10A3D00082F00402C2F380028DF808308DF8045038
:10A3E00023688DF8092001A89847DAE70471004036
:10A3F00038B100200071004000700040047000403F
:10A40000107100401471004002494FF4F37001F0E4
:10A41000DFBE00BFB69803001F2810B5044601D95F
:10A42000FFF7F2FF01204FF0A04300FA04F4C3F855
:10A430000C4510BD1F2810B5044601D9FFF7E4FFF5
:10A4400001204FF0A04300FA04F4C3F8084510BD02
:10A4500013B54FF04023D3F818310BB3114B124C06
:10A4600000221A601B680193019B236823B90F49DE
:10A470004FF4277001F0ACFEE07FFF2803D0A37FEC
:10A480005BB1FFF7C9FF002363772372D4E9003182
:10A49000074802B0BDE810401847FFF7CBFFF2E7CE
:10A4A00002B010BD1841004068B100206C9A030052
:10A4B00070B100202DE9F74F8146CDE900230C460D
:10A4C00019B97D49AD2001F083FE99F804607B4FF6
:10A4D000242303FB06FB07EB0B0A9AF81C10002948
:10A4E00040F0E380D9F8005075492846FFF748FE50
:10A4F0008046002840F0DC80009B47F80B30019B31
:10A50000CAF80430237B2078012B00F2BC80FFF7CF
:10A5100083FF94F800A0BAF11F0F01D9FFF774FF71
:10A520000AF5E07A4FF0A043012243F82A2094F87C
:10A5300001A0BAF1FF0F00F0A9805046FFF76CFFB1
:10A54000BAF11F0FD34601D9FFF75EFF0AF5E07A93
:10A550004FF0A043032243F82A20A378FF2B00F0FA
:10A5600098801F2B9A4603D90093FFF74DFF009B5D
:10A5700003F5E0734FF0A042042142F82310242396
:10A5800003FB0673A27883F82020E078D877FF28B1
:10A5900017D02379002B7FD0FFF73EFFE3781F2BE6
:10A5A00003D90093FFF730FF009B03F5E0734FF0F2
:10A5B000A042032142F82310242303FB06732279CF
:10A5C0009A772378C5F80835C5F80CB5C5F810A5F5
:10A5D000A368C5F82435637B227B003B18BF0123A9
:10A5E000022A5CD0032A5DD0012A01D143F0020384
:10A5F000C5F85435A379C5F8C03524237343FB58F7
:10A6000013B14022C5F804230722C5F800257BB307
:10A610006479D9F80050A31E012B4FEA153A45F38F
:10A62000073506D9631F022B03D926496B2001F099
:10A63000CFFD002DACBF05F16043234B4FEA44141E
:10A64000B8BF0AF00F0AE4B2AABF03F5614303F8EA
:10A650000A4083F80043D9F80030012143F3073260
:10A66000C3F3043301FA03F35209184941F82230C5
:10A67000242303FB067600237377012333774046B8
:10A6800003B0BDE8F08FFFF7D5FE42E74FF0FF3B88
:10A6900063E74FF0FF3A72E7FFF7CCFE7EE743F047
:10A6A0000403A5E743F00603A2E74FF00808E6E736
:10A6B0004FF01108E3E700BF6C9A030068B1002077
:10A6C00051A40200F79A030014ED00E000E100E05D
:10A6D0002DE9F341584F0679242303FB0673804686
:10A6E0001B7F0D46144623B9544940F2322001F035
:10A6F0006FFD2B6833B96B6823B1504940F23320AA
:10A7000001F066FDAB6833B9EB6823B14B494FF4F8
:10A710000D7001F05DFD98F804302BB9EB68FF2B4C
:10A7200002D86B68FF2B04D9444940F2352001F070
:10A730004FFD24237343FA18517F002979D1FB5828
:10A7400023B114F0140F04BF0123537795E80F00D1
:10A750004FF0240C0CFB067C0CF10C0E8EE80F0065
:10A760009CF81F00FF2804D09CF81E30C3B1FFF7EF
:10A7700061FE2A6822B102F06043B3F1005F06D1A6
:10A78000AB6883B103F06043B3F1005F0BD02423C7
:10A7900003FB067600237377102002B0BDE8F0813A
:10A7A000FFF73AFEE5E7D8F800306968C3F84425BA
:10A7B000C3F84815D5E90212C3F83415C3F8382593
:10A7C0000022C3F81821D3F818210192019A14F03D
:10A7D000010218BF0122C3F8502514F0020218BF6D
:10A7E0000122C3F8402522075CBF01221A612422FE
:10A7F0007243BA5892B9D3F81821002AFBD0242307
:10A8000003FB0676F07FFF2803D0B47F1CB1FFF76F
:10A8100003FE0020C1E7FFF70DFEFAE714F0040085
:10A820004FF0400202D0C3F80823F2E7C3F8042334
:10A83000B3E71120B1E700BF68B100206C9A0300B4
:10A840002DE9F347002406460F46904600F5A07513
:10A850004FF48039A246A00000F5A07398B22B688F
:10A860006BB1D6F8043309FA04F21A4207D0C5F8DE
:10A8700000A02B680193019BD7E900319847013470
:10A88000A04505F10405E6D102B0BDE8F08700005F
:10A890002DE9F347554B0779164602689A4204465C
:10A8A0000D4603D15249482001F092FC1DB9504990
:10A8B0004A2001F08DFC1EB94D494B2001F088FC67
:10A8C0004C4A0C2303FB072390461B7A002B40F0D5
:10A8D0008A802368454A93420FD002F58052934202
:10A8E0000BD002F58052934207D002F5803293429A
:10A8F00003D002F58052934202D1AB78032B03D9E7
:10A900003B495F2001F064FC0C237B4308EB03020E
:10A9100048F8036000216B6853600E466079226836
:10A92000CBB2984256D8EE78B31E012B4FEA123ABA
:10A9300042F3073906D9731F022B03D92E496B2026
:10A9400001F046FCB9F1000FACBF09F160432B4B9D
:10A950002B484FEA4616B8BF0AF00F0AF6B2AABF54
:10A9600003F5614303F80A6083F80063236843F347
:10A97000073149090122C3F3043302FA03F340F813
:10A98000213020686B78D0F8041503F0030321F020
:10A9900003010B43C0F804352068AB78D0F80815E4
:10A9A00003F0030321F003010B43C0F808352068CE
:10A9B0002B78D0F8101503F00F0321F00F010B4393
:10A9C000C0F810350C2303FB078700203A7202B051
:10A9D000BDE8F0879B0003F5A0730131D650D35832
:10A9E0000193019B9AE70820F1E700BF0080004037
:10A9F0007F9B03008CB10020F79A030014ED00E068
:10AA000000E100E038B50B4D02790C2101FB025248
:10AA10000446127A012A03D007498F2001F0D8FB9F
:10AA2000236801221A6023790C2202FB03530222BD
:10AA30001A7238BD8CB100207F9B030038B5104AD4
:10AA400003790C460C2101FB032305461B7A1BB935
:10AA50000C49C22001F0BCFB6B79A34203D8094921
:10AA6000C32001F0B5FB04F110039B002A68DBB2A0
:10AA70000121D15004F5A8742B6853F8240038BD87
:10AA80008CB100207F9B030073B54FF480340568C0
:10AA90008C408BB101F150039B000026EE50EB5827
:10AAA0000193019B0368C3F80443036801F5A8718F
:10AAB00043F8212002B070BDC5F80843F5E7000057
:10AAC00038B50F4A03790D460C2101FB03230446D8
:10AAD0001B7A23B90B4940F2071001F079FB637927
:10AAE000AB4204D807494FF4847001F071FB23682E
:10AAF0004FF4803101FA05F5C3F8085338BD00BFA3
:10AB00008CB100207F9B0300024903480422FFF719
:10AB100097BE00BF8CB1002000800040024903486E
:10AB20000422FFF78DBE00BF98B1002000900040C6
:10AB3000024903480622FFF783BE00BFA4B10020EC
:10AB400000A001400023435082B043580193019B71
:10AB500002B07047F0B54F4C236887B023B94E4917
:10AB600040F2452001F034FB4C48D0F82431054632
:10AB70009BB14FF49271FFF7E5FFD0F8043163B950
:10AB8000A368C0F808330223A360A368C0F80433A5
:10AB900001230362436107B0F0BDD5F80431002BF7
:10ABA00049D03F4F3D484FF48271FFF7CBFF0FCFA5
:10ABB00001AE0FC63B68336094F82E307BB1237B27
:10ABC000012B0CBFD5F83C25D5F84C250292022B61
:10ABD000324B0CBFD3F83C35D3F84C3503932F4898
:10ABE0004FF4B071FFF7AEFF2C484FF4AE71FFF792
:10ABF000A9FF94F8303013B194F82E303BB1274BB5
:10AC00000022C3F80022A260264AC3F80823234A80
:10AC1000D2F8C434C2F8C4349A0736D501238DF86B
:10AC2000003094F830300BB984F82F30D4E900317B
:10AC300068469847AFE719484FF4A471FFF782FFC1
:10AC4000237B83B9164F0FCF01AE0FC63B6833602D
:10AC500094F83030002BDAD1C5F80032A360114BE4
:10AC6000C5F80833D3E74FF40073C5F8003240F25B
:10AC70000223A36003F1CE73C5F80833A368C5F8B7
:10AC800004330123AB602B6285E713F0040318BF84
:10AC90000223C4E7B0B10020119C03000030004043
:10ACA000BCB1002002029C016DDF704779DF704764
:10ACB0007DDF704764DF70472DE9F04F85B00025D8
:10ACC0000E9CBDF83CB0B4F800A001910746904638
:10ACD0001E46A9463A884A450DDC45B12388013B0A
:10ACE000A3EB0A039BB2FF2B3AD806F80A300020E8
:10ACF00005B0BDE8F08F7A6852F829000390002271
:10AD00000DF10B0103A8FFF7D5FF0028F0D19DF846
:10AD10000B20424521D12288002D14BF00200220A3
:10AD200002EB0801014459451ADC3DB9013292B2E7
:10AD3000019B2280B35422880132228022880DF1A7
:10AD40000B01324403A8FFF7B5FF0028D0D12188BA
:10AD50009DF80B200A442280012509F10109B9E779
:10AD60000C20C5E72DE9F341089FBDF82480154666
:10AD7000CDE90078022204461E46FFF79DFF50B938
:10AD80003346102229462046CDE9087802B0BDE8B6
:10AD9000F041FFF791BF02B0BDE8F0812DE9F04F1F
:10ADA00000231788138090F82D3085B006460D4695
:10ADB000144653B3082F01D80C2027E102A8FFF74F
:10ADC00073FF002840F0228123880822EA54238858
:10ADD00001339BB21B222380EA542088013080B2C9
:10ADE000208006220DF10901284402F0D7FA2388B9
:10ADF0009DF8082006339BB212F0FE0218BF012214
:10AE00002380EA54238801332380B378FBB123885D
:10AE10000433BB42D0D802A8FFF748FF002840F017
:10AE2000F58023880322EA54238801339BB2192238
:10AE30002380EA542388BDF8082001339BB2E91827
:10AE40002380EA54120A4A70238802332380F2785E
:10AE50009AB12388D91CB942AED80221E95423887B
:10AE600001339BB201212380E95423880B449BB218
:10AE70002380EA5423880B4423807268AAB1238874
:10AE8000D91CB94298D8022192F90020E9542388AC
:10AE900001339BB20A212380E954238801339BB2FA
:10AEA0002380EA542388013323803389002B40F028
:10AEB000A180338A5BB1CDE900472B4607220321ED
:10AEC00006F11000FFF74EFF002840F09F80338B03
:10AED0005BB1CDE900472B461522142106F118007D
:10AEE000FFF740FF002840F09180326A002A40F0CE
:10AEF0009080D6F82480B8F1000F30D0B8F8043034
:10AF00002188981C8A1C0244BA423FF655AFFE289D
:10AF10003FF652AF03336B54238801339BB2FF22B9
:10AF20002380EA54238801339BB22380B8F80020A1
:10AF3000EA54E918120A4A702088023080B2208050
:10AF4000B8F804205AB1D8F8081000296BD028446A
:10AF500002F024FA2388B8F804201344238096F8DA
:10AF60002C30002B40F09A80307800284ED0338867
:10AF7000012B58D0228802F1020CBC453FF61CAFD1
:10AF8000012805D17378023313449F42FFF414AFB4
:10AF9000023FBF1ABFB202A905EB0C00ADF8087062
:10AFA000FFF786FE90BB3178BDF80830022900F02B
:10AFB000BA8072789A4202D3BB4240F2B280012931
:10AFC00040F0B380974293B2C0F0AF80ADF8083044
:10AFD0000821BDF80830FE2B3FF6EEAE2288013383
:10AFE000AB542288013292B22280A95422881344A1
:10AFF00023800BE0CDE900472B460622022106F113
:10B000000800FFF7AFFE00283FF453AF05B0BDE8DE
:10B01000F08FB4F800C00CF10603BB423FF6CCAE93
:10B020001188052901D80720F0E76FF4486E01EB7D
:10B030000E039BB24FF27D3E7345F4D95388052B26
:10B04000F1D96FF44860181880B27045EBD94FF60B
:10B05000FF70814203D0834201D09942E3D8052397
:10B0600005F80C30238801339BB212212380E95468
:10B07000238801339BB223801188E954E818090A18
:10B080004170238802339BB223805288EA54E91826
:10B09000120A4A702388023323802AE7B36A002BFE
:10B0A000C1D04FF000094FF00C0A4FF0160B96F884
:10B0B0002C305FFA89F293427FF656AFB16A0AFBF1
:10B0C00002F201EB0208B8F80430981CFE283FF6A3
:10B0D00073AE208803332B54238801339BB2238023
:10B0E00005F803B0238801339BB223808A5AEA54BF
:10B0F000E918120A4A702088023080B22080B8F81D
:10B1000004205AB1D8F8081000298CD0284402F045
:10B1100045F92388B8F804201344238009F1010974
:10B12000C5E7092155E7BB42FBD9ADF808704FE7E9
:10B1300070B5C0B14AB116880024B44203D30519D2
:10B140006D789D4208D0A14201D800200BE0055D3A
:10B1500001352C44A4B2F0E7A142F6D9A31C138018
:10B16000005D013880B270BD13B513460022ADF802
:10B1700006200DF106020446FFF7DAFF10B1BDF814
:10B180000630E01802B010BD72DF704773DF704701
:10B1900038B5012204460D46B0F83812D0F8340212
:10B1A000FFF7E2FF00B1057004F13C0204F50D71F8
:10B1B00004F15400BDE83840FFF7E6BF80F83010D6
:10B1C0007047F8B504460F46002975D0002873D0A3
:10B1D00091F87A301BB191F89830002B6ED1D7F8E6
:10B1E000A030042B6AD0D7F89C30042B66D04FF0E7
:10B1F000000C84F802C007F178060FCE251D0FC59C
:10B200000FCE0FC596E8070085E8070084F830C028
:10B21000D7F8A4306363D7F8A830A3634FF6FF755F
:10B2200004F50D73C4F84432A4F84852072261466D
:10B2300004F24A2002F04CF923780BB984F85450F8
:10B2400094F82430002B14BFEE231F2304F1550182
:10B25000C4F83412A4F8383204F50E723846FFF7F9
:10B260009DFD40BB94F82430002B14BFEE231F2318
:10B2700004F24311C4F83C12A4F8403204F51072F1
:10B2800007F13C00FFF78AFDA8B9A369A4F848308C
:10B290004FF480730125A4F850306369206401469F
:10B2A00084F83C50636404F13C0204F15400FFF75D
:10B2B0006BFF00B92570F8BD0E20FCE70720FAE708
:10B2C000F8B5077804460D46002F00F0048100F21F
:10B2D0004A26817007220021304602F0F9F8E388FF
:10B2E00013B1A378012B04D0E3794BB1A378022BDF
:10B2F00006D1636BA3B1012284F85122082098473C
:10B30000334604F5147113F8012F12B99942FAD19A
:10B3100017466B1E032B52D8DFE803F0050B0F1204
:10B3200084F85132ECE7A3791BB194F8243003B9C7
:10B330005FB9E3790BB1002F43D1237A002B42D1BF
:10B34000637A002B0CBF00250425636BA570002BCE
:10B350003BD0033D012D38D86279002A35D094F8CE
:10B36000522292BB84F85422012284F853220720EF
:10B37000984704F13C0518220021284602F0A8F85D
:10B38000E36A94F82420581E0121022828BF0B46A6
:10B3900084F83C1084F8513032B1884296BFA36AD9
:10B3A00084F8521084F85230A178002384F8503089
:10B3B00004291BD8DFE801F0770D2235590000255C
:10B3C000C3E70225C1E70325BFE7002384F8533212
:10B3D000CFE7C4E91063C4F844320223012284F8A1
:10B3E0003C30802384F83120A4F84830A378002B27
:10B3F0005CD1636B002B6AD1002067E00223002A36
:10B4000084F8313014BF0723032384F83C302369C8
:10B41000A4F848300023C4F84432E3682664636427
:10B42000E4E763696364A369A4F8483012B10623B2
:10B4300084F83C306379B3B194F852329BB994F8F4
:10B44000543283B1022384F8503004212046FFF7A0
:10B450009FFE0028CAD1052384F8313004F50D730E
:10B46000C4F84432C2E70323F6E7E3696364236A5E
:10B47000A4F8483012B1062384F83C30637983B1D4
:10B4800094F852326BB994F8543253B1022384F8D1
:10B49000503004212046FFF77BFE0028A6D106236A
:10B4A000DAE70423D8E784F831309FE7D4F8441270
:10B4B0002A4604F15400FFF767FE38B994F83010BB
:10B4C00094F85400FFF762FE002892D0F8BD94F87B
:10B4D0003100984790E70820F8E710B50388112B52
:10B4E0000C460AD0262B1FD0102B05D1C37B012B75
:10B4F00002D18388A1F8483210BD002381F852326E
:10B500008288B1F848329A42F6D10B79002BF3D1F8
:10B5100001212046FFF7D4FE0028EDD0A36B002BBD
:10B52000EAD0BDE810401847037A013B012BE3D86D
:10B53000897805230131B1FBF3F303EB8303C91AC7
:10B54000C9B2E6E7704775DF704776DF70477ADF8C
:10B5500070477BDF70470000034B1A8882420CBFA4
:10B5600018460020704700BF00B20020024B9B69C4
:10B5700003B11847704700BFE4B1002073B585B22E
:10B580002846FFF7E9FF044670B1164E027A337B76
:10B590009A420BD200F10A012846FFF7D4FFE8B126
:10B5A000112801D0FFF7E2FF02B070BD0023037243
:10B5B000337C43B13B212846FFF7C7FF30F0080337
:10B5C00001D0FFF7D3FF7369002BEDD000228DF877
:10B5D0000420ADF8065001A89847E5E7237A013327
:10B5E0002372E1E7E4B1002037B50B46497A0F4AF0
:10B5F00071B9D2E901141D7A0246002D18BF214607
:10B600005868FDF723FC08B1FFF7B0FF03B030BD69
:10B61000002119725369002BF8D00122ADF8060001
:10B620008DF8042001A89847F0E700BFE4B100209E
:10B630004B8802889A4213D842889A4210D3808855
:10B640008A8840F2F313984294BF031AC31A9342B4
:10B6500006D800F2F310904234BF0020012070475A
:10B660000020704770B50388122B014659D004D8CA
:10B67000102B1ED0112B44D070BD502BFCD12F4B62
:10B68000C288DB899A42F7D1038A022BF4D18688DB
:10B690003046FFF761FF05460028EDD001F11200AA
:10B6A00000F08AF838BB6868FDF718FC0028E3D082
:10B6B00009E0C37B012BDFD14FF6FF70FFF74CFF92
:10B6C000054620B90420BDE87040FFF74FBF8E88C3
:10B6D0001B4A0680002303721368C0F80A305368BF
:10B6E000C0F80E3010310A30FFF7A2FF134B68721A
:10B6F000DB89002BC0D129463046BDE87040FFF7FA
:10B7000073BF8088FFF728FF04460028B4D0406844
:10B71000FDF7E4FB08B1FFF729FF4FF6FF73238025
:10B72000AAE786883046FFF717FF05460028A3D012
:10B7300008310A30FFF77CFF6872DCE7E4B10020D3
:10B7400014B20020F8B5064648B305460FCD154F94
:10B750003C460FC495E8070084E807003068124CA7
:10B760003C60B0B1FFF7F3FEC0B9326813682360E4
:10B77000536863600D480E4A4FF6FF7303800D4B0C
:10B7800040F8043F0021FDF74FFB002818BF0320BD
:10B7900004E02046FFF7DDFE0028EBD0F8BD0E20C8
:10B7A000FCE700BFE4B1002014B2002000B200208A
:10B7B0007DB502001CB20020007800F00100704747
:10B7C00090DF7047A5DF7047B5DF70477FB5002376
:10B7D000ADF80810ADF80A106A4602A906460393B0
:10B7E0000093ADF80430FFF7EBFF054600B3124BB2
:10B7F000124CE41AE408FEF7FBF9240444F00104B7
:10B8000003460F4932462046FEF757F8BDF80020A0
:10B81000BDF8023052EA030103D00A492046FEF780
:10B820004CF8BDF804201AB107492046FEF73CF851
:10B83000284604B070BD00BFECA703005CA803005D
:10B84000AC9C0300F69C0300359D030080B14FF0D3
:10B85000F7130360FB230371F723C38017230381CE
:10B8600041F6FB3200230161438182811846704713
:10B870000E20704713B5034680880C46B8B91A8865
:10B88000242A00F0968014D8112A71D0232A00F0BF
:10B890009E80102A3BD0A37A4BB1E1880020FFF7AD
:10B8A00091FF002840F099804FF48073638102B0CB
:10B8B00010BD3A2A65D0552AEDD1DB88C988A0721F
:10B8C000172B38BF17238B4228BF0B462381FFF766
:10B8D0007BFF60B1FEF78CF9484B49490246494865
:10B8E0001B1ADB081B0443F00100FDF7DDFFE37AC0
:10B8F000002BD0D12369002BCDD040F677220092C7
:10B900002289ADF80420694620469847C3E70A79A2
:10B910000A73DB7B012B13D0022B14D0E18823891F
:10B920008B4205D20020FFF74DFF70B90123E3726F
:10B93000217B637B8B42AED20020FFF747FFAAE753
:10B940000B88E380EAE74B88FBE7112802D101234B
:10B95000A372EDE7FEF74CF9284B2B490246294824
:10B960001B1ADB081B0443F00100FDF79DFFDFE716
:10B97000F723CB8017230B8141F6FB3348818B8162
:10B9800089E75B89CA88934228BF1346172B0A6947
:10B9900038BF17230B814AB1C97A39B140F67721F4
:10B9A0000091ADF80430694620469047002363813A
:10B9B00071E71A7A0B694A73002B3FF46CAF4DF6AE
:10B9C0007A218DF8050000918DF804209BE7197A03
:10B9D000237B994228BF1946AFE711283FF467AF90
:10B9E000FEF706F9054B0849024606481B1ADB0814
:10B9F0001B0443F00100FDF757FF58E75CA8030064
:10BA0000BC9D0300ECA703008B9D0300B0DF7047D3
:10BA100066DF704710B5002104464088FFF7F8FF45
:10BA2000034608B9237210BD112801D10123F9E79B
:10BA30006368BDE81040184760B159B10378DE2B48
:10BA40000AD00B684360DE2303704FF6FF73438018
:10BA5000002070470E2070470820704728B10378F7
:10BA6000DE2B04D14180002070470E207047082053
:10BA70007047F0B5054685B00C46F1B1E8B10B78DA
:10BA8000DE2B1AD182884B889A4204D10B7A13B1EB
:10BA90000846FFF7BFFF2B88112B32D0512B0ED059
:10BAA000012B0AD12B7A012B07D1A98862889142F8
:10BAB00003D123722046FFF7ADFF05B0F0BDAE887D
:10BAC0006388B342F9D1AF79022FF6D1AD7B2B1F3A
:10BAD000022BF2D800211022684601F0F9FC052D56
