:020000022000DC
:106000000000012011D1020039D10200919102005B
:106010003DD102003FD1020041D10200000000004A
:1060200000000000000000000000000043D102005A
:1060300045D102000000000047D1020049D1020012
:10604000519F02004BD1020019A402000DAE0200C4
:1060500009A702004BD1020081A2020061A5020043
:10606000C1AD0200D5AD02004BD102004BD1020000
:106070004BD102004BD102004BD102004BD10200A8
:106080004BD10200158C02004BD102004BD1020013
:10609000B18C02004BD10200BDC302004BD1020003
:1060A0004BD102004BD10200E9AD02004BD10200FE
:1060B00019A502004BD10200000000000000000002
:1060C0004BD1020029A5020039A502004BD10200E4
:1060D0004BD102004BD102004BD102000000000066
:1060E00000000000000000000000000000000000B0
:1060F00000000000000000000000000000000000A0
:10610000000000000000000000000000000000008F
:10611000000000000000000000000000000000007F
:10612000000000000000000000000000000000006F
:10613000000000000000000000000000000000005F
:10614000000000000000000000000000000000004F
:10615000000000000000000000000000000000003F
:10616000000000000000000000000000000000002F
:10617000000000000000000000000000000000001F
:10618000000000000000000000000000000000000F
:1061900000000000000000000000000000000000FF
:1061A00000000000000000000000000000000000EF
:1061B00000000000000000000000000000000000DF
:1061C00000000000000000000000000000000000CF
:1061D00000000000000000000000000000000000BF
:1061E00000000000000000000000000000000000AF
:1061F000000000000000000000000000000000009F
:106200000348044B834202D0034B03B11847704745
:10621000A8A30020A8A3002000000000054806490C
:106220000B1AD90F01EBA301491002D0034B03B1A4
:1062300018477047A8A30020A8A300200000000072
:1062400010B5064C237843B9FFF7DAFF044B13B1BE
:106250000448AFF300800123237010BDA8A30020E1
:1062600000000000D0B0030008B5044B1BB1044986
:106270000448AFF30080BDE80840CFE7000000000D
:10628000ACA30020D0B00300A3F5803A704700BF54
:10629000154B002B08BF114B9D46FFF7F5FF002162
:1062A0008B460F461148124A121A07F0C3FC0C4BDA
:1062B000002B00D098470B4B002B00D098470020B4
:1062C000002104000D000B4806F068FF07F008F8F5
:1062D0002000290002F092F906F0B6FF0000080045
:1062E000000000000000000000000120A8A3002022
:1062F00070B6002069D20200B0F5A47F03D1054B2F
:1063000001221A707047B0F5A67F02BF024B01222E
:106310001A607047C5A30020D0A30020154B07B515
:1063200000200021C3E90001134B00221A6003F092
:10633000E7FC18B1114A9A2102F019FC104A92E8C0
:1063400003006B4683E803000E4A0F48194604F029
:10635000FBFB18B1094AAB2102F009FC0123002222
:106360000321094804F0ECFC074804F0A7FC03B043
:106370005DF804FBC8A30020D0A30020B88503006B
:10638000F4850300F96202000C86030070B5044630
:10639000B0B10D4D0D482E68012104F0ABFC2D6805
:1063A000AE4203D00948012104F0A4FC4FF47A71F5
:1063B000A0FB012301FB0533C4E90023002070BDCD
:1063C0004FF0FF30FBE700BFD0A300200C86030096
:1063D000024B9868003818BF012070475CB6002057
:1063E00070B5EFF3108672B60D4A0E48946801231B
:1063F000A4B993600C4B0D4DD3F880102940116067
:10640000C3F88050D3F8841051604FF0FF32C3F8C6
:106410008420047006B962B6002070BD0370F9E7ED
:106420005CB60020C4A3002000E100E0FC06FFBD34
:1064300010B5094B9A686AB1084A127852B9EFF35D
:10644000108072B606491C680C605C684C609A60EB
:1064500000B962B6002010BD5CB60020C4A30020C5
:1064600000E100E02DE97343224E00230446684614
:106470000D463370FFF78AFF009B1F4AB4EB0308F9
:10648000019B65EB030940F2E733424573EB0903D7
:106490002CDB4FF47A7200232046294611F0B4FE1B
:1064A00002210446154804F025FCFFF791FF30B99E
:1064B000134B144A14484FF48B7106F04BFEFFF750
:1064C000B7FF012322460D48022104F039FC03F0F6
:1064D0002DFC0A48022104F04FFCFFF781FF3078C1
:1064E00080F00100404202B0BDE870834FF0FF3001
:1064F000F9E700BFC5A3002018FCFFFF0C860300CE
:10650000DB850300FC850300B885030030B500245B
:10651000C1B00546FC22214601A8009407F08AFB81
:1065200045F2AA53062229460DF10300ADF80030CA
:106530008DF8022007F0E4FA02231DF8032001334E
:10654000092B84EA0204F8D10A22694603488DF82F
:10655000094004F0EBFE41B030BD00BFA898002018
:106560002DE9F043044685B008460D4606F0EEFDE1
:106570000646204606F0EAFD8642D9BF27464FF080
:10658000FF362F460126A5421AD1002640F20143CC
:106590000DF1060102220DF10A00ADF80830ADF848
:1065A0000460ADF8067007F0ABFA022201A903A857
:1065B00007F0A6FA02A8FFF7A9FF05B0BDE8F0832F
:1065C000281911F0DFFA8046281B894611F0DAFA03
:1065D00002460B4611F08AF90DA3D3E9002311F00E
:1065E00065FC02460B464046494611F05FFC41EC13
:1065F000100B11F025F951EC100B11F0DDFD002806
:10660000C4D000F50043B3F5803FBED20646BDE7D7
:106610000000000000C05E4010B502F017FF8528A2
:1066200005D020B1194A4FF4CE7102F0A0FA002033
:1066300002F028FF02F098FC852805D020B1134A0B
:106640004FF4D27102F093FA11491248062208233E
:10665000C1E90023104B8B61002207234A750B7799
:1066600004F062FD044630B1084A40F2AB1102F07A
:106670007EFA204610BD0146FFF772FF044600284F
:10668000F7D0024A40F2B111F1E700BF14860300CF
:10669000B0980020A898002000E0D7012DE9F84F1D
:1066A000436A53F821700369054638460C469847FB
:1066B000660882468946012C6A6A4FEA840808D92E
:1066C000D5E903B352F82600984752464B46D847BF
:1066D00048B96B6A43F808703846AB692146984759
:1066E0002046BDE8F88F6B6A53F8262043F808204F
:1066F0006A6AAB6952F80800214698473446760822
:10670000D9E72DE9F04F2DED028B436A03EB8103AE
:1067100093ED008A036983B0044618EE100A0D4613
:10672000984708EE901A80462368B3EB450F4FEA6E
:1067300045060ED8636A18EE102A43F8252018EE95
:10674000100AA369294603B0BDEC028BBDE8F04FE7
:10675000184706F1010B5B4518D9E368616AEA0046
:106760001F4651F83500236901929847019A636AE0
:1067700013448246226958688946904702460B4670
:1067800050464946B847002818BF5E46626A4FEA3D
:106790008509002ECED0D4E903A352F826009847ED
:1067A00002460B46404618EE901AD0470028C1D04A
:1067B000636A53F8262043F80920626AA36952F8F5
:1067C0000900294698473546AEE78B4208BF82420A
:1067D00034BF0120002070470020704780688B681C
:1067E000C31A5842584170470B1A584258417047D3
:1067F000D0E900017047D0E904017047C0687047D4
:10680000006A7047C16070470162704770470000BE
:1068100038B50446D0E902030B4DDB680B4A00EBA8
:1068200000101121284407F005FEA16801EB0110BA
:106830002844C9B201F078FF28B1BDE83840044AC5
:106840004B2102F094B938BDACB50020AD8D0300EA
:10685000218603001FB5114C114806F0BFF92046F0
:1068600006F004FA0F4BCDE902430F4B01930423CA
:106870000121009300231A46084606F01BFA06F091
:10688000A5FAFFF7C9FE30B1084A472104B0BDE8B8
:10689000104002F06CB904B010BD00BF2499002074
:1068A000EC980020089900204AA400206686030086
:1068B00070B50446D9B1D0E90006361AB1EBA60F7F
:1068C00005D20B4B0B4A9F210B4806F043FC8D0071
:1068D000294607F027FA18B9084B064AA121F3E721
:1068E000064400232060284423616660A06070BDD8
:1068F000AC860300508F0300C1860300D5860300D9
:1069000030B5144B1D7885B015BB01221A70124B9F
:106910000FCB6C4684E80F0010482B462A462146D0
:1069200002F078FE18B10E4A3C2102F020F90B4823
:1069300001F082FE18B10A4A402102F018F9094814
:10694000002101F0F1FE18B1054A432102F00FF9D0
:1069500005B030BD28A40020308F03004C990020E2
:1069600021860300DB8603007047000010B5034B4F
:1069700004460FCB84E80F00204610BD30A4002051
:106980002DE9F04716461F4656EA07038EB0044627
:1069900006D1374907F0B2FD01200EB0BDE8F087FF
:1069A000002A77F1000315DB6D464FF00008E5E89B
:1069B00002670023304639464FF47A7211F024FC06
:1069C00006460F4656EA070308F10108EFD14FF0DB
:1069D000000907E0274907F091FD01344FF0000856
:1069E0004FF001090EAB08F1FF3503EBC50151E98A
:1069F0000E014FF47A72002311F006FC1E49164670
:106A000020461F4607F07AFD642E77F1000315DB60
:106A1000033409F1030908F10056023EDFF85CA0D7
:106A20000DEBC6062F46002F13DCB8F1000F4FEA1E
:106A30008505D8BF002505EB0900AEE70A2E77F1E2
:106A40000003A7BF023409F10209013409F1010969
:106A5000E1E776E802014FF47A72002311F0D4FBEB
:106A60002046514607F04AFD0434013FDBE700BFF2
:106A70005C970300E7860300E9860300EE860300C7
:106A80002DE9F84305462820894690461F4606F022
:106A900075FD044650B10135A80006F06FFD0646AD
:106AA000606230B9204606F071FD34462046BDE8EC
:106AB000F88301232360089BA361099BE3610A9B80
:106AC0006761C4E90155C4E903982362EEE708B1A0
:106AD00000680138704770B50E46044608B90120B9
:106AE00070BDD0E900539D4209D38368406A1D44BC
:106AF000A90007F017F90028F1D0606265602168ED
:106B00004B1C2360636A204643F82160FFF7C6FDF3
:106B10000020E5E710B5034668B10268012A0CD0F1
:106B2000416A013A4C68026051F822304B60012101
:106B3000FFF7E7FD2346184610BD0023FBE730B101
:106B40000368012B02D0436A5868704700207047E1
:106B500038B50A460446016863689500281D084454
:106B6000984288BF6060D4E90103984209D3E06885
:106B70005B1A0130E0605910914205D92046FFF7B9
:106B800097FE2068284438BD4900F5E72DE9FF410C
:106B90001D46234B1B681746022B0A9AB8BF0223D7
:106BA000934280460E4637DB084607F0A9FE0446AE
:106BB000384607F0A5FE204400F120012130039162
:106BC00006F0DCFC174B03991B68002B044617DA10
:106BD000154A0097334607F02DFC144B1B68BBB9D0
:106BE000134B2A461B682146B8F1000F0ED0D86817
:106BF0000BF0A8FE204604B0BDE8F04106F0C6BC8C
:106C0000CDE900670B4A07F015FCE6E79868EFE767
:106C1000294620469847EDE704B0BDE8F08100BF63
:106C200020990020E09800200387030050A4002052
:106C300088990020F686030007B50B46002102461E
:106C4000009101200249FFF7A1FF03B05DF804FBAA
:106C50003C8703000FB407B504A951F8040B019158
:106C6000FFF7EAFF03B05DF804EB04B070470000E3
:106C700038B51148FFF78AFB10B11048FFF7EAFF5B
:106C80000D4A0F48D2E90032D0E900105B1840EB02
:106C900002020C48D0E900105C180B4B42EB0005D7
:106CA000D3E90001A04271EB0502B8BFC3E900457A
:106CB000D3E9000138BD00BFD89800200987030040
:106CC00008A4002010A40020F0A3002008B5042888
:106CD0001CD8DFE800F003070B1519000D4BD3E9B2
:106CE00000010CE0BDE80840FFF7C2BF094B0A4AAB
:106CF000D3E90001D2E90032C01A61EB020108BDFC
:106D0000FFF7B6FF054AF5E7034BE8E700204FF031
:106D10000041F4E730A40020609900201899002079
:106D20000220FFF7D3BF000007B5024601200B4643
:106D300000900349FFF72AFF03B05DF804FB00BF92
:106D40002C8703000FB407B504A951F8040B019177
:106D5000FFF7EAFF03B05DF804EB04B070470000F2
:106D600007B50B4600210246009101200249FFF7BA
:106D70000DFF03B05DF804FB368703000FB407B5C1
:106D800004A951F8040B0191FFF7EAFF012006F076
:106D90005BFA00002DE9F04704460F461646002E28
:106DA00002DA1E48FFF7EAFF002C35D02368B34211
:106DB00032D9636A53F8265075B3D4E903A3284641
:106DC00098472369814638468846984702460B46CD
:106DD00048464146D047F8B9236928469847236971
:106DE0008046384689469847894508BF80450AD07D
:106DF0007600324639462046FFF7CCFF054648B1BB
:106E00002846BDE8F087E3693946284698470028B8
:106E1000EED0F5E70136C2E70025F1E7448703002D
:106E20000122FFF7B7BF000038B5154606F0CCF9D0
:106E3000044610B90748FFF7A1FF4DB10821012012
:106E400006F0C2F90028F5D02B6804602860436082
:106E5000204638BD818703000146024A0120FFF722
:106E6000E3BF00BF00A4002070B5054610B1046860
:106E70000CB92C6070BD206806F088FB666820465F
:106E800006F084FB3446F3E710B50446FFF7ECFF49
:106E90002046BDE8104006F079BB000070B5074DF4
:106EA0002C680CB92C6070BD2068FFF7EDFF666898
:106EB000204606F06BFB3446F3E700BF00A4002039
:106EC000F0B585B06D4685E80F000B4CDDE9002379
:106ED000D4E90001824273EB010607DB904271EBBB
:106EE0000303029FA66805DBB74203D295E80F00B3
:106EF00084E80F0005B0F0BD6899002010B5044685
:106F000010B3006870B1144A217E1368012903F19F
:106F1000FF33136003D12369BBB906F037FB0023AD
:106F200023600120237E7BB10C4A1368B3F5007FF8
:106F30000DDA0B4901330868E0610C601360094AFF
:106F40001368013B1360022010BD9847E7E7204615
:106F500006F01CFBF3E700BFD4A300201CA4002014
:106F600018A40020D8A3002008B5014620B1C368AA
:106F700023B90648FFF7E6FE002008BD013BC360C9
:106F8000002BF9D1BDE80840FFF7B8BF9087030098
:106F90002DE9F041284E294D002433689C4218DB2E
:106FA000274C206840BB274B274E1968274B326877
:106FB0001B689342BEBF264A11681A460023184632
:106FC0009A421EDC234C23688BBB00233360BDE850
:106FD000F0812A680C2363431A4451680878012819
:106FE00008D1127A0AB100220A702A68D3581868A8
:106FF000FFF7BAFF0134D0E7C569FFF7B5FF256099
:10700000CFE751F8234001332070D9E729463846AD
:10701000FFF79EFD18B103680BB1C3F8008001357E
:10702000D4E900239B1AB5EBA30FEFD3CDE70025DE
:107030002746A846F4E700BF24A4002020A400208F
:10704000F8A30020E4A30020E8A30020ECA3002084
:10705000E0A3002090B5002010B5324C88B0FFF7B7
:1070600097FF2068A0B1FFF732FD014680B12E489E
:10707000FFF768FE20682D4CFFF761FDD4E900237F
:10708000D0E900108A1A60EB03032948FFF75AFE83
:10709000284C2368002B06DD2748FFF753FE2168A4
:1070A0002648FFF74FFE264C2368002B06DD2548B7
:1070B000FFF748FE21682448FFF744FEFFF730FE43
:1070C0000B46002873F1000102461BDB1F4C68468B
:1070D000FFF756FC1E48694606F010FED4E900236F
:1070E000012A73F100030DDBFFF7C2FDD4E9002391
:1070F000821A61EB03036846FFF742FC15486946B4
:1071000006F0FCFDFFF7CAFE134B186806F03EFAC6
:10711000124B186806F03AFA114B186806F036FA66
:1071200008B010BDE0B50020C287030060990020C0
:1071300003880300D4A3002044880300768803005A
:10714000D8A3002096880300C68803001899002061
:10715000E48803000D89030020A40020E0A30020A0
:10716000E4A3002010B50C4B0446186878B1C2693E
:107170001A600A4A1368013B13600023C0E9014307
:10718000C0E90333036043610376C36110BD20206F
:1071900006F0F4F9F1E700BF18A400201CA40020B9
:1071A00008B5044A136801331360FFF7DBFF0123BE
:1071B000037608BDD8A3002038B50D46144630B973
:1071C000074B084A084840F2352105F0C3FFC36861
:1071D000002B02DD4068FFF7E3FF0560846038BDE7
:1071E000378903005E8F03004589030030B585B001
:1071F00004AC04E90F000F4C029DD4E90001DDE965
:107200000023824273EB010CA46810DB904271EB07
:1072100003030ADBA5420AD38CBF0120002000280B
:10722000D4BF0020012005B030BD0120F7E74FF0AA
:10723000FF30F4E76899002008B5074B1868FFF79E
:1072400069FC38B92021012005F0BEFF10B90348C0
:10725000FFF794FD08BD00BFA4B50020818703009F
:1072600000230022C0E900230023C0E902330361A8
:1072700003758361024B01461868FFF72CBC00BF01
:10728000A4B5002038B50446006988420D4601D0F7
:10729000FFF76AFE256138BD2DE9F04F944D91B09E
:1072A000044616461F4695E80F00FFF79FFFDDF8DE
:1072B00068B0AA4638B15846FFF756FE8D48FFF72A
:1072C00041FD0020B3E0002E77F1000306DA3246DC
:1072D0003B468948FFF736FD002600271CB9584673
:1072E000FFF742FEEDE7BBF1000F04D0DBF80C30F6
:1072F0000133CBF80C30237A23B9D4E90432F618E1
:1073000042EB0707DAF80030DAF804200793069218
:10731000D4E90623CDE90423FFF78EFF0021816124
:10732000C0F810B0846094F82410DDE90623054607
:1073300049B3FFF79DFC16EB000847EB0109D4E9C0
:107340000623002A73F1000335DAC5E900896B4B87
:1073500029461868FFF764FD002800F0C580012366
:10736000044680691A4601330028F9D1CDE90C8919
:107370000E9210AB13E90F00FFF738FFC8B1284693
:10738000FFF76EFF9DE7DAE9000113EB060842EB19
:107390000709804579EB0103D1DAB0EB0802CDE9AA
:1073A000000161EB09035648FFF7CCFCDAE90089DC
:1073B000C5E7A56185E7277A002F40F09580A66A8A
:1073C000002E00F09180D6E90001049BC3180293BF
:1073D000059B41EB03030393DDE90223424573EB75
:1073E0000903C0F2818094F82C30012B22D0022BAB
:1073F00034D0DAE90023994208BF904246D13F4B8E
:1074000031461868FFF70CFD00283FD0D6E900236D
:107410000CA8CDE90823FFF7A9FA0E9B01330A93C4
:1074200008AB0FCBFFF7E2FE0028A8D1B56111B081
:10743000BDE8F08FDDE90423012A73F1000306DBC8
:1074400033695B459BD05846FFF78EFD97E72B4B82
:1074500031461868FFF7E4FC0028F1D1D6E90001B5
:10746000DAE90023824273EB010704DA5946304619
:10747000FFF708FF83E7994208BF904206D11F4BF0
:1074800031461868FFF7CCFC0028EFD1DAE900019B
:10749000DDE9022382428B410DDA029BC21A039B73
:1074A000CDE9000161EB03031548FFF7D3FBDAE9EF
:1074B0000023CDE90223DDE90223C5E90023114BB6
:1074C000DDE90201D3E9002382428B41BBDB0B4B98
:1074D000A56218682946FFF7FEFA0B4B1868421C94
:1074E00048BF01221A60A2E7CDE90289CEE700BFBA
:1074F00030A400205B89030080890300E0B50020F0
:10750000C789030068990020D09800202DE93348EE
:10751000194B044618680D46FFF711FBA0B1D0E9DE
:1075200000BCA3457CEB01030EDA144BD3E9002326
:10753000BBEB02006CEB0301A21ACDE9000165EB85
:1075400003030F48FFF71AFC0E4BD3E90001A042DA
:1075500071EB050206DAC3E9004500229A6002B029
:10756000BDE83088A94208BFA04202D19A68013222
:10757000F4E70548FFF702FCE0B500206099002021
:10758000328A030030A400209F8A030010B54368AC
:1075900004465860D0E900309847636800225A607A
:1075A00010BD0000F8B505461B481C4F0E4606F0FE
:1075B000A5FB1B4806F0A2FB1A4806F09FFB1A48E1
:1075C00006F09CFB194806F099FB194806F096FB5B
:1075D000184806F093FB184806F090FB174806F091
:1075E0008DFB174806F08AFB164806F087FB164805
:1075F00006F084FB154806F081FB0024AC4204DB56
:10760000BDE8F840124806F079BB56F82410384619
:1076100006F074FB0134F1E7DF8A03001E8D0300DE
:10762000FB8A0300188B0300568B03007A8B030040
:10763000C68B0300148C0300278C0300718C03009D
:10764000868C0300C38C0300D38C03000E8D0300D3
:10765000F88A03002DE9F74F964CDFF8FCA20546A7
:107660000E464FF0010BAB4501DB012014E056F84C
:107670002B80914940460BF101094FEA8B0706F038
:1076800063FF60B94D451BDC8C48FFF7E3FA2846E1
:107690003146FFF787FF002003B0BDE8F08F88492F
:1076A000404606F051FF0028ECD08649404606F0DF
:1076B0004BFFF8B90BF10203AB4233DB8248E4E73E
:1076C000374482497F6838460BF1020906F03CFFD7
:1076D00018B97F4B01221A704DE07E49384606F0FA
:1076E00033FF10B97A4B187045E07B483946FFF7F5
:1076F000B1FA40E07949404606F026FF0028D9D08B
:107700007749404606F020FF0028D3D0754940460F
:1077100006F01AFF002840F085804D4500F3928066
:107720007148B2E737440BF10309D7F80480BF680A
:10773000404605F041FD02460B46C4E900231343D1
:107740000AD16A490122404607F048F920B1684849
:107750004146FFF77FFA9AE766490322384607F069
:107760003DF950B9606864492268A2FB012301FB1E
:107770000033C4E90023CB4675E76049042238464C
:1077800007F02CF910B960685D49EDE75D49042206
:10779000384607F023F918B960684FF47A71E3E7C7
:1077A00059490422384607F019F90028E3D057490F
:1077B0000322384607F012F948B9D4E900230D2115
:1077C00051430AFB0311A2FB0A230B44D1E75049A2
:1077D0000422384607F002F950B963684D48226820
:1077E00040F24631514300FB0311A2FB0023ECE7BA
:1077F00049490322384607F0F1F828B96368474839
:10780000226844F69461EDE745490422384607F0C2
:10781000E5F820B96368434822684349E2E74348F2
:10782000394696E74249404606F08EFE00283FF46E
:1078300074AF4049404606F087FEC0B94D4526DC8E
:107840003D4822E7374421497F6838460BF1020959
:1078500006F07AFE08B9394B3CE71E49384606F077
:1078600073FE08B9354B3EE7354839463FE73549A1
:10787000404606F069FE0028E0D03349404606F055
:1078800063FE00283FF477AF3048414661E7374454
:107890000BF1020979680191084605F085FC002882
:1078A000019903DC2A48FFF7D5F90120294B18601C
:1078B00061E700BF00990020228D03002C8D03009A
:1078C000258D03006C8D0300798D0300448D03002A
:1078D00048A40020498D03004F8D03006F8D0300E5
:1078E000708D0300E88D0300F78D03005C970300A3
:1078F000998D0300B18D030000CA9A3BB08D03003F
:1079000040420F00B58D0300BA8D0300BF8D030008
:10791000C38D030000A0B830C88D030000004F9154
:10792000CC8D0300000029F90F260200D18D030041
:10793000EB8D0300368E0300438E030049A4002024
:10794000148E0300398E0300938E03009E8E030075
:10795000698E0300FCA30020005847F8124B13491E
:107960001A6809688A42BEBF1149096841F82200B5
:107970001A6801321A604268012303709AB1836861
:10798000002B10DB1368002B0DDB591C11604268C3
:107990005168994203D84FF0FF33136070470233A8
:1079A000816842F823107047E8A30020ECA3002070
:1079B000E4A300202DE9F0413A4D04462B780377EB
:1079C00000F1380800F1600700F188061030FFF779
:1079D000C5FF606A80B1E1690122FFF7EDFB236A10
:1079E000C360012360620376E36A0BB1626A1361CC
:1079F000236B0BB1626A53616B7884F84430404664
:107A0000FFF7ACFFE06C80B1616C0122FFF7D4FBA3
:107A1000A36CC3600123E0640376636D0BB1E26C79
:107A20001361A36D0BB1E26C5361AB7884F86C30D9
:107A30003846FFF793FF606F88B1E16E0122FFF7D0
:107A4000BBFB236FC360012360670376E36F0BB159
:107A5000626F1361D4F880300BB1626F5361EB78C1
:107A600084F894303046FFF779FFD4F89C00B8B121
:107A7000D4F894100122FFF79FFBD4F89830C3602C
:107A80000123C4F89C000376D4F8A43013B1D4F8D1
:107A90009C201361D4F8A83013B1D4F89C20536112
:107AA000BDE8F0814AA40020F8B50446C26F236BFC
:107AB000127B1B7BD0F8C460D0F80C11002B1E4B3E
:107AC00014BF55275F2700F1080014BF7825002553
:107AD0001F704AB3783D44225A70327B32B305F1AD
:107AE00078064C229A700A7B1AB378355222636169
:107AF000DA70FFF733FFE06980B161690122FFF7B7
:107B00005BFBA369C3600123E0610376636A0BB189
:107B1000E2691361A36A0BB1E269536131B228B221
:107B2000BDE8F840FEF71CBD5F22D5E72E465F2278
:107B3000D8E75F22DBE700BF12990020F8B50F4BB2
:107B40001B7804460D460BB10020F8BDFFF790F8F6
:107B5000261A65EB0107012E77F10003F4DB42F2F0
:107B60000F720023B242BB4105DA20462946BDE828
:107B7000F840FEF777BC4FF0FF30E6E748A400205E
:107B800090F83830014633B9012380F83830024B81
:107B90001868FEF7A0BF7047D0B500202DE9F74365
:107BA0003A4DDFF8F0802868394FFEF7C8FF38B14A
:107BB000D0E90001D8E90023994208BF904201D0E2
:107BC000334C5AE02868FEF7A5FF067D04465EB1F7
:107BD000A16911B13868FEF77EFF2046FFF740FB30
:107BE0002868FEF7ACFFE2E7D0F81090A3685A6867
:107BF000B2422EDC012283F83420A068037A4BB114
:107C0000D0E90623012A73F1000103DB0021009172
:107C1000FFF742FBA36822691B6A93420BD053B162
:107C200001221A76A3681A6AD3680133D360A36865
:107C3000186AFFF799F9A368C3F82090B9F1000F0B
:107C400002D0002389F81830A368012283F8342079
:107C5000BEE71B6853F8260090F838301BB94FF088
:107C6000FF31FFF78DFF0136C0E710462E68FEF7A3
:107C700051FF01463046FEF72EFF22681046FEF700
:107C80005EFF0028F1D103B0BDE8F083E0B500202D
:107C9000A8B5002030A40020F8B5D0E9046756EA62
:107CA0000703044622D0FFF7C7FA114A8460D2E9DD
:107CB00000329B1947EB0202C0E900320D4B01462E
:107CC0001868BDE8F840FEF706BF23684FF0FF31A3
:107CD00053F82500FFF754FF01356368AB42F4DC2D
:107CE000D4E9066756EA0703DDD1F8BD0025F4E7BD
:107CF00030A40020E0B500202DE9F04F90F854505A
:107D000087B006460F46002D72D007B0BDE8F08F51
:107D1000F26A52F82520AB0004935AB112784AB1A6
:107D2000726BD35803934FF00009326B049BD25807
:107D300091452DDB0135B26A9542E9D3002CE4D0A0
:107D4000D4E91023002A73F1000354DBFEF790FFFF
:107D5000D4E91023894652EA030180460CD0284812
:107D6000D0E900105118434100910193DDE900234F
:107D7000424573EB09033EDAE36C2BB16068984728
:107D800039462046FFF7B8FF002384F84830BCE7A7
:107D9000039B53F8292032B34FF0000A20E011680A
:107DA00051F82A80B8F1000F18D0A04516D00BF179
:107DB000010BBBF1010F03D1D8F824108E4215D06E
:107DC0002CB1394620460592FFF7DAFE059A059256
:107DD00039464046FFF7D4FE059A00240AF1010A0D
:107DE00051688A45DBDB09F101099EE74446F5E766
:107DF000AB462C469FE739462046FFF7C7FBBFE757
:107E000030A400202DE9F84F294F2A4E4FF0020BE5
:107E10003B681846FEF75BFEA8B92649D1E9002366
:107E20008E682549D1E90045A24273EB05078968B0
:107E30003BDB944275EB030303DBB14294BF0020AC
:107E40000120BDE8F88F1846FEF764FED0E9102344
:107E5000002A73F10003824680F838B020DBFEF779
:107E600007FFDAE910230D4652EA0301044609D060
:107E7000D6E9001012EB010843EB0009A04579EBAD
:107E800005030DDADAF84C3033B1DAF8040098471C
:107E900000215046FFF730FF00238AF83830B7E75B
:107EA00000215046FFF772FBF2E70120C9E700BF4F
:107EB000D0B5002030A4002068990020F0B589B02A
:107EC000FEF78EFA2B4B1868FEF739FE2A4B054653
:107ED0000FCB6C4684E80F00A5B9284B1B78002B0C
:107EE0003DD1274BD3E900019B68CDE90401013363
:107EF000069308AB13E90F00FEF7E2FF214BD3E92D
:107F0000006716E01E4BD5E90067D3E900239F42C6
:107F100008BF964221D104A8FEF728FD069B013335
:107F2000CDE90067029394E80F00FFF75FF900289E
:107F3000E4D130463946FFF701FEA8B9304639464C
:107F4000FFF7E4FAFFF724F8FFF728FEFEF770FAD0
:107F500009B0BDE8F040FFF755BF0023E0E74FF060
:107F6000FF366FF00047E4E7FEF762FA012009B040
:107F7000F0BD00BFE0B50020408F030049A4002001
:107F800030A400206899002038B54FF4CC70FEF77B
:107F900063FF184C1849194D00F11402C260002209
:107FA000C0E92542C0E93F42C0E9212200F138047E
:107FB000C0E93B220264C0F8302180F81021C0F8EB
:107FC000782100F1A002C0E90E10C0F8484101215B
:107FD00000F5A474C0F8902100F5C872C0E95421DE
:107FE000C0E92850C0E942410422C0F8A810C0F8F6
:107FF000802138BDC58E03000169020011680200AE
:1080000038B54FF40470FEF727FF174C1749184D89
:108010000022C0E94342C0E95D4200F58C74C0E92A
:108020002C10C0F8C041012100F5E074C0E96041A6
:1080300000F1B004C0F8084200F50274C0E93F2224
:10804000C0E94650C0E95922C0E97241C0F8B820E1
:10805000C0F82011C0F8A82180F88811C0F8F021DC
:1080600080F8D02138BD00BFC58E030055680200DE
:10807000B579020038B54FF4E470FEF7EDFE6FF00D
:108080000102C262C0F85821024600F5B07442F8FD
:10809000784F0546012182630022C163026645F8DC
:1080A000C04FC0F88410C0F8CC10C0F814110F49AC
:1080B000C0F88050C0E958100D49C0F80841C0E927
:1080C0006B22C0E96F1200F58475C0F8504100F5CD
:1080D000A874C0F8A820C0F8C850C0F8F020C0F8B4
:1080E0001041C0F83821C0F8682138BDA97A0200D3
:1080F000C58E0300000000002DE9F74FFEF70EF9D2
:108100000524A34BDFF8ACA21C600421204605F037
:108110005BF8CAF8000010B99E48FEF72FFE042154
:10812000204605F051F89C4B18600028F4D09B4B7A
:1081300000271F60FFF79EFF4FF000084FF0004937
:10814000C0E968890546FFF71FFF6FF0010B9449EE
:108150008760C0E91E89C0E9388900F13803C0F89A
:1081600010B006460B60FFF74BFF87A3D3E900234F
:1081700004468B49C0F834B0C0E90223C0F85CB0B3
:10818000C0F884B0C0F8ACB0C4E96623B030854B09
:108190004860C4E93C89C4E9568904F5C0724FF0CF
:1081A0000108002000211A60C4E96401C4F8B87114
:1081B0002A46C5F8888104214046FEF735FE2A4646
:1081C000C5F8940104214046FEF72EFE2A46C5F864
:1081D000900104214046FEF727FE05F1080B04211B
:1081E000C5F88C012246C0F800B03766C6F8C870E2
:1081F0000846C4F8D870C4F84011FEF715FE0421F3
:10820000C4F84C0122460846FEF70EFE0421C4F8CD
:10821000480122460846FEF707FE04F11003C4F8A1
:1082200044010360D4F84421019304F13809C2F8F1
:108230000490D4F8442104F160079760D4F84421F5
:1082400004F18803D360D5F89021C5F81880042183
:10825000C2F8008040462A460093FEF7E5FDD5F8B7
:1082600094211060D5F89421126806F5A87010606A
:10827000D4F84821C4F82080C4F84880C4F870803D
:10828000C4F898800421C2F8008040462246FEF7D8
:10829000CBFDD4F84C211060D4F848210421C2F859
:1082A000048040462246FEF7BFFDD4F84C215060C2
:1082B000D4F848210421C2F8088040462246FEF73F
:1082C000B3FDD4F84C219060D4F848210421C2F8C1
:1082D0000C8040462246FEF7A7FDD4F84C21019BB6
:1082E000D060D4F84C2130481268DFF8CC8005F11A
:1082F00038011160D4F84C21526805F180011160F9
:10830000D4F84C21926805F1C8011160D4F84C21D1
:10831000D26805F588711160009AC6F80CB0C5F8EE
:108320000C21DAF800202B63C5F87C90C5F8C470E6
:10833000C2F800B0DAF800206FF00041C2E901395C
:10834000009BD7601361C5E95C0118480122002336
:108350006FF000416FF00049C5E95E23C6E91423C0
:10836000C6E91201C6E92E23C6E92C89C4E93223E5
:10837000C4E94C230E4A6FF00043C4E93001C4E95C
:108380004A2303B0BDE8F08F00E1F50500000000CE
:10839000ECA3002081870300E4A30020E8A30020D1
:1083A000D4B50020DCB500200200FFFF0000FFFF75
:1083B0000100FFFFE0A300200300FFFF000000001A
:1083C000F0B5354B354F364D364C374A37490026D8
:1083D0008DB01E60364B0A201E60364B0297019509
:1083E0000094FEF74DFB344B2F4A18603349314B54
:1083F0000094CDE901570A20FEF742FB304B2A4A90
:1084000018602E492B4B0094CDE901570A20FEF746
:1084100037FB2C4B2C4F1860FFF76EFEFEF728FC45
:108420002A4BC3E900012A4BC7E90001C3E9000157
:1084300017A3D3E9002305460C460FF0E5FE14A36D
:10844000D3E90023CDE90401284621460FF0DCFEE4
:1084500004A8069204F0F0FE069A01461D4805F0B5
:108460004DFC1D4BD3E90001002871F100030CDB2A
:10847000D7E900321B1841EB0202CDE908320A9617
:108480000CAB13E90F00FEF71BFD0DB0F0BD00BFF4
:1084900000CA9A3B00000000D4A3002069690200D2
:1084A000DD67020005680200F1670200CB67020089
:1084B000D8A30020FD670200E0B50020D9670200C4
:1084C000A4B50020A8B5002030A4002018990020F1
:1084D00060990020C78E03000099002070B5084DF8
:1084E000084E00243368A34200DC70BD55F8040B2D
:1084F00018B14FF0FF31FFF743FB0134F2E700BF43
:10850000D4B50020E498002070B5074D074E002434
:108510002B68A34200DC70BD56F8240008B1FFF7B9
:10852000BBFB0134F4E700BFE8980020DCB5002075
:1085300030B5234B0D461968224B85B004461868A8
:10854000FFF788F8002838D029462046FFF782F840
:10855000002832D01C4804F021FE10B11B48FEF761
:10856000F1FB1B49022005F0F3FEFFF729FF194B31
:108570000293194B0193194B194A1A4900930A2087
:10858000194BFEF77DFA194B194A1860D2E9000120
:10859000184B0022C3E900019A60174B01221A70A0
:1085A000FFF79CFFFFF7B0FFFFF72CFC10B900208E
:1085B00005B030BDFFF782FCF8E74FF0FF30F7E77A
:1085C00044A4002040A4002059700200028F030040
:1085D00049D202000D680200E96702000968020042
:1085E000F7670200CB67020001680200D0B50020E7
:1085F0006099002030A40020DCA30020FFF798BF82
:108600001FB500220091022369460430CDE90132F2
:10861000039202F0B9F905B05DF804FB38B5054DD9
:108620000A2445F001054FF47A40A847013CFAD1ED
:1086300038BD00BF0090030037B5394D0E2301A9A6
:108640002860ADF80430FFF7DBFF0446002858D05F
:10865000344A182100F08BFA204603B030BDFFF7F2
:10866000DDFFF9E7FFF7DAFF40232868ADF80430B3
:1086700001A9FFF7C5FF04460028F0D0294A54217C
:10868000E8E7FFF7CBFF44F203032868ADF80430B6
:1086900001A9FFF7B5FF04460028E3D0214A4A218B
:1086A000D8E7FFF7BBFF4FF400432868ADF804306C
:1086B00001A9FFF7A5FF04460028E2D0194A40218E
:1086C000C8E7FFF7ABFF48F201032868ADF80430B4
:1086D00001A9FFF795FF04460028E2D0114A362190
:1086E000B8E7FFF79BFF4FF480432868ADF80430EC
:1086F00001A9FFF785FF04460028E2D0094A2C2192
:10870000A8E7FFF78BFF02232868ADF8043001A922
:10871000FFF776FF04460028E3D0024A222199E7BA
:1087200054A400207E8F03002DE9F34107460C4638
:1087300006F0E6F8102806463CD85CBB2023ADF8CE
:108740000430204B01A91868FFF75AFF0446C8B946
:10875000DFF870800025B54238BF7B5DD8F8000097
:1087600028BF20239A0862F07F029B0101A98DF89F
:1087700004208DF80530FFF743FF0446F0B1124A9C
:108780008E2101E0104A6D2100F0F1F9204602B07F
:10879000BDE8F081012C0FD13023ADF80430094B36
:1087A00001A91868FFF72CFF04460028D0D0064A1C
:1087B0007521E9E70924E9E70B24E7E70135102DE6
:1087C000C9D1E3E754A400207E8F030038B5054DDE
:1087D000044645F001054FF47A40A847013CFAD120
:1087E00038BD00BFC090030070B5054686B00E4688
:1087F000144672B601F0ACF901F00CF80028FBD178
:108800003E4805F07BFA44F201039D4266D00AD847
:10881000012D12D041F201039D425DD0314638480E
:1088200005F06CFA0CE044F202039D42F6D1228876
:108830006168344805F062FA02E0334805F05EFAF8
:1088400001F02AFC08B901F0EFFB0023ADF8143069
:108850008DF8163005A9012319208DF8153001F087
:1088600025FC05A9182001F021FC05A9172001F01D
:108870001DFC192001F0D6FC182001F0D3FC1720B4
:1088800001F0D0FC4FF4FA70FFF7A0FF192001F0BF
:108890009BFC182001F098FC172001F095FC322079
:1088A000FFF794FF192001F0BDFC182001F0BAFC7D
:1088B000172001F0B7FC4FF4FA70FFF787FF19207B
:1088C00001F082FC182001F07FFC172001F07CFCF5
:1088D000FA20FFF77BFFCCE70C48AFE7A1680391D4
:1088E000084601F0ABFA23680196009302466368DC
:1088F0000399074805F002FAA2E700BF06900300BB
:10890000A39003005E9003001F9003003C900300BF
:108910007990030007B501F0BFFB08B901F084FBB3
:108920000023ADF804308DF8063001A90123192089
:108930008DF8053001F0BAFB01A9182001F0B6FB53
:1089400001A9172001F0B2FB192001F06BFC1820DF
:1089500001F068FC172001F065FC4FF4FA70FFF796
:1089600035FF192001F030FC182001F02DFC1720F4
:1089700001F02AFC3220FFF729FF192001F052FCF8
:10898000182001F04FFC172001F04CFC4FF4FA7056
:10899000FFF71CFF192001F017FC182001F014FC50
:1089A000172001F011FCFA20FFF710FFCCE7036954
:1089B000C1688B429DBF8268D21802F1FF3203F179
:1089C000FF3394BF501A581A70472DE9F843D0E985
:1089D00002940546A9EB04084068904520440F46E0
:1089E000144404D905F08CF8EC60BDE8F8834246E5
:1089F000A4EB090405F084F86868224607EB080137
:108A0000F0E72DE9F843C5680646894617464FF05A
:108A100000083469B3687068A54228BFE418013CB7
:108A2000621B5C1BBC4228BF3C46944228BF1446D4
:108A300049462844224605F063F8B3682544AB4212
:108A400008BF00253F1BA044A144F560E1D140468A
:108A5000BDE8F88310B5114C114AA2610223C4E9A4
:108A60000433104BE361A2644FF400730E4A0F49C4
:108A70002362E26400231022E01DA3626362E362CA
:108A8000A3656365E365226505F0C8FE08492046D5
:108A900005F0C4FE2023A37110BD00BFE4B5002083
:108AA000C690030088A8002078A80020CF9003007B
:108AB000D3900300F8B5184C182300FB033503FBD3
:108AC00000402544C46A012C0F4616460FD0022CE4
:108AD0001AD0F4B92846FFF76AFF864205D8324615
:108AE00039462846FFF771FF34462046F8BD284630
:108AF000FFF75DFF8642344628BF044622463946CA
:108B00002846FFF762FFF0E72846BDE8F840FFF788
:108B100078BF0024E9E700BFE4B5002073B50E4B31
:108B20001B7804460D4616460BB9FFF793FF00234A
:108B30000DF107008DF8073000F0D2FA32462946D1
:108B40002046FFF7B7FF04469DF8070000F0F8FA4B
:108B5000204602B070BD00BFE4B5002010B511463C
:108B60001C461A460020FFF7D9FF204610BD00B56D
:108B700083B002900091019244F2010071466A466E
:108B8000FFF732FE03B000BD094A537891780133F4
:108B9000DBB2994208BF0023117899421FBF0370CE
:108BA0005078182303FB002014BF043000207047C6
:108BB00088AA002073B5054600240DF107000E4673
:108BC0008DF8074000F08CFA0DF10600FFF7DCFF8E
:108BD00090B10670094B9DF8062045605A709DF8CB
:108BE000070000F0ADFA24B9054B4FF48012C3F82A
:108BF0000021204602B070BD0424F0E788AA0020BE
:108C000000E100E0024B4FF43C6043F001031847E1
:108C1000E0900300F8B51F491F4B0025C1F84051F3
:108C2000C1F84451C1F84851C1F84C51C1F8005144
:108C3000C1F804511B684BB3D1F8044517490968C2
:108C4000641A24F07F442F461A68A24209D8A41A55
:108C500015441A7CDE691AB1D3E905201F749047C8
:108C6000AEB90F4A0F4B11781B788B4205D10133F7
:108C7000DBB2022B08BF0023137012780A4B43F8B3
:108C800022500A4B4FF48012C3F80021F8BD33463E
:108C9000DAE700BF00100140A8AB0020A4AB002021
:108CA000A1AB0020A0AB002098AB002000E100E0C9
:108CB0002DE9F04FA14AA24913780978A14D9942B4
:108CC00085B03CD00133DBB2022B08BF0023137008
:108CD0009D4912789D4B0F6853F822003B1823F0F2
:108CE0007F4300220B602B6816461446944613B946
:108CF00042B12B6006E0196881420ED902B12B60A7
:108D0000091A196001272B68DFF848A201934FF078
:108D10000008BEB9DFF844B262E0401A0C44D968DA
:108D2000D3F81CE0C3F800C031B13A1922F07F42F9
:108D3000C3E90121DE611E4673460122D7E7002602
:108D40003746E0E73446F6697F4A63681268DFF821
:108D500010C2A068991A21F07F41614500F2A880F5
:108D600001442160012222742A680023C4E90133EE
:108D7000E361002A40F0A5802C60CAE79BF802104E
:108D80005A1CD2B291428BF8002004BF00228BF80B
:108D90000020182202FB03B32A6819799C68022973
:108DA00077D0032900F08180012919D1207CB8B93E
:108DB000D96861601A69A2605A69E2609B69A3611F
:108DC000634B1B78002B18BF01466160BCE78C42E7
:108DD00000F091808946C9690029F8D100232374E5
:108DE0009BF800309BF801209A42C7D12B68B8F15C
:108DF000000F04D1019A9A4201D1002F43D0002BD9
:108E000041D0D3F800A0534D4F4BD5F804751C68E2
:108E1000DFF850813E1B98F8003026F07F4603367D
:108E20009BB94FF48033C5F84433C5F804334A4B3B
:108E30004FF400324FF00109C3F880211A60C5F8E1
:108E40000090FFF7DFFE88F80090B2452CBF544435
:108E5000A41924F07F44C5F84045D5F80435DB1B40
:108E600023F07F43E41B033324F07F44A3420AD959
:108E7000D5F80435C5F84035FFF7C4FE364B4FF43E
:108E80000032C3F80021324B00221A7005B0BDE851
:108E9000F08F114691469FE71174D2690123002A91
:108EA000FAD1002B9CD02A609AE700231946F6E7F6
:108EB000D31A23F07F43834234BFC31A00232360B5
:108EC00050E721681368994213D8591A1160E2617A
:108ED00052E7091AD8691A4638B103461868884219
:108EE000F7D3401A1860184613462160E061DC6130
:108EF0000FE71346F2E74C4511D1D3692B6073B9E4
:108F0000DFF844E00120CDE90212CAF80800CEF8EB
:108F100000300F4B1870FFF775FEDDE902120B6889
:108F2000C969C9F81C1011B1086803440B602B68AB
:108F3000934218BF4FF0010850E700BFA0AB0020DC
:108F4000A1AB0020A8AB0020A4AB002098AB002070
:108F500094AB00200010014000E100E088AA00204E
:108F6000FEFF7F0095AB0020F8B5194E194D1A4F42
:108F70004FF40033C6F8803001244FF48033C5F835
:108F80004833C5F808336C60FFF73CFEAC60002442
:108F90003C60FFF737FE114B1C70114B0B221C80FD
:108FA0009A70104B1C60104B1C70104B4FF48012C9
:108FB0001C70E023C6F8802186F814333260C5F8AF
:108FC000084586F81133D5F804353B602046F8BDD6
:108FD00000E100E000100140A4AB002095AB0020B0
:108FE00088AA0020A8AB0020A0AB0020A1AB0020E5
:108FF000074B9B784BB132B128B10368187C20B97C
:1090000059745A617047072070470820704700BFA5
:1090100088AA00202DE9F743DFF8848098F8023011
:1090200005460E461746ABB3A0B3042930D94369B1
:1090300083B3437C0024012B0DF107000CBF89464C
:10904000A1468DF8074000F04BF80DF10600FFF740
:109050009BFDD8B1012303700F4B4560D3F8043555
:10906000C0E90497C0E902369DF8063088F801305F
:109070009DF8070000F064F824B9084B4FF4801203
:10908000C3F80021204603B0BDE8F0830424EFE7D5
:109090000724F7E70824F5E70010014000E100E0AD
:1090A00088AA0020064A92783AB130B1426922B1CA
:1090B000002202740221FFF77DBD0820704700BF27
:1090C00088AA0020EFF30583C3F308032BB9EFF35D
:1090D0001480C04300F00100704701207047000079
:1090E00070B50446FFF7EEFF012803D01049432076
:1090F00003F01CFCEFF3108672B60E4A9068012351
:1091000098B993600C4B0D4DD3F880102940116035
:10911000C3F88050D3F8841051604FF0FF32C3F889
:109120008420207006B962B670BD2370FAE700BFD4
:10913000E69003005CB6002000E100E0FC06FFBD05
:1091400010B50446FFF7BEFF012803D0094951209E
:1091500003F0ECFB084B9A685AB154B9EFF3108155
:1091600072B6064A18681060586850609C6001B971
:1091700062B610BDE69003005CB6002000E100E09E
:10918000024B1B680021986804F09CBF889900205E
:109190001EF0040F1CBFEFF309800AE0EFF3088014
:1091A0000549064A884201D8904202D88D464FF0C0
:1091B0000000034B184700000000012000E00020E1
:1091C000C59102002DE9F347054600F0C1FC00F00F
:1091D00021FB0028FBD12F4C2F48304B241AE408E8
:1091E00024049F6A44F00104002D4ED0AA692C4942
:1091F000204600F07FFCEB680193AB68294900939F
:109200002046D5E9002300F094FCEB690093264941
:10921000D5E90423204600F080FC204BDB6A980748
:1092200003D52249204600F061FCDFF89490DFF876
:1092300094A000264FF0010808FA06F33B4206D03E
:1092400059F826201AB15146204600F053FC013649
:109250001A2EF1D1390605D5104B15495A6B204607
:1092600000F048FC3A0405D50C4B12499A6B204695
:1092700000F040FC104B1B68DB0700D500BE284601
:10928000FFF748FB02B0BDE8F0870C49204600F02C
:109290002DFCC2E74CB10300E4B0030000ED00E098
:1092A0007A9103008F910300C49103001F92030081
:1092B0006E9203008E920300F0ED00E0EC9103004B
:1092C000689703006392030010B5034653E8000F4C
:1092D0000A4643E8002494F0000FF7D110BD10B502
:1092E000034653E8002F42EA010043E8000494F0EB
:1092F000000FF6D110BD10B5034653E8000F00EA89
:10930000010243E8002494F0000FF6D110BD10B51F
:10931000034653E8002F02EB010043E8000494F0F9
:10932000000FF6D110BD10B5034653E8002FA2EB95
:10933000010043E8000494F0000FF6D110BD0121B4
:10934000FFF7CDBF0021FFF7D6BF000037B50446B9
:1093500020B914494FF4927003F0E8FA00250DF19A
:1093600007008DF80750FFF7BBFE2268616813689D
:109370008B4210D9591E116013F8015C228AE368F0
:1093800002FB05352268A36811685B1A1179DBB20C
:10939000994238BF13719DF80700FFF7D1FE2846A8
:1093A00003B030BDD097030037B50C46054620B951
:1093B000104940F2471003F0B9FA24B90D494FF4AF
:1093C000A47003F0B3FA00230DF107008DF8073005
:1093D000FFF786FE2A681368591C1160E968641A51
:1093E000298AB4FBF1F41C709DF80700FFF7A8FE72
:1093F00003B030BDD097030038B5074C051E04F10B
:10940000080318BF1C4623682BB11A6822605B68EA
:1094100028469847F7E738BDB4AB002020B9054B84
:1094200001225A70FFF7E8BF012802D1014A90706B
:10943000F8E77047ACAB002020B9034B01225A700B
:10944000FFF7DABF704700BFACAB002038B50B4C5C
:10945000237883B90A486360A3602361E36000F066
:10946000F7FC054602F090FF08B900F005FD012366
:109470002370284638BD8525FBE700BFACAB002034
:109480001D94020037B51E4C237805461BB91D49B3
:10949000E92003F04BFAA37803F0FF02D3B115B132
:1094A0006B680120984700230DF107008DF8073005
:1094B000FFF716FEE3689DF807000133E360FFF74E
:1094C0003FFEE36823B90F4940F2051003F02EFA7E
:1094D00003B030BD0DF107008DF80720FFF700FE47
:1094E00025B1226913463BB92A602561E368002B48
:1094F000E0D100F0DFFCDDE79D42F7D01B68F2E72A
:10950000ACAB00205F98030013B5164C237823B949
:1095100015494FF4857003F009FAE36823B912493D
:1095200040F20B1003F002FA00230DF107008DF852
:109530000730FFF7D5FDE368013BE360E36853B90B
:1095400002F022FF18B10849792003F0EFF900F08A
:10955000E7FC0023A3709DF80700FFF7F1FD02B0C0
:1095600010BD00BFACAB00205F980300012813B50D
:1095700008D003281CD018B9144B0122C3F880204E
:1095800002B010BD124C00230DF107008DF807301A
:10959000FFF7A6FD23780BB9FFF758FFE3689DF8A6
:1095A00007000133E3600123A370FFF7C9FDE7E77C
:1095B000074B1B7823B9074940F2452003F0B6F961
:1095C00000F05AFCFFF7A0FFDAE700BF00E100E07F
:1095D000ACAB00205F9803007FB503788DF80430B2
:1095E0004368029383688DF80C30C3680493036961
:1095F000064A8DF81430064B01A853F8213052F872
:109600002110984707B05DF804FB00BFC0AB0020F5
:10961000CCAB0020F0B50546174615F804CB124A2E
:1096200042F82C70114A42F82C30114B0C460FCBEB
:1096300085B06E4686E80F002368009323798DF885
:10964000053063798DF80630A3680293002FA38953
:10965000084AADF80C3008BF3A4663463146284602
:1096600001F084F805B0F0BDCCAB0020C0AB002009
:10967000F4980300D9950200037813F0040216D081
:1096800003F00303012B03D0022B09D00120704704
:109690000A6800880232C0F3831002440A60F5E7CA
:1096A0000B684288023303EB92130B60EEE710461F
:1096B000704700002DE9F04F89B000230446861C56
:1096C0000DF10F000F4615468DF80F30FFF708FD1E
:1096D000494801683960D0E90132134401335B1A0B
:1096E000824600F21C4700F5836900F21448B34239
:1096F0001CD30020002D7BD004F00F039B0143F00E
:10970000050363F30F00DAF80020DAF8083013409D
:10971000033316444AF823009DF80F00CAF800608E
:10972000FFF70EFD012009B0BDE8F08F012138469A
:10973000FFF7EDFD4846FFF702FE4046FFF7FFFD4D
:10974000DAF80400DAF808B0049000EA0B000330FD
:109750000AEB800004A9FFF78FFF049B0246F8B9CB
:109760000BEA03010AEB810103F1020CC8680590C2
:10977000013303EA0B0B0AEB8B0B00F0030001280B
:10978000DBF80C10CDF810C02AD002280BD01B49F2
:1097900001924FF4BF7003F0C9F8019A93460CE0B0
:1097A0000BEA0300D3E7BDF81630C3F38913033384
:1097B0004FEA114B0CEB930304934046FFF7C2FDB5
:1097C00010B1049BCAF8043059463846FFF79FFD94
:1097D000DAE901231344DAF8002001339B1A86E703
:1097E000BDF81430C3F383134FEA114B6344E3E72E
:1097F000A40544F0060086E7A8AC002011990300F8
:10980000034BD3E90030C31A58425841704700BF98
:10981000A8AC00202DE9F04387B0FFF7F1FF064622
:10982000002840F0F9807D4DC5F81804BFF34F8F34
:109830006B68AC6802932340033305EB830002A9F5
:10984000FFF71AFF029B18B1D5F81824002A5FD041
:1098500004EA0302991C013305EB8202234005EB65
:109860008303D268DB68049302F00303022B0392A4
:10987000029160D1BDF80E306948C3F38917502FAB
:10988000B84628BF4FF0500868F38F1308F108015D
:10989000ADF80E3000F0DCF90646002800F0A78095
:1098A00000F005FA0023082203A9304600F012FA5E
:1098B000029924EA01020132B8EB820F4FEA8203D7
:1098C00032D95FFA88F85BB32140DCB2A8EB040818
:1098D00003315FFA88F9A046524C05EB8101082359
:1098E0004246304600F0F6F934B108F108034A4622
:1098F0002146304600F0EEF9029B033703EB970751
:109900000297D5F81834002B49D1D5F8104459E006
:109910002A689A428FD86A60304607B0BDE8F08363
:1099200040491C469946DAE70C40E11C08234246B0
:1099300005EB8101DDE7012B59D1BDF80C3038482A
:10994000C3F38311062928BF062161F3891302316D
:109950008900ADF80C3000F07BF90646002846D0AF
:1099600000F0A5F90023082203A9304600F0B2F95F
:109970000027BDF80C20C2F38312BB00974203F10D
:109980000803BED202994A1C21400331029205EB22
:1099900081010422304600F09DF90137E9E73046A5
:1099A00000F089F9FFF72CFF80F00100C6B2B3E7A1
:1099B000E3685B7923B1236831461B6820469847EA
:1099C000E3681C68002CF3D1304600F074F90DF107
:1099D00007008DF80740FFF783FBD5F818340BB963
:1099E000029B6B609DF80700FFF7AAFBDAE7D5F84A
:1099F000104454B90C4B0D480D49C01AC00800045E
:109A000040F0020000F072F8CCE7236820469B6823
:109A10009847E3681C68ECE700267DE7A8AC0020C7
:109A20007CB10300B4AC0020E4B003003CB10300FF
:109A3000A79903002DE9F74F274D04460F4691469D
:109A400001A901221846D5F808A09846FFF732FE72
:109A500078B3019E0023B01C434503EB000132D1D3
:109A60001E480021FFF730FC80F3100B1C4B1D4AF1
:109A70004FEA14499B1AB9EBD30F04D31A4940F2A9
:109A8000A31002F053FF731C03EA0A03E40005EB82
:109A9000830304F0380449EA0B4006EA0A0644F05E
:109AA0000104D860033644EA881343EA872345F863
:109AB000263095F820341BB1FFF7ACFE0028FBD10F
:109AC00003B0BDE8F08F0AEA010105EB810159F806
:109AD0002320CA600133BFE7A8AC0020C4B0002037
:109AE0007CB10300E4B003001199030000231A467F
:109AF000FFF7A0BF07B50123019201AAFFF79AFF64
:109B000003B05DF804FB07B5CDE9002302236A46E4
:109B1000FFF790FF03B05DF804FB1FB5CDE901230B
:109B2000069B039301AA0323FFF784FF05B05DF8AA
:109B300004FB1FB5CDE90023069B0293079B03930B
:109B40006A460423FFF776FF05B05DF804FB0000CA
:109B500038B5094A0123D2F8104482F820341D4652
:109B600004B938BDE3685D71236820465B68984797
:109B7000E3681C68F4E700BFA8AC00202DE9F74FAC
:109B800099469DF83030009388469346064618B9AA
:109B90002349B62002F0CAFEF18872794A43043A9A
:109BA0004A4505D81E490192C42002F0BFFE019A21
:109BB000DBF80070B6F806A007EB0901914209F145
:109BC000040488BFA2EB0907B4FBFAF5CBF80070D8
:109BD0000AFB154445B9AAEB040BBB4528BFBB469D
:109BE0002FB903B0BDE8F08F3668013DF2E7009B66
:109BF000043408EB050034445A466BB12146A7EB08
:109C00000B0703F07DFFBA455D443668D3464FF03D
:109C1000000428BFBB46E3E701462046EFE700BF4C
:109C2000BC990300F8B546790146721E054600232B
:109C300093422D6803D30024A64202D8F8BD013315
:109C4000F6E70F682846FFF7AFFB01343946F3E724
:109C50002DE9F843CD1C068A0746FFF777FB043E43
:109C600035440446B5FBF6F5F0B14FF48073EDB220
:109C70008380C680013D076081464FF00008A845FB
:109C800012D23846FFF762FB064648B163790133CA
:109C9000637108F10108C9F8000007608146EEE72A
:109CA0002046FFF7BFFF34462046BDE8F883012178
:109CB0000430FFF72CBB10B5012104460430FFF738
:109CC00032FB10F0FF0F04D12046BDE81040FFF733
:109CD000A9BF10BD1FB5144603920022009203AA2B
:109CE000FFF74CFF039BA34203D00349F62002F089
:109CF0001DFE04B010BD00BFBC99030041DF7047DA
:109D0000064B10B500241C70054B1C60BFF35F8F21
:109D10000449054800F040F8204610BDD4B00020AA
:109D2000D8B00020E89A0300CCB0002013B500237F
:109D30000DF107008DF80730FFF7D2F9F1EE104A68
:109D400024F09F03E1EE103ABFF35F8F104B4022E7
:109D5000C3F884219DF80700FFF7F2F9630703D0E9
:109D60000C497D2002F0E2FD02F00EFB58B1FFF736
:109D7000C5FF30F0020304D006494FF4B07002F082
:109D8000D5FD02B010BD20BF40BF20BFF9E700BF26
:109D900000E100E04B9A030038B50D46044618B9BF
:109DA0000849502002F0C2FD1DB90649512002F0B9
:109DB000BDFD25602B6863606A68934204BF002381
:109DC000636038BDF49A030010B5044618B90B4916
:109DD000632002F0ABFD23681BB90849642002F040
:109DE000A5FD636843B1226891680B4463605268C3
:109DF000934204BF0023636010BD00BFF49A0300C8
:109E000010B50D49A1F59472914201D800200FE0E0
:109E10008C1AE30F03EBE4035B1002EBC30452F86C
:109E20003330834205D802D204F10802ECE76068BF
:109E300010BD2146E8E700BF94A0030008B5FFF776
:109E4000DFFF024B002808BF184608BD569F0300DD
:109E500010B5044618B90649A02002F067FD054A6E
:109E6000107918B901211460918010BD8520FCE79C
:109E700094A00300DCB0002008B50B4B1B791BB984
:109E80000A49B92002F052FD094B1A68D2075FBF98
:109E9000E02283F8002301221A604FF08043012260
:109EA000C3F8182508BD00BFDCB0002094A0030053
:109EB00000E100E037B5144B1B791BB91349E620CC
:109EC00002F034FD124B00221A601B680193019BC3
:109ED0004FF080430222C3F804230E4AD06840F0BA
:109EE0008073D3600C4B1C6844F0010119605D68FD
:109EF0005968491BB1F50A5FFAD31C60074BD06063
:109F000001221A6003B030BDDCB0002094A0030031
:109F100004010040F0ED00E0001000E00800004007
:109F200008B5084B1B791BB90749F32002F0FEFC6A
:109F3000064B01221A604FF08042D2F81834DB033E
:109F4000FBD408BDDCB0002094A003000C0000404E
:109F500007B5154B1A687AB100221A601B68009386
:109F6000009B4FF080430122C3F808230F4B587920
:109F700010B95A711B6898470D4B1A6882B10022BC
:109F80001A601B680193019B4FF080430222C3F8C3
:109F90000823064B1B68012003B05DF804EB18474B
:109FA00003B05DF804FB00BF00010040DCB00020FE
:109FB0000401004000F1804000F5C040002382B061
:109FC000036003680193019B02B07047054B4FF09B
:109FD000FF32072843F8202084BFC01880F84820AB
:109FE000704700BFE4B0002002494FF4F37002F064
:109FF0009DBC00BF26A103001F2838B504460D46AE
:10A0000001D9FFF7F1FFA00000F1A040D0F8003720
:10A0100023F44033C0F80037D0F8003743EA054353
:10A02000C0F8003738BD000010B5174C94F8583010
:10A0300043BB04F130032021FF22013911F0FF015D
:10A0400003F8012BF9D1C8B2FFF7C0FF01310C2989
:10A05000F9D1042200210D4803F0ECFD0C4BE02265
:10A0600083F8062340221A604FF4BE70FFF7A2FF68
:10A07000084B4FF00042C3F80423012384F8583002
:10A08000002010BD0820FCE7E4B0002038B100201B
:10A0900000E100E000600040034B93F858000038F6
:10A0A00018BF0120704700BFE4B000201F2870B522
:10A0B00004460D4604D941494FF4987002F036FC2D
:10A0C0003F4E96F85830012B04D03C4940F23110F5
:10A0D00002F02CFC25B939494FF4997002F026FCA6
:10A0E000331993F93020013266D1AA78002A55D06D
:10A0F000334B002253F8041B01314AD1331983F842
:10A100003020002346F82230920002F1804202F50E
:10A11000C0422B78D2F81005697820F498101B04FF
:10A12000090520F4F85001F4801103F44033C2F81B
:10A1300010050B432102D2F8100501F4F8510B432E
:10A140000343C2F810356B78012B4FF0010529D17C
:10A150001F2C01D9FFF748FF4FF0A043A540C3F8DB
:10A1600008551F2C01D9FFF73FFF04F5E0724FF0AF
:10A17000A043032143F8221024FA01F3114A0120DD
:10A18000D15C04F0070400FA04F40C43D45400201A
:10A1900003E00132082AADD1042070BDFE2283F80D
:10A1A0003020D0E71F2C01D9FFF71EFF4FF0A0434E
:10A1B000A540C3F80C55D4E70820EEE7A8A103009A
:10A1C000E4B0002038B100201F2838B5044604D977
:10A1D00012494FF4BE7002F0A9FB114D2A1992F9F1
:10A1E0003020013204D10D4940F27D1002F09EFB77
:10A1F0002B1993F83030072B04D808494FF4BF705F
:10A2000002F094FB1F2C01D9FFF7EEFE01204FF066
:10A21000A04300FA04F4C3F8084538BDA8A1030020
:10A22000E4B000201F2838B5044604D912494FF481
:10A23000C37002F07BFB114D2A1992F930200132D4
:10A2400004D10D4940F2871002F070FB2B1993F8EE
:10A250003030072B04D808494FF4C47002F066FB75
:10A260001F2C01D9FFF7C0FE01204FF0A04300FAD8
:10A2700004F4C3F80C4538BDA8A10300E4B00020E5
:10A280002DE9F04F87B000245F4D03944FF48072A6
:10A29000012102F1804303F5C04390B21B68012BFA
:10A2A00006D1D5F804330B4202D0FFF783FE0C43EE
:10A2B0000432B2F5907F4FEA4101EAD1534B1B685B
:10A2C000012B0AD14FF4BE70FFF774FE4FF0A0438C
:10A2D00044F00044D3F81035039314F0FF0F1AD064
:10A2E0004B4F00250126344210D0AB0003F18043D0
:10A2F00003F5C043D3F81005D3F8101557F82530EF
:10A3000023B1C1F30141C0F3042098470135082D62
:10A310004FEA4606E7D1002C6EDA00214FF0FF33FA
:10A32000CDE904133A4FDFF8EC800026354618F9E2
:10A33000013B5A1C55D0C3F3C20201215FFA83FBD3
:10A3400003F03F0903F0070301FA03F406AB991881
:10A3500011F8043C234244D007EB09034FEA9B1B4E
:10A3600093F9303057F823A0BAF1000F0BD1BBF1AD
:10A37000030F36D10DF1100E1EF802C04CEA040C8A
:10A380000EF802C002E0BBF1030FF3D0B9F11F0FCA
:10A3900003D90191FFF728FE019911F80C1C09F56A
:10A3A000E0724FF0A043214253F82220C2F3014251
:10A3B00006D0022A15D1BBF1030F0CD1594605E096
:10A3C000032A0ED1BBF1030F05D102214846FFF746
:10A3D00013FE0135EDB2BAF1000F02D059464846DE
:10A3E000D0470136042EA2D135B14FF0A043039AD5
:10A3F000D3F81035934202D107B0BDE8F08F039334
:10A40000049B05938FE700BF006000407C61004023
:10A41000E4B0002034B1002010B5054C22681AB910
:10A420000449512002F082FA2368BDE81040184721
:10A4300040B1002040A2030037B50D4630B90F49A6
:10A44000772002F073FA002003B030BD0C4B984225
:10A45000F9D100230DF107008DF80730FEF740FE1B
:10A46000084B1C7914B901221D601A719DF8070070
:10A47000FEF766FE002CE6D01120E5E740A20300BF
:10A480000020004040B100200023435082B04358D8
:10A490000193019B02B0704770B5D0F810310546AA
:10A4A0000C4653B14FF48871FFF7EEFF63795A07FA
:10A4B00003D523680BB101209847D5F814315BB15F
:10A4C0004FF48A712846FFF7DFFF63791B0703D536
:10A4D00023680BB102209847D5F81C315BB12846A0
:10A4E0004FF48E71FFF7D0FF607910F0100002D1A9
:10A4F000236803B19847D5F8043163B14FF48271F2
:10A500002846FFF7C1FF0123237123681BB1BDE873
:10A5100070400320184770BD01490248FFF7BCBFD7
:10A5200048B1002000C0014001490248FFF7B4BF14
:10A5300050B100200010024001490248FFF7ACBFB3
:10A5400058B100200020024000F1804000F5E040BA
:10A55000002382B0036003680193019B02B070473F
:10A56000F0B5504B504C1B6885B0002B3DD04FF4DC
:10A57000827094F82E20FFF7E7FF2AB394F82F306B
:10A5800013BB4A4B1B68002B33D04FF48070FFF78E
:10A59000DBFF638B94F82D108B424FD922895B1A15
:10A5A0009BB292B26383D31A626802EB4303404AC0
:10A5B000C2F82C36C2F830164FF48270FFF7C4FF91
:10A5C0003C4B01221A6014E0636802932389ADF8C2
:10A5D0000C30E36800218DF8041023BB237423683A
:10A5E00001A89847002384F82F3094F82E30002BD0
:10A5F000C7D1314B1B685BB14FF48870FFF7A4FFE4
:10A600000023237402238DF8043001A8236898479F
:10A610002A4B1B68EBB14FF48A70FFF795FF0023BC
:10A62000237405B0F0BD208B608363602081E160FE
:10A63000002AD4D11E4B01221A60D0E7BCD1E368B6
:10A64000012284F82F2013B100226283AFE76383D5
:10A65000B2E766694FF000470125002EE1D0B6FA57
:10A6600086F227FA02F34632920026EA030602F146
:10A67000804303F5E0431B68002BEED01046FFF744
:10A6800063FFA2F58C72D30882F00402C2F3800249
:10A690008DF808308DF8045023688DF8092001A842
:10A6A0009847DAE70471004060B100200071004073
:10A6B00000700040047000401071004014710040B0
:10A6C00002494FF4F37002F031B900BF26A1030034
:10A6D0001F2810B5044601D9FFF7F2FF01204FF003
:10A6E000A04300FA04F4C3F80C4510BD1F2810B5B0
:10A6F000044601D9FFF7E4FF01204FF0A04300FA20
:10A7000004F4C3F8084510BD13B54FF04023D3F847
:10A7100018310BB3114B124C00221A601B680193C5
:10A72000019B236823B90F494FF4277002F0FEF80C
:10A73000E07FFF2803D0A37F5BB1FFF7C9FF0023B1
:10A7400063772372D4E90031074802B0BDE81040B6
:10A750001847FFF7CBFFF2E702B010BD18410040E9
:10A7600090B10020DCA2030098B100202DE9F74F42
:10A770008146CDE900230C4619B97D49AD2002F090
:10A78000D5F899F804607B4F242303FB06FB07EB05
:10A790000B0A9AF81C10002940F0E380D9F8005009
:10A7A00075492846FFF748FE8046002840F0DC80C7
:10A7B000009B47F80B30019BCAF80430237B2078BC
:10A7C000012B00F2BC80FFF783FF94F800A0BAF1E0
:10A7D0001F0F01D9FFF774FF0AF5E07A4FF0A0438D
:10A7E000012243F82A2094F801A0BAF1FF0F00F0EB
:10A7F000A9805046FFF76CFFBAF11F0FD34601D96D
:10A80000FFF75EFF0AF5E07A4FF0A043032243F81A
:10A810002A20A378FF2B00F098801F2B9A4603D99B
:10A820000093FFF74DFF009B03F5E0734FF0A0424C
:10A83000042142F82310242303FB0673A27883F833
:10A840002020E078D877FF2817D02379002B7FD0FD
:10A85000FFF73EFFE3781F2B03D90093FFF730FF8C
:10A86000009B03F5E0734FF0A042032142F8231050
:10A87000242303FB067322799A772378C5F80835D9
:10A88000C5F80CB5C5F810A5A368C5F82435637BD9
:10A89000227B003B18BF0123022A5CD0032A5DD033
:10A8A000012A01D143F00203C5F85435A379C5F854
:10A8B000C03524237343FB5813B14022C5F8042349
:10A8C0000722C5F800257BB36479D9F80050A31E90
:10A8D000012B4FEA153A45F3073506D9631F022BC2
:10A8E00003D926496B2002F021F8002DACBF05F1F9
:10A8F0006043234B4FEA4414B8BF0AF00F0AE4B296
:10A90000AABF03F5614303F80A4083F80043D9F86E
:10A910000030012143F30732C3F3043301FA03F398
:10A920005209184941F82230242303FB06760023FC
:10A93000737701233377404603B0BDE8F08FFFF70C
:10A94000D5FE42E74FF0FF3B63E74FF0FF3A72E777
:10A95000FFF7CCFE7EE743F00403A5E743F00603D0
:10A96000A2E74FF00808E6E74FF01108E3E700BF61
:10A97000DCA2030090B1002009A7020067A3030036
:10A9800014ED00E000E100E02DE9F341584F0679B5
:10A99000242303FB067380461B7F0D46144623B910
:10A9A000544940F2322001F0C1FF2B6833B96B6883
:10A9B00023B1504940F2332001F0B8FFAB6833B9FE
:10A9C000EB6823B14B494FF40D7001F0AFFF98F8DD
:10A9D00004302BB9EB68FF2B02D86B68FF2B04D92E
:10A9E000444940F2352001F0A1FF24237343FA18B3
:10A9F000517F002979D1FB5823B114F0140F04BF03
:10AA00000123537795E80F004FF0240C0CFB067CD4
:10AA10000CF10C0E8EE80F009CF81F00FF2804D0EC
:10AA20009CF81E30C3B1FFF761FE2A6822B102F024
:10AA30006043B3F1005F06D1AB6883B103F06043BC
:10AA4000B3F1005F0BD0242303FB0676002373775A
:10AA5000102002B0BDE8F081FFF73AFEE5E7D8F834
:10AA600000306968C3F84425C3F84815D5E90212D7
:10AA7000C3F83415C3F838250022C3F81821D3F8D9
:10AA800018210192019A14F0010218BF0122C3F8A3
:10AA9000502514F0020218BF0122C3F840252207F6
:10AAA0005CBF01221A6124227243BA5892B9D3F8CA
:10AAB0001821002AFBD0242303FB0676F07FFF2811
:10AAC00003D0B47F1CB1FFF703FE0020C1E7FFF7FE
:10AAD0000DFEFAE714F004004FF0400202D0C3F874
:10AAE0000823F2E7C3F80423B3E71120B1E700BF5E
:10AAF00090B10020DCA203002DE9F34700240646B4
:10AB00000F46904600F5A0754FF48039A246A0008C
:10AB100000F5A07398B22B686BB1D6F8043309FA2C
:10AB200004F21A4207D0C5F800A02B680193019BDC
:10AB3000D7E9003198470134A04505F10405E6D175
:10AB400002B0BDE8F08700002DE9F347554B0779C7
:10AB5000164602689A4204460D4603D152494820DF
:10AB600001F0E4FE1DB950494A2001F0DFFE1EB994
:10AB70004D494B2001F0DAFE4C4A0C2303FB07231E
:10AB800090461B7A002B40F08A802368454A934206
:10AB90000FD002F5805293420BD002F580529342BF
:10ABA00007D002F58032934203D002F580529342DF
:10ABB00002D1AB78032B03D93B495F2001F0B6FEED
:10ABC0000C237B4308EB030248F8036000216B6809
:10ABD00053600E4660792268CBB2984256D8EE7820
:10ABE000B31E012B4FEA123A42F3073906D9731FFD
:10ABF000022B03D92E496B2001F098FEB9F1000F0A
:10AC0000ACBF09F160432B4B2B484FEA4616B8BF47
:10AC10000AF00F0AF6B2AABF03F5614303F80A600F
:10AC200083F80063236843F3073149090122C3F322
:10AC3000043302FA03F340F8213020686B78D0F82F
:10AC4000041503F0030321F003010B43C0F804359E
:10AC50002068AB78D0F8081503F0030321F0030156
:10AC60000B43C0F8083520682B78D0F8101503F096
:10AC70000F0321F00F010B43C0F810350C2303FB29
:10AC8000078700203A7202B0BDE8F0879B0003F509
:10AC9000A0730131D650D3580193019B9AE7082045
:10ACA000F1E700BF00800040EFA30300B4B1002033
:10ACB00067A3030014ED00E000E100E038B50B4DA0
:10ACC00002790C2101FB02520446127A012A03D0B8
:10ACD00007498F2001F02AFE236801221A60237998
:10ACE0000C2202FB035302221A7238BDB4B10020B9
:10ACF000EFA3030038B5104A03790C460C2101FB81
:10AD0000032305461B7A1BB90C49C22001F00EFE35
:10AD10006B79A34203D80949C32001F007FE04F16F
:10AD200010039B002A68DBB20121D15004F5A874FE
:10AD30002B6853F8240038BDB4B10020EFA3030002
:10AD400073B54FF4803405688C408BB101F150032A
:10AD50009B000026EE50EB580193019B0368C3F85B
:10AD60000443036801F5A87143F8212002B070BDC7
:10AD7000C5F80843F5E7000038B50F4A03790D46DA
:10AD80000C2101FB032304461B7A23B90B4940F233
:10AD9000071001F0CBFD6379AB4204D807494FF4AB
:10ADA000847001F0C3FD23684FF4803101FA05F58A
:10ADB000C3F8085338BD00BFB4B10020EFA30300AF
:10ADC000024903480422FFF797BE00BFB4B1002038
:10ADD00000800040024903480422FFF78DBE00BFF7
:10ADE000C0B1002000900040024903480622FFF74E
:10ADF00083BE00BFCCB1002000A00140002343501F
:10AE000082B043580193019B02B07047F0B54F4C9C
:10AE1000236887B023B94E4940F2452001F086FDF2
:10AE20004C48D0F8243105469BB14FF49271FFF79E
:10AE3000E5FFD0F8043163B9A368C0F808330223F2
:10AE4000A360A368C0F8043301230362436107B021
:10AE5000F0BDD5F80431002B49D03F4F3D484FF4A9
:10AE60008271FFF7CBFF0FCF01AE0FC63B68336097
:10AE700094F82E307BB1237B012B0CBFD5F83C25F9
:10AE8000D5F84C250292022B324B0CBFD3F83C353F
:10AE9000D3F84C3503932F484FF4B071FFF7AEFF52
:10AEA0002C484FF4AE71FFF7A9FF94F8303013B17E
:10AEB00094F82E303BB1274B0022C3F80022A26049
:10AEC000264AC3F80823234AD2F8C434C2F8C4344B
:10AED0009A0736D501238DF8003094F830300BB93D
:10AEE00084F82F30D4E9003168469847AFE7194815
:10AEF0004FF4A471FFF782FF237B83B9164F0FCF66
:10AF000001AE0FC63B68336094F83030002BDAD1C5
:10AF1000C5F80032A360114BC5F80833D3E74FF4EE
:10AF20000073C5F8003240F20223A36003F1CE7330
:10AF3000C5F80833A368C5F804330123AB602B625E
:10AF400085E713F0040318BF0223C4E7D8B100203B
:10AF500081A4030000300040E4B1002002029C0103
:10AF60000023435082B043580193019B02B07047C5
:10AF70000A4610B54FF48E71FFF7F2FF136A91681D
:10AF8000C95C136A01331362C0F81C1510BD10B5FB
:10AF90008B690A464FF4847123B9FFF7E1FFD0F8BB
:10AFA000183510BDFFF7DCFF536AD168D0F81805DB
:10AFB000C854536A01335362F3E7000002494FF467
:10AFC000F37001F0B3BC00BF26A103001FB501233D
:10AFD0008DF80030044BCDE90110D3E9001268462A
:10AFE000904705B05DF804FB0CB2002030B54C482A
:10AFF000D0F8043313F4007F85B005464DD0D0F867
:10B000002431002B49D04FF49271FFF7A9FF4FF480
:10B010000173C0F80833434B93F829200AB9012281
:10B0200042603F4902228DF80020D1F88024C1F807
:10B03000802403929A690292DA6801920022C3E99D
:10B0400006226846D3E9001290473548D0F81C31F3
:10B050005BB134490A6A4B699A420A464BD291F86D
:10B060002830002B47D1FFF783FF2D48D0F844311B
:10B070008BB14FF4A271FFF773FF2A4B93F829208D
:10B080000AB1012202609A692AB10022586AD9687D
:10B090009A61FFF79BFF05B030BDD5F804335B071D
:10B0A000D3D5D5F80831002BCFD01E4C1C482146F3
:10B0B000FFF76DFF636AA2699A422346C5D1E26930
:10B0C00052B12369E168E3600023606AA261E36131
:10B0D0006362FFF77BFFB8E794F829200AB90122E1
:10B0E0006A600F4A4FF40171C2F808130022586ACF
:10B0F000D9689A61EDE74FF48E710948FFF730FF88
:10B1000051690029B1D00023029191688DF8003077
:10B11000019153616846D2E900139847A5E700BF43
:10B12000002000400CB200202DE9F84F0546924661
:10B130000C4619B97649AA2001F0F8FB754B2E7917
:10B140002C2202FB0632984692F82A20002A40F070
:10B15000DB8071492868FFF76FF90746002840F047
:10B16000D580D4F80090B9F1FF3F18D0B9F11F0F86
:10B1700001D9FFF723FF4FF0A043012202FA09F2A1
:10B18000C3F80825D4F800B0BBF11F0F994601D9C8
:10B19000FFF714FF0BF5E07B032349F82B30D4F8BD
:10B1A0000490B9F1FF3F0BD0B9F11F0F01D9FFF7A0
:10B1B00005FF09F5E0794FF0A043002243F829206C
:10B1C0002B68A269C3F82425217D637D2A680B437F
:10B1D000C2F86C35D4E900212B68C3F81415C3F804
:10B1E0000C25237D012B35D1D4F80890B9F1FF3F10
:10B1F0000BD0B9F11F0F01D9FFF7E0FE09F5E07997
:10B200004FF0A043002243F82920D4F80C90B9F164
:10B21000FF3F18D0B9F11F0F01D9FFF7CFFE4FF054
:10B22000A043012202FA09F2C3F80825D4F80CB0B1
:10B23000BBF11F0F994601D9FFF7C0FE0BF5E07B6C
:10B24000032349F82B30D4E902212B68C3F80815F1
:10B25000C3F810252C23734308EB0302C2F804A0A3
:10B26000226948F80320BAF1000F3AD02868247FF9
:10B270004FF48E71FFF774FE28684FF4A271FFF748
:10B280006FFE2B68254AC3F804232B684FEA133A54
:10B2900043F30739A31E012B06D9631F022B03D9E1
:10B2A0001F496B2001F042FBB9F1000FAEBF09F15D
:10B2B00060431C4B0AF00F024FEA4414E4B2AABFE9
:10B2C00003F561439C5483F800432B68012143F349
:10B2D0000732C3F3043301FA03F35209124941F868
:10B2E00022302B680422C3F800252C2303FB06839D
:10B2F0000022C3E9062283F829205A61012283F83B
:10B300002A203846BDE8F88F0827FAE71127F8E722
:10B3100011A503000CB20020EDAF02008000020076
:10B3200067A3030014ED00E000E100E02DE9F84F11
:10B33000324E90F804802C2303FB0863054693F8F3
:10B340002A30012B8946934604D02D4940F215102E
:10B3500001F0ECFAB9F1000F04D129494FF48B70D8
:10B3600001F0E4FABBF1000F04D1254940F21710B7
:10B3700001F0DCFA2B792C2404FB03635F69002FB6
:10B380003AD108FB046A4FF48E71CAF82070CAF8EB
:10B3900014B0CAF808908AF828702868FFF7E0FD12
:10B3A0002B6801229A6028685146FFF7E1FDDAF820
:10B3B0000430544683B92868226A63699A4211D3DB
:10B3C0002B68D3F81C21002AFBD00122DA602C2341
:10B3D00003FB0866002373613846BDE8F88F94F8D4
:10B3E00028303BB9D0F81C31002BF8D05146FFF77C
:10B3F000BFFDE1E70F27EAE71127EDE70CB20020D8
:10B4000011A503006DDF704779DF70477DDF70475E
:10B4100064DF70472DE9F04F85B000250E9CBDF824
:10B420003CB0B4F800A00191074690461E46A946DC
:10B430003A884A450DDC45B12388013BA3EB0A035A
:10B440009BB2FF2B3AD806F80A30002005B0BDE8C1
:10B45000F08F7A6852F82900039000220DF10B0159
:10B4600003A8FFF7D5FF0028F0D19DF80B20424537
:10B4700021D12288002D14BF0020022002EB0801F8
:10B48000014459451ADC3DB9013292B2019B228038
:10B49000B35422880132228022880DF10B013244FC
:10B4A00003A8FFF7B5FF0028D0D121889DF80B2015
:10B4B0000A442280012509F10109B9E70C20C5E7FA
:10B4C0002DE9F341089FBDF824801546CDE90078A9
:10B4D000022204461E46FFF79DFF50B93346102254
:10B4E00029462046CDE9087802B0BDE8F041FFF7D3
:10B4F00091BF02B0BDE8F0812DE9F04F002317881D
:10B50000138090F82D3085B006460D46144653B38F
:10B51000082F01D80C2027E102A8FFF773FF0028AD
:10B5200040F0228123880822EA54238801339BB209
:10B530001B222380EA542088013080B2208006221A
:10B540000DF10901284402F0DBFA23889DF8082058
:10B5500006339BB212F0FE0218BF01222380EA5488
:10B56000238801332380B378FBB123880433BB42A3
:10B57000D0D802A8FFF748FF002840F0F5802388C4
:10B580000322EA54238801339BB219222380EA5410
:10B590002388BDF8082001339BB2E9182380EA54C0
:10B5A000120A4A70238802332380F2789AB12388E2
:10B5B000D91CB942AED80221E954238801339BB289
:10B5C00001212380E95423880B449BB22380EA5451
:10B5D00023880B4423807268AAB12388D91CB942FE
:10B5E00098D8022192F90020E954238801339BB2B4
:10B5F0000A212380E954238801339BB22380EA5433
:10B600002388013323803389002B40F0A180338AC3
:10B610005BB1CDE900472B460722032106F110005C
:10B62000FFF74EFF002840F09F80338B5BB1CDE9E0
:10B6300000472B461522142106F11800FFF740FFA2
:10B64000002840F09180326A002A40F09080D6F8BD
:10B650002480B8F1000F30D0B8F804302188981C4D
:10B660008A1C0244BA423FF655AFFE283FF652AF5D
:10B6700003336B54238801339BB2FF222380EA54A7
:10B68000238801339BB22380B8F80020EA54E918DC
:10B69000120A4A702088023080B22080B8F8042054
:10B6A0005AB1D8F8081000296BD0284402F028FAC3
:10B6B0002388B8F804201344238096F82C30002BFC
:10B6C00040F09A80307800284ED03388012B58D033
:10B6D000228802F1020CBC453FF61CAF012805D1BF
:10B6E0007378023313449F42FFF414AF023FBF1A32
:10B6F000BFB202A905EB0C00ADF80870FFF786FE9B
:10B7000090BB3178BDF80830022900F0BA80727819
:10B710009A4202D3BB4240F2B280012940F0B3808A
:10B72000974293B2C0F0AF80ADF808300821BDF861
:10B730000830FE2B3FF6EEAE22880133AB54228850
:10B74000013292B22280A9542288134423800BE054
:10B75000CDE900472B460622022106F10800FFF73B
:10B76000AFFE00283FF453AF05B0BDE8F08FB4F84A
:10B7700000C00CF10603BB423FF6CCAE1188052990
:10B7800001D80720F0E76FF4486E01EB0E039BB27F
:10B790004FF27D3E7345F4D95388052BF1D96FF4F0
:10B7A0004860181880B27045EBD94FF6FF7081429F
:10B7B00003D0834201D09942E3D8052305F80C3029
:10B7C000238801339BB212212380E954238801335B
:10B7D0009BB223801188E954E818090A4170238834
:10B7E00002339BB223805288EA54E918120A4A7045
:10B7F0002388023323802AE7B36A002BC1D04FF09D
:10B8000000094FF00C0A4FF0160B96F82C305FFA37
:10B8100089F293427FF656AFB16A0AFB02F201EB5E
:10B820000208B8F80430981CFE283FF673AE208852
:10B8300003332B54238801339BB2238005F803B0D4
:10B84000238801339BB223808A5AEA54E918120AEA
:10B850004A702088023080B22080B8F804205AB1A3
:10B86000D8F8081000298CD0284402F049F9238820
:10B87000B8F804201344238009F10109C5E7092120
:10B8800055E7BB42FBD9ADF808704FE770B5C0B1C2
:10B890004AB116880024B44203D305196D789D423D
:10B8A00008D0A14201D800200BE0055D01352C44F1
:10B8B000A4B2F0E7A142F6D9A31C1380005D0138C1
:10B8C00080B270BD13B513460022ADF806200DF10D
:10B8D00006020446FFF7DAFF10B1BDF80630E018A3
:10B8E00002B010BD72DF704773DF704738B50122B8
:10B8F00004460D46B0F83812D0F83402FFF7E2FFE4
:10B9000000B1057004F13C0204F50D7104F154001E
:10B91000BDE83840FFF7E6BF80F830107047F8B553
:10B9200004460F46002975D0002873D091F87A306C
:10B930001BB191F89830002B6ED1D7F8A030042BB2
:10B940006AD0D7F89C30042B66D04FF0000C84F8F6
:10B9500002C007F178060FCE251D0FC50FCE0FC50B
:10B9600096E8070085E8070084F830C0D7F8A430CF
:10B970006363D7F8A830A3634FF6FF7504F50D7322
:10B98000C4F84432A4F848520722614604F24A201F
:10B9900002F050F923780BB984F8545094F824300D
:10B9A000002B14BFEE231F2304F15501C4F83412F9
:10B9B000A4F8383204F50E723846FFF79DFD40BBFF
:10B9C00094F82430002B14BFEE231F2304F24311FC
:10B9D000C4F83C12A4F8403204F5107207F13C00A0
:10B9E000FFF78AFDA8B9A369A4F848304FF4807323
:10B9F0000125A4F8503063692064014684F83C5066
:10BA0000636404F13C0204F15400FFF76BFF00B9DA
:10BA10002570F8BD0E20FCE70720FAE7F8B5077897
:10BA200004460D46002F00F0048100F24A26817082
:10BA300007220021304602F0FDF8E38813B1A37815
:10BA4000012B04D0E3794BB1A378022B06D1636BB1
:10BA5000A3B1012284F8512208209847334604F507
:10BA6000147113F8012F12B99942FAD117466B1EBF
:10BA7000032B52D8DFE803F0050B0F1284F8513284
:10BA8000ECE7A3791BB194F8243003B95FB9E379EB
:10BA90000BB1002F43D1237A002B42D1637A002BC4
:10BAA0000CBF00250425636BA570002B3BD0033D24
:10BAB000012D38D86279002A35D094F8522292BBF1
:10BAC00084F85422012284F853220720984704F175
:10BAD0003C0518220021284602F0ACF8E36A94F8ED
