:020000022000DC
:106000000000012055BF02007DBF02003592020052
:1060100081BF020083BF020085BF020000000000B4
:1060200000000000000000000000000087BF020028
:1060300089BF0200000000008BBF02008DBF02007C
:10604000059F02008FBF0200CDA3020075B00200C1
:1060500071A902008FBF020035A2020015A502003F
:1060600029B002003DB002008FBF02008FBF0200C6
:106070008FBF02008FBF02008FBF02008FBF0200E0
:106080008FBF0200658D02008FBF02008FBF02002C
:10609000018E02008FBF0200A1B902008FBF020073
:1060A0008FBF02008FBF020051B002008FBF0200FD
:1060B000CDA402008FBF020000000000000000001D
:1060C0008FBF0200DDA40200EDA402008FBF02001A
:1060D0008FBF02008FBF02008FBF020000000000D0
:1060E00000000000000000000000000000000000B0
:1060F00000000000000000000000000000000000A0
:10610000000000000000000000000000000000008F
:10611000000000000000000000000000000000007F
:10612000000000000000000000000000000000006F
:10613000000000000000000000000000000000005F
:10614000000000000000000000000000000000004F
:10615000000000000000000000000000000000003F
:10616000000000000000000000000000000000002F
:10617000000000000000000000000000000000001F
:10618000000000000000000000000000000000000F
:1061900000000000000000000000000000000000FF
:1061A00000000000000000000000000000000000EF
:1061B00000000000000000000000000000000000DF
:1061C00000000000000000000000000000000000CF
:1061D00000000000000000000000000000000000BF
:1061E00000000000000000000000000000000000AF
:1061F000000000000000000000000000000000009F
:106200000348044B834202D0034B03B11847704745
:1062100038A3002038A300200000000005480649EC
:106220000B1AD90F01EBA301491002D0034B03B1A4
:106230001847704738A3002038A300200000000052
:1062400010B5064C237843B9FFF7DAFF044B13B1BE
:106250000448AFF300800123237010BD38A3002051
:1062600000000000D09B030008B5044B1BB104499B
:106270000448AFF30080BDE80840CFE7000000000D
:106280003CA30020D09B0300A3F5803A704700BFD9
:10629000154B002B08BF114B9D46FFF7F5FF002162
:1062A0008B460F461148124A121A06F0E1FB0C4BBE
:1062B000002B00D098470B4B002B00D098470020B4
:1062C000002104000D000B4805F086FE05F026FFB6
:1062D0002000290002F03AFA05F0D4FE0000080080
:1062E00000000000000000000000012038A3002092
:1062F000D4B50020A5C00200B0F5A47F03D1054BA2
:1063000001221A707047B0F5A67F02BF024B01222E
:106310001A60704755A3002060A30020154B07B5F5
:1063200000200021C3E90001134B00221A6003F092
:10633000F7FC18B1114A9A2102F0C1FC104A92E808
:1063400003006B4683E803000E4A0F48194604F029
:106350002FFD18B1094AAB2102F0B1FC0123002244
:106360000321094804F020FE074804F0DBFD03B0D8
:106370005DF804FB58A3002060A30020F87303001D
:1063800034740300F96202004C74030070B50446D3
:10639000B0B10D4D0D482E68012104F0DFFD2D68D0
:1063A000AE4203D00948012104F0D8FD4FF47A71C0
:1063B000A0FB012301FB0533C4E90023002070BDCD
:1063C0004FF0FF30FBE700BF60A300204C740300D8
:1063D000024B9868003818BF01207047C0B50020F4
:1063E00070B5EFF3108672B60D4A0E48946801231B
:1063F000A4B993600C4B0D4DD3F880102940116067
:10640000C3F88050D3F8841051604FF0FF32C3F8C6
:106410008420047006B962B6002070BD0370F9E7ED
:10642000C0B5002054A3002000E100E0FC06FFBD41
:1064300010B5094B9A686AB1084A127852B9EFF35D
:10644000108072B606491C680C605C684C609A60EB
:1064500000B962B6002010BDC0B5002054A30020D2
:1064600000E100E02DE97343224E00230446684614
:106470000D463370FFF78AFF009B1F4AB4EB0308F9
:10648000019B65EB030940F2E733424573EB0903D7
:106490002CDB4FF47A7200232046294610F0D4FDFD
:1064A00002210446154804F059FDFFF791FF30B969
:1064B000134B144A14484FF48B7105F069FDFFF734
:1064C000B7FF012322460D48022104F06DFD03F0C1
:1064D0003DFC0A48022104F083FDFFF781FF30787C
:1064E00080F00100404202B0BDE870834FF0FF3001
:1064F000F9E700BF55A3002018FCFFFF4C74030010
:106500001B7403003C740300F87303002DE9F84F7B
:10651000436A53F821700369054638460C4698478C
:10652000660882468946012C6A6A4FEA840808D9BF
:10653000D5E903B352F82600984752464B46D84750
:1065400048B96B6A43F808703846AB6921469847EA
:106550002046BDE8F88F6B6A53F8262043F80820E0
:106560006A6AAB6952F808002146984734467608B3
:10657000D9E72DE9F04F2DED028B436A03EB810340
:1065800093ED008A036983B0044618EE100A0D46A5
:10659000984708EE901A80462368B3EB450F4FEA00
:1065A00045060ED8636A18EE102A43F8252018EE27
:1065B000100AA369294603B0BDEC028BBDE8F04F79
:1065C000184706F1010B5B4518D9E368616AEA00D8
:1065D0001F4651F83500236901929847019A636A72
:1065E00013448246226958688946904702460B4602
:1065F00050464946B847002818BF5E46626A4FEACF
:106600008509002ECED0D4E903A352F8260098477E
:1066100002460B46404618EE901AD0470028C1D0DB
:10662000636A53F8262043F80920626AA36952F886
:106630000900294698473546AEE78B4208BF82429B
:1066400034BF0120002070470020704780688B68AD
:10665000C31A5842584170470B1A58425841704764
:10666000D0E900017047D0E904017047C068704765
:10667000006A7047C1607047016270477047000050
:1066800038B50446D0E902030B4DDB680B4A00EB3A
:1066900000101121284406F0EBFDA16801EB011068
:1066A0002844C9B202F0E8F828B1BDE83840044AED
:1066B0004B2102F004BB38BD0CB50020E57B030084
:1066C0005474030070B50446D9B1D0E90006361AF7
:1066D000B1EBA60F05D20B4B0B4A9F210B4805F0DF
:1066E00057FC8D00294606F03BFA18B9084B064ABC
:1066F000A121F3E70644002320602844236166605B
:10670000A06070BD99740300A87D0300AE740300FF
:10671000C27403001FB5224B1A78002A3DD1012212
:106720001A70204B204918680090022368468DF8A3
:10673000003003F09FFF18B11C4A512102F0BFFA4C
:1067400000200223CDE9010001A98DF808300623BD
:106750008DF80C00ADF806008DF80B3003F0ECFF5F
:1067600018B1124A5C2102F0AAFA072301A90120FC
:106770008DF80B3003F0E0FF18B10C4A612102F0F4
:106780009EFA082301A902208DF80B3003F0D4FFF4
:1067900018B1064A662102F092FA05B05DF804FBD2
:1067A000B8A30020807D030019680200C8740300AC
:1067B00030B5144B1D7885B015BB01221A70124BF1
:1067C0000FCB6C4684E80F0010482B462A46214622
:1067D00002F030FF18B10E4A3C2102F070FA0B486B
:1067E00001F0D2FF18B10A4A402102F068FA0948C4
:1067F000002102F041F818B1054A432102F05FFA86
:1068000005B030BDB9A30020847D0300DC980020D2
:1068100054740300137503007047704710B5034BA1
:1068200004460FCB84E80F00204610BDC0A3002013
:106830002DE9F04716461F4656EA07038EB0044678
:1068400006D1374906F078FD01200EB0BDE8F0878B
:10685000002A77F1000315DB6D464FF00008E5E8EC
:1068600002670023304639464FF47A7210F0ECFB91
:1068700006460F4656EA070308F10108EFD14FF02C
:10688000000907E0274906F057FD01344FF00008E2
:106890004FF001090EAB08F1FF3503EBC50151E9DB
:1068A0000E014FF47A72002310F0CEFB1E491646FB
:1068B00020461F4606F040FD642E77F1000315DBED
:1068C000033409F1030908F10056023EDFF85CA029
:1068D0000DEBC6062F46002F13DCB8F1000F4FEA70
:1068E0008505D8BF002505EB0900AEE70A2E77F134
:1068F0000003A7BF023409F10209013409F10109BB
:10690000E1E776E802014FF47A72002310F09CFB75
:106910002046514606F010FD0434013FDBE700BF7E
:10692000BC8503001F750300217503002675030055
:106930002DE9F84305462820894690461F4605F074
:106940003BFD044650B10135A80005F035FD064673
:10695000606230B9204605F037FD34462046BDE878
:10696000F88301232360089BA361099BE3610A9BD1
:106970006761C4E90155C4E903982362EEE708B1F1
:1069800000680138704770B50E46044608B901200A
:1069900070BDD0E900539D4209D38368406A1D440D
:1069A000A90006F0DDF80028F1D06062656021687A
:1069B0004B1C2360636A204643F82160FFF7A6FD65
:1069C0000020E5E710B5034668B10268012A0CD043
:1069D000416A013A4C68026051F822304B60012153
:1069E000FFF7C7FD2346184610BD0023FBE730B173
:1069F0000368012B02D0436A586870470020704733
:106A000038B50A460446016863689500281D0844A5
:106A1000984288BF6060D4E90103984209D3E068D6
:106A20005B1A0130E0605910914205D92046FFF70A
:106A300049FE2068284438BD4900F5E72DE9FF41AB
:106A40001D46234B1B681746022B0A9AB8BF022328
:106A5000934280460E4637DB084606F071FE044638
:106A6000384606F06DFE204400F1200121300391EC
:106A700005F0A2FC174B03991B68002B044617DA9C
:106A8000154A0097334606F0F3FB144B1B68BBB95D
:106A9000134B2A461B682146B8F1000F0ED0D86868
:106AA0000AF070FE204604B0BDE8F04105F08CBC51
:106AB000CDE900670B4A06F0DBFBE6E79868EFE7F5
:106AC000294620469847EDE704B0BDE8F08100BFB5
:106AD000D8980020B89800203B750300DCA3002064
:106AE000189900202E75030007B50B4600210246B9
:106AF000009101200249FFF7A1FF03B05DF804FBFC
:106B0000747503000FB407B504A951F8040B019183
:106B1000FFF7EAFF03B05DF804EB04B07047000034
:106B200038B51148FFF732FC10B11048FFF7EAFF03
:106B30000D4A0F48D2E90032D0E900105B1840EB53
:106B400002020C48D0E900105C180B4B42EB000528
:106B5000D3E90001A04271EB0502B8BFC3E90045CB
:106B6000D3E9000138BD00BFB09800204175030093
:106B700098A30020A0A3002080A3002008B504282B
:106B80001CD8DFE800F003070B1519000D4BD3E903
:106B900000010CE0BDE80840FFF7C2BF094B0A4AFC
:106BA000D3E90001D2E90032C01A61EB020108BD4D
:106BB000FFF7B6FF054AF5E7034BE8E700204FF083
:106BC0000041F4E7C0A30020F0980020D0980020F6
:106BD0000220FFF7D3BF000007B5024601200B4695
:106BE00000900349FFF72AFF03B05DF804FB00BFE4
:106BF000647503000FB407B504A951F8040B0191A3
:106C0000FFF7EAFF03B05DF804EB04B07047000043
:106C100007B50B4600210246009101200249FFF70B
:106C20000DFF03B05DF804FB6E7503000FB407B5EC
:106C300004A951F8040B0191FFF7EAFF012005F0C8
:106C400021FA00002DE9F04704460F461646002EB3
:106C500002DA1E48FFF7EAFF002C35D02368B34262
:106C600032D9636A53F8265075B3D4E903A3284692
:106C700098472369814638468846984702460B461E
:106C800048464146D047F8B92369284698472369C2
:106C90008046384689469847894508BF80450AD0CE
:106CA0007600324639462046FFF7CCFF054648B10C
:106CB0002846BDE8F087E36939462846984700280A
:106CC000EED0F5E70136C2E70025F1E77C75030059
:106CD0000122FFF7B7BF000038B5154605F092F95D
:106CE000044610B90748FFF7A1FF4DB10821012064
:106CF00005F088F90028F5D02B680460286043600F
:106D0000204638BDB97503000146024A0120FFF74D
:106D1000E3BF00BF90A3002070B5054610B1046822
:106D20000CB92C6070BD206805F04EFB66682046EB
:106D300005F04AFB3446F3E710B50446FFF7ECFFD5
:106D40002046BDE8104005F03FBB000070B5074D80
:106D50002C680CB92C6070BD2068FFF7EDFF6668E9
:106D6000204605F031FB3446F3E700BF90A3002036
:106D7000F0B585B06D4685E80F000B4CDDE90023CA
:106D8000D4E90001824273EB010607DB904271EB0C
:106D90000303029FA66805DBB74203D295E80F0004
:106DA00084E80F0005B0F0BDF898002010B5044647
:106DB00010B3006870B1144A217E1368012903F1F1
:106DC000FF33136003D12369BBB905F0FDFA00233B
:106DD00023600120237E7BB10C4A1368B3F5007F4A
:106DE0000DDA0B4901330868E0610C601360094A51
:106DF0001368013B1360022010BD9847E7E7204667
:106E000005F0E2FAF3E700BF64A30020ACA3002082
:106E1000A8A3002068A3002008B5014620B1C368DC
:106E200023B90648FFF7E6FE002008BD013BC3601A
:106E3000002BF9D1BDE80840FFF7B8BFC8750300C3
:106E40002DE9F041284E294D002433689C4218DB7F
:106E5000274C206840BB274B274E1968274B3268C8
:106E60001B689342BEBF264A11681A460023184683
:106E70009A421EDC234C23688BBB00233360BDE8A1
:106E8000F0812A680C2363431A445168087801286A
:106E900008D1127A0AB100220A702A68D3581868F9
:106EA000FFF7BAFF0134D0E7C569FFF7B5FF2560EA
:106EB000CFE751F8234001332070D9E729463846FF
:106EC000FFF79EFD18B103680BB1C3F800800135D0
:106ED000D4E900239B1AB5EBA30FEFD3CDE7002530
:106EE0002746A846F4E700BFB4A30020B0A30020C3
:106EF00088A3002074A3002078A300207CA3002096
:106F000070A30020F0B4002010B5324C88B0FFF719
:106F100097FF2068A0B1FFF732FD014680B12E48EF
:106F2000FFF768FE20682D4CFFF761FDD4E90023D0
:106F3000D0E900108A1A60EB03032948FFF75AFED4
:106F4000284C2368002B06DD2748FFF753FE2168F5
:106F50002648FFF74FFE264C2368002B06DD254808
:106F6000FFF748FE21682448FFF744FEFFF730FE94
:106F70000B46002873F1000102461BDB1F4C6846DC
:106F8000FFF756FC1E48694605F0D6FDD4E90023FC
:106F9000012A73F100030DDBFFF7C2FDD4E90023E2
:106FA000821A61EB03036846FFF742FC1548694605
:106FB00005F0C2FDFFF7CAFE134B186805F004FA8E
:106FC000124B186805F000FA114B186805F0FCF92F
:106FD00008B010BD44B50020FA750300F0980020F9
:106FE0003B76030064A300207C760300AE760300AA
:106FF00068A30020CE760300FE760300D098002020
:107000001C77030045770300B0A3002070A3002085
:1070100074A3002010B50C4B0446186878B1C269FF
:107020001A600A4A1368013B13600023C0E9014358
:10703000C0E90333036043610376C36110BD2020C0
:1070400005F0BAF9F1E700BFA8A30020ACA3002027
:1070500008B5044A136801331360FFF7DBFF01230F
:10706000037608BD68A3002038B50D46144630B934
:10707000074B084A084840F2352104F089FFC368ED
:10708000002B02DD4068FFF7E3FF0560846038BD38
:107090006F770300B67D03007D77030030B585B0C0
:1070A00004AC04E90F000F4C029DD4E90001DDE9B6
:1070B0000023824273EB010CA46810DB904271EB59
:1070C00003030ADBA5420AD38CBF0120002000285D
:1070D000D4BF0020012005B030BD0120F7E74FF0FC
:1070E000FF30F4E7F898002008B5074B1868FFF761
:1070F00069FC38B92021012004F084FF10B903484D
:10710000FFF794FD08BD00BF04B50020B97503006A
:1071100000230022C0E900230023C0E902330361F9
:1071200003758361024B01461868FFF72CBC00BF52
:1071300004B5002038B50446006988420D4601D0E8
:10714000FFF76AFE256138BD2DE9F04F944D91B0EF
:10715000044616461F4695E80F00FFF79FFFDDF82F
:1071600068B0AA4638B15846FFF756FE8D48FFF77B
:1071700041FD0020B3E0002E77F1000306DA32462D
:107180003B468948FFF736FD002600271CB95846C4
:10719000FFF742FEEDE7BBF1000F04D0DBF80C3047
:1071A0000133CBF80C30237A23B9D4E90432F61832
:1071B00042EB0707DAF80030DAF80420079306926A
:1071C000D4E90623CDE90423FFF78EFF0021816176
:1071D000C0F810B0846094F82410DDE90623054659
:1071E00049B3FFF79DFC16EB000847EB0109D4E912
:1071F0000623002A73F1000335DAC5E900896B4BD9
:1072000029461868FFF764FD002800F0C5800123B7
:10721000044680691A4601330028F9D1CDE90C896A
:107220000E9210AB13E90F00FFF738FFC8B12846E4
:10723000FFF76EFF9DE7DAE9000113EB060842EB6A
:107240000709804579EB0103D1DAB0EB0802CDE9FB
:10725000000161EB09035648FFF7CCFCDAE900892D
:10726000C5E7A56185E7277A002F40F09580A66ADB
:10727000002E00F09180D6E90001049BC318029310
:10728000059B41EB03030393DDE90223424573EBC6
:107290000903C0F2818094F82C30012B22D0022BFC
:1072A00034D0DAE90023994208BF904246D13F4BDF
:1072B00031461868FFF70CFD00283FD0D6E90023BF
:1072C0000CA8CDE90823FFF7A9FA0E9B01330A9316
:1072D00008AB0FCBFFF7E2FE0028A8D1B56111B0D3
:1072E000BDE8F08FDDE90423012A73F1000306DB1A
:1072F00033695B459BD05846FFF78EFD97E72B4BD4
:1073000031461868FFF7E4FC0028F1D1D6E9000106
:10731000DAE90023824273EB010704DA594630466A
:10732000FFF708FF83E7994208BF904206D11F4B41
:1073300031461868FFF7CCFC0028EFD1DAE90001EC
:10734000DDE9022382428B410DDA029BC21A039BC4
:10735000CDE9000161EB03031548FFF7D3FBDAE940
:107360000023CDE90223DDE90223C5E90023114B07
:10737000DDE90201D3E9002382428B41BBDB0B4BE9
:10738000A56218682946FFF7FEFA0B4B1868421CE5
:1073900048BF01221A60A2E7CDE90289CEE700BF0B
:1073A000C0A3002093770300B877030044B5002002
:1073B000FF770300F8980020A89800202DE93348B3
:1073C000194B044618680D46FFF711FBA0B1D0E930
:1073D00000BCA3457CEB01030EDA144BD3E9002378
:1073E000BBEB02006CEB0301A21ACDE9000165EBD7
:1073F00003030F48FFF71AFC0E4BD3E90001A0422C
:1074000071EB050206DAC3E9004500229A6002B07A
:10741000BDE83088A94208BFA04202D19A68013273
:10742000F4E70548FFF702FC44B50020F09800207F
:107430006A780300C0A30020D778030010B5436822
:1074400004465860D0E900309847636800225A60CB
:1074500010BD0000F8B505461B481C4F0E4605F050
:107460006BFB1B4805F068FB1A4805F065FB1A48E2
:1074700005F062FB194805F05FFB194805F05CFB5D
:10748000184805F059FB184805F056FB174805F059
:1074900053FB174805F050FB164805F04DFB164806
:1074A00005F04AFB154805F047FB0024AC4204DB1D
:1074B000BDE8F840124805F03FBB56F824103846A6
:1074C00005F03AFB0134F1E717790300567B03001E
:1074D00033790300507903008E790300B2790300F9
:1074E000FE7903004C7A03005F7A0300A97A030057
:1074F000BE7A0300FB7A03000B7B0300467B03008C
:10750000307903002DE9F74F964CDFF8FCA20546D1
:107510000E464FF0010BAB4501DB012014E056F89D
:107520002B80914940460BF101094FEA8B0705F08A
:107530002BFF60B94D451BDC8C48FFF7E3FA28466A
:107540003146FFF787FF002003B0BDE8F08F884980
:10755000404605F019FF0028ECD08649404605F06A
:1075600013FFF8B90BF10203AB4233DB8248E4E7C7
:10757000374482497F6838460BF1020905F004FF61
:1075800018B97F4B01221A704DE07E49384605F04C
:10759000FBFE10B97A4B187045E07B483946FFF77F
:1075A000B1FA40E07949404605F0EEFE0028D9D016
:1075B0007749404605F0E8FE0028D3D0754940469B
:1075C00005F0E2FE002840F085804D4500F39280F2
:1075D0007148B2E737440BF10309D7F80480BF685C
:1075E000404604F007FD02460B46C4E9002313435E
:1075F0000AD16A490122404606F010F920B16848D4
:107600004146FFF77FFA9AE766490322384606F0BB
:1076100005F950B9606864492268A2FB012301FBA7
:107620000033C4E90023CB4675E76049042238469D
:1076300006F0F4F810B960685D49EDE75D49042291
:10764000384606F0EBF818B960684FF47A71E3E752
:1076500059490422384606F0E1F80028E3D057499A
:107660000322384606F0DAF848B9D4E900230D21A0
:1076700051430AFB0311A2FB0A230B44D1E75049F3
:107680000422384606F0CAF850B963684D482268AB
:1076900040F24631514300FB0311A2FB0023ECE70B
:1076A00049490322384606F0B9F828B963684748C3
:1076B000226844F69461EDE745490422384606F015
:1076C000ADF820B96368434822684349E2E743487C
:1076D000394696E74249404605F056FE00283FF4F9
:1076E00074AF4049404605F04FFEC0B94D4526DC19
:1076F0003D4822E7374421497F6838460BF10209AB
:1077000005F042FE08B9394B3CE71E49384605F002
:107710003BFE08B9354B3EE7354839463FE735492A
:10772000404605F031FE0028E0D03349404605F0E0
:107730002BFE00283FF477AF3048414661E73744DD
:107740000BF1020979680191084604F04BFC00280E
:10775000019903DC2A48FFF7D5F90120294B18606D
:1077600061E700BFC89800205A7B0300647B0300D8
:107770005D7B0300A47B0300B17B03007C7B0300E3
:10778000D8A30020817B0300877B0300A77B030035
:10779000A87B0300207C03002F7C0300BC85030032
:1077A000D17B0300E97B030000CA9A3BE87B03001E
:1077B00040420F00ED7B0300F27B0300F77B0300E8
:1077C000FB7B030000A0B830007C030000004F9159
:1077D000047C0300000029F90F260200097C030045
:1077E000237C03006E7C03007B7C0300D9A3002074
:1077F0004C7C0300717C0300CB7C0300D67C03002F
:10780000A17C03008CA30020005847F8124B1349B9
:107810001A6809688A42BEBF1149096841F8220006
:107820001A6801321A604268012303709AB18368B2
:10783000002B10DB1368002B0DDB591C1160426814
:107840005168994203D84FF0FF33136070470233F9
:10785000816842F82310704778A300207CA30020A1
:1078600074A3002038B50446012505771030FFF7D2
:10787000CDFF606A78B1E1692A46FFF7F5FB236A1C
:10788000C36060620576E36A0BB1626A1361236BC1
:107890000BB1626A536138BD30B5C36F1A4D85B004
:1078A0000446D8680FF050F8CDE90201636BD86840
:1078B0000FF04AF8154ACDE900011121284605F0DC
:1078C000D7FC04F58A70C4F82051FFF79FFFD4F865
:1078D0002801B8B1D4F820110122FFF7C5FBD4F874
:1078E0002431C3600123C4F828010376D4F8303171
:1078F00013B1D4F828211361D4F8343113B1D4F87A
:107900002821536105B030BDE0A30020FD7C0300B9
:107910001FB5D0F8C4300446D8680FF015F8A36836
:107920005A1C002BB8BF03339B10CDE90001A260A5
:107930000293144A1448112105F09AFC124BC4F822
:10794000483104F59E70FFF761FFD4F85001B8B1DB
:10795000D4F848110122FFF787FBD4F84C31C360FB
:107960000123C4F850010376D4F8583113B1D4F888
:1079700050211361D4F85C3113B1D4F85021536114
:1079800004B010BD0B7D0300F1A30020F8B50F4B30
:107990001B7804460D460BB10020F8BDFFF7C0F878
:1079A000261A65EB0107012E77F10003F4DB42F2A2
:1079B0000F720023B242BB4105DA20462946BDE8DA
:1079C000F840FEF74FBD4FF0FF30E6E7D8A30020A8
:1079D00090F83830014633B9012380F83830024B33
:1079E0001868FEF7D0BF704730B500202DE9F74387
:1079F0003A4DDFF8F0802868394FFEF7F8FF38B1CC
:107A0000D0E90001D8E90023994208BF904201D093
:107A1000334C5AE02868FEF7D5FF067D04465EB178
:107A2000A16911B13868FEF7AEFF2046FFF770FB81
:107A30002868FEF7DCFFE2E7D0F81090A3685A68E8
:107A4000B2422EDC012283F83420A068037A4BB1C5
:107A5000D0E90623012A73F1000103DB0021009124
:107A6000FFF772FBA36822691B6A93420BD053B1E4
:107A700001221A76A3681A6AD3680133D360A36817
:107A8000186AFFF7C9F9A368C3F82090B9F1000F8D
:107A900002D0002389F81830A368012283F834202B
:107AA000BEE71B6853F8260090F838301BB94FF03A
:107AB000FF31FFF78DFF0136C0E710462E68FEF755
:107AC00081FF01463046FEF75EFF22681046FEF752
:107AD0008EFF0028F1D103B0BDE8F08344B500204B
:107AE00008B50020C0A30020F8B5D0E9046756EA25
:107AF0000703044622D0FFF7F7FA114A8460D2E95F
:107B000000329B1947EB0202C0E900320D4B0146DF
:107B10001868BDE8F840FEF736BF23684FF0FF3124
:107B200053F82500FFF754FF01356368AB42F4DCDE
:107B3000D4E9066756EA0703DDD1F8BD0025F4E76E
:107B4000C0A3002044B500202DE9F04F90F8545018
:107B500087B006460F46002D72D007B0BDE8F08F03
:107B6000F26A52F82520AB0004935AB112784AB158
:107B7000726BD35803934FF00009326B049BD258B9
:107B800091452DDB0135B26A9542E9D3002CE4D052
:107B9000D4E91023002A73F1000354DBFEF7C0FF81
:107BA000D4E91023894652EA030180460CD02848C4
:107BB000D0E900105118434100910193DDE9002301
:107BC000424573EB09033EDAE36C2BB160689847DA
:107BD00039462046FFF7B8FF002384F84830BCE759
:107BE000039B53F8292032B34FF0000A20E01168BC
:107BF00051F82A80B8F1000F18D0A04516D00BF12B
:107C0000010BBBF1010F03D1D8F824108E4215D01F
:107C10002CB1394620460592FFF7DAFE059A059207
:107C200039464046FFF7D4FE059A00240AF1010ABE
:107C300051688A45DBDB09F101099EE74446F5E717
:107C4000AB462C469FE739462046FFF7F7FBBFE7D8
:107C5000C0A300202DE9F84F294F2A4E4FF0020B08
:107C60003B681846FEF78BFEA8B92649D1E90023E8
:107C70008E682549D1E90045A24273EB0507896862
:107C80003BDB944275EB030303DBB14294BF00205E
:107C90000120BDE8F88F1846FEF794FED0E91023C6
:107CA000002A73F10003824680F838B020DBFEF72B
:107CB00037FFDAE910230D4652EA0301044609D0E2
:107CC000D6E9001012EB010843EB0009A04579EB5F
:107CD00005030DDADAF84C3033B1DAF804009847CE
:107CE00000215046FFF730FF00238AF83830B7E70D
:107CF00000215046FFF7A2FBF2E70120C9E700BFD1
:107D000030B50020C0A30020F8980020F0B589B05D
:107D1000FEF766FB2B4B1868FEF769FE2A4B0546FB
:107D20000FCB6C4684E80F00A5B9284B1B78002BBD
:107D30003DD1274BD3E900019B68CDE90401013314
:107D4000069308AB13E90F00FFF712F8214BD3E9B4
:107D5000006716E01E4BD5E90067D3E900239F4278
:107D600008BF964221D104A8FEF758FD069B0133B7
:107D7000CDE90067029394E80F00FFF78FF9002820
:107D8000E4D130463946FFF701FEA8B930463946FE
:107D9000FFF714FBFFF754F8FFF728FEFEF748FB48
:107DA00009B0BDE8F040FFF755BF0023E0E74FF012
:107DB000FF366FF00047E4E7FEF73AFB012009B019
:107DC000F0BD00BF44B50020987D0300D9A300207A
:107DD000C0A30020F898002007B50DF1060102F0BD
:107DE0002FFD18B1044A352100F069FFBDF90600E6
:107DF00003B05DF804FB00BFC8740300000000007E
:107E00002DE9F84F03691B7B0446002B00F0C2806C
:107E10000020FFF7E1FF83460120FFF7DDFF8246E8
:107E20000220FFF7D9FF0546A0680EF08DFD5DA387
:107E3000D3E900230EF02AFC0FF0B6F80EF084FD13
:107E40008046E06889460EF07FFD58A3D3E9002301
:107E50000EF0D2FD57A3D3E900230EF0CDFD0FF0B5
:107E6000A3F80EF071FD064658460F460EF05AFD77
:107E700049A3D3E900230EF0BFFD494B00220EF0C9
:107E8000BBFD42464B460EF0FFFB32463B460EF032
:107E9000DDFE0FF089F8A06404F13C00FFF7B6FCAA
:107EA000206D80B1A16C0122FFF7DEF8E36CC360A6
:107EB000012320650376A36D0BB1226D1361E36D81
:107EC0000BB1226D536150460EF02CFD32A3D3E965
:107ED00000230EF091FD324B00220EF08DFD424644
:107EE0004B460EF0D1FB32463B460EF0AFFE0FF094
:107EF0005BF8206704F16400FFF788FCA06F90B185
:107F0000216F0122FFF7B0F8636FC3600123A06700
:107F10000376D4F880300BB1A26F1361D4F88430AB
:107F20000BB1A26F536128460EF0FCFC1AA3D3E9F3
:107F300000230EF061FD1A4B00220EF05DFD42465B
:107F40004B460EF0A1FB32463B460EF07FFE0FF093
:107F50002BF8C4F8980004F18C00FFF757FCD4F814
:107F6000A000B8B1D4F898100122FFF77DF8D4F83A
:107F70009C30C3600123C4F8A0000376D4F8A83075
:107F800013B1D4F8A0201361D4F8AC3013B1D4F8F5
:107F9000A0205361BDE8F88FCDCCCCCCCCCC0C402C
:107FA0000000303FD7A3703D0AD7F73FE17A14AE07
:107FB00047E1DA3FC92F96FC62C9EF3F38B54FF46D
:107FC0000670FEF7A1FE184C1849194D00F1180271
:107FD00002610022C0E94542C0E95F42C0E9412296
:107FE00000F1B804C0E95B22C0F8C020C0F8B0219D
:107FF00080F89021C0F8F82100F59072C0E92E10A9
:10800000C0F8C841012100F5E474C0F8102200F561
:108010000472C0E94850C0E96241C0E97421C0F867
:108020002811C0F8001238BD177D03001567020043
:10803000017E020038B54FF4CC70FEF765FE184C97
:108040001849194D00F11402C2600022C0E925420E
:10805000C0E93F42C0E9212200F13804C0E93B22D7
:108060000264C0F8302180F81021C0F8782100F1B6
:10807000A002C0E90E10C0F84841012100F5A47427
:10808000C0F8902100F5C872C0E95421C0E9285019
:10809000C0E942410422C0F8A810C0F8802138BDD0
:1080A000177D0300B16702008166020070B54FF4CE
:1080B0003A70FEF729FE02466FF0010400F5E876FB
:1080C000C0F8104142F8786F054601218263002212
:1080D0000266C16345F8C06FC0F8805000F50E75A8
:1080E000C0F8085100F58475C0F8C8501A4DC0F8A2
:1080F0003841C0F86041194CC0F8A820C0E974505C
:108100000225C0E95A40C0F84052154C154DC0F840
:10811000F020C0E96D22C0E97142C0E98722C0E9C0
:108120008B42C0F87021C0E98E50C0F88410C0F8AE
:10813000CC10C0F8D811C0E9A122C0E9A542C0F80E
:10814000C82200F5B472C0F8E02200F53872C0E928
:10815000A82180F8A81270BD997802006578020005
:10816000177D0300117902002DE9F04F85B0FEF76D
:10817000D5F80624054B042120461C6003F042FF7D
:10818000034B186040B90348FEF750FD7CA3002064
:1081900070A30020B97503000421204603F032FFCC
:1081A000D14A10600028EED0D04A00271760FFF7B0
:1081B0007DFF0021044687600020C4E9AC01C8A10E
:1081C000D1E900014FF000084FF00049C84AC4F857
:1081D000D872C4E96A89C4E98489C4E99E89C4E97A
:1081E000AE0104F528711160FFF7E8FE00228260FD
:1081F0004FF07E520546C260BE496FF00102026632
:10820000C0F88820C0F8B0204261C5E93E89C5E9C0
:108210005889B8300860FFF70DFFB649876082467D
:108220006FF001020261CAE91E89CAE93889383053
:108230004860FFF7FFFEAF496FF0010201260261BF
:1082400000F138028346C0E91E89C0E9388986609A
:108250008A60C4F89061224604213046FEF73CFD56
:108260002246C4F89C0104213046FEF735FD224623
:10827000C4F8980104213046FEF72EFD04F11003E6
:10828000C4F89401224603600421C4F8F861304622
:108290000393FEF721FD2246C4F804020421304670
:1082A000FEF71AFD2246C4F8000204213046FEF70C
:1082B00013FD04F58A73C4F8FC012246036004210F
:1082C000C4F8606230460093FEF706FD2246C4F80B
:1082D0006C0204213046FEF7FFFC2246C4F8680217
:1082E00004213046FEF7F8FC4FF0030804F59E73B6
:1082F000C4F864022A4603600421C5F8E070C5F89A
:10830000488140460193FEF7E7FC2A46C5F8540130
:1083100004214046FEF7E0FC2A46C5F8500104213E
:108320004046FEF7D9FC05F13C09C5F84C01C0F800
:108330000090D5F84C2105F16408C2F80480D5F806
:108340004C2105F18C039360CAF86070CAF8C870BC
:10835000CBF86070CBF8C870D4F898212662C4F8C6
:108360002461C4F84C610421166030462246029311
:10837000FEF7B2FCD4F89C211060D4F89C2112685E
:1083800005F5E8711160D4F800220421166030462A
:108390002246FEF7A1FCD4F804221060D4F804228F
:1083A00012680AF5A8711160D4F8682204211660D9
:1083B00030462246FEF790FCD4F86C221060D4F8C8
:1083C0006C2212680BF5A8711160D5F85021EE648B
:1083D0006E67C5F89C600421166030462A46FEF799
:1083E0007BFCD5F854211060D5F85021042156604B
:1083F00030462A46FEF770FCD5F854215060D5F877
:1084000050210421966030462A46FEF765FCD5F8D7
:108410005421039B9060D5F85421374E1268374899
:1084200004F138011160D5F85421526804F1C801F3
:108430001160D5F85421926804F180011160029A0C
:108440002B612F49E267009AC4F83490C4F8C480C5
:10845000CAF80C20019ACBF80C200A6813600B684C
:10846000009A5A60019AC3F81080C3E90229029A5F
:108470005A616FF0004701220023C4E96023DFF84E
:108480008C80C4E978671F4E6FF000416FF00047A1
:108490006FF00049C4E97A23C4E99423C4E95E017A
:1084A000C4E99267C5E93423C5E94E23C5E9320121
:1084B000C5E94C89CAE91423CAE92E23CAE9120185
:1084C000CAE92C67CBE91423CBE92E230E4A6FF0BF
:1084D0000043CBE91201CBE92C2305B0BDE8F08FB6
:1084E00080B2E60E0000000074A3002078A30020F4
:1084F00040B5002034B500200200FFFF0000FFFF60
:1085000070A300200300FFFF0400FFFF0100FFFF36
:10851000F0B5354B354F364D364C374A3749002686
:108520008DB01E60364B0A201E60364B02970195B7
:108530000094FEF7FDF9344B2F4A18603349314B54
:108540000094CDE901570A20FEF7F2F9304B2A4A90
:1085500018602E492B4B0094CDE901570A20FEF7F5
:10856000E7F92C4B2C4F1860FFF7FEFDFEF7D8FA09
:108570002A4BC3E900012A4BC7E90001C3E9000106
:1085800017A3D3E9002305460C460EF05DFD14A3A6
:10859000D3E90023CDE90401284621460EF054FD1D
:1085A00004A8069203F066FD069A01461D4804F0F1
:1085B000C3FA1D4BD3E90001002871F100030CDB65
:1085C000D7E900321B1841EB0202CDE908320A96C6
:1085D0000CAB13E90F00FEF7CBFB0DB0F0BD00BFF5
:1085E00000CA9A3B0000000064A300201B68020040
:1085F0004D66020075660200616602003B6602007D
:1086000068A300206D66020044B5002049660200A0
:1086100004B5002008B50020C0A30020D098002099
:10862000F0980020197D0300C898002070B5084D0F
:10863000084E00243368A34200DC70BD55F8040BDB
:1086400018B14FF0FF31FFF7C3F90134F2E700BF73
:1086500034B50020BC98002070B5074D074E0024AB
:108660002B68A34200DC70BD56F8240008B1FFF768
:108670003BFA0134F4E700BFC098002040B5002069
:1086800030B5234B0D461968224B85B00446186857
:10869000FEF738FF002838D029462046FEF732FF83
:1086A000002832D01C4803F097FC10B11B48FEF79D
:1086B000A1FA1B49022004F069FDFFF729FF194BBD
:1086C0000293194B0193194B194A1A4900930A2036
:1086D000194BFEF72DF9194B194A1860D2E9000120
:1086E000184B0022C3E900019A60174B01221A704F
:1086F000FFF79CFFFFF7B0FFFFF7ACFA10B90020BF
:1087000005B030BDFFF702FBF8E74FF0FF30F7E7A9
:10871000D4A30020D0A30020096F0200547D0300E1
:1087200085C002007D66020059660200796602007B
:10873000676602003B6602007166020030B50020E9
:10874000F0980020C0A300206CA30020FFF798BF82
:108750001FB500220091022369460430CDE90132A1
:10876000039202F045FA05B05DF804FB38B5054DFB
:108770000A2445F001054FF47A40A847013CFAD19C
:1087800038BD00BF607E030037B5394D0E2301A907
:108790002860ADF80430FFF7DBFF0446002858D00E
:1087A000344A182100F08BFA204603B030BDFFF7A1
:1087B000DDFFF9E7FFF7DAFF40232868ADF8043062
:1087C00001A9FFF7C5FF04460028F0D0294A54212B
:1087D000E8E7FFF7CBFF44F203032868ADF8043065
:1087E00001A9FFF7B5FF04460028E3D0214A4A213A
:1087F000D8E7FFF7BBFF4FF400432868ADF804301B
:1088000001A9FFF7A5FF04460028E2D0194A40213C
:10881000C8E7FFF7ABFF48F201032868ADF8043062
:1088200001A9FFF795FF04460028E2D0114A36213E
:10883000B8E7FFF79BFF4FF480432868ADF804309A
:1088400001A9FFF785FF04460028E2D0094A2C2140
:10885000A8E7FFF78BFF02232868ADF8043001A9D1
:10886000FFF776FF04460028E3D0024A222199E769
:1088700004A40020D67D03002DE9F34107460C46F1
:1088800004F05EFF102806463CD85CBB2023ADF800
:108890000430204B01A91868FFF75AFF0446C8B9F5
:1088A000DFF870800025B54238BF7B5DD8F8000046
:1088B00028BF20239A0862F07F029B0101A98DF84E
:1088C00004208DF80530FFF743FF0446F0B1124A4B
:1088D0008E2101E0104A6D2100F0F1F9204602B02E
:1088E000BDE8F081012C0FD13023ADF80430094BE5
:1088F00001A91868FFF72CFF04460028D0D0064ACB
:108900007521E9E70924E9E70B24E7E70135102D94
:10891000C9D1E3E704A40020D67D030038B5054D96
:10892000044645F001054FF47A40A847013CFAD1CE
:1089300038BD00BF207F030070B5054686B00E46E7
:10894000144672B601F014F900F074FF0028FBD150
:108950003E4804F0F1F844F201039D4266D00AD883
:10896000012D12D041F201039D425DD031463848BD
:1089700004F0E2F80CE044F202039D42F6D12288B2
:108980006168344804F0D8F802E0334804F0D4F8C1
:1089900001F05CFB08B901F021FB0023ADF81430B5
:1089A0008DF8163005A9012319208DF8153001F036
:1089B00057FB05A9182001F053FB05A9172001F06A
:1089C0004FFB192001F008FC182001F005FC1720CE
:1089D00001F002FC4FF4FA70FFF7A0FF192001F03C
:1089E000CDFB182001F0CAFB172001F0C7FB322095
:1089F000FFF794FF192001F0EFFB182001F0ECFBCA
:108A0000172001F0E9FB4FF4FA70FFF787FF1920F8
:108A100001F0B4FB182001F0B1FB172001F0AEFB10
:108A2000FA20FFF77BFFCCE70C48AFE7A168039182
:108A3000084601F013FA2368019600930246636822
:108A40000399074804F078F8A2E700BF667E0300A8
:108A5000037F0300BE7E03007F7E03009C7E030035
:108A6000D97E030007B501F0F1FA08B901F0B6FAB2
:108A70000023ADF804308DF8063001A90123192038
:108A80008DF8053001F0ECFA01A9182001F0E8FAA0
:108A900001A9172001F0E4FA192001F09DFB18202C
:108AA00001F09AFB172001F097FB4FF4FA70FFF7E3
:108AB00035FF192001F062FB182001F05FFB172041
:108AC00001F05CFB3220FFF729FF192001F084FB45
:108AD000182001F081FB172001F07EFB4FF4FA70A3
:108AE000FFF71CFF192001F049FB182001F046FB9D
:108AF000172001F043FBFA20FFF710FFCCE70369D2
:108B0000C1688B429DBF8268D21802F1FF3203F127
:108B1000FF3394BF501A581A70472DE9F843D0E933
:108B200002940546A9EB04084068904520440F468E
:108B3000144404D903F002FFEC60BDE8F883424618
:108B4000A4EB090403F0FAFE6868224607EB08016B
:108B5000F0E72DE9F843C5680646894617464FF009
:108B600000083469B3687068A54228BFE418013C66
:108B7000621B5C1BBC4228BF3C46944228BF144683
:108B800049462844224603F0D9FEB3682544AB4247
:108B900008BF00253F1BA044A144F560E1D1404639
:108BA000BDE8F88310B5114C114AA2610223C4E953
:108BB0000433104BE361A2644FF400730E4A0F4973
:108BC0002362E26400231022E01DA3626362E36279
:108BD000A3656365E365226504F040FD084920460E
:108BE00004F03CFD2023A37110BD00BF48B5002058
:108BF000267F030038A8002028A800202F7F03002C
:108C0000337F0300F8B5184C182300FB033503FB32
:108C100000402544C46A012C0F4616460FD0022C92
:108C20001AD0F4B92846FFF76AFF864205D83246C3
:108C300039462846FFF771FF34462046F8BD2846DE
:108C4000FFF75DFF8642344628BF04462246394678
:108C50002846FFF762FFF0E72846BDE8F840FFF737
:108C600078BF0024E9E700BF48B5002073B50E4B7C
:108C70001B7804460D4616460BB9FFF793FF0023F9
:108C80000DF107008DF8073000F07CFA32462946D6
:108C90002046FFF7B7FF04469DF8070000F0A2FA50
:108CA000204602B070BD00BF48B5002010B5114687
:108CB0001C461A460020FFF7D9FF204610BD00B51C
:108CC00083B002900091019244F2010071466A461D
:108CD000FFF732FE03B000BD094A537891780133A3
:108CE000DBB2994208BF0023117899421FBF03707D
:108CF0005078182303FB002014BF04300020704775
:108D000038AA002073B5054600240DF107000E4671
:108D10008DF8074000F036FA0DF10600FFF7DCFF92
:108D200090B10670094B9DF8062045605A709DF879
:108D3000070000F057FA24B9054B4FF48012C3F82E
:108D40000021204602B070BD0424F0E738AA0020BC
:108D500000E100E0024B4FF43C6043F00103184790
:108D6000407F0300F8B51F491F4B0025C1F8405153
:108D7000C1F84451C1F84851C1F84C51C1F80051F3
:108D8000C1F804511B684BB3D1F804451749096871
:108D9000641A24F07F442F461A68A24209D8A41A04
:108DA00015441A7CDE691AB1D3E905201F74904777
:108DB000AEB90F4A0F4B11781B788B4205D10133A6
:108DC000DBB2022B08BF0023137012780A4B43F862
:108DD00022500A4B4FF48012C3F80021F8BD3346ED
:108DE000DAE700BF0010014058AB002054AB002070
:108DF00051AB002050AB002048AB002000E100E068
:108E00002DE9F04FA14AA24913780978A14D994262
:108E100085B03CD00133DBB2022B08BF00231370B6
:108E20009D4912789D4B0F6853F822003B1823F0A0
:108E30007F4300220B602B6816461446944613B9F4
:108E400042B12B6006E0196881420ED902B12B6055
:108E5000091A196001272B68DFF848A201934FF027
:108E60000008BEB9DFF844B262E0401A0C44D96889
:108E7000D3F81CE0C3F800C031B13A1922F07F42A8
:108E8000C3E90121DE611E4673460122D7E70026B1
:108E90003746E0E73446F6697F4A63681268DFF8D0
:108EA00010C2A068991A21F07F41614500F2A880A4
:108EB00001442160012222742A680023C4E901339D
:108EC000E361002A40F0A5802C60CAE79BF80210FD
:108ED0005A1CD2B291428BF8002004BF00228BF8BA
:108EE0000020182202FB03B32A6819799C68022922
:108EF00077D0032900F08180012919D1207CB8B9ED
:108F0000D96861601A69A2605A69E2609B69A361CD
:108F1000634B1B78002B18BF01466160BCE78C4295
:108F200000F091808946C9690029F8D10023237493
:108F30009BF800309BF801209A42C7D12B68B8F10A
:108F4000000F04D1019A9A4201D1002F43D0002B87
:108F500041D0D3F800A0534D4F4BD5F804751C6891
:108F6000DFF850813E1B98F8003026F07F4603362C
:108F70009BB94FF48033C5F84433C5F804334A4BEA
:108F80004FF400324FF00109C3F880211A60C5F890
:108F90000090FFF7DFFE88F80090B2452CBF5444E4
:108FA000A41924F07F44C5F84045D5F80435DB1BEF
:108FB00023F07F43E41B033324F07F44A3420AD908
:108FC000D5F80435C5F84035FFF7C4FE364B4FF4ED
:108FD0000032C3F80021324B00221A7005B0BDE800
:108FE000F08F114691469FE71174D2690123002A40
:108FF000FAD1002B9CD02A609AE700231946F6E7A5
:10900000D31A23F07F43834234BFC31A0023236063
:1090100050E721681368994213D8591A1160E26128
:1090200052E7091AD8691A4638B1034618688842C7
:10903000F7D3401A1860184613462160E061DC61DE
:109040000FE71346F2E74C4511D1D3692B6073B992
:10905000DFF844E00120CDE90212CAF80800CEF89A
:1090600000300F4B1870FFF775FEDDE902120B6838
:10907000C969C9F81C1011B1086803440B602B685A
:10908000934218BF4FF0010850E700BF50AB0020DB
:1090900051AB002058AB002054AB002048AB00205F
:1090A00044AB00200010014000E100E038AA00209D
:1090B000FEFF7F0045AB00202DE9F743DFF88480F9
:1090C00098F8023005460E461746ABB3A0B3042904
:1090D00030D9436983B3437C0024012B0DF1070091
:1090E0000CBF8946A1468DF8074000F04BF80DF102
:1090F0000600FFF7F1FDD8B1012303700F4B456067
:10910000D3F80435C0E90497C0E902369DF806306B
:1091100088F801309DF8070000F064F824B9084B86
:109120004FF48012C3F80021204603B0BDE8F0835D
:109130000424EFE70724F7E70824F5E700100140CF
:1091400000E100E038AA0020064A92783AB130B136
:10915000426922B1002202740221FFF7D3BD082028
:10916000704700BF38AA0020EFF30583C3F308035C
:109170002BB9EFF31480C04300F0010070470120C9
:109180007047000070B50446FFF7EEFF012803D0DA
:109190001049432002F064FDEFF3108672B60E4AC8
:1091A0009068012398B993600C4B0D4DD3F8801053
:1091B00029401160C3F88050D3F8841051604FF0FB
:1091C000FF32C3F88420207006B962B670BD2370E8
:1091D000FAE700BF467F0300C0B5002000E100E0D1
:1091E000FC06FFBD10B50446FFF7BEFF012803D003
:1091F0000949512002F034FD084B9A685AB154B91C
:10920000EFF3108172B6064A186810605868506013
:109210009C6001B962B610BD467F0300C0B5002056
:1092200000E100E0024B1B680021986803F068BE73
:10923000189900201EF0040F1CBFEFF309800AE00C
:10924000EFF308800549064A884201D8904202D8C7
:109250008D464FF00000034B18470000000001202E
:1092600000E00020699202002DE9F347054600F076
:109270007FFC00F0DFFA0028FBD12F4C2F48304B49
:10928000241AE40824049F6A44F00104002D4ED0FF
:10929000AA692C49204600F03DFCEB680193AB68BD
:1092A000294900932046D5E9002300F052FCEB69E0
:1092B00000932649D5E90423204600F03EFC204BCC
:1092C000DB6A980703D52249204600F01FFCDFF82F
:1092D0009490DFF894A000264FF0010808FA06F3F6
:1092E0003B4206D059F826201AB15146204600F0DC
:1092F00011FC01361A2EF1D1390605D5104B15494E
:109300005A6B204600F006FC3A0405D50C4B124976
:109310009A6B204600F0FEFB104B1B68DB0700D564
:1093200000BE2846FFF79EFB02B0BDE8F0870C495F
:10933000204600F0EBFBC2E74C9C0300E49B0300DB
:1093400000ED00E0DA7F0300EF7F030024800300DC
:109350007F800300CE800300EE800300F0ED00E08C
:109360004C800300C8850300C380030010B503468A
:1093700053E8000F0A4643E8002494F0000FF7D1A9
:1093800010BD10B5034653E8002F42EA010043E840
:10939000000494F0000FF6D110BD10B5034653E859
:1093A000000F00EA010243E8002494F0000FF6D118
:1093B00010BD10B5034653E8002F02EB010043E84F
:1093C000000494F0000FF6D110BD10B5034653E829
:1093D000002FA2EB010043E8000494F0000FF6D147
:1093E00010BD0121FFF7CDBF0021FFF7D6BF000060
:1093F00037B5044620B914494FF4927002F030FC9E
:1094000000250DF107008DF80750FFF7BBFE22681D
:10941000616813688B4210D9591E116013F8015C02
:10942000228AE36802FB05352268A36811685B1A8B
:109430001179DBB2994238BF13719DF80700FFF72D
:10944000D1FE284603B030BD3086030037B50C4648
:10945000054620B9104940F2471002F001FC24B93A
:109460000D494FF4A47002F0FBFB00230DF107003F
:109470008DF80730FFF786FE2A681368591C1160C3
:10948000E968641A298AB4FBF1F41C709DF807009E
:10949000FFF7A8FE03B030BD3086030038B5074C97
:1094A000051E04F1080318BF1C4623682BB11A6877
:1094B00022605B6828469847F7E738BD64AB002018
:1094C00020B9054B01225A70FFF7E8BF012802D1ED
:1094D000014A9070F8E770475CAB002020B9034B5D
:1094E00001225A70FFF7DABF704700BF5CAB002063
:1094F00038B50B4C237883B90A486360A3602361B5
:10950000E36000F0B5FC054602F030FA08B900F05F
:10951000C3FC01232370284638BD8525FBE700BF27
:109520005CAB0020C194020013B5164C237823B91C
:1095300015494FF4857002F093FBE36823B9124993
:1095400040F20B1002F08CFB00230DF107008DF8A8
:109550000730FFF717FEE368013BE360E36853B9A8
:1095600002F004FA18B10849792002F079FB00F002
:10957000B1FC0023A3709DF80700FFF733FE02B093
:1095800010BD00BF5CAB0020BF860300012813B5EF
:1095900008D003281CD018B9144B0122C3F880202E
:1095A00002B010BD124C00230DF107008DF80730FA
:1095B000FFF7E8FD23780BB9FFF79AFFE3689DF802
:1095C00007000133E3600123A370FFF70BFEE7E719
:1095D000074B1B7823B9074940F2452002F040FBB6
:1095E00000F05AFCFFF7A0FFDAE700BF00E100E05F
:1095F0005CAB0020BF8603007FB503788DF8043094
:109600004368029383688DF80C30C3680493036940
:10961000064A8DF81430064B01A853F8213052F851
:109620002110984707B05DF804FB00BF70AB002025
:109630007CAB0020F0B50546174615F804CB124A5E
:1096400042F82C70114A42F82C30114B0C460FCBCB
:1096500085B06E4686E80F002368009323798DF865
:10966000053063798DF80630A3680293002FA38933
:10967000084AADF80C3008BF3A46634631462846E2
:1096800001F0A8F905B0F0BD7CAB002070AB002064
:1096900054870300F9950200037813F0040216D0F2
:1096A00003F00303012B03D0022B09D001207047E4
:1096B0000A6800880232C0F3831002440A60F5E7AA
:1096C0000B684288023303EB92130B60EEE71046FF
:1096D000704700002DE9F04F89B000230446861C36
:1096E0000DF10F000F4615468DF80F30FFF74AFDBC
:1096F000494801683960D0E90132134401335B1AEB
:10970000824600F21C4700F5836900F21448B34218
:109710001CD30020002D7BD004F00F039B0143F0ED
:10972000050363F30F00DAF80020DAF8083013407D
:10973000033316444AF823009DF80F00CAF800606E
:10974000FFF750FD012009B0BDE8F08F0121384638
:10975000FFF72FFE4846FFF744FE4046FFF741FE65
:10976000DAF80400DAF808B0049000EA0B000330DD
:109770000AEB800004A9FFF78FFF049B0246F8B9AB
:109780000BEA03010AEB810103F1020CC8680590A2
:10979000013303EA0B0B0AEB8B0B00F003000128EB
:1097A000DBF80C10CDF810C02AD002280BD01B49D2
:1097B00001924FF4BF7002F053FA019A93460CE005
:1097C0000BEA0300D3E7BDF81630C3F38913033364
:1097D0004FEA114B0CEB930304934046FFF704FE52
:1097E00010B1049BCAF8043059463846FFF7E1FD32
:1097F000DAE901231344DAF8002001339B1A86E7E3
:10980000BDF81430C3F383134FEA114B6344E3E70D
:10981000A40544F0060086E758AC002071870300D9
:10982000034BD3E90030C31A58425841704700BF78
:1098300058AC00202DE9F04387B0FFF7F1FF064652
:10984000002840F0F9807D4DC5F81804BFF34F8F14
:109850006B68AC6802932340033305EB830002A9D5
:10986000FFF71AFF029B18B1D5F81824002A5FD021
:1098700004EA0302991C013305EB8202234005EB45
:109880008303D268DB68049302F00303022B039284
:10989000029160D1BDF80E306948C3F38917502F8B
:1098A000B84628BF4FF0500868F38F1308F108013D
:1098B000ADF80E3000F0DCF90646002800F0A78075
:1098C00000F005FA0023082203A9304600F012FA3E
:1098D000029924EA01020132B8EB820F4FEA8203B7
:1098E00032D95FFA88F85BB32140DCB2A8EB0408F8
:1098F00003315FFA88F9A046524C05EB8101082339
:109900004246304600F0F6F934B108F108034A4601
:109910002146304600F0EEF9029B033703EB970730
:109920000297D5F81834002B49D1D5F8104459E0E6
:109930002A689A428FD86A60304607B0BDE8F08343
:1099400040491C469946DAE70C40E11C0823424690
:1099500005EB8101DDE7012B59D1BDF80C3038480A
:10996000C3F38311062928BF062161F3891302314D
:109970008900ADF80C3000F07BF90646002846D08F
:1099800000F0A5F90023082203A9304600F0B2F93F
:109990000027BDF80C20C2F38312BB00974203F1ED
:1099A0000803BED202994A1C21400331029205EB02
:1099B00081010422304600F09DF90137E9E7304685
:1099C00000F089F9FFF72CFF80F00100C6B2B3E781
:1099D000E3685B7923B1236831461B6820469847CA
:1099E000E3681C68002CF3D1304600F074F90DF1E7
:1099F00007008DF80740FFF7C5FBD5F818340BB901
:109A0000029B6B609DF80700FFF7ECFBDAE7D5F8E7
:109A1000104454B90C4B0D480D49C01AC00800043D
:109A200040F0020000F072F8CCE7236820469B6803
:109A30009847E3681C68ECE700267DE758AC0020F7
:109A40007C9C030064AC0020E49B03003C9C03006E
:109A5000078803002DE9F74F274D04460F4691462E
:109A600001A901221846D5F808A09846FFF732FE52
:109A700078B3019E0023B01C434503EB000132D1B3
:109A80001E480021FFF772FC80F3100B1C4B1D4A8F
:109A90004FEA14499B1AB9EBD30F04D31A4940F289
:109AA000A31002F0DDF8731C03EA0A03E40005EBDF
:109AB000830304F0380449EA0B4006EA0A0644F03E
:109AC0000104D860033644EA881343EA872345F843
:109AD000263095F820341BB1FFF7ACFE0028FBD1EF
:109AE00003B0BDE8F08F0AEA010105EB810159F8E6
:109AF0002320CA600133BFE758AC002074B00020B7
:109B00007C9C0300E49B03007187030000231A463A
:109B1000FFF7A0BF07B50123019201AAFFF79AFF43
:109B200003B05DF804FB07B5CDE9002302236A46C4
:109B3000FFF790FF03B05DF804FB1FB5CDE90123EB
:109B4000069B039301AA0323FFF784FF05B05DF88A
:109B500004FB1FB5CDE90023069B0293079B0393EB
:109B60006A460423FFF776FF05B05DF804FB0000AA
:109B700038B5094A0123D2F8104482F820341D4632
:109B800004B938BDE3685D71236820465B68984777
:109B9000E3681C68F4E700BF58AC00202DE9F74FDC
:109BA00099469DF83030009388469346064618B98A
:109BB0002349B62002F054F8F18872794A43043AF6
:109BC0004A4505D81E490192C42002F049F8019A7D
:109BD000DBF80070B6F806A007EB0901914209F125
:109BE000040488BFA2EB0907B4FBFAF5CBF80070B8
:109BF0000AFB154445B9AAEB040BBB4528BFBB467D
:109C00002FB903B0BDE8F08F3668013DF2E7009B45
:109C1000043408EB050034445A466BB12146A7EBE7
:109C20000B0702F08BFEBA455D443668D3464FF011
:109C3000000428BFBB46E3E701462046EFE700BF2C
:109C40001C880300F8B546790146721E05460023BC
:109C500093422D6803D30024A64202D8F8BD0133F5
:109C6000F6E70F682846FFF7F1FB01343946F3E7C2
:109C70002DE9F843CD1C068A0746FFF7B9FB043EE1
:109C800035440446B5FBF6F5F0B14FF48073EDB200
:109C90008380C680013D076081464FF00008A845DB
:109CA00012D23846FFF7A4FB064648B16379013368
:109CB000637108F10108C9F8000007608146EEE70A
:109CC0002046FFF7BFFF34462046BDE8F883012158
:109CD0000430FFF76EBB10B5012104460430FFF7D6
:109CE00074FB10F0FF0F04D12046BDE81040FFF7D1
:109CF000A9BF10BD1FB5144603920022009203AA0B
:109D0000FFF74CFF039BA34203D00349F62001F069
:109D1000A7FF04B010BD00BF1C88030041DF7047DF
:109D2000064B10B500241C70054B1C60BFF35F8F01
:109D30000449054800F040F8204610BD84B00020DA
:109D400088B00020488903007CB0002013B50023B0
:109D50000DF107008DF80730FFF714FAF1EE104A05
:109D600024F09F03E1EE103ABFF35F8F104B4022C7
:109D7000C3F884219DF80700FFF734FA630703D086
:109D80000C497D2001F06CFF01F0F0FD58B1FFF7A8
:109D9000C5FF30F0020304D006494FF4B07001F063
:109DA0005FFF02B010BD20BF40BF20BFF9E700BF7A
:109DB00000E100E0AB88030038B50D46044618B951
:109DC0000849502001F04CFF1DB90649512001F00F
:109DD00047FF25602B6863606A68934204BF0023D5
:109DE000636038BD5489030010B5044618B90B49A7
:109DF000632001F035FF23681BB90849642001F096
:109E00002FFF636843B1226891680B446360526816
:109E1000934204BF0023636010BD00BF5489030058
:109E200010B50D49A1F59472914201D800200FE0C0
:109E30008C1AE30F03EBE4035B1002EBC30452F84C
:109E40003330834205D802D204F10802ECE760689F
:109E500010BD2146E8E700BFF48E030008B5FFF708
:109E6000DFFF024B002808BF184608BDB68D03006F
:109E700010B5044618B90649A02001F0F1FE054AC4
:109E8000107918B901211460918010BD8520FCE77C
:109E9000F48E03008CB0002008B50B4B1B791BB966
:109EA0000A49B92001F0DCFE094B1A68D2075FBFEE
:109EB000E02283F8002301221A604FF08043012240
:109EC000C3F8182508BD00BF8CB00020F48E030035
:109ED00000E100E008B5084B1B791BB90749F320E6
:109EE00001F0BEFE064B01221A604FF08042D2F80C
:109EF0001834DB03FBD408BD8CB00020F48E0300C3
:109F00000C00004007B5154B1A687AB100221A60A0
:109F10001B680093009B4FF080430122C3F8082385
:109F20000F4B587910B95A711B6898470D4B1A6836
:109F300082B100221A601B680193019B4FF080439D
:109F40000222C3F80823064B1B68012003B05DF80A
:109F500004EB184703B05DF804FB00BF00010040AC
:109F60008CB000200401004000F1804000F5C040AA
:109F7000002382B0036003680193019B02B0704725
:109F8000054B4FF0FF32072843F8202084BFC0184C
:109F900080F84820704700BF94B0002002494FF479
:109FA000F37001F05DBE00BF868F03001F2838B537
:109FB00004460D4601D9FFF7F1FFA00000F1A040D3
:109FC000D0F8003723F44033C0F80037D0F800371A
:109FD00043EA0543C0F8003738BD000010B5174C00
:109FE00094F8583043BB04F130032021FF2201399B
:109FF00011F0FF0103F8012BF9D1C8B2FFF7C0FF40
:10A0000001310C29F9D1042200210D4802F030FD64
:10A010000C4BE02283F8062340221A604FF4BE70F6
:10A02000FFF7A2FF084B4FF00042C3F804230123BF
:10A0300084F85830002010BD0820FCE794B00020C0
:10A04000E8B0002000E100E000600040034B93F81E
:10A050005800003818BF0120704700BF94B000209E
:10A060001F2870B504460D4604D941494FF4987035
:10A0700001F0F6FD3F4E96F85830012B04D03C49D4
:10A0800040F2311001F0ECFD25B939494FF49970D7
:10A0900001F0E6FD331993F93020013266D1AA7838
:10A0A000002A55D0334B002253F8041B01314AD10A
:10A0B000331983F83020002346F82230920002F151
:10A0C000804202F5C0422B78D2F81005697820F45E
:10A0D00098101B04090520F4F85001F4801103F4D2
:10A0E0004033C2F810050B432102D2F8100501F4E9
:10A0F000F8510B430343C2F810356B78012B4FF036
:10A10000010529D11F2C01D9FFF748FF4FF0A043CB
:10A11000A540C3F808551F2C01D9FFF73FFF04F5F0
:10A12000E0724FF0A043032143F8221024FA01F318
:10A13000114A0120D15C04F0070400FA04F40C4336
:10A14000D454002003E00132082AADD1042070BDB0
:10A15000FE2283F83020D0E71F2C01D9FFF71EFF25
:10A160004FF0A043A540C3F80C55D4E70820EEE714
:10A170000890030094B00020E8B000201F2838B5F4
:10A18000044604D912494FF4BE7001F069FD114D27
:10A190002A1992F93020013204D10D4940F27D1084
:10A1A00001F05EFD2B1993F83030072B04D80849D5
:10A1B0004FF4BF7001F054FD1F2C01D9FFF7EEFEE4
:10A1C00001204FF0A04300FA04F4C3F8084538BD5D
:10A1D0000890030094B000201F2838B5044604D925
:10A1E00012494FF4C37001F03BFD114D2A1992F949
:10A1F0003020013204D10D4940F2871001F030FDCA
:10A200002B1993F83030072B04D808494FF4C47049
:10A2100001F026FD1F2C01D9FFF7C0FE01204FF0F1
:10A22000A04300FA04F4C3F80C4538BD08900300BD
:10A2300094B000202DE9F04F87B000245F4D0394C7
:10A240004FF48072012102F1804303F5C04390B2C4
:10A250001B68012B06D1D5F804330B4202D0FFF75F
:10A2600083FE0C430432B2F5907F4FEA4101EAD1FC
:10A27000534B1B68012B0AD14FF4BE70FFF774FEDD
:10A280004FF0A04344F00044D3F81035039314F08A
:10A29000FF0F1AD04B4F00250126344210D0AB00DF
:10A2A00003F1804303F5C043D3F81005D3F810152C
:10A2B00057F8253023B1C1F30141C0F3042098477A
:10A2C0000135082D4FEA4606E7D1002C6EDA002151
:10A2D0004FF0FF33CDE904133A4FDFF8EC8000264E
:10A2E000354618F9013B5A1C55D0C3F3C20201216F
:10A2F0005FFA83FB03F03F0903F0070301FA03F45D
:10A3000006AB991811F8043C234244D007EB09032B
:10A310004FEA9B1B93F9303057F823A0BAF1000F96
:10A320000BD1BBF1030F36D10DF1100E1EF802C098
:10A330004CEA040C0EF802C002E0BBF1030FF3D0AC
:10A34000B9F11F0F03D90191FFF728FE019911F808
:10A350000C1C09F5E0724FF0A043214253F8222073
:10A36000C2F3014206D0022A15D1BBF1030F0CD172
:10A37000594605E0032A0ED1BBF1030F05D1022196
:10A380004846FFF713FE0135EDB2BAF1000F02D0D7
:10A3900059464846D0470136042EA2D135B14FF078
:10A3A000A043039AD3F81035934202D107B0BDE819
:10A3B000F08F0393049B05938FE700BF006000407C
:10A3C0007C61004094B00020E4B0002010B5054C42
:10A3D00022681AB90449512001F042FC2368BDE803
:10A3E00010401847F0B00020A090030037B50D468C
:10A3F00030B90F49772001F033FC002003B030BDA5
:10A400000C4B9842F9D100230DF107008DF807306D
:10A41000FEF7B8FE084B1C7914B901221D601A71B1
:10A420009DF80700FEF7DEFE002CE6D01120E5E7E0
:10A43000A090030000200040F0B000200023435013
:10A4400082B043580193019B02B0704770B5D0F8B9
:10A45000103105460C4653B14FF48871FFF7EEFFFB
:10A4600063795A0703D523680BB101209847D5F8C3
:10A4700014315BB14FF48A712846FFF7DFFF63792F
:10A480001B0703D523680BB102209847D5F81C3170
:10A490005BB128464FF48E71FFF7D0FF607910F062
:10A4A000100002D1236803B19847D5F8043163B195
:10A4B0004FF482712846FFF7C1FF012323712368FF
:10A4C0001BB1BDE870400320184770BD0149024828
:10A4D000FFF7BCBFF8B0002000C0014001490248AE
:10A4E000FFF7B4BF00B1002000100240014902484C
:10A4F000FFF7ACBF08B100200020024000F180400F
:10A5000000F5E040002382B0036003680193019BE3
:10A5100002B07047F0B5504B504C1B6885B0002B13
:10A520003DD04FF4827094F82E20FFF7E7FF2AB356
:10A5300094F82F3013BB4A4B1B68002B33D04FF4D9
:10A540008070FFF7DBFF638B94F82D108B424FD99F
:10A5500022895B1A9BB292B26383D31A626802EBC0
:10A560004303404AC2F82C36C2F830164FF48270CA
:10A57000FFF7C4FF3C4B01221A6014E063680293AA
:10A580002389ADF80C30E36800218DF8041023BB5B
:10A590002374236801A89847002384F82F3094F887
:10A5A0002E30002BC7D1314B1B685BB14FF4887044
:10A5B000FFF7A4FF0023237402238DF8043001A8C1
:10A5C000236898472A4B1B68EBB14FF48A70FFF75A
:10A5D00095FF0023237405B0F0BD208B608363607A
:10A5E0002081E160002AD4D11E4B01221A60D0E7FD
:10A5F000BCD1E368012284F82F2013B100226283CA
:10A60000AFE76383B2E766694FF000470125002E8C
:10A61000E1D0B6FA86F227FA02F34632920026EA31
:10A62000030602F1804303F5E0431B68002BEED0E4
:10A630001046FFF763FFA2F58C72D30882F0040284
:10A64000C2F380028DF808308DF8045023688DF82D
:10A65000092001A89847DAE70471004010B10020F2
:10A660000071004000700040047000401071004014
:10A670001471004070B50E46054618B92949D62018
:10A6800001F0EEFA1EB92749D72001F0E9FA264C6D
:10A6900094F82C30002B43D1244A29782660C2F844
:10A6A000F0156978C2F8F415E97884F82E1023744F
:10A6B000012184F82D30636184F82F306FF000435E
:10A6C00084F82C104FF48270C2F80833FFF716FF9D
:10A6D0004FF48070FFF712FF4FF48A70FFF70EFF00
:10A6E000AD78AB1E012B06D96B1F022B03D9104985
:10A6F0006B2001F0B5FA0F4B6D018022EDB283F8AB
:10A7000007531A60094B0222C3F8042394F82E1051
:10A71000012209B1C3F80423C3F80025002070BD4D
:10A720000820FCE73691030010B1002000700040C3
:10A73000C291030000E100E070B53E4E96F82C3067
:10A7400004460D4623B93C4940F2231001F088FA33
:10A75000072C04D938494FF4927001F081FA374B35
:10A76000D3F8F43513F0FF0F07D096F82D3023B14E
:10A7700031494FF4937001F073FAEB79013B082BE8
:10A7800004D92D494FF4947001F06AFA2B7A092B01
:10A7900004D929494FF4957001F062FA337C002BFB
:10A7A00045D104F10C0206EB42031B7923B996F85C
:10A7B0002D30013386F82D3006EB4206EB793371EC
:10A7C0002B7AAA7873716B7812021B0102F4E06293
:10A7D00003F0300313432A7802F003021343EA78AC
:10A7E000120302F4805213432A79120402F4E02285
:10A7F00013436A79120502F480121343AA791206F0
:10A8000002F080721343220102F1804202F5E0421D
:10A81000240104F18044C2F8183504F5E044EB79D2
:10A820002A7AC4F814250020C4F8103570BD112010
:10A83000FCE700BF10B1002036910300007000401B
:10A8400070B5364C227C02F0FF03002A64D1344AF2
:10A85000012503262574C2F80863C2F82C16C2F835
:10A86000305694F82D20AA420CD919461A0102F14B
:10A87000804202F5E0420133082BC2F81415C2F8F9
:10A880001015F3D100F10C03000104EB430300F1B8
:10A89000804000F5E0401A795B79C0F81435C0F8C3
:10A8A00010251F4A01231360536042F2107302F512
:10A8B0008272116831B9013BFBD11A4940F29B10F9
:10A8C00001F0CEF94FF48070FFF718FE4FF482705C
:10A8D000FFF714FE94F82D30012B11D90F490022F7
:10A8E000130103F1804303F5E0430132087F4D7FFC
:10A8F000C3F81455082AC3F8100501F10201EFD17D
:10A9000094F82E20064B2AB103220020C3F804231A
:10A91000207470BD0222F8E71120FAE710B1002080
:10A92000007000403691030002494FF4F37001F0CB
:10A9300097B900BF868F03001F2810B5044601D9C0
:10A94000FFF7F2FF01204FF0A04300FA04F4C3F830
:10A950000C4510BD1F2810B5044601D9FFF7E4FFD0
:10A9600001204FF0A04300FA04F4C3F8084510BDDD
:10A9700013B54FF04023D3F818310BB3114B124CE1
:10A9800000221A601B680193019B236823B90F49B9
:10A990004FF4277001F064F9E07FFF2803D0A37F14
:10A9A0005BB1FFF7C9FF002363772372D4E900315D
:10A9B000074802B0BDE810401847FFF7CBFFF2E7A9
:10A9C00002B010BD1841004040B100204B9203007E
:10A9D00048B100202DE9F74F8146CDE900230C4610
:10A9E00019B97D49AD2001F03BF999F804607B4F1E
:10A9F000242303FB06FB07EB0B0A9AF81C10002923
:10AA000040F0E380D9F8005075492846FFF7EEFC86
:10AA10008046002840F0DC80009B47F80B30019B0B
:10AA2000CAF80430237B2078012B00F2BC80FFF7AA
:10AA300083FF94F800A0BAF11F0F01D9FFF774FF4C
:10AA40000AF5E07A4FF0A043012243F82A2094F857
:10AA500001A0BAF1FF0F00F0A9805046FFF76CFF8C
:10AA6000BAF11F0FD34601D9FFF75EFF0AF5E07A6E
:10AA70004FF0A043032243F82A20A378FF2B00F0D5
:10AA800098801F2B9A4603D90093FFF74DFF009B38
:10AA900003F5E0734FF0A042042142F82310242371
:10AAA00003FB0673A27883F82020E078D877FF288C
:10AAB00017D02379002B7FD0FFF73EFFE3781F2BC1
:10AAC00003D90093FFF730FF009B03F5E0734FF0CD
:10AAD000A042032142F82310242303FB06732279AA
:10AAE0009A772378C5F80835C5F80CB5C5F810A5D0
:10AAF000A368C5F82435637B227B003B18BF012384
:10AB0000022A5CD0032A5DD0012A01D143F002035E
:10AB1000C5F85435A379C5F8C03524237343FB58D1
:10AB200013B14022C5F804230722C5F800257BB3E2
:10AB30006479D9F80050A31E012B4FEA153A45F36A
:10AB4000073506D9631F022B03D926496B2001F074
:10AB500087F8002DACBF05F16043234B4FEA441446
:10AB6000B8BF0AF00F0AE4B2AABF03F5614303F8C5
:10AB70000A4083F80043D9F80030012143F307323B
:10AB8000C3F3043301FA03F35209184941F82230A0
:10AB9000242303FB06760023737701233377404693
:10ABA00003B0BDE8F08FFFF7D5FE42E74FF0FF3B63
:10ABB00063E74FF0FF3A72E7FFF7CCFE7EE743F022
:10ABC0000403A5E743F00603A2E74FF00808E6E711
:10ABD0004FF01108E3E700BF4B92030040B10020A3
:10ABE00071A90200C291030014ED00E000E100E051
:10ABF0002DE9F341584F0679242303FB0673804661
:10AC00001B7F0D46144623B9544940F2322001F00F
:10AC100027F82B6833B96B6823B1504940F23320D1
:10AC200001F01EF8AB6833B9EB6823B14B494FF420
:10AC30000D7001F015F898F804302BB9EB68FF2B74
:10AC400002D86B68FF2B04D9444940F2352001F04B
:10AC500007F824237343FA18517F002979D1FB5850
:10AC600023B114F0140F04BF0123537795E80F00AC
:10AC70004FF0240C0CFB067C0CF10C0E8EE80F0040
:10AC80009CF81F00FF2804D09CF81E30C3B1FFF7CA
:10AC900061FE2A6822B102F06043B3F1005F06D181
:10ACA000AB6883B103F06043B3F1005F0BD02423A2
:10ACB00003FB067600237377102002B0BDE8F08115
:10ACC000FFF73AFEE5E7D8F800306968C3F8442595
:10ACD000C3F84815D5E90212C3F83415C3F838256E
:10ACE0000022C3F81821D3F818210192019A14F018
:10ACF000010218BF0122C3F8502514F0020218BF48
:10AD00000122C3F8402522075CBF01221A612422D8
:10AD10007243BA5892B9D3F81821002AFBD02423E1
:10AD200003FB0676F07FFF2803D0B47F1CB1FFF74A
:10AD300003FE0020C1E7FFF70DFEFAE714F0040060
:10AD40004FF0400202D0C3F80823F2E7C3F804230F
:10AD5000B3E71120B1E700BF40B100204B920300E0
:10AD60002DE9F347002406460F46904600F5A075EE
:10AD70004FF48039A246A00000F5A07398B22B686A
:10AD80006BB1D6F8043309FA04F21A4207D0C5F8B9
:10AD900000A02B680193019BD7E90031984701344B
:10ADA000A04505F10405E6D102B0BDE8F08700003A
:10ADB0002DE9F347554B0779164602689A42044637
:10ADC0000D4603D15249482000F04AFF1DB95049B1
:10ADD0004A2000F045FF1EB94D494B2000F040FFCE
:10ADE0004C4A0C2303FB072390461B7A002B40F0B0
:10ADF0008A802368454A93420FD002F580529342DD
:10AE00000BD002F58052934207D002F58032934274
:10AE100003D002F58052934202D1AB78032B03D9C1
:10AE20003B495F2000F01CFF0C237B4308EB03022F
:10AE300048F8036000216B6853600E466079226811
:10AE4000CBB2984256D8EE78B31E012B4FEA123A95
:10AE500042F3073906D9731F022B03D92E496B2001
:10AE600000F0FEFEB9F1000FACBF09F160432B4BBF
:10AE70002B484FEA4616B8BF0AF00F0AF6B2AABF2F
:10AE800003F5614303F80A6083F80063236843F322
:10AE9000073149090122C3F3043302FA03F340F8EE
:10AEA000213020686B78D0F8041503F0030321F0FB
:10AEB00003010B43C0F804352068AB78D0F80815BF
:10AEC00003F0030321F003010B43C0F808352068A9
:10AED0002B78D0F8101503F00F0321F00F010B436E
:10AEE000C0F810350C2303FB078700203A7202B02C
:10AEF000BDE8F0879B0003F5A0730131D650D3580D
:10AF00000193019B9AE70820F1E700BF0080004011
:10AF1000DB92030064B10020C291030014ED00E055
:10AF200000E100E038B50B4D02790C2101FB025223
:10AF30000446127A012A03D007498F2000F090FEC0
:10AF4000236801221A6023790C2202FB0353022298
:10AF50001A7238BD64B10020DB92030038B5104A84
:10AF600003790C460C2101FB032305461B7A1BB910
:10AF70000C49C22000F074FE6B79A34203D8094942
:10AF8000C32000F06DFE04F110039B002A68DBB2C1
:10AF90000121D15004F5A8742B6853F8240038BD62
:10AFA00064B10020DB92030073B54FF48034056870
:10AFB0008C408BB101F150039B000026EE50EB5802
:10AFC0000193019B0368C3F80443036801F5A8716A
:10AFD00043F8212002B070BDC5F80843F5E7000032
:10AFE00038B50F4A03790D460C2101FB03230446B3
:10AFF0001B7A23B90B4940F2071000F031FE637948
:10B00000AB4204D807494FF4847000F029FE23684E
:10B010004FF4803101FA05F5C3F8085338BD00BF7D
:10B0200064B10020DB920300024903480422FFF7C9
:10B0300097BE00BF64B10020008000400249034871
:10B040000422FFF78DBE00BF70B1002000900040C9
:10B05000024903480622FFF783BE00BF7CB10020EF
:10B0600000A001400023435082B043580193019B4C
:10B0700002B07047F0B54F4C236887B023B94E49F2
:10B0800040F2452000F0ECFD4C48D0F82431054654
:10B090009BB14FF49271FFF7E5FFD0F8043163B92B
:10B0A000A368C0F808330223A360A368C0F8043380
:10B0B00001230362436107B0F0BDD5F80431002BD2
:10B0C00049D03F4F3D484FF48271FFF7CBFF0FCF80
:10B0D00001AE0FC63B68336094F82E307BB1237B02
:10B0E000012B0CBFD5F83C25D5F84C250292022B3C
:10B0F000324B0CBFD3F83C35D3F84C3503932F4873
:10B100004FF4B071FFF7AEFF2C484FF4AE71FFF76C
:10B11000A9FF94F8303013B194F82E303BB1274B8F
:10B120000022C3F80022A260264AC3F80823234A5B
:10B13000D2F8C434C2F8C4349A0736D501238DF846
:10B14000003094F830300BB984F82F30D4E9003156
:10B1500068469847AFE719484FF4A471FFF782FF9C
:10B16000237B83B9164F0FCF01AE0FC63B68336008
:10B1700094F83030002BDAD1C5F80032A360114BBF
:10B18000C5F80833D3E74FF40073C5F8003240F236
:10B190000223A36003F1CE73C5F80833A368C5F892
:10B1A00004330123AB602B6285E713F0040318BF5F
:10B1B0000223C4E788B100206D93030000300040F3
:10B1C00094B1002002029C0170B5C0B14AB116884A
:10B1D0000024B44203D305196D789D4208D0A142E2
:10B1E00001D800200BE0055D01352C44A4B2F0E746
:10B1F000A142F6D9A31C1380005D013880B270BD56
:10B2000013B513460022ADF806200DF106020446E0
:10B21000FFF7DAFF10B1BDF80630E01802B010BD3C
:10B2200072DF704773DF704738B5012204460D4660
:10B23000B0F83812D0F83402FFF7E2FF00B1057021
:10B2400004F13C0204F50D7104F15400BDE83840EE
:10B25000FFF7E6BFF8B5077804460D46002F00F06B
:10B26000048100F24A26817007220021304601F055
:10B27000FFFBE38813B1A378012B04D0E3794BB132
:10B28000A378022B06D1636BA3B1012284F851226B
:10B2900008209847334604F5147113F8012F12B9AA
:10B2A0009942FAD117466B1E032B52D8DFE803F000
:10B2B000050B0F1284F85132ECE7A3791BB194F817
:10B2C000243003B95FB9E3790BB1002F43D1237A5E
:10B2D000002B42D1637A002B0CBF00250425636B41
:10B2E000A570002B3BD0033D012D38D86279002A90
:10B2F00035D094F8522292BB84F85422012284F86B
:10B3000053220720984704F13C05182200212846C3
:10B3100001F0AEFBE36A94F82420581E01210228B4
:10B3200028BF0B4684F83C1084F8513032B1884273
:10B3300096BFA36A84F8521084F85230A178002393
:10B3400084F8503004291BD8DFE801F0770D22354E
:10B3500059000025C3E70225C1E70325BFE7002305
:10B3600084F85332CFE7C4E91063C4F844320223AF
:10B37000012284F83C30802384F83120A4F848303E
:10B38000A378002B5CD1636B002B6AD1002067E0AF
:10B390000223002A84F8313014BF0723032384F8E2
:10B3A0003C302369A4F848300023C4F84432E368F1
:10B3B00026646364E4E763696364A369A4F84830BE
:10B3C00012B1062384F83C306379B3B194F8523259
:10B3D0009BB994F8543283B1022384F8503004218D
:10B3E0002046FFF721FF0028CAD1052384F8313019
:10B3F00004F50D73C4F84432C2E70323F6E7E369AA
:10B400006364236AA4F8483012B1062384F83C3000
:10B41000637983B194F852326BB994F8543253B1D2
:10B42000022384F8503004212046FFF7FDFE002857
:10B43000A6D10623DAE70423D8E784F831309FE762
:10B44000D4F844122A4604F15400FFF7E9FE38B953
:10B4500094F8301094F85400FFF7E4FE002892D0DE
:10B46000F8BD94F83100984790E70820F8E710B548
:10B470000388112B0C460AD0262B1FD0102B05D188
:10B48000C37B012B02D18388A1F8483210BD002371
:10B4900081F852328288B1F848329A42F6D10B795B
:10B4A000002BF3D101212046FFF7D4FE0028EDD078
:10B4B000A36B002BEAD0BDE810401847037A013B8C
:10B4C000012BE3D8897805230131B1FBF3F303EBBA
:10B4D0008303C91AC9B2E6E770470000034B1A8814
:10B4E00082420CBF18460020704700BFD8B1002030
:10B4F000024B9B6903B11847704700BFBCB10020E5
:10B5000037B50B46497A0F4A71B9D2E901141D7A51
:10B510000246002D18BF21465868FDF7CDFD08B141
:10B52000FFF7E6FF03B030BD002119725369002B0D
:10B53000F8D00122ADF806008DF8042001A8984744
:10B54000F0E700BFBCB100204B8802889A4213D8B4
:10B5500042889A4210D380888A8840F2F313984236
:10B5600094BF031AC31A934206D800F2F310904214
:10B5700034BF0020012070470020704770B5038859
:10B58000122B014659D004D8102B1ED0112B44D0B9
:10B5900070BD502BFCD12F4BC288DB899A42F7D16A
:10B5A000038A022BF4D186883046FFF797FF0546C1
:10B5B0000028EDD001F1120000F050F838BB6868A7
:10B5C000FDF7C2FD0028E3D009E0C37B012BDFD1EA
:10B5D0004FF6FF70FFF782FF054620B90420BDE853
:10B5E0007040FFF785BF8E881B4A068000230372D8
:10B5F0001368C0F80A305368C0F80E3010310A30B2
:10B60000FFF7A2FF134B6872DB89002BC0D12946DC
:10B610003046BDE87040FFF773BF8088FFF75EFFDC
:10B6200004460028B4D04068FDF78EFD08B1FFF74E
:10B630005FFF4FF6FF732380AAE786883046FFF747
:10B640004DFF05460028A3D008310A30FFF77CFFE4
:10B650006872DCE7BCB10020ECB10020007800F09B
:10B660000100704790DF7047A5DF7047B5DF704776
:10B670007FB50023ADF80810ADF80A106A4602A99C
:10B68000064603930093ADF80430FFF7EBFF054641
:10B6900000B3124B124CE41AE408FEF7DFFB24045B
:10B6A00044F0010403460F4932462046FEF73BFAB8
:10B6B000BDF80020BDF8023052EA030103D00A4968
:10B6C0002046FEF730FABDF804201AB1074920469B
:10B6D000FEF720FA284604B070BD00BFE49B0300CB
:10B6E000549C0300089403005294030091940300B7
:10B6F00013B5034680880C46B8B91A88242A00F08E
:10B70000968014D8112A71D0232A00F09E80102A26
:10B710003BD0A37A4BB1E1880020FFF7A5FF0028BA
:10B7200040F099804FF48073638102B010BD3A2AD3
:10B7300065D0552AEDD1DB88C988A072172B38BF98
:10B7400017238B4228BF0B462381FFF78FFF60B181
:10B75000FEF784FB484B4949024649481B1ADB085F
:10B760001B0443F00100FEF7D5F9E37A002BD0D19A
:10B770002369002BCDD040F6772200922289ADF8C4
:10B780000420694620469847C3E70A790A73DB7BA1
:10B79000012B13D0022B14D0E18823898B4205D2D0
:10B7A0000020FFF761FF70B90123E372217B637B07
:10B7B0008B42AED20020FFF75BFFAAE70B88E38045
:10B7C000EAE74B88FBE7112802D10123A372EDE7DA
:10B7D000FEF744FB284B2B49024629481B1ADB087D
:10B7E0001B0443F00100FEF795F9DFE7F723CB8058
:10B7F00017230B8141F6FB3348818B8189E75B89F5
:10B80000CA88934228BF1346172B0A6938BF1723EB
:10B810000B814AB1C97A39B140F677210091ADF870
:10B8200004306946204690470023638171E71A7A05
:10B830000B694A73002B3FF46CAF4DF67A218DF8FB
:10B84000050000918DF804209BE7197A237B99422B
:10B8500028BF1946AFE711283FF467AFFEF7FEFA9D
:10B86000054B0849024606481B1ADB081B0443F037
:10B870000100FEF74FF958E7549C030018950300A8
:10B88000E49B0300E7940300B0DF704766DF704776
:10B8900010B5002104464088FFF7F8FF034608B9B9
:10B8A000237210BD112801D10123F9E76368BDE8B7
:10B8B0001040184728B10378DE2B04D141800020C6
:10B8C00070470E20704708207047F0B5054685B0D8
:10B8D0000C46F1B1E8B10B78DE2B1AD182884B8887
:10B8E0009A4204D10B7A13B10846FFF7D1FF2B8897
:10B8F000112B32D0512B0ED0012B0AD12B7A012BD8
:10B9000007D1A9886288914203D123722046FFF7AC
:10B91000BFFF05B0F0BDAE886388B342F9D1AF79FF
:10B92000022FF6D1AD7B2B1F022BF2D80021102263
:10B93000684601F09DF8052D14BF4FF4C073002335
:10B94000694630468DF80070ADF80430FFF79CFF73
:10B950000028DED063689847DBE76388AA889A42AC
:10B9600004BF4FF6FF736380D3E70000014B1878E4
:10B97000704700BFF4B1002007B508496846FEF7DC
:10B980001BFA019B13B903B05DF804FBD3E9002057
:10B9900090476846FEF728FAF3E700BF5C9503007E
:10B9A000FFF7EABF61DF704730B5134DADF5017D9C
:10B9B0004FF4FA740DF1020103A8ADF80240FFF74D
:10B9C000F1FF70B9294601A8FEF7F6F9029B002B9A
:10B9D000F0D003A8D3E90021904701A8FEF704FAAC
:10B9E000F4E7052804D0054A40F23911FDF767F95C
:10B9F0000DF5017D30BD00BF08960300689503007A
:10BA0000024B1B780BB1FFF7CFBF7047F5B1002099
:10BA100076DF70477FDF704786DF70478ADF7047C9
:10BA20008FDF7047B1DF704733DF704737B503886A
:10BA3000212B044632D80F2B06D87D4B13B120465C
:10BA4000AFF3008003B030BD103B112BF5D801A23D
:10BA500052F823F0D1BA020015BB02003BBA020033
:10BA60004FBB02008BBB02003BBA02003BBA020094
:10BA70003BBA02003BBA02003BBA02003BBA0200EA
:10BA8000A7BB02003BBA0200F7BB02003BBA0200B0
:10BA90003BBA02003BBA020015BC02003B2B00F08F
:10BAA0008F80503B9AB2062AC7D8062BC5D801A270
:10BAB00052F823F031BB02003FBB02006FBB020013
:10BAC0003BBA02003BBA02003BBA0200D7BB0200FD
:10BAD000584D818858482980FFF7ECFE20B1574A1D
