:020000022000DC
:1060000000000120B9C80200E1C80200B9980200EE
:10601000E5C80200E7C80200E9C80200000000006D
:10602000000000000000000000000000EBC80200BB
:10603000EDC8020000000000EFC80200F1C8020035
:1060400079A60200F3C8020041AB020035B5020098
:1060500031AE0200F3C80200A9A9020089AC020017
:10606000E9B40200FDB40200F3C80200F3C8020064
:10607000F3C80200F3C80200F3C80200F3C802002C
:10608000F3C8020061930200F3C80200F3C80200E3
:10609000FD930200F3C8020005C30200F3C802002A
:1060A000F3C80200F3C8020011B50200F3C80200F1
:1060B00041AC0200F3C80200000000000000000034
:1060C000F3C8020051AC020061AC0200F3C8020048
:1060D000F3C80200F3C80200F3C802000000000089
:1060E00000000000000000000000000000000000B0
:1060F00000000000000000000000000000000000A0
:10610000000000000000000000000000000000008F
:10611000000000000000000000000000000000007F
:10612000000000000000000000000000000000006F
:10613000000000000000000000000000000000005F
:10614000000000000000000000000000000000004F
:10615000000000000000000000000000000000003F
:10616000000000000000000000000000000000002F
:10617000000000000000000000000000000000001F
:10618000000000000000000000000000000000000F
:1061900000000000000000000000000000000000FF
:1061A00000000000000000000000000000000000EF
:1061B00000000000000000000000000000000000DF
:1061C00000000000000000000000000000000000CF
:1061D00000000000000000000000000000000000BF
:1061E00000000000000000000000000000000000AF
:1061F000000000000000000000000000000000009F
:106200000348044B834202D0034B03B11847704745
:1062100060A3002060A3002000000000054806499C
:106220000B1AD90F01EBA301491002D0034B03B1A4
:106230001847704760A3002060A300200000000002
:1062400010B5064C237843B9FFF7DAFF044B13B1BE
:106250000448AFF300800123237010BD60A3002029
:1062600000000000C0A6030008B5044B1BB10449A0
:106270000448AFF30080BDE80840CFE7000000000D
:1062800064A30020C0A60300A3F5803A704700BFB6
:10629000154B002B08BF114B9D46FFF7F5FF002162
:1062A0008B460F461148124A121A07F097F80C4B0A
:1062B000002B00D098470B4B002B00D098470020B4
:1062C000002104000D000B4806F03CFB06F0DCFB4F
:1062D0002000290002F038FD06F08AFB00000800CB
:1062E00000000000000000000000012060A300206A
:1062F0000CB6002011CA0200B0F5A47F03D1054BF3
:1063000001221A707047B0F5A67F02BF024B01222E
:106310001A6070477DA3002088A30020154B07B5A5
:1063200000200021C3E90001134B00221A6004F091
:106330007BF818B1114A9A2102F0BFFF104A92E887
:1063400003006B4683E803000E4A0F48194604F029
:106350008FFF18B1094AAB2102F0AFFF01230022E1
:106360000321094805F080F8074805F03BF803B021
:106370005DF804FB80A3002088A30020787D030043
:10638000B47D0300F9620200CC7D030070B50446C1
:10639000B0B10D4D0D482E68012105F03FF82D6874
:1063A000AE4203D00948012105F038F84FF47A7164
:1063B000A0FB012301FB0533C4E90023002070BDCD
:1063C0004FF0FF30FBE700BF88A30020CC7D030027
:1063D000024B9868003818BF01207047F8B50020BC
:1063E00070B5EFF3108672B60D4A0E48946801231B
:1063F000A4B993600C4B0D4DD3F880102940116067
:10640000C3F88050D3F8841051604FF0FF32C3F8C6
:106410008420047006B962B6002070BD0370F9E7ED
:10642000F8B500207CA3002000E100E0FC06FFBDE1
:1064300010B5094B9A686AB1084A127852B9EFF35D
:10644000108072B606491C680C605C684C609A60EB
:1064500000B962B6002010BDF8B500207CA3002072
:1064600000E100E02DE97343224E00230446684614
:106470000D463370FFF78AFF009B1F4AB4EB0308F9
:10648000019B65EB030940F2E733424573EB0903D7
:106490002CDB4FF47A7200232046294611F094FA3F
:1064A00002210446154804F0B9FFFFF791FF30B907
:1064B000134B144A14484FF48B7106F01FFAFFF780
:1064C000B7FF012322460D48022104F0CDFF03F05F
:1064D000C1FF0A48022104F0E3FFFFF781FF307893
:1064E00080F00100404202B0BDE870834FF0FF3001
:1064F000F9E700BF7DA3002018FCFFFFCC7D03005F
:106500009B7D0300BC7D0300787D030030B5002433
:10651000C1B00546FC22214601A8009406F05EFFAA
:1065200045F2AA53062229460DF10300ADF80030CA
:106530008DF8022006F0B8FE02231DF80320013377
:10654000092B84EA0204F8D10A22694603488DF82F
:10655000094005F07FFA41B030BD00BFA898002087
:106560002DE9F043044685B008460D4606F0C2F911
:106570000646204606F0BEF98642D9BF27464FF0B0
:10658000FF362F460126A5421AD1002640F20143CC
:106590000DF1060102220DF10A00ADF80830ADF848
:1065A0000460ADF8067006F07FFE022201A903A880
:1065B00006F07AFE02A8FFF7A9FF05B0BDE8F08358
:1065C000281910F0BFFE8046281B894610F0BAFE3D
:1065D00002460B4610F06AFD0DA3D3E9002311F02B
:1065E00045F802460B464046494611F03FF841EC5B
:1065F000100B10F005FD51EC100B11F0BDF9002847
:10660000C4D000F50043B3F5803FBED20646BDE7D7
:106610000000000000C05E4010B503F0ABFA852812
:1066200005D020B1194A4FF4CE7102F046FE002089
:1066300003F0BCFA03F03EF8852805D020B1134AD8
:106640004FF4D27102F039FE114912480622082394
:10665000C1E90023104B8B61002207234A750B7799
:1066600005F0F6F8044630B1084A40F2AB1102F0EA
:1066700024FE204610BD0146FFF772FF04460028A5
:10668000F7D0024A40F2B111F1E700BFD47D030018
:10669000B0980020A898002000E0D7012DE9F84F1D
:1066A000436A53F821700369054638460C469847FB
:1066B000660882468946012C6A6A4FEA840808D92E
:1066C000D5E903B352F82600984752464B46D847BF
:1066D00048B96B6A43F808703846AB692146984759
:1066E0002046BDE8F88F6B6A53F8262043F808204F
:1066F0006A6AAB6952F80800214698473446760822
:10670000D9E72DE9F04F2DED028B436A03EB8103AE
:1067100093ED008A036983B0044618EE100A0D4613
:10672000984708EE901A80462368B3EB450F4FEA6E
:1067300045060ED8636A18EE102A43F8252018EE95
:10674000100AA369294603B0BDEC028BBDE8F04FE7
:10675000184706F1010B5B4518D9E368616AEA0046
:106760001F4651F83500236901929847019A636AE0
:1067700013448246226958688946904702460B4670
:1067800050464946B847002818BF5E46626A4FEA3D
:106790008509002ECED0D4E903A352F826009847ED
:1067A00002460B46404618EE901AD0470028C1D04A
:1067B000636A53F8262043F80920626AA36952F8F5
:1067C0000900294698473546AEE78B4208BF82420A
:1067D00034BF0120002070470020704780688B681C
:1067E000C31A5842584170470B1A584258417047D3
:1067F000D0E900017047D0E904017047C0687047D4
:10680000006A7047C16070470162704770470000BE
:1068100038B50446D0E907030B4DDB680B4A00EBA3
:1068200000101121284407F0D9F9E16901EB0110AA
:106830002844C9B202F01EFB28B1BDE83840044A22
:106840004B2102F03ABD38BD44B500203C86030020
:10685000E17D030070B50446D9B1D0E90006361ACF
:10686000B1EBA60F05D20B4B0B4A9F210B4806F04C
:1068700045F88D00294606F029FE18B9084B064A4E
:10688000A121F3E7064400232060284423616660C9
:10689000A06070BD267E0300988803003B7E030045
:1068A0004F7E030030B5144B1D7885B015BB012217
:1068B0001A70124B0FCB6C4684E80F0010482B4621
:1068C0002A46214603F03AFA18B10E4A3C2102F05A
:1068D000F4FC0B4802F056FA18B10A4A402102F0C3
:1068E000ECFC0948002102F0C5FA18B1054A432121
:1068F00002F0E3FC05B030BDECA300207888030073
:1069000004990020E17D0300557E030070470000DC
:1069100010B5034B04460FCB84E80F00204610BD92
:10692000F0A300202DE9F04716461F4656EA07035C
:106930008EB0044606D1374907F0B4F901200EB0F5
:10694000BDE8F087002A77F1000315DB6D464FF0B4
:106950000008E5E802670023304639464FF47A72B2
:1069600011F032F806460F4656EA070308F101080F
:10697000EFD14FF0000907E0274907F093F9013400
:106980004FF000084FF001090EAB08F1FF3503EBA3
:10699000C50151E90E014FF47A72002311F014F889
:1069A0001E49164620461F4607F07CF9642E77F1F3
:1069B000000315DB033409F1030908F10056023E18
:1069C000DFF85CA00DEBC6062F46002F13DCB8F1F4
:1069D000000F4FEA8505D8BF002505EB0900AEE79B
:1069E0000A2E77F10003A7BF023409F1020901342E
:1069F00009F10109E1E776E802014FF47A72002318
:106A000010F0E2FF2046514607F04CF90434013FF4
:106A1000DBE700BFAC900300617E0300637E0300F0
:106A2000687E03002DE9F8430546282089469046F4
:106A30001F4606F077F9044650B10135A80006F06C
:106A400071F90646606230B9204606F073F93446A3
:106A50002046BDE8F88301232360089BA361099BBE
:106A6000E3610A9B6761C4E90155C4E903982362A5
:106A7000EEE708B100680138704770B50E4604466D
:106A800008B9012070BDD0E900539D4209D3836845
:106A9000406A1D44A90006F019FD0028F1D060628B
:106AA000656021684B1C2360636A204643F82160BF
:106AB000FFF7F4FD0020E5E72DE9F0410368012B25
:106AC00004460E4620D04369084698472368626A08
:106AD000013B236052F8233042F820300546D4E9C8
:106AE000038330469847626A2369074652F82500B7
:106AF0000E46984702460B4638463146C04729465F
:106B000028B12046FFF7CAFD0020BDE8F0812046ED
:106B1000FFF7F7FDF8E710B5034668B10268012AF0
:106B20000CD0416A013A4C68026051F822304B6047
:106B30000121FFF7E6FD2346184610BD0023FBE7C1
:106B400030B10368012B02D0436A586870470020B7
:106B5000704738B50A460446016863689500281DE9
:106B60000844984288BF6060D4E90103984209D381
:106B7000E0685B1A0130E0605910914205D9204667
:106B8000FFF768FE2068284438BD4900F5E700009B
:106B90002DE9FF411D46234B1B681746022B0A9A1D
:106BA000B8BF0223934280460E4637DB084607F003
:106BB00087FA0446384607F083FA204400F12001A2
:106BC0002130039106F0AEF8174B03991B68002B98
:106BD000044617DA154A0097334606F0FFFF144BB8
:106BE0001B68BBB9134B2A461B682146B8F1000F3E
:106BF0000ED0D8680BF086FA204604B0BDE8F0410C
:106C000006F098B8CDE900670B4A06F0E7FFE6E723
:106C10009868EFE7294620469847EDE704B0BDE8BD
:106C2000F08100BF00990020E49800207D7E0300E1
:106C30000CA4002040990020707E030007B50B468D
:106C400000210246009101200249FFF7A1FF03B095
:106C50005DF804FBB67E03000FB407B504A951F834
:106C6000040B0191FFF7EAFF03B05DF804EB04B0F9
:106C70007047000038B51148FFF788FB10B1104885
:106C8000FFF7EAFF0D4A0F48D2E90032D0E90010C1
:106C90005B1840EB02020C48D0E900105C180B4B6B
:106CA00042EB0005D3E90001A04271EB0502B8BF39
:106CB000C3E90045D3E9000138BD00BFD8980020E2
:106CC000837E0300C8A30020D0A30020A8A3002037
:106CD00008B504281CD8DFE800F003070B151900DD
:106CE0000D4BD3E900010CE0BDE80840FFF7C2BF3F
:106CF000094B0A4AD3E90001D2E90032C01A61EB1C
:106D0000020108BDFFF7B6FF054AF5E7034BE8E7C8
:106D100000204FF00041F4E7F0A300201899002074
:106D2000F89800200220FFF7D3BF000007B5024605
:106D300001200B4600900349FFF72AFF03B05DF8DE
:106D400004FB00BFA67E03000FB407B504A951F8E9
:106D5000040B0191FFF7EAFF03B05DF804EB04B008
:106D60007047000007B50B46002102460091012044
:106D70000249FFF70DFF03B05DF804FBB07E03008E
:106D80000FB407B504A951F8040B0191FFF7EAFF0E
:106D9000012005F02DFE00002DE9F04704460F46C6
:106DA0001646002E02DA1E48FFF7EAFF002C35D007
:106DB0002368B34232D9636A53F8265075B3D4E9D5
:106DC00003A3284698472369814638468846984752
:106DD00002460B4648464146D047F8B92369284643
:106DE000984723698046384689469847894508BFB1
:106DF00080450AD07600324639462046FFF7CCFF60
:106E0000054648B12846BDE8F087E369394628467B
:106E100098470028EED0F5E70136C2E70025F1E7F4
:106E2000BE7E03000122FFF7B7BF000010B50A4B7A
:106E30000446186858B102681A60084A084913687D
:106E400003600B68446001330B60106010BD0820C4
:106E500005F068FFF1E700BFE8A30020C0A3002011
:106E6000C4A30020002302680A49C0E900330B686C
:106E7000013B0B60084B196839B9084918600B6869
:106E8000834204D10A60104670470160F5E7194655
:106E90001B68F5E7C4A30020E8A30020C0A30020DE
:106EA00018B1007C00F0010070470120704700001D
:106EB00010B5024600238B4205DB0A4A137843F0E3
:106EC0000203137010BD52F8234044B12068FFF74D
:106ED000E7FF20B1A468207C40F003002074013358
:106EE000E9E700BFB0A3002038B5154605F040FD26
:106EF000044610B90748FFF743FF4DB108210120B0
:106F000005F036FD0028F5D02B680460286043604A
:106F1000204638BDFB7E03000146024A0120FFF7F0
:106F2000E3BF00BFBCA3002070B5054610B10468E4
:106F30000CB92C6070BD206805F0FCFE6668204628
:106F400005F0F8FE3446F3E710B50446FFF7ECFF12
:106F50002046BDE8104005F0EDBE000070B5074DBD
:106F60002C680CB92C6070BD2068FFF7EDFF6668D7
:106F7000204605F0DFFE3446F3E700BFBCA3002047
:106F8000F0B585B06D4685E80F000B4CDDE90023B8
:106F9000D4E90001824273EB010607DB904271EBFA
:106FA0000303029FA66805DBB74203D295E80F00F2
:106FB00084E80F0005B0F0BD2099002010B504460C
:106FC00010B3006870B1144A217E1368012903F1DF
:106FD000FF33136003D12369BBB905F0ABFE002377
:106FE00023600120237E7BB10C4A1368B3F5007F38
:106FF0000DDA0B4901330868E0610C601360094A3F
:107000001368013B1360022010BD9847E7E7204654
:1070100005F090FEF3E700BF8CA30020DCA3002066
:10702000D8A3002090A3002008B5014620B1C36872
:1070300023B90648FFF788FE002008BD013BC36066
:10704000002BF9D1BDE80840FFF7B8BF0A7F030065
:107050002DE9F041284E294D002433689C4218DB6D
:10706000274C206840BB274B274E1968274B3268B6
:107070001B689342BEBF264A11681A460023184671
:107080009A421EDC234C23688BBB00233360BDE88F
:10709000F0812A680C2363431A4451680878012858
:1070A00008D1127A0AB100220A702A68D3581868E7
:1070B000FFF7BAFF0134D0E7C569FFF7B5FF2560D8
:1070C000CFE751F8234001332070D9E729463846ED
:1070D000FFF73FFD18B103680BB1C3F8008001351D
:1070E000D4E900239B1AB5EBA30FEFD3CDE700251E
:1070F0002746A846F4E700BFE4A30020E0A3002051
:10710000B4A300209CA30020A0A30020A4A30020DF
:1071100098A3002028B5002010B50C4B0446186831
:1071200078B1C2691A600A4A1368013B13600023F0
:10713000C0E90143C0E90333036043610376C361DF
:1071400010BD202005F0EEFDF1E700BFD8A3002020
:10715000DCA3002008B5044A136801331360FFF76D
:10716000DBFF0123037608BD90A3002038B50D4650
:10717000144630B9074B084A084840F2352105F05B
:10718000BDFBC368002B02DD4068FFF7E3FF05602D
:10719000846038BD3C7F0300A68803004A7F03005B
:1071A00030B585B004AC04E90F000F4C029DD4E962
:1071B0000001DDE90023824273EB010CA46810DBBF
:1071C000904271EB03030ADBA5420AD38CBF012076
:1071D00000200028D4BF0020012005B030BD0120D0
:1071E000F7E74FF0FF30F4E72099002008B5074B90
:1071F0001868FFF790FC38B92021012005F0B8FB92
:1072000010B90348FFF7BCFD08BD00BF3CB5002026
:10721000FB7E030000230022C0E900230023C0E915
:107220000233036103758361024B01461868FFF75F
:1072300024BC00BF3CB5002070B50C4D2C683CB997
:107240000B4B2C601C600B4C206850B9206070BD4B
:107250006068FFF7DFFF2668204605F06BFD3446C7
:10726000EDE7056805F066FD2846EEE7C0A30020BF
:10727000C4A30020E8A3002010B5334C88B0FFF76A
:10728000E7FEFFF7D9FF2068A0B1FFF7F2FB014648
:1072900080B12E48FFF758FD20682D4CFFF750FCB9
:1072A000D4E90023D0E900108A1A60EB03032948CF
:1072B000FFF74AFD284C2368002B06DD2748FFF71F
:1072C00043FD21682648FFF73FFD264C2368002B2D
:1072D00006DD2548FFF738FD21682448FFF734FD17
:1072E000FFF720FD0B46002873F1000102461BDB6F
:1072F0001F4C6846FFF716FB1E48694606F0D2F899
:10730000D4E90023012A73F100030DDBFFF7B2FC7F
:10731000D4E90023821A61EB03036846FFF702FBFE
:107320001548694606F0BEF8FFF718FE134B1868BB
:1073300005F000FD124B186805F0FCFC114B1868B5
:1073400005F0F8FC08B010BD7CB50020607F03009C
:1073500018990020A17F03008CA30020E27F030086
:107360001480030090A30020348003006480030095
:10737000F898002082800300AB800300E0A3002087
:1073800098A300209CA300202DE9F047099D984672
:1073900006461746FFF72AFFC0E900780123044696
:1073A000037586608246994625B1012D05D1089B5B
:1073B000CAF818302046BDE8F087FFF717FF013DF7
:1073C000CAF81800C0E9007880F8149086608246F8
:1073D000EAE738B50446006988420D4601D0FFF758
:1073E00023FE256138BD000082B02DE9F04F8FB03B
:1073F00018A981E80C00824606A8DDE918891C9FBF
:107400001A9DFFF785FADDE906349845CDE9023487
:1074100079EB040309DBDDE90234434574EB09032E
:10742000DDF820B00BDB5D4509D85948FFF78CFC2F
:107430004FF0FF300FB0BDE8F04F02B0704717B10A
:10744000FB680133FB6018AB0FCBFFF7A9FE30B12F
:107450005048FFF779FC3846FFF7E6FDE8E705906E
:10746000FFF7C4FEC0E900894B4AC0F808A00761D5
:10747000014604461068FFF7D5FC474A0646002837
:1074800068D0059B45BB05759AF82C30012B12D0AE
:10749000022B17D0D0E90023CDE90A2301270C974E
:1074A0000EAB13E90F00FFF77BFE78B12046FFF724
:1074B000B1FE0020BEE70369BB42F7D03846FFF7B4
:1074C000B3FDF3E73946FFF784FFEFE7B3698BB10C
:1074D0003248FFF7C1FBABE7DDE902124A4506BFC0
:1074E00041450BF10100184605F1FF3B5845B569D0
:1074F00002D395B9B4610BE065B9BBEB0000F9D0DC
:10750000CDE9004042464B465046FFF73DFFB06193
:1075100001208FE701302E46E8E79AF82C30012B46
:1075200013D0022B13D0D6E90023CDE90A23013072
:107530000C900EAB13E90F00FFF732FE0028B5D117
:10754000AB69002BC4D1AC61E2E72B69B4E73946E3
:107550002846B8E7DDE90201494508BF404508D1A2
:10756000A5EB0B00012805D110682146FFF785FA2D
:10757000CEE72846002DF7D015684B46CDE90040F0
:1075800042465046FFF700FF01462846EEE700BF9F
:10759000D5800300188103007CB500205F810300C3
:1075A0002DE9F04F944D91B0044616461F4695E8DC
:1075B0000F00FFF7F5FDDDF868B0AA4638B1584670
:1075C000FFF732FD8D48FFF7BFFB0020B3E0002E30
:1075D00077F1000306DA32463B468948FFF7B4FBF1
:1075E000002600271CB95846FFF71EFDEDE7BBF14A
:1075F000000F04D0DBF80C300133CBF80C30237AC9
:1076000023B9D4E90432F61842EB0707DAF8003060
:10761000DAF8042007930692D4E90623CDE904237F
:10762000FFF7E4FD00218161C0F810B0846094F898
:107630002410DDE90623054649B3FFF71BFB16EBD3
:10764000000847EB0109D4E90623002A73F100037F
:1076500035DAC5E900896B4B29461868FFF7E2FB6C
:10766000002800F0C5800123044680691A460133D2
:107670000028F9D1CDE90C890E9210AB13E90F0067
:10768000FFF78EFDC8B12846FFF7C4FD9DE7DAE994
:10769000000113EB060842EB0709804579EB010373
:1076A000D1DAB0EB0802CDE9000161EB09035648DD
:1076B000FFF74AFBDAE90089C5E7A56185E7277A84
:1076C000002F40F09580A66A002E00F09180D6E948
:1076D0000001049BC3180293059B41EB0303039332
:1076E000DDE90223424573EB0903C0F2818094F87F
:1076F0002C30012B22D0022B34D0DAE9002399421E
:1077000008BF904246D13F4B31461868FFF78AFBCD
:1077100000283FD0D6E900230CA8CDE90823FFF7C5
:10772000F7F80E9B01330A9308AB0FCBFFF738FD38
:107730000028A8D1B56111B0BDE8F08FDDE90423C0
:10774000012A73F1000306DB33695B459BD0584681
:10775000FFF76AFC97E72B4B31461868FFF762FB8F
:107760000028F1D1D6E90001DAE90023824273EB67
:10777000010704DA59463046FFF72BFE83E79942AA
:1077800008BF904206D11F4B31461868FFF74AFBED
:107790000028EFD1DAE90001DDE9022382428B41C2
:1077A0000DDA029BC21A039BCDE9000161EB0303D2
:1077B0001548FFF751FADAE90023CDE90223DDE9A4
:1077C0000223C5E90023114BDDE90201D3E90023BF
:1077D00082428B41BBDB0B4BA56218682946FFF741
:1077E0004CF90B4B1868421C48BF01221A60A2E7F3
:1077F000CDE90289CEE700BFF0A30020908103000D
:10780000B58103007CB50020FC8103002099002095
:10781000D09800202DE9F04F93B0CDE906231C9BB2
:1078200008934FF000081D9B099389468246414604
:10783000C8454CDB002900F02F81994F994ED7E9BC
:107840000045002188464945C0F2E780964C2068F3
:1078500040B3FFF70EF9804620B3042105F088F805
:1078600000260546334622680136526A52F8262021
:107870006AB1916859B1886BFFF712FB38B945F8C6
:10788000232003F101091046FFF7D0FA4B46464585
:10789000E9D1A84605EB8306464540F0F780284627
:1078A00005F048FA7F4B1B78002B00F0F580002094
:1078B00001232468CDE90003D7E90023FFF764FD25
:1078C0000146204613B0BDE8F04FFFF7D6B85AF88E
:1078D00028400CB3226852B1136843B1D868824281
:1078E00005D11B7C012B02BF6268E2602374E36850
:1078F00093B1237C012B09D1069D0026079B9E4254
:107900000DDB00252E46099B9D4214DB674BDFF8FB
:10791000A4B11D680DBB012108F1010888E7E268E8
:107920002B689A4204D1D5E90212686805F0BCFCC4
:1079300001361035E2E7089B53F82500D0E906230D
:10794000134308D1826BE3689A4204D10096D0E9D0
:107950000423FFF725FE0135D5E76E68002E5AD0C7
:10796000B768002F57D0E268BB6B934253D1227C9B
:10797000012A10D13B7A33B100230093D7E90423C5
:107980003846FFF70DFE3046FFF744FC2846FFF768
:1079900069FA0546BEE7A2689342F4D0D3E9022310
:1079A00052EA030C08BF424BD6E9001008BFD3E9E6
:1079B0000023891A60EB03030AA804910593FEF7DC
:1079C000A7FF049A0A9B05999B180B9A41EB0202A8
:1079D000CDE90E32DDE9042313430ABF0C9B0023DB
:1079E000013310933369029312AB13E90300DDE90D
:1079F0000E238DE803003846FFF7F6FCB269002A33
:107A0000C1D0B3689B6A996909B99A61BBE75846C6
:107A1000FFF722F9B7E72D687CE75AF82130002BF1
:107A200032D09868027C22F001020274DA68DAB17E
:107A30009A68C2E90245D8689860027C12F0040F87
:107A400004BF42F002020274986893F810C0027CEE
:107A5000BCF1010F0CBF42F0080222F008020274D0
:107A6000C3F80C8083F810801868FFF719FA58B132
:107A70009868027C42F0010202749B6832781B7C99
:107A800003F00A03134333700131DCE658F8041B9A
:107A90002068FFF711F8FFE613B0BDE8F08F00BFD4
:107AA000F0A30020B0A300207CB50020C0A30020DC
:107AB00018990020678203002DE93348194B0446CA
:107AC00018680D46FFF73CF8A0B1D0E900BCA3450B
:107AD0007CEB01030EDA144BD3E90023BBEB02006D
:107AE0006CEB0301A21ACDE9000165EB03030F481B
:107AF000FFF746F90E4BD3E90001A04271EB0502F6
:107B000006DAC3E9004500229A6002B0BDE8308879
:107B1000A94208BFA04202D19A680132F4E70548A1
:107B2000FFF72EF97CB5002018990020C1820300D0
:107B3000F0A300202E83030010B54368044658606C
:107B4000D0E900309847636800225A6010BD0000F9
:107B5000F8B505461B481C4F0E4605F0A3FC1B4814
:107B600005F0A0FC1A4805F09DFC1A4805F09AFCA7
:107B7000194805F097FC194805F094FC184805F0E1
:107B800091FC184805F08EFC174805F08BFC17484F
:107B900005F088FC164805F085FC164805F082FCC7
:107BA000154805F07FFC0024AC4204DBBDE8F8403A
:107BB000124805F077BC56F82410384605F072FCE0
:107BC0000134F1E76E830300AD8503008A8303006F
:107BD000A7830300E58303000984030055840300A1
:107BE000A3840300B6840300008503001585030009
:107BF00052850300628503009D850300878303008F
:107C00002DE9F74F964CDFF8FCA205460E464FF0E3
:107C1000010BAB4501DB012014E056F82B809149A4
:107C200040460BF101094FEA8B0706F06DF860B989
:107C30004D451BDC8C48FFF70FF828463146FFF70F
:107C400087FF002003B0BDE8F08F8849404606F06A
:107C50005BF80028ECD08649404606F055F8F8B9A4
:107C60000BF10203AB4233DB8248E4E7374482493D
:107C70007F6838460BF1020906F046F818B97F4BC9
:107C800001221A704DE07E49384606F03DF810B9E1
:107C90007A4B187045E07B483946FEF7DDFF40E03F
:107CA0007949404606F030F80028D9D07749404657
:107CB00006F02AF80028D3D07549404606F024F88B
:107CC000002840F085804D4500F392807148B2E76E
:107CD00037440BF10309D7F80480BF68404604F02D
:107CE0003FFE02460B46C4E9002313430AD16A490A
:107CF0000122404606F052FA20B168484146FEF79C
:107D0000ABFF9AE766490322384606F047FA50B9B6
:107D1000606864492268A2FB012301FB0033C4E9C7
:107D20000023CB4675E760490422384606F036FA50
:107D300010B960685D49EDE75D490422384606F0F8
:107D40002DFA18B960684FF47A71E3E759490422B3
:107D5000384606F023FA0028E3D057490322384674
:107D600006F01CFA48B9D4E900230D2151430AFB5F
:107D70000311A2FB0A230B44D1E7504904223846E1
:107D800006F00CFA50B963684D48226840F246315B
:107D9000514300FB0311A2FB0023ECE749490322F6
:107DA000384606F0FBF928B963684748226844F66C
:107DB0009461EDE745490422384606F0EFF920B911
:107DC0006368434822684349E2E74348394696E7F7
:107DD0004249404605F098FF00283FF474AF4049FF
:107DE000404605F091FFC0B94D4526DC3D4822E7ED
:107DF000374421497F6838460BF1020905F084FFBA
:107E000008B9394B3CE71E49384605F07DFF08B9F3
:107E1000354B3EE7354839463FE73549404605F0A2
:107E200073FF0028E0D03349404605F06DFF00287D
:107E30003FF477AF3048414661E737440BF1020920
:107E400079680191084604F083FD0028019903DC5C
:107E50002A48FEF701FF0120294B186061E700BFA7
:107E6000F0980020B1850300BB850300B4850300B2
:107E7000FB85030008860300D385030008A40020C7
:107E8000D8850300DE850300FE850300FF8503001F
:107E90007786030086860300AC90030028860300E3
:107EA0004086030000CA9A3B3F86030040420F0011
:107EB00044860300498603004E8603005286030071
:107EC00000A0B8305786030000004F915B86030086
:107ED000000029F90F260200608603007A8603005D
:107EE000C5860300D286030009A40020A3860300F0
:107EF000C8860300228703002D870300F88603004D
:107F0000B8A30020005847F8124B13491A680968B3
:107F10008A42BEBF1149096841F822001A6801323D
:107F20001A604268012303709AB18368002B10DB4A
:107F30001368002B0DDB591C11604268516899428F
:107F400003D84FF0FF33136070470233816842F863
:107F500023107047A0A30020A4A300209CA300200E
:107F600038B5044600F14805FEF756FB18B10E4A35
:107F70001A2101F0A2F90D4B63652846FFF7C4FFF3
:107F8000E06D80B1616D0122FFF7F0F8A36DC36071
:107F90000123E0650376636E0BB1E26D1361A36E9E
:107FA0000BB1E26D536138BD548703009B8703001A
:107FB00038B500F51473436104460F4B4365012542
:107FC00005764830FFF7A0FFE06D78B1616D2A4675
:107FD000FFF7CCF8A36DC360E0650576636E0BB167
:107FE000E26D1361A36E0BB1E26D53616421BDE8D4
:107FF00038400846FEF7B4BAA087030038B500F54C
:108000000E73436104460F4B4365012505764830E6
:10801000FFF77AFFE06D78B1616D2A46FFF7A6F8A9
:10802000A36DC360E0650576636E0BB1E26D13610D
:10803000A36E0BB1E26D53610021BDE838400846E4
:10804000FEF78EBAA887030010B50446037F80F8B8
:108050002C302030FFF758FF606B80B1E16A0122BD
:10806000FFF784F8236BC360012360630376E36B3F
:108070000BB1626B1361236C0BB1626B5361237F95
:1080800083F00103237710BDF8B50F4B1B7804462E
:108090000D460BB10020F8BDFEF7ECFD261A65EB8E
:1080A0000107012E77F10003F4DB42F20F72002387
:1080B000B242BB4105DA20462946BDE8F840FEF74A
:1080C000D1B94FF0FF30E6E708A4002008B501461B
:1080D000006EFEF7E5FE58B191F8383043B9012340
:1080E00081F83830034B1868BDE80840FEF7C5BC7E
:1080F00008BD00BF6CB500202DE9F84C314C9A4604
:108100002378064698078B4615460AD42378190724
:1081100022D40023099A934239DB00232370BDE85F
:10812000F88C002EF2D0002713E056F827301A6E94
:1081300072B193F8381059B91046FEF7B1FE38B154
:10814000127C920704D54FF0FF311846FFF7BEFFAF
:1081500001375F45E9DBD9E7002DDAD0002713E0CE
:1081600055F827301A6E72B193F8381059B9104685
:10817000FEF796FE38B1127C160704D54FF0FF319A
:108180001846FFF7A3FF01375745E9DBC1E7089A17
:1081900052F82320A2B197683846FEF781FE78B1E5
:1081A000397C880707D541F0040139749068017C57
:1081B00021F00201017491680A7C22F008020A741D
:1081C0000133A7E7B0A30020F8B50446806BFEF7A3
:1081D00067FE80B9FFF70AF81C4D8460D4E90421DA
:1081E000D5E90045121945EB0101C0E90021BDE8C0
:1081F000F840FEF71BBED4E9046756EA070322D015
:10820000FEF7F4FF114A8460D2E900329B1947EB74
:108210000202C0E900320E4B01461868BDE8F84082
:10822000FEF72BBC23684FF0FF3153F82500FFF712
:108230004DFF01356368AB42F4DCD4E9066756EACA
:108240000703DDD1F8BD0025F4E700BFF0A300204F
:108250007CB500202DE9F04F90F8545087B00646C9
:108260000F46002D72D007B0BDE8F08FF26A52F8C9
:108270002520AB0004935AB112784AB1726BD358DF
:1082800003934FF00009326B049BD25891452DDBCC
:108290000135B26A9542E9D3002CE4D0D4E9102329
:1082A000002A73F1000354DBFEF7E4FCD4E9102349
:1082B000894652EA030180460CD02848D0E90010D4
:1082C0005118434100910193DDE90023424573EBCE
:1082D00009033EDAE36C2BB16068984739462046C3
:1082E000FFF7B8FF002384F84830BCE7039B53F83E
:1082F000292032B34FF0000A20E0116851F82A809B
:10830000B8F1000F18D0A04516D00BF1010BBBF14E
:10831000010F03D1D8F824108E4215D02CB1394664
:1083200020460592FFF7D2FE059A0592394640464F
:10833000FFF7CCFE059A00240AF1010A51688A452C
:10834000DBDB09F101099EE74446F5E7AB462C4625
:108350009FE739462046FFF7EFFBBFE7F0A3002079
:10836000F8B54FF41A70FEF7D7FD304DC0F8345110
:1083700000F12402C2610022C0E93352C0F89C51CE
:1083800000F51475C0F8A05129492A4F826700F101
:1083900070050124C0F8E85100F5F475C0E96A548D
:1083A000C0E91C1000F1D8052349C0F8305200F58F
:1083B000A075C0E93610022600F50E71C0F83452DF
:1083C00000F50C75C0E97C56C0F8E040C0F8486183
:1083D000C0E92F22C0E94922C0E95070C0E96322F8
:1083E000C0F83811C0F8D02180F8B021C0F81822A8
:1083F000C0F82042114CC0F83C420025002400F196
:108400000806C0E99045C0E99645C0E90221C0E9E7
:108410000412C0F83862C0F85062094E80F8482251
:10842000C0F8546280F860220276F8BDB08703007D
:10843000617F0200FD7F0200B17F0200A887030078
:10844000A087030038B54FF4D870FEF765FD184CCF
:108450001849194D00F1280202620022C0E92B429E
:10846000C0E94542C0E9272200F15004C0E9412299
:108470008265C0F8482180F82821C0F8902100F1D9
:10848000B802C0E91410C0F86041012100F5B074D1
:10849000C0F8A82100F5D472C0E95A21C0E92E50D5
:1084A000C0E948410422C0F8C010C0F8982138BD86
:1084B000B0870300A56802001168020008B5F82023
:1084C000FEF72AFD0D496FF00102C0E912100C49B8
:1084D00042640022C0E92912C0E925220265C0F8E1
:1084E000D820024600F1480142F8F01FC0F8B02041
:1084F0000122C0F8B42080F8B82008BD49800200ED
:10850000B0870300000000002DE9F84FFDF706FFDB
:1085100002249F4B042120461C6004F029FA9D4B45
:10852000186010B99C48FEF72BFC0421204604F08B
:108530001FFA9A4A10600028F4D0994ADFF8749222
:108540004FF00008C2F80080FFF7B8FF0021064690
:1085500080F81C800020C6E930018BA1D1E9000120
:108560004FF0000A4FF0004B8E4AC6F8E880C6E98B
:108570003201C6E922AB06F1B0011160FFF7F0FE4F
:1085800000F170026FF00105C9F80020864AC56647
:1085900000F10801C0E92CABC0E946ABC0E960AB13
:1085A000056204461160FFF74DFF456200F150027D
:1085B00001250746C0E924ABC0E93EABC0F81C80EA
:1085C000C9F804200421324635672846FEF78CFCA2
:1085D0003246F06704212846FEF786FC3246B06733
:1085E00004212846FEF780FC06F1200A7067224627
:1085F000C0F800A00421C4F898502846FEF774FC87
:108600002246C4F8A40004212846FEF76DFC224649
:10861000C4F8A00004212846FEF766FC04F14809CE
:10862000C4F89C002246C0F800900421C4F8005110
:108630002846FEF759FC2246C4F80C0104212846BE
:10864000FEF752FC2246C4F8080104212846FEF732
:108650004BFC2246C4F804010421C0F80090C4F881
:1086600068512846FEF740FC2246C4F874010421F4
:108670002846FEF739FC2246C4F87001042128463A
:10868000FEF732FCC4F86C01C0F80090C7F878809F
:10869000C7F8E080B26F3563042115602846324682
:1086A000FEF722FCF26F1060F26F126804F5F871A9
:1086B0001160D4F8A020A565042115602846224643
:1086C000FEF712FCD4F8A4201060D4F8A42012689D
:1086D00007F5B478C2F80080D4F8082104211560A9
:1086E00028462246FEF700FCD4F80C211060D4F88E
:1086F0000C211268C2F80080D4F8702104211560A2
:1087000028462246FEF7F0FBD4F87421214B106076
:10871000D4F8742125481268C2F800801A68C4F899
:108720001CA0C7F82090C2F800A01B68DFF8888062
:10873000C3F80490012200236FF000416FF000495C
:10874000C6E91823C6E91601C4E93A89DFF86C8046
:108750006FF00049C4E92223C4E93C23C4E956234D
:10876000C4E92001C4E95489C7E91A23C7E93423BD
:108770000F4A6FF00043C7E91801C7E93223BDE88B
:10878000F88F00BFAFF3008000286BEE0000000000
:10879000A4A3002098A30020FB7E03009CA300203C
:1087A000A0A3002078B5002068B500200000FFFFDE
:1087B0000300FFFF70B500200100FFFF0200FFFF74
:1087C000F0B5354B354F364D364C374A37490026D4
:1087D0008DB01E60364B0A201E60364B0297019505
:1087E0000094FEF71FF9344B2F4A18603349314B80
:1087F0000094CDE901570A20FEF714F9304B2A4ABC
:1088000018602E492B4B0094CDE901570A20FEF742
:1088100009F92C4B2C4F1860FFF776FEFEF72AFA69
:108820002A4BC3E900012A4BC7E90001C3E9000153
:1088300017A3D3E9002305460C460FF0C5F814A38F
:10884000D3E90023CDE90401284621460FF0BCF806
:1088500004A8069204F0C4F8069A01461D4804F0E4
:1088600021FE1D4BD3E90001002871F100030CDB50
:10887000D7E900321B1841EB0202CDE908320A9613
:108880000CAB13E90F00FEF77BFB0DB0F0BD00BF92
:1088900000CA9A3B000000008CA300200D69020072
:1088A000DD67020005680200F1670200CB67020085
:1088B00090A30020FD6702007CB50020D96702006C
:1088C0003CB5002040B50020F0A30020F89800201F
:1088D00018990020B2870300F098002073B50E4D60
:1088E0000E4E00243168A1420BDC0D4B0A481B6878
:1088F00001930C4B009300231A46FFF7FDFB02B0D7
:1089000070BD55F8040B28B1036E1BB94FF0FF3151
:10891000FFF7DCFB0134E5E770B50020E8980020A4
:10892000E098002068B5002070B5074D074E002480
:108930002B68A34200DC70BD56F8240008B1FFF795
:1089400043FC0134F4E700BFEC98002078B5002028
:10895000024B03481968FEF7ABBA00BFE09800204D
:1089600068B5002007B5074B07491B680193074B03
:1089700000930023096806481A46FEF74BFF03B030
:108980005DF804FBEC980020E098002078B500200A
:1089900068B500202DE9F84F2B4F2C4E4FF0020BFD
:1089A0003B681846FEF765F80446B8B9FFF7DAFFEA
:1089B0002649D1E9002388682549D1E90067B242F8
:1089C00073EB070589683BDB964277EB030339DBE2
:1089D000814294BF00200120BDE8F88F1846FEF7C1
:1089E0009AF8D0E91023002A73F10003824680F838
:1089F00038B020DBFEF73EF9DAE910230D4652EAE3
:108A00000301044609D0D6E9001012EB010843EB3C
:108A10000009A04579EB05030DDADAF84C3033B1E3
:108A2000DAF80400984700215046FFF713FC0023B2
:108A30008AF83830B4E700215046FFF77DF8F2E7B6
:108A40000120C9E72046C7E76CB50020F0A300204D
:108A50002099002007B5074B07491B680193074B76
:108A600000930023096806481A46FFF745FB03B048
:108A70005DF804FBE0980020E898002068B500202D
:108A800070B500202DE9F347444D454F454EDFF8C2
:108A90001881FFF7DFFF2868FEF752F838B1D0E9F8
:108AA0000001D7E90023994208BF904201D03D4C14
:108AB0006AE02868FEF72FF8037D04465BB1A169E0
:108AC00011B13068FDF7D9FF2046FEF7A3FB2868F7
:108AD000FEF736F8E2E78368986BFEF7E1F910B924
:108AE0004046FEF731F9D4F810A04FF00009A36812
:108AF0005A684A452EDC012283F83420A068037AA4
:108B00004BB1D0E90623012A73F1000103DB0021F8
:108B10000091FEF745FDA36822691B6A93420BD0C2
:108B200053B101221A76A3681A6AD3680133D3605D
:108B3000A368186AFEF778FAA368C3F820A0BAF110
:108B4000000F02D000238AF81830A368012283F8AE
:108B50003420B4E71B6853F8293093F8382042B921
:108B6000186EFEF79DF920B14FF0FF311846FFF760
:108B7000ADFA09F10109BAE710462E68FDF7CBFFFF
:108B800001463046FDF779FF22681046FDF7D8FF11
:108B90000028F1D102B0BDE8F08700BF7CB500200D
:108BA000F0A3002040B50020ED870300F0B589B0A8
:108BB000FDF716FC2B4B1868FDF7C2FF2A4B054644
:108BC0000FCB6C4684E80F00A5B9284B1B78002B0F
:108BD0003DD1274BD3E900019B68CDE90401013366
:108BE000069308AB13E90F00FEF7CAF9214BD3E94E
:108BF000006716E01E4BD5E90067D3E900239F42CA
:108C000008BF964221D104A8FDF782FE069B0133DE
:108C1000CDE90067029394E80F00FEF7C1FA00283F
:108C2000E4D130463946FFF72FFAA8B93046394625
:108C3000FEF742FFFEF70CFAFFF724FFFDF7F8FB03
:108C400009B0BDE8F040FFF7A5BE0023E0E74FF014
:108C5000FF366FF00047E4E7FDF7EAFB012009B0BB
:108C6000F0BD00BF7CB500208888030009A4002067
:108C7000F0A300202099002030B5244B0D46196840
:108C8000234B85B004461868FEF7BAFF00283AD097
:108C900029462046FEF7B4FF002834D01D4803F0D3
:108CA00051FE10B11C48FEF74FF81C49022004F099
:108CB00023FFFFF785FDFFF74BFE194B0293194B7E
:108CC0000193194B194A1A4900930A20194BFDF7D1
:108CD000A9FE194B194A1860D2E90001184B00226D
:108CE000C3E900019A60174B01221A70FFF7F6FDE5
:108CF000FFF71AFEFFF74EFE10B9002005B030BD99
:108D0000FFF754FFF8E74FF0FF30F7E704A4002027
:108D100000A40020797202004F880300F1C902000C
:108D20000D680200E967020009680200F7670200A7
:108D3000CB670200016802006CB500201899002082
:108D4000F0A3002094A30020FFF796BF1FB50022D8
:108D50000091022369460430CDE90132039202F00A
:108D6000A7F905B05DF804FB38B5054D0A2445F0B8
:108D700001054FF47A40A847013CFAD138BD00BF45
:108D80005089030037B5394D0E2301A92860ADF88D
:108D90000430FFF7DBFF0446002858D0344A18217E
:108DA00000F08BFA204603B030BDFFF7DDFFF9E796
:108DB000FFF7DAFF40232868ADF8043001A9FFF778
:108DC000C5FF04460028F0D0294A5421E8E7FFF700
:108DD000CBFF44F203032868ADF8043001A9FFF784
:108DE000B5FF04460028E3D0214A4A21D8E7FFF71F
:108DF000BBFF4FF400432868ADF8043001A9FFF72A
:108E0000A5FF04460028E2D0194A4021C8E7FFF731
:108E1000ABFF48F201032868ADF8043001A9FFF761
:108E200095FF04460028E2D0114A3621B8E7FFF743
:108E30009BFF4FF480432868ADF8043001A9FFF789
:108E400085FF04460028E2D0094A2C21A8E7FFF755
:108E50008BFF02232868ADF8043001A9FFF776FFE5
:108E600004460028E3D0024A222199E710A40020FA
:108E7000C68803002DE9F34107460C4605F020F9AA
:108E8000102806463CD85CBB2023ADF80430204BAC
:108E900001A91868FFF75AFF0446C8B9DFF87080C7
:108EA0000025B54238BF7B5DD8F8000028BF2023DD
:108EB0009A0862F07F029B0101A98DF804208DF8C9
:108EC0000530FFF743FF0446F0B1124A8E2101E05E
:108ED000104A6D2100F0F1F9204602B0BDE8F081A2
:108EE000012C0FD13023ADF80430094B01A91868CB
:108EF000FFF72CFF04460028D0D0064A7521E9E789
:108F00000924E9E70B24E7E70135102DC9D1E3E790
:108F100010A40020C688030038B5054D044645F06E
:108F200001054FF47A40A847013CFAD138BD00BF93
:108F3000108A030070B5054686B00E46144672B618
:108F400001F09AF900F0FAFF0028FBD13E4804F046
:108F5000A9FA44F201039D4266D00AD8012D12D02D
:108F600041F201039D425DD03146384804F09AFA3F
:108F70000CE044F202039D42F6D122886168344835
:108F800004F090FA02E0334804F08CFA01F018FC87
:108F900008B901F0DDFB0023ADF814308DF8163070
:108FA00005A9012319208DF8153001F013FC05A93E
:108FB000182001F00FFC05A9172001F00BFC192067
:108FC00001F0C4FC182001F0C1FC172001F0BEFC28
:108FD0004FF4FA70FFF7A0FF192001F089FC182068
:108FE00001F086FC172001F083FC3220FFF794FF8C
:108FF000192001F0ABFC182001F0A8FC172001F0AB
:10900000A5FC4FF4FA70FFF787FF192001F070FC00
:10901000182001F06DFC172001F06AFCFA20FFF720
:109020007BFFCCE70C48AFE7A1680391084601F04D
:1090300099FA2368019600930246636803990748EA
:1090400004F030FAA2E700BF56890300F389030059
:10905000AE8903006F8903008C890300C98903006E
:1090600007B501F0ADFB08B901F072FB0023ADF8C4
:1090700004308DF8063001A9012319208DF8053040
:1090800001F0A8FB01A9182001F0A4FB01A91720F9
:1090900001F0A0FB192001F059FC182001F056FC4A
:1090A000172001F053FC4FF4FA70FFF735FF192039
:1090B00001F01EFC182001F01BFC172001F018FC29
:1090C0003220FFF729FF192001F040FC182001F0A1
:1090D0003DFC172001F03AFC4FF4FA70FFF71CFF3B
:1090E000192001F005FC182001F002FC172001F006
:1090F000FFFBFA20FFF710FFCCE70369C1688B4242
:109100009DBF8268D21802F1FF3203F1FF3394BF92
:10911000501A581A70472DE9F843D0E902940546D1
:10912000A9EB04084068904520440F46144404D934
:1091300004F0BAF8EC60BDE8F8834246A4EB0904F9
:1091400004F0B2F86868224607EB0801F0E72DE961
:10915000F843C5680646894617464FF0000834694B
:10916000B3687068A54228BFE418013C621B5C1B11
:10917000BC4228BF3C46944228BF14464946284476
:10918000224604F091F8B3682544AB4208BF00259D
:109190003F1BA044A144F560E1D14046BDE8F883FF
:1091A00010B5114C114AA2610223C4E90433104BDB
:1091B000E361A2644FF400730E4A0F492362E26434
:1091C00000231022E01DA3626362E362A36563656E
:1091D000E365226504F002FF0849204604F0FEFE24
:1091E0002023A37110BD00BF80B50020168A0300A4
:1091F00044A8002034A800201F8A0300238A03000B
:10920000F8B5184C182300FB033503FB0040254438
:10921000C46A012C0F4616460FD0022C1AD0F4B99E
:109220002846FFF76AFF864205D832463946284667
:10923000FFF771FF34462046F8BD2846FFF75DFF73
:109240008642344628BF0446224639462846FFF760
:1092500062FFF0E72846BDE8F840FFF778BF00243A
:10926000E9E700BF80B5002073B50E4B1B780446BC
:109270000D4616460BB9FFF793FF00230DF10700CB
:109280008DF8073000F0C0FA324629462046FFF735
:10929000B7FF04469DF8070000F0E6FA204602B04A
:1092A00070BD00BF80B5002010B511461C461A469F
:1092B0000020FFF7D9FF204610BD00B583B0029013
:1092C0000091019244F2010071466A46FFF732FEB6
:1092D00003B000BD094A537891780133DBB299425B
:1092E00008BF0023117899421FBF037050781823DC
:1092F00003FB002014BF04300020704744AA002064
:1093000073B5054600240DF107000E468DF80740A1
:1093100000F07AFA0DF10600FFF7DCFF90B106705D
:10932000094B9DF8062045605A709DF8070000F033
:109330009BFA24B9054B4FF48012C3F80021204654
:1093400002B070BD0424F0E744AA002000E100E070
:10935000024B4FF43C6043F001031847308A03008E
:10936000F8B51F491F4B0025C1F84051C1F84451C1
:10937000C1F84851C1F84C51C1F80051C1F804512D
:109380001B684BB3D1F8044517490968641A24F0E7
:109390007F442F461A68A24209D8A41A15441A7CA1
:1093A000DE691AB1D3E905201F749047AEB90F4AA0
:1093B0000F4B11781B788B4205D10133DBB2022BA6
:1093C00008BF0023137012780A4B43F822500A4B4F
:1093D0004FF48012C3F80021F8BD3346DAE700BF2E
:1093E0000010014064AB002060AB00205DAB0020AA
:1093F0005CAB002054AB002000E100E02DE9F04F11
:10940000A14AA24913780978A14D994285B03CD070
:109410000133DBB2022B08BF002313709D49127881
:109420009D4B0F6853F822003B1823F07F43002226
:109430000B602B6816461446944613B942B12B6054
:1094400006E0196881420ED902B12B60091A196031
:1094500001272B68DFF848A201934FF00008BEB93E
:10946000DFF844B262E0401A0C44D968D3F81CE03B
:10947000C3F800C031B13A1922F07F42C3E901219B
:10948000DE611E4673460122D7E700263746E0E735
:109490003446F6697F4A63681268DFF810C2A06834
:1094A000991A21F07F41614500F2A88001442160B2
:1094B000012222742A680023C4E90133E361002AEF
:1094C00040F0A5802C60CAE79BF802105A1CD2B26B
:1094D00091428BF8002004BF00228BF80020182254
:1094E00002FB03B32A6819799C68022977D0032903
:1094F00000F08180012919D1207CB8B9D968616058
:109500001A69A2605A69E2609B69A361634B1B7888
:10951000002B18BF01466160BCE78C4200F09180CF
:109520008946C9690029F8D1002323749BF80030CB
:109530009BF801209A42C7D12B68B8F1000F04D1E3
:10954000019A9A4201D1002F43D0002B41D0D3F889
:1095500000A0534D4F4BD5F804751C68DFF85081BF
:109560003E1B98F8003026F07F4603369BB94FF437
:109570008033C5F84433C5F804334A4B4FF4003206
:109580004FF00109C3F880211A60C5F80090FFF779
:10959000DFFE88F80090B2452CBF5444A41924F093
:1095A0007F44C5F84045D5F80435DB1B23F07F43E5
:1095B000E41B033324F07F44A3420AD9D5F80435D1
:1095C000C5F84035FFF7C4FE364B4FF40032C3F800
:1095D0000021324B00221A7005B0BDE8F08F114611
:1095E00091469FE71174D2690123002AFAD1002B1A
:1095F0009CD02A609AE700231946F6E7D31A23F095
:109600007F43834234BFC31A0023236050E721689D
:109610001368994213D8591A1160E26152E7091A86
:10962000D8691A4638B1034618688842F7D3401AF9
:109630001860184613462160E061DC610FE71346AD
:10964000F2E74C4511D1D3692B6073B9DFF844E0E0
:109650000120CDE90212CAF80800CEF800300F4B05
:109660001870FFF775FEDDE902120B68C969C9F8C9
:109670001C1011B1086803440B602B68934218BF9B
:109680004FF0010850E700BF5CAB00205DAB00204D
:1096900064AB002060AB002054AB002050AB002036
:1096A0000010014000E100E044AA0020FEFF7F001E
:1096B00051AB0020F8B5194E194D1A4F4FF4003335
:1096C000C6F8803001244FF48033C5F84833C5F81C
:1096D00008336C60FFF73CFEAC6000243C60FFF791
:1096E00037FE114B1C70114B0B221C809A70104BD3
:1096F0001C60104B1C70104B4FF480121C70E02348
:10970000C6F8802186F814333260C5F8084586F81B
:109710001133D5F804353B602046F8BD00E100E088
:109720000010014060AB002051AB002044AA002093
:1097300064AB00205CAB00205DAB00202DE9F7435B
:10974000DFF8848098F8023005460E461746ABB322
:10975000A0B3042930D9436983B3437C0024012B8F
:109760000DF107000CBF8946A1468DF8074000F0B7
:109770004BF80DF10600FFF7ADFDD8B101230370E2
:109780000F4B4560D3F80435C0E90497C0E90236B1
:109790009DF8063088F801309DF8070000F064F865
:1097A00024B9084B4FF48012C3F80021204603B0BF
:1097B000BDE8F0830424EFE70724F7E70824F5E782
:1097C0000010014000E100E044AA0020064A92781F
:1097D0003AB130B1426922B1002202740221FFF78E
:1097E0008FBD0820704700BF44AA0020EFF3058317
:1097F000C3F308032BB9EFF31480C04300F001005A
:10980000704701207047000070B50446FFF7EEFF77
:10981000012803D01049432002F0D4FEEFF3108654
:1098200072B60E4A9068012398B993600C4B0D4DA7
:10983000D3F8801029401160C3F88050D3F8841009
:1098400051604FF0FF32C3F88420207006B962B631
:1098500070BD2370FAE700BF368A0300F8B5002018
:1098600000E100E0FC06FFBD10B50446FFF7BEFFB7
:10987000012803D00949512002F0A4FE084B9A6840
:109880005AB154B9EFF3108172B6064A18681060E5
:10989000586850609C6001B962B610BD368A0300FA
:1098A000F8B5002000E100E0024B1B680021986839
:1098B00003F0DCBF409900201EF0040F1CBFEFF343
:1098C00009800AE0EFF308800549064A884201D87A
:1098D000904202D88D464FF00000034B184700001D
:1098E0000000012000E00020ED9802002DE9F34780
:1098F000054600F0C1FC00F021FB0028FBD12F4CF5
:109900002F48304B241AE40824049F6A44F00104D1
:10991000002D4ED0AA692C49204600F07FFCEB6850
:109920000193AB68294900932046D5E9002300F054
:1099300094FCEB6900932649D5E90423204600F006
:1099400080FC204BDB6A980703D52249204600F0B3
:1099500061FCDFF89490DFF894A000264FF0010836
:1099600008FA06F33B4206D059F826201AB15146B0
:10997000204600F053FC01361A2EF1D1390605D5E8
:10998000104B15495A6B204600F048FC3A0405D5A7
:109990000C4B12499A6B204600F040FC104B1B68A0
:1099A000DB0700D500BE2846FFF75AFB02B0BDE832
:1099B000F0870C49204600F02DFCC2E73CA70300CD
:1099C000D4A6030000ED00E0CA8A0300DF8A03008A
:1099D000148B03006F8B0300BE8B0300DE8B030030
:1099E000F0ED00E03C8B0300B8900300B38B030064
:1099F00010B5034653E8000F0A4643E8002494F0EC
:109A0000000FF7D110BD10B5034653E8002F42EA0E
:109A1000010043E8000494F0000FF6D110BD10B52A
:109A2000034653E8000F00EA010243E8002494F0E3
:109A3000000FF6D110BD10B5034653E8002F02EB1E
:109A4000010043E8000494F0000FF6D110BD10B5FA
:109A5000034653E8002FA2EB010043E8000494F012
:109A6000000FF6D110BD0121FFF7CDBF0021FFF798
:109A7000D6BF000037B5044620B914494FF49270A0
:109A800002F0A0FD00250DF107008DF80750FFF74B
:109A9000BBFE2268616813688B4210D9591E1160A1
:109AA00013F8015C228AE36802FB05352268A3688B
:109AB00011685B1A1179DBB2994238BF13719DF8B6
:109AC0000700FFF7D1FE284603B030BD2091030008
:109AD00037B50C46054620B9104940F2471002F050
:109AE00071FD24B90D494FF4A47002F06BFD002301
:109AF0000DF107008DF80730FFF786FE2A6813681E
:109B0000591C1160E968641A298AB4FBF1F41C70CD
:109B10009DF80700FFF7A8FE03B030BD20910300B9
:109B200038B5074C051E04F1080318BF1C4623680E
:109B30002BB11A6822605B6828469847F7E738BD62
:109B400070AB002020B9054B01225A70FFF7E8BF27
:109B5000012802D1014A9070F8E7704768AB0020F5
:109B600020B9034B01225A70FFF7DABF704700BFDC
:109B700068AB002038B50B4C237883B90A48636082
:109B8000A3602361E36000F0F7FC054602F0A0FB50
:109B900008B900F005FD01232370284638BD85254E
:109BA000FBE700BF68AB0020459B020037B51E4CA9
:109BB000237805461BB91D49E92002F003FDA3786F
:109BC00003F0FF02D3B115B16B6801209847002361
:109BD0000DF107008DF80730FFF716FEE3689DF8DA
:109BE00007000133E360FFF73FFEE36823B90F4945
:109BF00040F2051002F0E6FC03B030BD0DF10700A5
:109C00008DF80720FFF700FE25B1226913463BB906
:109C10002A602561E368002BE0D100F0DFFCDDE77E
:109C20009D42F7D01B68F2E768AB0020AF910300BC
:109C300013B5164C237823B915494FF4857002F0FB
:109C4000C1FCE36823B9124940F20B1002F0BAFCE0
:109C500000230DF107008DF80730FFF7D5FDE3680D
:109C6000013BE360E36853B902F032FB18B10849E5
:109C7000792002F0A7FC00F0E7FC0023A3709DF818
:109C80000700FFF7F1FD02B010BD00BF68AB002078
:109C9000AF910300012813B508D003281CD018B9D0
:109CA000144B0122C3F8802002B010BD124C0023D7
:109CB0000DF107008DF80730FFF7A6FD23780BB9EB
:109CC000FFF758FFE3689DF807000133E3600123C5
:109CD000A370FFF7C9FDE7E7074B1B7823B90749D6
:109CE00040F2452002F06EFC00F05AFCFFF7A0FFA6
:109CF000DAE700BF00E100E068AB0020AF910300AD
:109D00007FB503788DF804304368029383688DF83B
:109D10000C30C36804930369064A8DF81430064B6F
:109D200001A853F8213052F82110984707B05DF888
:109D300004FB00BF7CAB002088AB0020F0B50546DB
:109D4000174615F804CB124A42F82C70114A42F813
:109D50002C30114B0C460FCB85B06E4686E80F00B9
:109D60002368009323798DF8053063798DF80630E8
:109D7000A3680293002FA389084AADF80C3008BFEE
:109D80003A4663463146284601F084F805B0F0BDF6
:109D900088AB00207CAB002044920300019D0200B0
:109DA000037813F0040216D003F00303012B03D051
:109DB000022B09D0012070470A6800880232C0F3E4
:109DC000831002440A60F5E70B684288023303EB14
:109DD00092130B60EEE71046704700002DE9F04F3C
:109DE00089B000230446861C0DF10F000F4615466E
:109DF0008DF80F30FFF708FD494801683960D0E958
:109E00000132134401335B1A824600F21C4700F50D
:109E1000836900F21448B3421CD30020002D7BD08C
:109E200004F00F039B0143F0050363F30F00DAF81E
:109E30000020DAF808301340033316444AF82300B0
:109E40009DF80F00CAF80060FFF70EFD012009B071
:109E5000BDE8F08F01213846FFF7EDFD4846FFF7DA
:109E600002FE4046FFF7FFFDDAF80400DAF808B01A
:109E7000049000EA0B0003300AEB800004A9FFF70E
:109E80008FFF049B0246F8B90BEA03010AEB81013C
:109E900003F1020CC8680590013303EA0B0B0AEBCF
:109EA0008B0B00F003000128DBF80C10CDF810C07C
:109EB0002AD002280BD01B4901924FF4BF7002F048
:109EC00081FB019A93460CE00BEA0300D3E7BDF84F
:109ED0001630C3F3891303334FEA114B0CEB930392
:109EE00004934046FFF7C2FD10B1049BCAF804304A
:109EF00059463846FFF79FFDDAE901231344DAF8A3
:109F0000002001339B1A86E7BDF81430C3F3831396
:109F10004FEA114B6344E3E7A40544F0060086E7EB
:109F200064AC002061920300034BD3E90030C31AF4
:109F300058425841704700BF64AC00202DE9F043FF
:109F400087B0FFF7F1FF0646002840F0F9807D4D0D
:109F5000C5F81804BFF34F8F6B68AC6802932340B9
:109F6000033305EB830002A9FFF71AFF029B18B128
:109F7000D5F81824002A5FD004EA0302991C0133A3
:109F800005EB8202234005EB8303D268DB68049370
:109F900002F00303022B0392029160D1BDF80E3050
:109FA0006948C3F38917502FB84628BF4FF05008AF
:109FB00068F38F1308F10801ADF80E3000F0DCF9FA
:109FC0000646002800F0A78000F005FA00230822CA
:109FD00003A9304600F012FA029924EA0102013284
:109FE000B8EB820F4FEA820332D95FFA88F85BB38D
:109FF0002140DCB2A8EB040803315FFA88F9A046DF
:10A00000524C05EB810108234246304600F0F6F938
:10A0100034B108F108034A462146304600F0EEF913
:10A02000029B033703EB97070297D5F81834002BF0
:10A0300049D1D5F8104459E02A689A428FD86A600D
:10A04000304607B0BDE8F08340491C469946DAE740
:10A050000C40E11C0823424605EB8101DDE7012BA2
:10A0600059D1BDF80C303848C3F38311062928BFF5
:10A07000062161F3891302318900ADF80C3000F03C
:10A080007BF90646002846D000F0A5F900230822F7
:10A0900003A9304600F0B2F90027BDF80C20C2F346
:10A0A0008312BB00974203F10803BED202994A1CF7
:10A0B00021400331029205EB81010422304600F079
:10A0C0009DF90137E9E7304600F089F9FFF72CFFE9
:10A0D00080F00100C6B2B3E7E3685B7923B123687F
:10A0E00031461B6820469847E3681C68002CF3D172
:10A0F000304600F074F90DF107008DF80740FFF7C6
:10A1000083FBD5F818340BB9029B6B609DF80700F0
:10A11000FFF7AAFBDAE7D5F8104454B90C4B0D4809
:10A120000D49C01AC008000440F0020000F072F8A7
:10A13000CCE7236820469B689847E3681C68ECE7F7
:10A1400000267DE764AC00206CA7030070AC002003
:10A15000D4A603002CA70300F79203002DE9F74FC4
:10A16000274D04460F46914601A901221846D5F80D
:10A1700008A09846FFF732FE78B3019E0023B01C7A
:10A18000434503EB000132D11E480021FFF730FCAC
:10A1900080F3100B1C4B1D4A4FEA14499B1AB9EB74
:10A1A000D30F04D31A4940F2A31002F00BFA731C28
:10A1B00003EA0A03E40005EB830304F0380449EAE8
:10A1C0000B4006EA0A0644F00104D860033644EA6C
:10A1D000881343EA872345F8263095F820341BB1CD
:10A1E000FFF7ACFE0028FBD103B0BDE8F08F0AEA10
:10A1F000010105EB810159F82320CA600133BFE753
:10A2000064AC002080B000206CA70300D4A603003B
:10A210006192030000231A46FFF7A0BF07B5012390
:10A22000019201AAFFF79AFF03B05DF804FB07B59E
:10A23000CDE9002302236A46FFF790FF03B05DF8E3
:10A2400004FB1FB5CDE90123069B039301AA032359
:10A25000FFF784FF05B05DF804FB1FB5CDE90023CF
:10A26000069B0293079B03936A460423FFF776FF3E
:10A2700005B05DF804FB000038B5094A0123D2F8A7
:10A28000104482F820341D4604B938BDE3685D717E
:10A29000236820465B689847E3681C68F4E700BFC2
:10A2A00064AC00202DE9F74F99469DF830300093BB
:10A2B00088469346064618B92349B62002F082F92B
:10A2C000F18872794A43043A4A4505D81E490192F9
:10A2D000C42002F077F9019ADBF80070B6F806A006
:10A2E00007EB0901914209F1040488BFA2EB0907B9
:10A2F000B4FBFAF5CBF800700AFB154445B9AAEB9C
:10A30000040BBB4528BFBB462FB903B0BDE8F08F97
:10A310003668013DF2E7009B043408EB0500344445
:10A320005A466BB12146A7EB0B0702F0BDFFBA45B9
:10A330005D443668D3464FF0000428BFBB46E3E7D0
:10A3400001462046EFE700BF0C930300F8B54679BD
:10A350000146721E0546002393422D6803D3002454
:10A36000A64202D8F8BD0133F6E70F682846FFF78A
:10A37000AFFB01343946F3E72DE9F843CD1C068ADB
:10A380000746FFF777FB043E35440446B5FBF6F578
:10A39000F0B14FF48073EDB28380C680013D076059
:10A3A00081464FF00008A84512D23846FFF762FBFD
:10A3B000064648B163790133637108F10108C9F8B1
:10A3C000000007608146EEE72046FFF7BFFF3446F6
:10A3D0002046BDE8F88301210430FFF72CBB10B5FF
:10A3E000012104460430FFF732FB10F0FF0F04D1C7
:10A3F0002046BDE81040FFF7A9BF10BD1FB51446A9
:10A4000003920022009203AAFFF74CFF039BA34292
:10A4100003D00349F62002F0D5F804B010BD00BF08
:10A420000C93030041DF7047064B10B500241C70ED
:10A43000054B1C60BFF35F8F0449054800F040F8EE
:10A44000204610BD90B0002094B000203894030046
:10A4500088B0002013B500230DF107008DF80730F8
:10A46000FFF7D2F9F1EE104A24F09F03E1EE103A23
:10A47000BFF35F8F104B4022C3F884219DF8070083
:10A48000FFF7F2F9630703D00C497D2002F09AF838
:10A4900001F01EFF58B1FFF7C5FF30F0020304D0F2
:10A4A00006494FF4B07002F08DF802B010BD20BF25
:10A4B00040BF20BFF9E700BF00E100E09B9303002D
:10A4C00038B50D46044618B90849502002F07AF80C
:10A4D0001DB90649512002F075F825602B686360AC
:10A4E0006A68934204BF0023636038BD449403004C
:10A4F00010B5044618B90B49632002F063F82368CD
:10A500001BB90849642002F05DF8636843B1226812
:10A5100091680B4463605268934204BF00236360F8
:10A5200010BD00BF4494030010B50D49A1F594720D
:10A53000914201D800200FE08C1AE30F03EBE403F3
:10A540005B1002EBC30452F83330834205D802D2C9
:10A5500004F10802ECE7606810BD2146E8E700BF9F
:10A56000E499030008B5FFF7DFFF024B002808BF9E
:10A57000184608BDA698030010B5044618B9064948
:10A58000A02002F01FF8054A107918B901211460C3
:10A59000918010BD8520FCE7E499030098B000206D
:10A5A00008B50B4B1B791BB90A49B92002F00AF810
:10A5B000094B1A68D2075FBFE02283F8002301220B
:10A5C0001A604FF080430122C3F8182508BD00BF70
:10A5D00098B00020E499030000E100E037B5144B87
:10A5E0001B791BB91349E62001F0ECFF124B002246
:10A5F0001A601B680193019B4FF080430222C3F84D
:10A6000004230E4AD06840F08073D3600C4B1C6862
:10A6100044F0010119605D685968491BB1F50A5F92
:10A62000FAD31C60074BD06001221A6003B030BD22
:10A6300098B00020E499030004010040F0ED00E030
:10A64000001000E00800004008B5084B1B791BB95A
:10A650000749F32001F0B6FF064B01221A604FF0C4
:10A660008042D2F81834DB03FBD408BD98B0002038
:10A67000E49903000C00004007B5154B1A687AB145
:10A6800000221A601B680093009B4FF08043012258
:10A69000C3F808230F4B587910B95A711B689847B3
:10A6A0000D4B1A6882B100221A601B680193019B4E
:10A6B0004FF080430222C3F80823064B1B68012099
:10A6C00003B05DF804EB184703B05DF804FB00BF6E
:10A6D0000001004098B000200401004000F18040DB
:10A6E00000F5C040002382B0036003680193019B22
:10A6F00002B07047054B4FF0FF32072843F8202087
:10A7000084BFC01880F84820704700BFA0B0002068
:10A7100002494FF4F37001F055BF00BF769A030071
:10A720001F2838B504460D4601D9FFF7F1FFA000F8
:10A7300000F1A040D0F8003723F44033C0F80037D0
:10A74000D0F8003743EA0543C0F8003738BD0000B1
:10A7500010B5174C94F8583043BB04F13003202156
:10A76000FF22013911F0FF0103F8012BF9D1C8B222
:10A77000FFF7C0FF01310C29F9D1042200210D4857
:10A7800002F02CFE0C4BE02283F8062340221A60D4
:10A790004FF4BE70FFF7A2FF084B4FF00042C3F822
:10A7A0000423012384F85830002010BD0820FCE762
:10A7B000A0B00020F4B0002000E100E00060004004
:10A7C000034B93F85800003818BF0120704700BFB2
:10A7D000A0B000201F2870B504460D4604D9414999
:10A7E0004FF4987001F0EEFE3F4E96F85830012B72
:10A7F00004D03C4940F2311001F0E4FE25B939495A
:10A800004FF4997001F0DEFE331993F930200132D4
:10A8100066D1AA78002A55D0334B002253F8041B86
:10A8200001314AD1331983F83020002346F8223011
:10A83000920002F1804202F5C0422B78D2F8100556
:10A84000697820F498101B04090520F4F85001F4ED
:10A85000801103F44033C2F810050B432102D2F8F3
:10A86000100501F4F8510B430343C2F810356B781F
:10A87000012B4FF0010529D11F2C01D9FFF748FF0B
:10A880004FF0A043A540C3F808551F2C01D9FFF78E
:10A890003FFF04F5E0724FF0A043032143F822107C
:10A8A00024FA01F3114A0120D15C04F0070400FAF4
:10A8B00004F40C43D454002003E00132082AADD143
:10A8C000042070BDFE2283F83020D0E71F2C01D970
:10A8D000FFF71EFF4FF0A043A540C3F80C55D4E787
:10A8E0000820EEE7F89A0300A0B00020F4B00020A2
:10A8F0001F2838B5044604D912494FF4BE7001F040
:10A9000061FE114D2A1992F93020013204D10D490E
:10A9100040F27D1001F056FE2B1993F83030072BD2
:10A9200004D808494FF4BF7001F04CFE1F2C01D928
:10A93000FFF7EEFE01204FF0A04300FA04F4C3F845
:10A94000084538BDF89A0300A0B000201F2838B58C
:10A95000044604D912494FF4C37001F033FE114D7F
:10A960002A1992F93020013204D10D4940F28710A2
:10A9700001F028FE2B1993F83030072B04D8084932
:10A980004FF4C47001F01EFE1F2C01D9FFF7C0FE6A
:10A9900001204FF0A04300FA04F4C3F80C4538BD81
:10A9A000F89A0300A0B000202DE9F04F87B00024F2
:10A9B0005F4D03944FF48072012102F1804303F54F
:10A9C000C04390B21B68012B06D1D5F804330B426B
:10A9D00002D0FFF783FE0C430432B2F5907F4FEABA
:10A9E0004101EAD1534B1B68012B0AD14FF4BE70D1
:10A9F000FFF774FE4FF0A04344F00044D3F8103545
:10AA0000039314F0FF0F1AD04B4F00250126344258
:10AA100010D0AB0003F1804303F5C043D3F8100519
:10AA2000D3F8101557F8253023B1C1F30141C0F315
:10AA3000042098470135082D4FEA4606E7D1002C3F
:10AA40006EDA00214FF0FF33CDE904133A4FDFF8FF
:10AA5000EC800026354618F9013B5A1C55D0C3F34B
:10AA6000C20201215FFA83FB03F03F0903F00703F1
:10AA700001FA03F406AB991811F8043C234244D0C0
:10AA800007EB09034FEA9B1B93F9303057F823A0DB
:10AA9000BAF1000F0BD1BBF1030F36D10DF1100E3F
:10AAA0001EF802C04CEA040C0EF802C002E0BBF132
:10AAB000030FF3D0B9F11F0F03D90191FFF728FE5F
:10AAC000019911F80C1C09F5E0724FF0A0432142E6
:10AAD00053F82220C2F3014206D0022A15D1BBF15D
:10AAE000030F0CD1594605E0032A0ED1BBF1030F29
:10AAF00005D102214846FFF713FE0135EDB2BAF148
:10AB0000000F02D059464846D0470136042EA2D144
:10AB100035B14FF0A043039AD3F81035934202D1D8
:10AB200007B0BDE8F08F0393049B05938FE700BF48
:10AB3000006000407C610040A0B00020F0B0002028
:10AB400010B5054C22681AB90449512001F03AFDAC
:10AB50002368BDE810401847FCB00020909B03001C
:10AB600037B50D4630B90F49772001F02BFD002095
:10AB700003B030BD0C4B9842F9D100230DF1070012
:10AB80008DF80730FEF740FE084B1C7914B90122FE
:10AB90001D601A719DF80700FEF766FE002CE6D0D6
:10ABA0001120E5E7909B030000200040FCB000204E
:10ABB0000023435082B043580193019B02B0704779
:10ABC00070B5D0F8103105460C4653B14FF488717A
:10ABD000FFF7EEFF63795A0703D523680BB1012015
:10ABE0009847D5F814315BB14FF48A712846FFF7C6
:10ABF000DFFF63791B0703D523680BB10220984759
:10AC0000D5F81C315BB128464FF48E71FFF7D0FFA9
:10AC1000607910F0100002D1236803B19847D5F88D
:10AC2000043163B14FF482712846FFF7C1FF01235D
:10AC3000237123681BB1BDE870400320184770BD25
:10AC400001490248FFF7BCBF04B1002000C0014029
:10AC500001490248FFF7B4BF0CB1002000100240C8
:10AC600001490248FFF7ACBF14B1002000200240A8
:10AC700000F1804000F5E040002382B003600368EB
:10AC80000193019B02B07047F0B5504B504C1B68CC
:10AC900085B0002B3DD04FF4827094F82E20FFF742
:10ACA000E7FF2AB394F82F3013BB4A4B1B68002BE5
:10ACB00033D04FF48070FFF7DBFF638B94F82D10D7
:10ACC0008B424FD922895B1A9BB292B26383D31A0B
:10ACD000626802EB4303404AC2F82C36C2F83016D1
:10ACE0004FF48270FFF7C4FF3C4B01221A6014E05E
:10ACF000636802932389ADF80C30E36800218DF876
:10AD0000041023BB2374236801A89847002384F808
:10AD10002F3094F82E30002BC7D1314B1B685BB11C
:10AD20004FF48870FFF7A4FF0023237402238DF8EB
:10AD3000043001A8236898472A4B1B68EBB14FF4F5
:10AD40008A70FFF795FF0023237405B0F0BD208BB8
:10AD5000608363602081E160002AD4D11E4B012210
:10AD60001A60D0E7BCD1E368012284F82F2013B128
:10AD700000226283AFE76383B2E766694FF0004762
:10AD80000125002EE1D0B6FA86F227FA02F3463208
:10AD9000920026EA030602F1804303F5E0431B68B4
:10ADA000002BEED01046FFF763FFA2F58C72D3089C
:10ADB00082F00402C2F380028DF808308DF804504E
:10ADC00023688DF8092001A89847DAE7047100404C
:10ADD0001CB1002000710040007000400470004071
:10ADE000107100401471004002494FF4F37001F0FB
:10ADF000E9BB00BF769A03001F2810B5044601D9AD
:10AE0000FFF7F2FF01204FF0A04300FA04F4C3F86B
:10AE10000C4510BD1F2810B5044601D9FFF7E4FF0B
:10AE200001204FF0A04300FA04F4C3F8084510BD18
:10AE300013B54FF04023D3F818310BB3114B124C1C
:10AE400000221A601B680193019B236823B90F49F4
:10AE50004FF4277001F0B6FBE07FFF2803D0A37FFB
:10AE60005BB1FFF7C9FF002363772372D4E9003198
:10AE7000074802B0BDE810401847FFF7CBFFF2E7E4
:10AE800002B010BD184100404CB100202C9C0300C2
:10AE900054B100202DE9F74F8146CDE900230C463F
:10AEA00019B97D49AD2001F08DFB99F804607B4F05
:10AEB000242303FB06FB07EB0B0A9AF81C1000295E
:10AEC00040F0E380D9F8005075492846FFF748FE66
:10AED0008046002840F0DC80009B47F80B30019B47
:10AEE000CAF80430237B2078012B00F2BC80FFF7E6
:10AEF00083FF94F800A0BAF11F0F01D9FFF774FF88
:10AF00000AF5E07A4FF0A043012243F82A2094F892
:10AF100001A0BAF1FF0F00F0A9805046FFF76CFFC7
:10AF2000BAF11F0FD34601D9FFF75EFF0AF5E07AA9
:10AF30004FF0A043032243F82A20A378FF2B00F010
:10AF400098801F2B9A4603D90093FFF74DFF009B73
:10AF500003F5E0734FF0A042042142F823102423AC
:10AF600003FB0673A27883F82020E078D877FF28C7
:10AF700017D02379002B7FD0FFF73EFFE3781F2BFC
:10AF800003D90093FFF730FF009B03F5E0734FF008
:10AF9000A042032142F82310242303FB06732279E5
:10AFA0009A772378C5F80835C5F80CB5C5F810A50B
:10AFB000A368C5F82435637B227B003B18BF0123BF
:10AFC000022A5CD0032A5DD0012A01D143F002039A
:10AFD000C5F85435A379C5F8C03524237343FB580D
:10AFE00013B14022C5F804230722C5F800257BB31E
:10AFF0006479D9F80050A31E012B4FEA153A45F3A6
:10B00000073506D9631F022B03D926496B2001F0AF
:10B01000D9FA002DACBF05F16043234B4FEA44142D
:10B02000B8BF0AF00F0AE4B2AABF03F5614303F800
:10B030000A4083F80043D9F80030012143F3073276
:10B04000C3F3043301FA03F35209184941F82230DB
:10B05000242303FB067600237377012333774046CE
:10B0600003B0BDE8F08FFFF7D5FE42E74FF0FF3B9E
:10B0700063E74FF0FF3A72E7FFF7CCFE7EE743F05D
:10B080000403A5E743F00603A2E74FF00808E6E74C
:10B090004FF01108E3E700BF2C9C03004CB10020E7
:10B0A00031AE0200B79C030014ED00E000E100E0C7
:10B0B0002DE9F341584F0679242303FB067380469C
:10B0C0001B7F0D46144623B9544940F2322001F04B
:10B0D00079FA2B6833B96B6823B1504940F23320B9
:10B0E00001F070FAAB6833B9EB6823B14B494FF408
:10B0F0000D7001F067FA98F804302BB9EB68FF2B5C
:10B1000002D86B68FF2B04D9444940F2352001F086
:10B1100059FA24237343FA18517F002979D1FB5837
:10B1200023B114F0140F04BF0123537795E80F00E7
:10B130004FF0240C0CFB067C0CF10C0E8EE80F007B
:10B140009CF81F00FF2804D09CF81E30C3B1FFF705
:10B1500061FE2A6822B102F06043B3F1005F06D1BC
:10B16000AB6883B103F06043B3F1005F0BD02423DD
:10B1700003FB067600237377102002B0BDE8F08150
:10B18000FFF73AFEE5E7D8F800306968C3F84425D0
:10B19000C3F84815D5E90212C3F83415C3F83825A9
:10B1A0000022C3F81821D3F818210192019A14F053
:10B1B000010218BF0122C3F8502514F0020218BF83
:10B1C0000122C3F8402522075CBF01221A61242214
:10B1D0007243BA5892B9D3F81821002AFBD024231D
:10B1E00003FB0676F07FFF2803D0B47F1CB1FFF786
:10B1F00003FE0020C1E7FFF70DFEFAE714F004009C
:10B200004FF0400202D0C3F80823F2E7C3F804234A
:10B21000B3E71120B1E700BF4CB100202C9C030024
:10B220002DE9F347002406460F46904600F5A07529
:10B230004FF48039A246A00000F5A07398B22B68A5
:10B240006BB1D6F8043309FA04F21A4207D0C5F8F4
:10B2500000A02B680193019BD7E900319847013486
:10B26000A04505F10405E6D102B0BDE8F087000075
:10B270002DE9F347554B0779164602689A42044672
:10B280000D4603D15249482001F09CF91DB950499F
:10B290004A2001F097F91EB94D494B2001F092F96F
:10B2A0004C4A0C2303FB072390461B7A002B40F0EB
:10B2B0008A802368454A93420FD002F58052934218
:10B2C0000BD002F58052934207D002F580329342B0
:10B2D00003D002F58052934202D1AB78032B03D9FD
:10B2E0003B495F2001F06EF90C237B4308EB03021E
:10B2F00048F8036000216B6853600E46607922684D
:10B30000CBB2984256D8EE78B31E012B4FEA123AD0
:10B3100042F3073906D9731F022B03D92E496B203C
:10B3200001F050F9B9F1000FACBF09F160432B4BAC
:10B330002B484FEA4616B8BF0AF00F0AF6B2AABF6A
:10B3400003F5614303F80A6083F80063236843F35D
:10B35000073149090122C3F3043302FA03F340F829
:10B36000213020686B78D0F8041503F0030321F036
:10B3700003010B43C0F804352068AB78D0F80815FA
:10B3800003F0030321F003010B43C0F808352068E4
:10B390002B78D0F8101503F00F0321F00F010B43A9
:10B3A000C0F810350C2303FB078700203A7202B067
:10B3B000BDE8F0879B0003F5A0730131D650D35848
:10B3C0000193019B9AE70820F1E700BF008000404D
:10B3D0003F9D030070B10020B79C030014ED00E016
:10B3E00000E100E038B50B4D02790C2101FB02525F
:10B3F0000446127A012A03D007498F2001F0E2F8AF
:10B40000236801221A6023790C2202FB03530222D3
:10B410001A7238BD70B100203F9D030038B5104A44
:10B4200003790C460C2101FB032305461B7A1BB94B
:10B430000C49C22001F0C6F86B79A34203D8094930
:10B44000C32001F0BFF804F110039B002A68DBB2AF
:10B450000121D15004F5A8742B6853F8240038BD9D
:10B4600070B100203F9D030073B54FF48034056830
:10B470008C408BB101F150039B000026EE50EB583D
:10B480000193019B0368C3F80443036801F5A871A5
:10B4900043F8212002B070BDC5F80843F5E700006D
:10B4A00038B50F4A03790D460C2101FB03230446EE
:10B4B0001B7A23B90B4940F2071001F083F8637936
:10B4C000AB4204D807494FF4847001F07BF823683D
:10B4D0004FF4803101FA05F5C3F8085338BD00BFB9
:10B4E00070B100203F9D0300024903480422FFF78A
:10B4F00097BE00BF70B100200080004002490348A1
:10B500000422FFF78DBE00BF7CB1002000900040F8
:10B51000024903480622FFF783BE00BF88B100201E
:10B5200000A001400023435082B043580193019B87
:10B5300002B07047F0B54F4C236887B023B94E492D
:10B5400040F2452001F03EF84C48D0F82431054641
:10B550009BB14FF49271FFF7E5FFD0F8043163B966
:10B56000A368C0F808330223A360A368C0F80433BB
:10B5700001230362436107B0F0BDD5F80431002B0D
:10B5800049D03F4F3D484FF48271FFF7CBFF0FCFBB
:10B5900001AE0FC63B68336094F82E307BB1237B3D
:10B5A000012B0CBFD5F83C25D5F84C250292022B77
:10B5B000324B0CBFD3F83C35D3F84C3503932F48AE
:10B5C0004FF4B071FFF7AEFF2C484FF4AE71FFF7A8
:10B5D000A9FF94F8303013B194F82E303BB1274BCB
:10B5E0000022C3F80022A260264AC3F80823234A97
:10B5F000D2F8C434C2F8C4349A0736D501238DF882
:10B60000003094F830300BB984F82F30D4E9003191
:10B6100068469847AFE719484FF4A471FFF782FFD7
:10B62000237B83B9164F0FCF01AE0FC63B68336043
:10B6300094F83030002BDAD1C5F80032A360114BFA
:10B64000C5F80833D3E74FF40073C5F8003240F271
:10B650000223A36003F1CE73C5F80833A368C5F8CD
:10B6600004330123AB602B6285E713F0040318BF9A
:10B670000223C4E794B10020D19D030000300040B4
:10B68000A0B1002002029C010023435082B0435825
:10B690000193019B02B070470A4610B54FF48E71BA
:10B6A000FFF7F2FF136A9168C95C136A01331362F2
:10B6B000C0F81C1510BD10B58B690A464FF4847193
:10B6C00023B9FFF7E1FFD0F8183510BDFFF7DCFF15
:10B6D000536AD168D0F81805C854536A01335362CD
:10B6E000F3E7000002494FF4F37000F06BBF00BFB6
:10B6F000769A03001FB501238DF80030044BCDE985
:10B700000110D3E900126846904705B05DF804FBCC
:10B71000C8B1002030B54C48D0F8043313F4007F92
:10B7200085B005464DD0D0F82431002B49D04FF4D8
:10B730009271FFF7A9FF4FF40173C0F80833434B30
:10B7400093F829200AB9012242603F4902228DF86C
:10B750000020D1F88024C1F8802403929A690292D3
:10B76000DA6801920022C3E906226846D3E9001292
:10B7700090473548D0F81C315BB134490A6A4B69AF
:10B780009A420A464BD291F82830002B47D1FFF756
:10B7900083FF2D48D0F844318BB14FF4A271FFF7ED
:10B7A00073FF2A4B93F829200AB1012202609A699B
:10B7B0002AB10022586AD9689A61FFF79BFF05B049
:10B7C00030BDD5F804335B07D3D5D5F80831002B4D
:10B7D000CFD01E4C1C482146FFF76DFF636AA2695B
:10B7E0009A422346C5D1E26952B12369E168E36018
:10B7F0000023606AA261E3616362FFF77BFFB8E741
:10B8000094F829200AB901226A600F4A4FF40171A5
:10B81000C2F808130022586AD9689A61EDE74FF41C
:10B820008E710948FFF730FF51690029B1D000231C
:10B83000029191688DF80030019153616846D2E918
:10B8400000139847A5E700BF00200040C8B10020C2
:10B850002DE9F84F054692460C4619B97649AA20BB
:10B8600000F0B0FE754B2E792C2202FB0632984672
:10B8700092F82A20002A40F0DB8071492868FFF7FF
:10B880006FF90746002840F0D580D4F80090B9F150
:10B89000FF3F18D0B9F11F0F01D9FFF723FF4FF079
:10B8A000A043012202FA09F2C3F80825D4F800B037
:10B8B000BBF11F0F994601D9FFF714FF0BF5E07B91
:10B8C000032349F82B30D4F80490B9F1FF3F0BD093
:10B8D000B9F11F0F01D9FFF705FF09F5E0794FF026
:10B8E000A043002243F829202B68A269C3F824252D
:10B8F000217D637D2A680B43C2F86C35D4E90021B1
:10B900002B68C3F81415C3F80C25237D012B35D102
:10B91000D4F80890B9F1FF3F0BD0B9F11F0F01D94E
:10B92000FFF7E0FE09F5E0794FF0A043002243F86D
:10B930002920D4F80C90B9F1FF3F18D0B9F11F0FAE
:10B9400001D9FFF7CFFE4FF0A043012202FA09F21E
:10B95000C3F80825D4F80CB0BBF11F0F994601D9E4
:10B96000FFF7C0FE0BF5E07B032349F82B30D4E949
:10B9700002212B68C3F80815C3F810252C23734344
:10B9800008EB0302C2F804A0226948F80320BAF1C8
:10B99000000F3AD02868247F4FF48E71FFF774FEB1
:10B9A00028684FF4A271FFF76FFE2B68254AC3F891
:10B9B00004232B684FEA133A43F30739A31E012BE4
:10B9C00006D9631F022B03D91F496B2000F0FAFD33
:10B9D000B9F1000FAEBF09F160431C4B0AF00F0232
:10B9E0004FEA4414E4B2AABF03F561439C5483F8C0
:10B9F00000432B68012143F30732C3F3043301FAF8
:10BA000003F35209124941F822302B680422C3F88B
:10BA100000252C2303FB06830022C3E9062283F8BA
:10BA200029205A61012283F82A203846BDE8F88F80
:10BA30000827FAE71127F8E7619E0300C8B1002044
:10BA400015B7020080000200B79C030014ED00E06F
:10BA500000E100E02DE9F84F324E90F804802C23ED
:10BA600003FB0863054693F82A30012B8946934669
:10BA700004D02D4940F2151000F0A4FDB9F1000FDB
:10BA800004D129494FF48B7000F09CFDBBF1000FED
:10BA900004D1254940F2171000F094FD2B792C2495
:10BAA00004FB03635F69002F3AD108FB046A4FF47B
:10BAB0008E71CAF82070CAF814B0CAF808908AF8D3
:10BAC00028702868FFF7E0FD2B6801229A6028683B
:10BAD0005146FFF7E1FDDAF80430544683B928688F
