:020000022000DC
:106000000000012035B902005DB90200B18B020029
:1060100061B9020063B9020065B902000000000026
:1060200000000000000000000000000067B902004E
:1060300069B90200000000006BB902006DB90200EE
:10604000D19802006FB90200999D020001A40200DC
:1060500089A002006FB90200019C0200E19E0200CB
:10606000B5A30200C9A302006FB902006FB9020014
:106070006FB902006FB902006FB902006FB9020078
:106080006FB90200598602006FB902006FB90200B1
:10609000F58602006FB9020081B302006FB90200F9
:1060A0006FB902006FB90200DDA302006FB90200F0
:1060B000999E02006FB9020000000000000000007D
:1060C0006FB90200A99E0200B99E02006FB90200DA
:1060D0006FB902006FB902006FB902000000000042
:1060E00000000000000000000000000000000000B0
:1060F00000000000000000000000000000000000A0
:10610000000000000000000000000000000000008F
:10611000000000000000000000000000000000007F
:10612000000000000000000000000000000000006F
:10613000000000000000000000000000000000005F
:10614000000000000000000000000000000000004F
:10615000000000000000000000000000000000003F
:10616000000000000000000000000000000000002F
:10617000000000000000000000000000000000001F
:10618000000000000000000000000000000000000F
:1061900000000000000000000000000000000000FF
:1061A00000000000000000000000000000000000EF
:1061B00000000000000000000000000000000000DF
:1061C00000000000000000000000000000000000CF
:1061D00000000000000000000000000000000000BF
:1061E00000000000000000000000000000000000AF
:1061F000000000000000000000000000000000009F
:106200000348044B834202D0034B03B11847704745
:1062100050A3002050A300200000000005480649BC
:106220000B1AD90F01EBA301491002D0034B03B1A4
:106230001847704750A3002050A300200000000022
:1062400010B5064C237843B9FFF7DAFF044B13B1BE
:106250000448AFF300800123237010BD50A3002039
:10626000000000008095030008B5044B1BB10449F1
:106270000448AFF30080BDE80840CFE7000000000D
:1062800054A3002080950300A3F5803A704700BF17
:10629000154B002B08BF114B9D46FFF7F5FF002162
:1062A0008B460F461148124A121A06F0D5F80C4BCD
:1062B000002B00D098470B4B002B00D098470020B4
:1062C000002104000D000B4805F07AFB05F01AFCD4
:1062D0002000290001F09AFF05F0C8FB000008002B
:1062E00000000000000000000000012050A300207A
:1062F000A4B500208DBA0200B0F5A47F03D1054BF0
:1063000001221A707047B0F5A67F02BF024B01222E
:106310001A6070476DA3002078A30020154B07B5C5
:1063200000200021C3E90001134B00221A6003F092
:10633000A7F918B1114A9A2102F03BF9104A92E8E4
:1063400003006B4683E803000E4A0F48194603F02A
:10635000F5FE18B1094AAB2102F02BF90123002206
:106360000321094803F0E6FF074803F0A1FF03B04B
:106370005DF804FB70A3002078A30020F86D0300F3
:10638000346E0300F96202004C6E030070B50446DF
:10639000B0B10D4D0D482E68012103F0A5FF2D6809
:1063A000AE4203D00948012103F09EFF4FF47A71F9
:1063B000A0FB012301FB0533C4E90023002070BDCD
:1063C0004FF0FF30FBE700BF78A300204C6E0300C6
:1063D000024B9868003818BF0120704790B5002024
:1063E00070B5EFF3108672B60D4A0E48946801231B
:1063F000A4B993600C4B0D4DD3F880102940116067
:10640000C3F88050D3F8841051604FF0FF32C3F8C6
:106410008420047006B962B6002070BD0370F9E7ED
:1064200090B500206CA3002000E100E0FC06FFBD59
:1064300010B5094B9A686AB1084A127852B9EFF35D
:10644000108072B606491C680C605C684C609A60EB
:1064500000B962B6002010BD90B500206CA30020EA
:1064600000E100E02DE97343224E00230446684614
:106470000D463370FFF78AFF009B1F4AB4EB0308F9
:10648000019B65EB030940F2E733424573EB0903D7
:106490002CDB4FF47A7200232046294610F0D4FA00
:1064A00002210446154803F01FFFFFF791FF30B9A2
:1064B000134B144A14484FF48B7105F05DFAFFF743
:1064C000B7FF012322460D48022103F033FF03F0FA
:1064D000EDF80A48022103F049FFFFF781FF307809
:1064E00080F00100404202B0BDE870834FF0FF3001
:1064F000F9E700BF6DA3002018FCFFFF4C6E0300FE
:106500001B6E03003C6E0300F86D030030B50024E1
:10651000C1B00546FC22214601A8009405F09CFF6D
:1065200045F2AA53062229460DF10300ADF80030CA
:106530008DF8022005F0F6FE02231DF8032001333A
:10654000092B84EA0204F8D10A22694603488DF82F
:10655000094004F0F5F941B030BD00BFA898002013
:106560002DE9F043044685B008460D4605F000FAD3
:106570000646204605F0FCF98642D9BF27464FF073
:10658000FF362F460126A5421AD1002640F20143CC
:106590000DF1060102220DF10A00ADF80830ADF848
:1065A0000460ADF8067005F0BDFE022201A903A843
:1065B00005F0B8FE02A8FFF7A9FF05B0BDE8F0831B
:1065C00028190FF0FFFE8046281B89460FF0FAFEBF
:1065D00002460B460FF0AAFD0DA3D3E9002310F0ED
:1065E00085F802460B464046494610F07FF841ECDC
:1065F000100B0FF045FD51EC100B10F0FDF90028C9
:10660000C4D000F50043B3F5803FBED20646BDE7D7
:106610000000000000C05E4010B502F027FC852895
:1066200005D020B1194A4FF4CE7101F0C2FF00200D
:1066300002F038FC02F0BAF9852805D020B1134ADF
:106640004FF4D27101F0B5FF114912480622082318
:10665000C1E90023104B8B61002207234A750B7799
:1066600004F06CF8044630B1084A40F2AB1101F076
:10667000A0FF204610BD0146FFF772FF0446002828
:10668000F7D0024A40F2B111F1E700BF546E0300A7
:10669000B0980020A898002000E0D7012DE9F04F25
:1066A0000026A7B088223146054604A8039605F0C7
:1066B000D3FE6C488DF8076004F046FADFF8A49129
:1066C0003746022202A9484604F0A6F90446C8B19A
:1066D000484604F05DFA013700229046132F1CDD76
:1066E000604804F047FA4CB99DF80E70DFF87C91D1
:1066F000032607F102083744B0456CDA204627B07C
:10670000BDE8F08F9DF80830AA2BDAD19DF809304A
:10671000552BD6D102464FF0010893460DF10C0AD5
:10672000BBF1000FDCD108F1FF32022AC9D8DFE843
:1067300002F00217260001220DF10701484604F07D
:106740006BF904460028C3D19DF8071089294FF042
:1067500004044FF002084FF00102BFD80024DFE725
:106760009DF807200DF10F010132484604F054F95D
:10677000044648B34846013704F00AFAACE702225F
:1067800002A9504605F0CEFD9DF807308DF80E3079
:10679000D81C002102221AF802C00132904281EA7C
:1067A0000C01F8DC26AA134413F8893C8B420ED066
:1067B0002D4B032E08BF1C464FF000080136012266
:1067C000002C8BD19346C9E74FF00308C6E700269B
:1067D0004FF0010BC2E726AB334413F88C1C0129A0
:1067E0003BD113F88B2C0F2A35D113F8891C13F8E1
:1067F0008A2C42EA01222A8013F8882C02F0010137
:106800002971C2F34001C2F38002AA7013F8862CEA
:10681000E97002F001016972C2F34001C2F3800223
:106820002972EA7113F8841C13F8852C42EA0122BC
:106830006A8113F8821C13F8832C13F87F3C42EA18
:106840000122AA8103F00102C3F34003AA716B7114
:106850001136F6B250E73E44FBE7484605F060FECD
:106860004AE700BFA898002024FAFFFF616E0300EA
:106870002DE9F84F436A53F82170036905463846FD
:106880000C469847660882468946012C6A6A4FEA98
:10689000840808D9D5E903B352F826009847524630
:1068A0004B46D84748B96B6A43F808703846AB691D
:1068B000214698472046BDE8F88F6B6A53F826209A
:1068C00043F808206A6AAB6952F8080021469847E5
:1068D00034467608D9E72DE9F04F2DED028B436A57
:1068E00003EB810393ED008A036983B0044618EE3D
:1068F000100A0D46984708EE901A80462368B3EBBD
:10690000450F4FEA45060ED8636A18EE102A43F881
:10691000252018EE100AA369294603B0BDEC028BAE
:10692000BDE8F04F184706F1010B5B4518D9E36845
:10693000616AEA001F4651F83500236901929847C1
:10694000019A636A134482462269586889469047CF
:1069500002460B4650464946B847002818BF5E46D7
:10696000626A4FEA8509002ECED0D4E903A352F81B
:106970002600984702460B46404618EE901AD0472C
:106980000028C1D0636A53F8262043F80920626AC0
:10699000A36952F80900294698473546AEE78B426D
:1069A00008BF824234BF012000207047002070479A
:1069B00080688B68C31A5842584170470B1A584276
:1069C00058417047D0E900017047D0E90401704791
:1069D000C0687047006A7047C160704701627047C5
:1069E0007047000008B5FFF717FE28B1BDE8084062
:1069F000024A0E2101F0DDBD08BD00BF876E030015
:106A00001FB56846FFF74AFE18B1254A122101F06A
:106A1000D0FD244805F084FDBDF80010224805F0A3
:106A20007FFD9DF80210214805F07AFD9DF80310C6
:106A30001F4805F075FD9DF804101E4805F070FD17
:106A4000184805F06DFD9DF807101B4805F068FD1E
:106A50009DF80810194805F063FD9DF809101848C5
:106A600005F05EFD0F4805F05BFD9DF8051015482B
:106A700005F056FD9DF80610134805F051FD094834
:106A800005F04EFDBDF80A10104805F049FDBDF8AF
:106A90000C100F4805F044FD05B05DF804FB00BF85
:106AA000876E0300CD730300CC6E0300F46E030009
:106AB000036F0300146F0300246F03003A6F030099
:106AC000526F0300696F03007A6F03008C6F03003D
:106AD0009E6F030070B50446D9B1D0E90006361A9E
:106AE000B1EBA60F05D20B4B0B4A9F210B4804F0CC
:106AF00043FF8D00294605F027FD18B9084B064ACB
:106B0000A121F3E706440023206028442361666046
:106B1000A06070BDB06F030010780300C56F030064
:106B2000D96F03007047000010B5034B04460FCB2C
:106B300084E80F00204610BDD0A300202DE9F047C7
:106B400016461F4656EA07038EB0044606D137495B
:106B500006F0E6F801200EB0BDE8F087002A77F1D4
:106B6000000315DB6D464FF00008E5E802670023DF
:106B7000304639464FF47A720FF066FF06460F46EC
:106B800056EA070308F10108EFD14FF0000907E0CA
:106B9000274906F0C5F801344FF000084FF001090D
:106BA0000EAB08F1FF3503EBC50151E90E014FF4BF
:106BB0007A7200230FF048FF1E49164620461F46F2
:106BC00006F0AEF8642E77F1000315DB033409F10B
:106BD000030908F10056023EDFF85CA00DEBC60683
:106BE0002F46002F13DCB8F1000F4FEA8505D8BF00
:106BF000002505EB0900AEE70A2E77F10003A7BFD9
:106C0000023409F10209013409F10109E1E776E8EA
:106C100002014FF47A7200230FF016FF204651460E
:106C200006F07EF80434013FDBE700BF7C7F030001
:106C3000DF6F0300E16F0300E66F03002DE9F84307
:106C400005462820894690461F4605F0A9F80446C7
:106C500050B10135A80005F0A3F80646606230B9CE
:106C6000204605F0A5F834462046BDE8F883012308
:106C70002360089BA361099BE3610A9B6761C4E9E8
:106C80000155C4E903982362EEE708B100680138B2
:106C9000704770B50E46044608B9012070BDD0E9B2
:106CA00000539D4209D38368406A1D44A90005F042
:106CB0004BFC0028F1D06062656021684B1C2360AA
:106CC000636A204643F82160FFF7D2FD0020E5E724
:106CD00010B5034668B10268012A0CD0416A013A36
:106CE0004C68026051F822304B600121FFF7F3FD40
:106CF0002346184610BD0023FBE730B10368012B83
:106D000002D0436A586870470020704738B50A4679
:106D10000446016863689500281D0844984288BFAE
:106D20006060D4E90103984209D3E0685B1A01303E
:106D3000E0605910914205D92046FFF7CBFE20684C
:106D4000284438BD4900F5E72DE9FF411D46234B96
:106D50001B681746022B0A9AB8BF0223934280464B
:106D60000E4637DB084606F0EBF90446384606F0D7
:106D7000E7F9204400F120012130039105F010F8DB
:106D8000174B03991B68002B044617DA154A009726
:106D9000334605F061FF144B1B68BBB9134B2A4601
:106DA0001B682146B8F1000F0ED0D8680AF0EAF946
:106DB000204604B0BDE8F04104F0FABFCDE9006719
:106DC0000B4A05F049FFE6E79868EFE729462046B9
:106DD0009847EDE704B0BDE8F08100BF00990020BE
:106DE000E0980020FB6F0300ECA300203099002006
:106DF000EE6F030007B50B4600210246009101200B
:106E00000249FFF7A1FF03B05DF804FB34700300F3
:106E10000FB407B504A951F8040B0191FFF7EAFF7D
:106E200003B05DF804EB04B07047000038B51148BA
:106E3000FFF7ACFA10B11048FFF7EAFF0D4A0F4810
:106E4000D2E90032D0E900105B1840EB02020C4896
:106E5000D0E900105C180B4B42EB0005D3E90001B0
:106E6000A04271EB0502B8BFC3E90045D3E90001B8
:106E700038BD00BFD898002001700300B0A30020E7
:106E8000B8A3002098A3002008B504281CD8DFE888
:106E900000F003070B1519000D4BD3E900010CE0BE
:106EA000BDE80840FFF7C2BF094B0A4AD3E9000119
:106EB000D2E90032C01A61EB020108BDFFF7B6FF4C
:106EC000054AF5E7034BE8E700204FF00041F4E7FF
:106ED000D0A3002008990020F89800200220FFF796
:106EE000D3BF000007B5024601200B4600900349BE
:106EF000FFF72AFF03B05DF804FB00BF2470030016
:106F00000FB407B504A951F8040B0191FFF7EAFF8C
:106F100003B05DF804EB04B07047000007B50B4602
:106F200000210246009101200249FFF70DFF03B046
:106F30005DF804FB2E7003000FB407B504A951F8E7
:106F4000040B0191FFF7EAFF012004F08FFD000020
:106F50002DE9F04704460F461646002E02DA1E4879
:106F6000FFF7EAFF002C35D02368B34232D9636AB9
:106F700053F8265075B3D4E903A3284698472369EC
:106F8000814638468846984702460B464846414661
:106F9000D047F8B923692846984723698046384680
:106FA00089469847894508BF80450AD07600324611
:106FB00039462046FFF7CCFF054648B12846BDE8D4
:106FC000F087E3693946284698470028EED0F5E770
:106FD0000136C2E70025F1E73C7003000122FFF70C
:106FE000B7BF000038B5154604F000FD044610B9DF
:106FF0000748FFF7A1FF4DB10821012004F0F6FC7E
:107000000028F5D02B68046028604360204638BD16
:10701000797003000146024A0120FFF7E3BF00BF79
:10702000A8A3002070B5054610B104680CB92C6007
:1070300070BD206804F0BCFE6668204604F0B8FE0F
:107040003446F3E710B50446FFF7ECFF2046BDE8F1
:10705000104004F0ADBE000070B5074D2C680CB9AF
:107060002C6070BD2068FFF7EDFF6668204604F0D5
:107070009FFE3446F3E700BFA8A30020F0B585B01B
:107080006D4685E80F000B4CDDE90023D4E90001D3
:10709000824273EB010607DB904271EB0303029F10
:1070A000A66805DBB74203D295E80F0084E80F001D
:1070B00005B0F0BD1099002010B5044610B300686B
:1070C00070B1144A217E1368012903F1FF33136064
:1070D00003D12369BBB904F06BFE002323600120B8
:1070E000237E7BB10C4A1368B3F5007F0DDA0B49A0
:1070F00001330868E0610C601360094A1368013BC2
:107100001360022010BD9847E7E7204604F050FEC8
:10711000F3E700BF7CA30020C4A30020C0A300208D
:1071200080A3002008B5014620B1C36823B90648F2
:10713000FFF7E6FE002008BD013BC360002BF9D13C
:10714000BDE80840FFF7B8BF887003002DE9F041A3
:10715000284E294D002433689C4218DB274C2068B8
:1071600040BB274B274E1968274B32681B68934258
:10717000BEBF264A11681A46002318469A421EDCF2
:10718000234C23688BBB00233360BDE8F0812A6861
:107190000C2363431A4451680878012808D1127AF5
:1071A0000AB100220A702A68D3581868FFF7BAFF9C
:1071B0000134D0E7C569FFF7B5FF2560CFE751F887
:1071C000234001332070D9E729463846FFF79EFD5A
:1071D00018B103680BB1C3F800800135D4E900236E
:1071E0009B1AB5EBA30FEFD3CDE700252746A846A2
:1071F000F4E700BFCCA30020C8A30020A0A3002078
:107200008CA3002090A3002094A3002088A300203A
:10721000ECB4002010B5324C88B0FFF797FF20681F
:10722000A0B1FFF732FD014680B12E48FFF768FE9E
:1072300020682D4CFFF761FDD4E90023D0E9001050
:107240008A1A60EB03032948FFF75AFE284C23688B
:10725000002B06DD2748FFF753FE21682648FFF77D
:107260004FFE264C2368002B06DD2548FFF748FE1D
:1072700021682448FFF744FEFFF730FE0B46002844
:1072800073F1000102461BDB1F4C6846FFF756FCFA
:107290001E48694605F044F9D4E90023012A73F138
:1072A00000030DDBFFF7C2FDD4E90023821A61EB76
:1072B00003036846FFF742FC1548694605F030F9BC
:1072C000FFF7CAFE134B186804F072FD124B1868E2
:1072D00004F06EFD114B186804F06AFD08B010BD93
:1072E00014B50020BA70030008990020FB70030059
:1072F0007CA300203C7103006E71030080A300207A
:107300008E710300BE710300F8980020DC71030049
:1073100005720300C8A3002088A300208CA30020CE
:1073200030B585B004AC04E90F000F4C029DD4E9E0
:107330000001DDE90023824273EB010CA46810DB3D
:10734000904271EB03030ADBA5420AD38CBF0120F4
:1073500000200028D4BF0020012005B030BD01204E
:10736000F7E74FF0FF30F4E71099002008B5074B1E
:107370001868FFF7ADFC38B92021012004F036FB76
:1073800010B90348FFF7D8FD08BD00BF00B50020C5
:107390007970030000230022C0E900230023C0E924
:1073A0000233036103758361024B01461868FFF7DE
:1073B00070BC00BF00B5002038B5044600698842A3
:1073C0000D4601D0FFF7AEFE256138BD2DE9F04F27
:1073D000944D91B0044616461F4695E80F00FFF7FE
:1073E0009FFFDDF868B0AA4638B15846FFF79AFE0D
:1073F0008D48FFF785FD0020B3E0002E77F10003F4
:1074000006DA32463B468948FFF77AFD0026002718
:107410001CB95846FFF786FEEDE7BBF1000F04D01C
:10742000DBF80C300133CBF80C30237A23B9D4E9E4
:107430000432F61842EB0707DAF80030DAF80420D5
:1074400007930692D4E90623CDE90423FFF78EFFC4
:1074500000218161C0F810B0846094F82410DDE947
:107460000623054649B3FFF7E1FC16EB000847EB9E
:107470000109D4E90623002A73F1000335DAC5E9CE
:1074800000896B4B29461868FFF7A8FD002800F01B
:10749000C5800123044680691A4601330028F9D1CA
:1074A000CDE90C890E9210AB13E90F00FFF738FFFE
:1074B000C8B12846FFF76EFF9DE7DAE9000113EB3C
:1074C000060842EB0709804579EB0103D1DAB0EBFE
:1074D0000802CDE9000161EB09035648FFF710FDF2
:1074E000DAE90089C5E7A56185E7277A002F40F032
:1074F0009580A66A002E00F09180D6E90001049BD9
:10750000C3180293059B41EB03030393DDE90223B8
:10751000424573EB0903C0F2818094F82C30012BB3
:1075200022D0022B34D0DAE90023994208BF9042DE
:1075300046D13F4B31461868FFF750FD00283FD039
:10754000D6E900230CA8CDE90823FFF7EDFA0E9B3E
:1075500001330A9308AB0FCBFFF7E2FE0028A8D156
:10756000B56111B0BDE8F08FDDE90423012A73F1A4
:10757000000306DB33695B459BD05846FFF7D2FD1D
:1075800097E72B4B31461868FFF728FD0028F1D10B
:10759000D6E90001DAE90023824273EB010704DA3D
:1075A00059463046FFF708FF83E7994208BF9042EB
:1075B00006D11F4B31461868FFF710FD0028EFD1A8
:1075C000DAE90001DDE9022382428B410DDA029BF8
:1075D000C21A039BCDE9000161EB03031548FFF7D5
:1075E00017FCDAE90023CDE90223DDE90223C5E92E
:1075F0000023114BDDE90201D3E9002382428B41D4
:10760000BBDB0B4BA56218682946FFF742FB0B4B0F
:107610001868421C48BF01221A60A2E7CDE902891E
:10762000CEE700BFD0A300202F72030054720300E6
:1076300014B500209B72030010990020D098002000
:107640002DE93348194B044618680D46FFF755FBE2
:10765000A0B1D0E900BCA3457CEB01030EDA144BCA
:10766000D3E90023BBEB02006CEB0301A21ACDE9C6
:10767000000165EB03030F48FFF75EFC0E4BD3E9F7
:107680000001A04271EB050206DAC3E900450022C1
:107690009A6002B0BDE83088A94208BFA04202D17A
:1076A0009A680132F4E70548FFF746FC14B500205C
:1076B0000899002006730300D0A300207373030011
:1076C00010B5436804465860D0E9003098476368B5
:1076D00000225A6010BD0000F8B505461B481C4F3B
:1076E0000E4604F01DFF1B4804F01AFF1A4804F070
:1076F00017FF1A4804F014FF194804F011FF194845
:1077000004F00EFF184804F00BFF184804F008FFBF
:10771000174804F005FF174804F002FF164804F06C
:10772000FFFE164804F0FCFE154804F0F9FE0024A4
:10773000AC4204DBBDE8F840124804F0F1BE56F854
:107740002410384604F0ECFE0134F1E7B373030073
:10775000F2750300CF730300EC7303002A74030077
:107760004E7403009A740300E8740300FB74030072
:10777000457503005A75030097750300A77503004C
:10778000E2750300CC7303002DE9F74F964CDFF848
:10779000FCA205460E464FF0010BAB4501DB012074
:1077A00014E056F82B80914940460BF101094FEA4D
:1077B0008B0705F0E9FA60B94D451BDC8C48FFF7F3
:1077C00027FB28463146FFF787FF002003B0BDE8BE
:1077D000F08F8849404605F0D7FA0028ECD086495A
:1077E000404605F0D1FAF8B90BF10203AB4233DBA6
:1077F0008248E4E7374482497F6838460BF1020942
:1078000005F0C2FA18B97F4B01221A704DE07E498B
:10781000384605F0B9FA10B97A4B187045E07B4844
:107820003946FFF7F5FA40E07949404605F0ACFAF1
:107830000028D9D07749404605F0A6FA0028D3D0D1
:107840007549404605F0A0FA002840F085804D4576
:1078500000F392807148B2E737440BF10309D7F87F
:107860000480BF68404604F0B9F802460B46C4E9FC
:10787000002313430AD16A490122404605F0CEFC99
:1078800020B168484146FFF7C3FA9AE766490322E8
:10789000384605F0C3FC50B9606864492268A2FB11
:1078A000012301FB0033C4E90023CB4675E760499F
:1078B0000422384605F0B2FC10B960685D49EDE776
:1078C0005D490422384605F0A9FC18B960684FF4F8
:1078D0007A71E3E759490422384605F09FFC0028F5
:1078E000E3D057490322384605F098FC48B9D4E95B
:1078F00000230D2151430AFB0311A2FB0A230B4471
:10790000D1E750490422384605F088FC50B9636835
:107910004D48226840F24631514300FB0311A2FB5F
:107920000023ECE749490322384605F077FC28B9E3
:1079300063684748226844F69461EDE745490422AC
:10794000384605F06BFC20B9636843482268434918
:10795000E2E74348394696E74249404605F014FAC3
:1079600000283FF474AF4049404605F00DFAC0B915
:107970004D4526DC3D4822E7374421497F6838469B
:107980000BF1020905F000FA08B9394B3CE71E4932
:10799000384605F0F9F908B9354B3EE73548394620
:1079A0003FE73549404605F0EFF90028E0D033497C
:1079B000404605F0E9F900283FF477AF30484146EA
:1079C00061E737440BF1020979680191084603F039
:1079D000FDFF0028019903DC2A48FFF719FA01206E
:1079E000294B186061E700BFF0980020F67503008E
:1079F00000760300F9750300407603004D7603001E
:107A000018760300E8A300201D7603002376030008
:107A10004376030044760300BC760300CB76030074
:107A20007C7F03006D7603008576030000CA9A3BD5
:107A30008476030040420F00897603008E760300AF
:107A4000937603009776030000A0B8309C7603007D
:107A500000004F91A0760300000029F90F260200D4
:107A6000A5760300BF7603000A77030017770300AB
:107A7000E9A30020E87603000D7703006777030091
:107A8000727703003D770300A4A30020005847F855
:107A9000F8B50F4B1B7804460D460BB10020F8BD1E
:107AA000FFF7C4F9261A65EB0107012E77F10003F1
:107AB000F4DB42F20F720023B242BB4105DA2046EA
:107AC0002946BDE8F840FEF7CDBC4FF0FF30E6E7B1
:107AD000E8A3002090F83830014633B9012380F83C
:107AE0003830024B1868FFF7D4B8704708B500204B
:107AF0002DE9F7433A4DDFF8F0802868394FFFF75A
:107B0000FCF838B1D0E90001D8E90023994208BF58
:107B1000904201D0334C5AE02868FFF7D9F8067D2F
:107B200004465EB1A16911B13868FFF7B2F820468A
:107B3000FFF730FC2868FFF7E0F8E2E7D0F8109094
:107B4000A3685A68B2422EDC012283F83420A06870
:107B5000037A4BB1D0E90623012A73F1000103DB5C
:107B600000210091FFF732FCA36822691B6A93424F
:107B70000BD053B101221A76A3681A6AD368013375
:107B8000D360A368186AFFF7CDFAA368C3F8209002
:107B9000B9F1000F02D0002389F81830A368012240
:107BA00083F83420BEE71B6853F8260090F838307D
:107BB0001BB94FF0FF31FFF78DFF0136C0E71046CC
:107BC0002E68FFF785F801463046FFF762F8226815
:107BD0001046FFF792F80028F1D103B0BDE8F0831A
:107BE00014B5002004B50020D0A30020F8B5D0E9DA
:107BF000046756EA0703044622D0FFF7B7FB114A91
:107C00008460D2E900329B1947EB0202C0E90032DE
:107C10000D4B01461868BDE8F840FFF73AB82368F5
:107C20004FF0FF3153F82500FFF754FF013563682B
:107C3000AB42F4DCD4E9066756EA0703DDD1F8BDB0
:107C40000025F4E7D0A3002014B500202DE9F04F63
:107C500090F8545087B006460F46002D72D007B0FA
:107C6000BDE8F08FF26A52F82520AB0004935AB1B8
:107C700012784AB1726BD35803934FF00009326BFC
:107C8000049BD25891452DDB0135B26A9542E9D368
:107C9000002CE4D0D4E91023002A73F1000354DB54
:107CA000FFF7C4F8D4E91023894652EA030180465D
:107CB0000CD02848D0E9001051184341009101939D
:107CC000DDE90023424573EB09033EDAE36C2BB197
:107CD0006068984739462046FFF7B8FF002384F8CC
:107CE0004830BCE7039B53F8292032B34FF0000A19
:107CF00020E0116851F82A80B8F1000F18D0A04593
:107D000016D00BF1010BBBF1010F03D1D8F82410F1
:107D10008E4215D02CB1394620460592FFF7DAFE87
:107D2000059A059239464046FFF7D4FE059A00248D
:107D30000AF1010A51688A45DBDB09F101099EE776
:107D40004446F5E7AB462C469FE739462046FFF709
:107D5000B7FCBFE7D0A300202DE9F84F294F2A4EEA
:107D60004FF0020B3B681846FEF78FFFA8B9264973
:107D7000D1E900238E682549D1E90045A24273EB81
:107D8000050789683BDB944275EB030303DBB142D3
:107D900094BF00200120BDE8F88F1846FEF798FF39
:107DA000D0E91023002A73F10003824680F838B02E
:107DB00020DBFFF73BF8DAE910230D4652EA030116
:107DC000044609D0D6E9001012EB010843EB000984
:107DD000A04579EB05030DDADAF84C3033B1DAF867
:107DE0000400984700215046FFF730FF00238AF82F
:107DF0003830B7E700215046FFF762FCF2E7012078
:107E0000C9E700BF08B50020D0A3002010990020CA
:107E1000F0B589B0FEF7E4FA2B4B1868FEF76DFF5A
:107E20002A4B05460FCB6C4684E80F00A5B9284BBA
:107E30001B78002B3DD1274BD3E900019B68CDE98E
:107E400004010133069308AB13E90F00FFF716F99D
:107E5000214BD3E9006716E01E4BD5E90067D3E953
:107E600000239F4208BF964221D104A8FEF75CFE82
:107E7000069B0133CDE90067029394E80F00FFF7FA
:107E80004FFA0028E4D130463946FFF701FEA8B981
:107E900030463946FFF7D4FBFFF758F9FFF728FEC5
:107EA000FEF7C6FA09B0BDE8F040FFF755BF002362
:107EB000E0E74FF0FF366FF00047E4E7FEF7B8FA6F
:107EC000012009B0F0BD00BF14B500200078030008
:107ED000E9A30020D0A300201099002038B54FF46A
:107EE000B470FFF797F8164C1649174D0022C0E9F9
:107EF0001942C0E9334200F17004C0E90210C0F831
:107F00001841012100F58C74C0E9364100F10804E4
:107F1000C0F8604100F5B074C0E91522C0E91C50FA
:107F2000C0E92F22C0E9484102618167C0F8002101
:107F300080F8E010C0F8482180F8282138BD00BF43
:107F400099770300E5690200016A02000000000061
:107F500038B5FEF7E3F9FFF7C1FF194B00F108024E
:107F60001A6000220023C0E93A2313A3D3E90023B7
:107F7000C0E93C23134B00F1D8021A60002300240F
:107F80004FF000450122C0F810310363C0F898306B
:107F90000023C0E91245C0E92C45C0E90823C0E927
:107FA0002223094C094A6FF000456FF00043C0E9F5
:107FB0000645C0E9202338BD00E1F50500000000BA
:107FC0000CB5002010B500200000FFFF0100FFFFEE
:107FD000F0B5354B354F364D364C374A37490026CC
:107FE0008DB01E60364B0A201E60364B02970195FD
:107FF0000094FEF723FE344B2F4A18603349314B6F
:108000000094CDE901570A20FEF718FE304B2A4AAA
:1080100018602E492B4B0094CDE901570A20FEF73A
:108020000DFE2C4B2C4F1860FFF792FFFEF7FEFE63
:108030002A4BC3E900012A4BC7E90001C3E900014B
:1080400017A3D3E9002305460C460EF0FDFC14A34C
:10805000D3E90023CDE90401284621460EF0F4FCC3
:1080600004A8069203F0FAFC069A01461D4804F0A3
:1080700057FA1D4BD3E90001002871F100030CDB16
:10808000D7E900321B1841EB0202CDE908320A960B
:108090000CAB13E90F00FEF7F1FF0DB0F0BD00BF10
:1080A00000CA9A3B000000007CA30020256B020060
:1080B000B1690200D9690200C56902009F69020026
:1080C00080A30020D169020014B50020AD69020030
:1080D00000B5002004B50020D0A30020F8980020AF
:1080E000089900209B770300F098002070B5084D98
:1080F000084E00242B68A34200DC70BD56F8240013
:1081000018B14FF0FF31FFF7E5FC0134F2E700BF93
:10811000E49800200CB5002070B5074D074E0024F0
:108120002B68A34200DC70BD56F8240008B1FFF7AD
:108130005DFD0134F4E700BFE898002010B5002091
:1081400030B5234B0D461968224B85B0044618689C
:10815000FFF71AFB002838D029462046FFF714FB0A
:10816000002832D01C4803F02BFC10B11B48FEF74E
:10817000C7FE1B49022004F0FDFCFFF729FF194B45
:108180000293194B0193194B194A1A4900930A207B
:10819000194BFEF753FD194B194A1860D2E900013B
:1081A000184B0022C3E900019A60174B01221A7094
:1081B000FFF79CFFFFF7B0FFFFF7CEFD10B90020DF
:1081C00005B030BDFFF724FEF8E74FF0FF30F7E7CA
:1081D000E4A30020E0A3002015720200D67703007C
:1081E0006DBA0200E1690200BD690200DD690200AA
:1081F000CB6902009F690200D569020008B5002022
:1082000008990020D0A3002084A30020FFF798BF86
:1082100038B5054D044645F001054FF47A40A847AE
:10822000013CFAD138BD00BFE078030070B50546C7
:1082300086B00E46144672B601F04AF900F0AAFF65
:108240000028FBD13E4804F06BF944F201039D4243
:1082500066D00AD8012D12D041F201039D425DD0B3
:108260003146384804F05CF90CE044F202039D42C8
:10827000F6D122886168344804F052F902E03348AC
:1082800004F04EF901F0C8FB08B901F08DFB0023A2
:10829000ADF814308DF8163005A9012319208DF89A
:1082A000153001F0C3FB05A9182001F0BFFB05A99B
:1082B000172001F0BBFB192001F074FC182001F01D
:1082C00071FC172001F06EFC4FF4FA70FFF7A0FF6D
:1082D000192001F039FC182001F036FC172001F0BC
:1082E00033FC3220FFF794FF192001F05BFC1820CB
:1082F00001F058FC172001F055FC4FF4FA70FFF71D
:1083000087FF192001F020FC182001F01DFC172028
:1083100001F01AFCFA20FFF77BFFCCE70C48AFE72F
:10832000A1680391084601F049FA23680196009379
:10833000024663680399074804F0F2F8A2E700BF19
:108340001E780300BB7803007678030037780300BB
:10835000547803009178030007B501F05DFB08B97C
:1083600001F022FB0023ADF804308DF8063001A99E
:10837000012319208DF8053001F058FB01A91820C0
:1083800001F054FB01A9172001F050FB192001F066
:1083900009FC182001F006FC172001F003FC4FF443
:1083A000FA70FFF735FF192001F0CEFB182001F01D
:1083B000CBFB172001F0C8FB3220FFF729FF192063
:1083C00001F0F0FB182001F0EDFB172001F0EAFBB3
:1083D0004FF4FA70FFF71CFF192001F0B5FB1820CD
:1083E00001F0B2FB172001F0AFFBFA20FFF710FFFE
:1083F000CCE70369C1688B429DBF8268D21802F145
:10840000FF3203F1FF3394BF501A581A70472DE919
:10841000F843D0E902940546A9EB0408406890456A
:1084200020440F46144404D903F07CFFEC60BDE8FF
:10843000F8834246A4EB090403F074FF68682246FF
:1084400007EB0801F0E72DE9F843C56806468946C1
:1084500017464FF000083469B3687068A54228BF1A
:10846000E418013C621B5C1BBC4228BF3C469442A2
:1084700028BF144649462844224603F053FFB368F8
:108480002544AB4208BF00253F1BA044A144F56032
:10849000E1D14046BDE8F88310B5114C114AA26104
:1084A0000223C4E90433104BE361A2644FF4007368
:1084B0000E4A0F492362E26400231022E01DA362EA
:1084C0006362E362A3656365E365226504F0C6FD4C
:1084D0000849204604F0C2FD2023A37110BD00BF4F
:1084E00018B50020E678030020A8002010A800207E
:1084F000EF780300F3780300F8B5184C182300FB5D
:10850000033503FB00402544C46A012C0F46164680
:108510000FD0022C1AD0F4B92846FFF76AFF864222
:1085200005D8324639462846FFF771FF34462046C3
:10853000F8BD2846FFF75DFF8642344628BF044653
:10854000224639462846FFF762FFF0E72846BDE895
:10855000F840FFF778BF0024E9E700BF18B5002016
:1085600073B50E4B1B7804460D4616460BB9FFF744
:1085700093FF00230DF107008DF8073000F0C0FADB
:10858000324629462046FFF7B7FF04469DF807000C
:1085900000F0E6FA204602B070BD00BF18B500201A
:1085A00010B511461C461A460020FFF7D9FF204699
:1085B00010BD00B583B002900091019244F2010019
:1085C00071466A46FFF732FE03B000BD094A537890
:1085D00091780133DBB2994208BF002311789942A8
:1085E0001FBF03705078182303FB002014BF043012
:1085F0000020704720AA002073B5054600240DF125
:1086000007000E468DF8074000F07AFA0DF10600DB
:10861000FFF7DCFF90B10670094B9DF8062045601E
:108620005A709DF8070000F09BFA24B9054B4FF4EF
:108630008012C3F80021204602B070BD0424F0E788
:1086400020AA002000E100E0024B4FF43C6043F020
:108650000103184700790300F8B51F491F4B002597
:10866000C1F84051C1F84451C1F84851C1F84C51CA
:10867000C1F80051C1F804511B684BB3D1F804454F
:1086800017490968641A24F07F442F461A68A242E9
:1086900009D8A41A15441A7CDE691AB1D3E9052059
:1086A0001F749047AEB90F4A0F4B11781B788B425D
:1086B00005D10133DBB2022B08BF002313701278FF
:1086C0000A4B43F822500A4B4FF48012C3F80021A2
:1086D000F8BD3346DAE700BF0010014040AB002090
:1086E0003CAB002039AB002038AB002030AB002081
:1086F00000E100E02DE9F04FA14AA2491378097882
:10870000A14D994285B03CD00133DBB2022B08BFAA
:10871000002313709D4912789D4B0F6853F8220077
:108720003B1823F07F4300220B602B68164614464B
:10873000944613B942B12B6006E0196881420ED904
:1087400002B12B60091A196001272B68DFF848A2D3
:1087500001934FF00008BEB9DFF844B262E0401A5E
:108760000C44D968D3F81CE0C3F800C031B13A1901
:1087700022F07F42C3E90121DE611E4673460122D9
:10878000D7E700263746E0E73446F6697F4A636854
:108790001268DFF810C2A068991A21F07F41614584
:1087A00000F2A88001442160012222742A6800237B
:1087B000C4E90133E361002A40F0A5802C60CAE7D8
:1087C0009BF802105A1CD2B291428BF8002004BFD1
:1087D00000228BF80020182202FB03B32A681979C3
:1087E0009C68022977D0032900F08180012919D1E2
:1087F000207CB8B9D96861601A69A2605A69E260E0
:108800009B69A361634B1B78002B18BF0146616015
:10881000BCE78C4200F091808946C9690029F8D1F3
:10882000002323749BF800309BF801209A42C7D1A3
:108830002B68B8F1000F04D1019A9A4201D1002FA0
:1088400043D0002B41D0D3F800A0534D4F4BD5F867
:1088500004751C68DFF850813E1B98F8003026F044
:108860007F4603369BB94FF48033C5F84433C5F8CF
:1088700004334A4B4FF400324FF00109C3F8802112
:108880001A60C5F80090FFF7DFFE88F80090B24547
:108890002CBF5444A41924F07F44C5F84045D5F8B2
:1088A0000435DB1B23F07F43E41B033324F07F44B8
:1088B000A3420AD9D5F80435C5F84035FFF7C4FE00
:1088C000364B4FF40032C3F80021324B00221A70AD
:1088D00005B0BDE8F08F114691469FE71174D2694B
:1088E0000123002AFAD1002B9CD02A609AE70023AA
:1088F0001946F6E7D31A23F07F43834234BFC31AE5
:108900000023236050E721681368994213D8591A4D
:108910001160E26152E7091AD8691A4638B1034674
:1089200018688842F7D3401A186018461346216029
:10893000E061DC610FE71346F2E74C4511D1D369E2
:108940002B6073B9DFF844E00120CDE90212CAF8C8
:108950000800CEF800300F4B1870FFF775FEDDE908
:1089600002120B68C969C9F81C1011B108680344E8
:108970000B602B68934218BF4FF0010850E700BF0F
:1089800038AB002039AB002040AB00203CAB0020CE
:1089900030AB00202CAB00200010014000E100E0D3
:1089A00020AA0020FEFF7F002DAB0020F8B5194E55
:1089B000194D1A4F4FF40033C6F8803001244FF49C
:1089C0008033C5F84833C5F808336C60FFF73CFEC8
:1089D000AC6000243C60FFF737FE114B1C70114B5C
:1089E0000B221C809A70104B1C60104B1C70104B9B
:1089F0004FF480121C70E023C6F8802186F81433EF
:108A00003260C5F8084586F81133D5F804353B6067
:108A10002046F8BD00E100E0001001403CAB002022
:108A20002DAB002020AA002040AB002038AB002056
:108A300039AB00202DE9F743DFF8848098F8023045
:108A400005460E461746ABB3A0B3042930D9436997
:108A500083B3437C0024012B0DF107000CBF894632
:108A6000A1468DF8074000F04BF80DF10600FFF726
:108A7000ADFDD8B1012303700F4B4560D3F8043529
:108A8000C0E90497C0E902369DF8063088F8013045
:108A90009DF8070000F064F824B9084B4FF48012E9
:108AA000C3F80021204603B0BDE8F0830424EFE7BB
:108AB0000724F7E70824F5E70010014000E100E093
:108AC00020AA0020064A92783AB130B1426922B118
:108AD000002202740221FFF78FBD0820704700BFFB
:108AE00020AA0020EFF30583C3F308032BB9EFF3AB
:108AF0001480C04300F0010070470120704700005F
:108B000070B50446FFF7EEFF012803D0104943205B
:108B100002F096FDEFF3108672B60E4A90680123BC
:108B200098B993600C4B0D4DD3F88010294011601B
:108B3000C3F88050D3F8841051604FF0FF32C3F86F
:108B40008420207006B962B670BD2370FAE700BFBA
:108B50000679030090B5002000E100E0FC06FFBDAF
:108B600010B50446FFF7BEFF012803D00949512084
:108B700002F066FD084B9A685AB154B9EFF31081C0
:108B800072B6064A18681060586850609C6001B957
:108B900062B610BD0679030090B5002000E100E048
:108BA000024B1B680021986803F09EBE309900209C
:108BB0001EF0040F1CBFEFF309800AE0EFF30880FA
:108BC0000549064A884201D8904202D88D464FF0A6
:108BD0000000034B184700000000012000E00020C7
:108BE000E58B02002DE9F347054600F071FC00F02B
:108BF000D1FA0028FBD12F4C2F48304B241AE4081F
:108C000024049F6A44F00104002D4ED0AA692C4927
:108C1000204600F02FFCEB680193AB6829490093D4
:108C20002046D5E9002300F044FCEB690093264977
:108C3000D5E90423204600F030FC204BDB6A98077E
:108C400003D52249204600F011FCDFF89490DFF8AC
:108C500094A000264FF0010808FA06F33B4206D024
:108C600059F826201AB15146204600F003FC01367F
:108C70001A2EF1D1390605D5104B15495A6B2046ED
:108C800000F0F8FB3A0405D50C4B12499A6B2046CC
:108C900000F0F0FB104B1B68DB0700D500BE284638
:108CA000FFF75AFB02B0BDE8F0870C49204600F000
:108CB000DDFBC2E7FC9503009495030000ED00E0A6
:108CC0009A790300AF790300E47903003F7A030047
:108CD0008E7A0300AE7A0300F0ED00E00C7A030018
:108CE000887F0300837A030010B5034653E8000F22
:108CF0000A4643E8002494F0000FF7D110BD10B5E8
:108D0000034653E8002F42EA010043E8000494F0D0
:108D1000000FF6D110BD10B5034653E8000F00EA6E
:108D2000010243E8002494F0000FF6D110BD10B505
:108D3000034653E8002F02EB010043E8000494F0DF
:108D4000000FF6D110BD10B5034653E8002FA2EB7B
:108D5000010043E8000494F0000FF6D110BD01219A
:108D6000FFF7CDBF0021FFF7D6BF000037B504469F
:108D700020B914494FF4927002F062FC00250DF105
:108D800007008DF80750FFF7BBFE22686168136883
:108D90008B4210D9591E116013F8015C228AE368D6
:108DA00002FB05352268A36811685B1A1179DBB2F2
:108DB000994238BF13719DF80700FFF7D1FE28468E
:108DC00003B030BDF07F030037B50C46054620B92F
:108DD000104940F2471002F033FC24B90D494FF41A
:108DE000A47002F02DFC00230DF107008DF8073070
:108DF000FFF786FE2A681368591C1160E968641A37
:108E0000298AB4FBF1F41C709DF80700FFF7A8FE57
:108E100003B030BDF07F030038B5074C051E04F1E8
:108E2000080318BF1C4623682BB11A6822605B68D0
:108E300028469847F7E738BD4CAB002020B9054BD2
:108E400001225A70FFF7E8BF012802D1014A907051
:108E5000F8E7704744AB002020B9034B01225A7059
:108E6000FFF7DABF704700BF44AB002038B50B4CAA
:108E7000237883B90A486360A3602361E36000F04C
:108E8000A7FC054602F062FA08B900F0B5FC012320
:108E90002370284638BD8525FBE700BF44AB002082
:108EA0003D8E020037B51E4C237805461BB91D497F
:108EB000E92002F0C5FBA37803F0FF02D3B115B19E
:108EC0006B680120984700230DF107008DF80730EB
:108ED000FFF716FEE3689DF807000133E360FFF734
:108EE0003FFEE36823B90F4940F2051002F0A8FBEA
:108EF00003B030BD0DF107008DF80720FFF700FE2D
:108F000025B1226913463BB92A602561E368002B2D
:108F1000E0D100F08FFCDDE79D42F7D01B68F2E75F
:108F200044AB00207F80030013B5164C237823B98F
:108F300015494FF4857002F083FBE36823B91249A9
:108F400040F20B1002F07CFB00230DF107008DF8BE
:108F50000730FFF7D5FDE368013BE360E36853B9F1
:108F600002F0F4F918B10849792002F069FB00F029
:108F700097FC0023A3709DF80700FFF7F1FD02B0F6
:108F800010BD00BF44AB00207F800300012813B553
:108F900008D003281CD018B9144B0122C3F8802034
:108FA00002B010BD124C00230DF107008DF8073000
:108FB000FFF7A6FD23780BB9FFF758FFE3689DF88C
:108FC00007000133E3600123A370FFF7C9FDE7E762
:108FD000074B1B7823B9074940F2452002F030FBCC
:108FE00000F00AFCFFF7A0FFDAE700BF00E100E0B5
:108FF00044AB00207F800300037813F0040216D0F6
:1090000003F00303012B03D0022B09D0012070478A
:109010000A6800880232C0F3831002440A60F5E750
:109020000B684288023303EB92130B60EEE71046A5
:10903000704700002DE9F04F89B000230446861CDC
:109040000DF10F000F4615468DF80F30FFF758FD54
:10905000494801683960D0E90132134401335B1A91
:10906000824600F21C4700F5836900F21448B342BF
:109070001CD30020002D7BD004F00F039B0143F094
:10908000050363F30F00DAF80020DAF80830134024
:10909000033316444AF823009DF80F00CAF8006015
:1090A000FFF75EFD012009B0BDE8F08F01213846D1
:1090B000FFF73DFE4846FFF752FE4046FFF74FFEE2
:1090C000DAF80400DAF808B0049000EA0B00033084
:1090D0000AEB800004A9FFF78FFF049B0246F8B952
:1090E0000BEA03010AEB810103F1020CC868059049
:1090F000013303EA0B0B0AEB8B0B00F00300012892
:10910000DBF80C10CDF810C02AD002280BD01B4978
:1091100001924FF4BF7002F093FA019A93460CE06B
:109120000BEA0300D3E7BDF81630C3F3891303330A
:109130004FEA114B0CEB930304934046FFF712FEEA
:1091400010B1049BCAF8043059463846FFF7EFFDCA
:10915000DAE901231344DAF8002001339B1A86E789
:10916000BDF81430C3F383134FEA114B6344E3E7B4
:10917000A40544F0060086E728AC00202081030007
:10918000034BD3E90030C31A58425841704700BF1F
:1091900028AC00202DE9F04387B0FFF7F1FF064629
:1091A000002840F0F9807D4DC5F81804BFF34F8FBB
:1091B0006B68AC6802932340033305EB830002A97C
:1091C000FFF71AFF029B18B1D5F81824002A5FD0C8
:1091D00004EA0302991C013305EB8202234005EBEC
:1091E0008303D268DB68049302F00303022B03922B
:1091F000029160D1BDF80E306948C3F38917502F32
:10920000B84628BF4FF0500868F38F1308F10801E3
:10921000ADF80E3000F0DCF90646002800F0A7801B
:1092200000F005FA0023082203A9304600F012FAE4
:10923000029924EA01020132B8EB820F4FEA82035D
:1092400032D95FFA88F85BB32140DCB2A8EB04089E
:1092500003315FFA88F9A046524C05EB81010823DF
:109260004246304600F0F6F934B108F108034A46A8
:109270002146304600F0EEF9029B033703EB9707D7
:109280000297D5F81834002B49D1D5F8104459E08D
:109290002A689A428FD86A60304607B0BDE8F083EA
:1092A00040491C469946DAE70C40E11C0823424637
:1092B00005EB8101DDE7012B59D1BDF80C303848B1
:1092C000C3F38311062928BF062161F389130231F4
:1092D0008900ADF80C3000F07BF90646002846D036
:1092E00000F0A5F90023082203A9304600F0B2F9E6
:1092F0000027BDF80C20C2F38312BB00974203F194
:109300000803BED202994A1C21400331029205EBA8
:1093100081010422304600F09DF90137E9E730462B
:1093200000F089F9FFF72CFF80F00100C6B2B3E727
:10933000E3685B7923B1236831461B682046984770
:10934000E3681C68002CF3D1304600F074F90DF18D
:1093500007008DF80740FFF7D3FBD5F818340BB999
:10936000029B6B609DF80700FFF7FAFBDAE7D5F880
:10937000104454B90C4B0D480D49C01AC0080004E4
:1093800040F0020000F072F8CCE7236820469B68AA
:109390009847E3681C68ECE700267DE728AC0020CE
:1093A0002C96030034AC002094950300EC95030048
:1093B000B68103002DE9F74F274D04460F4691462D
:1093C00001A901221846D5F808A09846FFF732FEF9
:1093D00078B3019E0023B01C434503EB000132D15A
:1093E0001E480021FFF780FC80F3100B1C4B1D4A28
:1093F0004FEA14499B1AB9EBD30F04D31A4940F230
:10940000A31002F01DF9731C03EA0A03E40005EB44
:10941000830304F0380449EA0B4006EA0A0644F0E4
:109420000104D860033644EA881343EA872345F8E9
:10943000263095F820341BB1FFF7ACFE0028FBD195
:1094400003B0BDE8F08F0AEA010105EB810159F88C
:109450002320CA600133BFE728AC002044B00020BD
:109460002C960300949503002081030000231A46E4
:10947000FFF7A0BF07B50123019201AAFFF79AFFEA
:1094800003B05DF804FB07B5CDE9002302236A466B
:10949000FFF790FF03B05DF804FB1FB5CDE9012392
:1094A000069B039301AA0323FFF784FF05B05DF831
:1094B00004FB1FB5CDE90023069B0293079B039392
:1094C0006A460423FFF776FF05B05DF804FB000051
:1094D00038B5094A0123D2F8104482F820341D46D9
:1094E00004B938BDE3685D71236820465B6898471E
:1094F000E3681C68F4E700BF28AC00202DE9F74FB3
:1095000099469DF83030009388469346064618B930
:109510002349B62002F094F8F18872794A43043A5C
:109520004A4505D81E490192C42002F089F8019AE3
:10953000DBF80070B6F806A007EB0901914209F1CB
:10954000040488BFA2EB0907B4FBFAF5CBF800705E
:109550000AFB154445B9AAEB040BBB4528BFBB4623
:109560002FB903B0BDE8F08F3668013DF2E7009BEC
:10957000043408EB050034445A466BB12146A7EB8E
:109580000B0702F0CFFEBA455D443668D3464FF074
:10959000000428BFBB46E3E701462046EFE700BFD3
:1095A000CB810300F8B546790146721E05460023BB
:1095B00093422D6803D30024A64202D8F8BD01339C
:1095C000F6E70F682846FFF7FFFB01343946F3E75B
:1095D0002DE9F843CD1C068A0746FFF7C7FB043E7A
:1095E00035440446B5FBF6F5F0B14FF48073EDB2A7
:1095F0008380C680013D076081464FF00008A84582
:1096000012D23846FFF7B2FB064648B16379013300
:10961000637108F10108C9F8000007608146EEE7B0
:109620002046FFF7BFFF34462046BDE8F8830121FE
:109630000430FFF77CBB10B5012104460430FFF76E
:1096400082FB10F0FF0F04D12046BDE81040FFF769
:10965000A9BF10BD1FB5144603920022009203AAB1
:10966000FFF74CFF039BA34203D00349F62001F010
:10967000E7FF04B010BD00BFCB81030041DF70479E
:10968000064B10B500241C70054B1C60BFF35F8FA8
:109690000449054800F040F8204610BD54B00020B1
:1096A00058B00020F88203004CB0002013B500230E
:1096B0000DF107008DF80730FFF722FAF1EE104A9E
:1096C00024F09F03E1EE103ABFF35F8F104B40226E
:1096D000C3F884219DF80700FFF742FA630703D01F
:1096E0000C497D2001F0ACFF01F030FE58B1FFF7CE
:1096F000C5FF30F0020304D006494FF4B07001F00A
:109700009FFF02B010BD20BF40BF20BFF9E700BFE0
:1097100000E100E05A82030038B50D46044618B94E
:109720000849502001F08CFF1DB90649512001F075
:1097300087FF25602B6863606A68934204BF00233B
:10974000636038BD0483030010B5044618B90B49A3
:10975000632001F075FF23681BB90849642001F0FC
:109760006FFF636843B1226891680B44636052687D
:10977000934204BF0023636010BD00BF0483030055
:1097800010B50D49A1F59472914201D800200FE067
:109790008C1AE30F03EBE4035B1002EBC30452F8F3
:1097A0003330834205D802D204F10802ECE7606846
:1097B00010BD2146E8E700BFA488030008B5FFF705
:1097C000DFFF024B002808BF184608BD668703006C
:1097D00010B5044618B90649A02001F031FF054A2A
:1097E000107918B901211460918010BD8520FCE723
:1097F000A48803005CB0002008B50B4B1B791BB993
:109800000A49B92001F01CFF094B1A68D2075FBF53
:10981000E02283F8002301221A604FF080430122E6
:10982000C3F8182508BD00BF5CB00020A488030061
:1098300000E100E037B5144B1B791BB91349E62052
:1098400001F0FEFE124B00221A601B680193019B7F
:109850004FF080430222C3F804230E4AD06840F040
:109860008073D3600C4B1C6844F0010119605D6883
:109870005968491BB1F50A5FFAD31C60074BD060E9
:1098800001221A6003B030BD5CB00020A488030040
:1098900004010040F0ED00E0001000E0080000408E
:1098A00008B5084B1B791BB90749F32001F0C8FE26
:1098B000064B01221A604FF08042D2F81834DB03C5
:1098C000FBD408BD5CB00020A48803000C0000405D
:1098D00007B5154B1A687AB100221A601B6800930D
:1098E000009B4FF080430122C3F808230F4B5879A7
:1098F00010B95A711B6898470D4B1A6882B1002243
:109900001A601B680193019B4FF080430222C3F849
:109910000823064B1B68012003B05DF804EB1847D1
:1099200003B05DF804FB00BF000100405CB0002004
:109930000401004000F1804000F5C040002382B0E7
:10994000036003680193019B02B07047054B4FF021
:10995000FF32072843F8202084BFC01880F8482031
:10996000704700BF64B0002002494FF4F37001F06B
:1099700067BE00BF368903001F2838B504460D4670
:1099800001D9FFF7F1FFA00000F1A040D0F80037A7
:1099900023F44033C0F80037D0F8003743EA0543DA
:1099A000C0F8003738BD000010B5174C94F8583097
:1099B00043BB04F130032021FF22013911F0FF01E4
:1099C00003F8012BF9D1C8B2FFF7C0FF01310C2910
:1099D000F9D1042200210D4802F03EFD0C4BE0229B
:1099E00083F8062340221A604FF4BE70FFF7A2FFEF
:1099F000084B4FF00042C3F80423012384F8583089
:109A0000002010BD0820FCE764B00020B8B00020A2
:109A100000E100E000600040034B93F8580000387C
:109A200018BF0120704700BF64B000201F2870B528
:109A300004460D4604D941494FF4987001F000FEE8
:109A40003F4E96F85830012B04D03C4940F231107B
:109A500001F0F6FD25B939494FF4997001F0F0FD98
:109A6000331993F93020013266D1AA78002A55D0F3
:109A7000334B002253F8041B01314AD1331983F8C8
:109A80003020002346F82230920002F1804202F595
:109A9000C0422B78D2F81005697820F498101B0486
:109AA000090520F4F85001F4801103F44033C2F8A2
:109AB00010050B432102D2F8100501F4F8510B43B5
:109AC0000343C2F810356B78012B4FF0010529D103
:109AD0001F2C01D9FFF748FF4FF0A043A540C3F862
:109AE00008551F2C01D9FFF73FFF04F5E0724FF036
:109AF000A043032143F8221024FA01F3114A012064
:109B0000D15C04F0070400FA04F40C43D4540020A0
:109B100003E00132082AADD1042070BDFE2283F893
:109B20003020D0E71F2C01D9FFF71EFF4FF0A043D4
:109B3000A540C3F80C55D4E70820EEE7B889030028
:109B400064B00020B8B000201F2838B5044604D9FE
:109B500012494FF4BE7001F073FD114D2A1992F9AC
:109B60003020013204D10D4940F27D1001F068FD32
:109B70002B1993F83030072B04D808494FF4BF70E5
:109B800001F05EFD1F2C01D9FFF7EEFE01204FF022
:109B9000A04300FA04F4C3F8084538BDB8890300AF
:109BA00064B000201F2838B5044604D912494FF488
:109BB000C37001F045FD114D2A1992F93020013290
:109BC00004D10D4940F2871001F03AFD2B1993F8AA
:109BD0003030072B04D808494FF4C47001F030FD31
:109BE0001F2C01D9FFF7C0FE01204FF0A04300FA5F
:109BF00004F4C3F80C4538BDB889030064B00020F4
:109C00002DE9F04F87B000245F4D03944FF480722C
:109C1000012102F1804303F5C04390B21B68012B80
:109C200006D1D5F804330B4202D0FFF783FE0C4374
:109C30000432B2F5907F4FEA4101EAD1534B1B68E1
:109C4000012B0AD14FF4BE70FFF774FE4FF0A04312
:109C500044F00044D3F81035039314F0FF0F1AD0EA
:109C60004B4F00250126344210D0AB0003F1804356
:109C700003F5C043D3F81005D3F8101557F8253075
:109C800023B1C1F30141C0F3042098470135082DE9
:109C90004FEA4606E7D1002C6EDA00214FF0FF3381
:109CA000CDE904133A4FDFF8EC800026354618F969
:109CB000013B5A1C55D0C3F3C20201215FFA83FB5A
:109CC00003F03F0903F0070301FA03F406AB991808
:109CD00011F8043C234244D007EB09034FEA9B1BD5
:109CE00093F9303057F823A0BAF1000F0BD1BBF134
:109CF000030F36D10DF1100E1EF802C04CEA040C11
:109D00000EF802C002E0BBF1030FF3D0B9F11F0F50
:109D100003D90191FFF728FE019911F80C1C09F5F0
:109D2000E0724FF0A043214253F82220C2F30142D7
:109D300006D0022A15D1BBF1030F0CD1594605E01C
:109D4000032A0ED1BBF1030F05D102214846FFF7CC
:109D500013FE0135EDB2BAF1000F02D05946484664
:109D6000D0470136042EA2D135B14FF0A043039A5B
:109D7000D3F81035934202D107B0BDE8F08F0393BA
:109D8000049B05938FE700BF006000407C610040AA
:109D900064B00020B4B0002010B5054C22681AB998
:109DA0000449512001F04CFC2368BDE810401847DD
:109DB000C0B00020508A030037B50D4630B90F49B6
:109DC000772001F03DFC002003B030BD0C4B9842E1
:109DD000F9D100230DF107008DF80730FEF790FE52
:109DE000084B1C7914B901221D601A719DF80700F7
:109DF000FEF7B6FE002CE6D01120E5E7508A0300FE
:109E000000200040C0B000200023435082B04358DF
:109E10000193019B02B0704770B5D0F81031054630
:109E20000C4653B14FF48871FFF7EEFF63795A0780
:109E300003D523680BB101209847D5F814315BB1E5
:109E40004FF48A712846FFF7DFFF63791B0703D5BC
:109E500023680BB102209847D5F81C315BB1284626
:109E60004FF48E71FFF7D0FF607910F0100002D12F
:109E7000236803B19847D5F8043163B14FF4827178
:109E80002846FFF7C1FF0123237123681BB1BDE8FA
:109E900070400320184770BD01490248FFF7BCBF5E
:109EA000C8B0002000C0014001490248FFF7B4BF1C
:109EB000D0B000200010024001490248FFF7ACBFBB
:109EC000D8B000200020024000F1804000F5E040C2
:109ED000002382B0036003680193019B02B07047C6
:109EE000F0B5504B504C1B6885B0002B3DD04FF463
:109EF000827094F82E20FFF7E7FF2AB394F82F30F2
:109F000013BB4A4B1B68002B33D04FF48070FFF714
:109F1000DBFF638B94F82D108B424FD922895B1A9B
:109F20009BB292B26383D31A626802EB4303404A46
:109F3000C2F82C36C2F830164FF48270FFF7C4FF17
:109F40003C4B01221A6014E0636802932389ADF848
:109F50000C30E36800218DF8041023BB23742368C0
:109F600001A89847002384F82F3094F82E30002B56
:109F7000C7D1314B1B685BB14FF48870FFF7A4FF6A
:109F80000023237402238DF8043001A82368984726
:109F90002A4B1B68EBB14FF48A70FFF795FF002343
:109FA000237405B0F0BD208B608363602081E16085
:109FB000002AD4D11E4B01221A60D0E7BCD1E3683D
:109FC000012284F82F2013B100226283AFE763835C
:109FD000B2E766694FF000470125002EE1D0B6FADE
:109FE00086F227FA02F34632920026EA030602F1CD
:109FF000804303F5E0431B68002BEED01046FFF7CB
:10A0000063FFA2F58C72D30882F00402C2F38002CF
:10A010008DF808308DF8045023688DF8092001A8C8
:10A020009847DAE704710040E0B00020007100407A
:10A030000070004004700040107100401471004036
:10A0400002494FF4F37001F0FBBA00BF36890300F8
:10A050001F2810B5044601D9FFF7F2FF01204FF089
:10A06000A04300FA04F4C3F80C4510BD1F2810B536
:10A07000044601D9FFF7E4FF01204FF0A04300FAA6
:10A0800004F4C3F8084510BD13B54FF04023D3F8CE
:10A0900018310BB3114B124C00221A601B6801934C
:10A0A000019B236823B90F494FF4277001F0C8FAC8
:10A0B000E07FFF2803D0A37F5BB1FFF7C9FF002338
:10A0C00063772372D4E90031074802B0BDE810403D
:10A0D0001847FFF7CBFFF2E702B010BD1841004070
:10A0E00010B10020EC8A030018B100202DE9F347DD
:10A0F000002406460F46904600F5A0754FF48039BF
:10A10000A246A00000F5A07398B22B686BB1D6F8F8
:10A11000043309FA04F21A4207D0C5F800A02B68EC
:10A120000193019BD7E9003198470134A04505F11F
:10A130000405E6D102B0BDE8F08700002DE9F34741
:10A14000554B0779164602689A4204460D4603D1DC
:10A150005249482001F074FA1DB950494A2001F0D3
:10A160006FFA1EB94D494B2001F06AFA4C4A0C2394
:10A1700003FB072390461B7A002B40F08A8023685C
:10A18000454A93420FD002F5805293420BD002F51C
:10A190008052934207D002F58032934203D002F5F9
:10A1A0008052934202D1AB78032B03D93B495F2005
:10A1B00001F046FA0C237B4308EB030248F80360E6
:10A1C00000216B6853600E4660792268CBB29842DA
:10A1D00056D8EE78B31E012B4FEA123A42F30739F4
:10A1E00006D9731F022B03D92E496B2001F028FAE0
:10A1F000B9F1000FACBF09F160432B4B2B484FEA7C
:10A200004616B8BF0AF00F0AF6B2AABF03F56143BB
:10A2100003F80A6083F80063236843F307314909B0
:10A220000122C3F3043302FA03F340F8213020681B
:10A230006B78D0F8041503F0030321F003010B43FE
:10A24000C0F804352068AB78D0F8081503F0030394
:10A2500021F003010B43C0F8083520682B78D0F8B3
:10A26000101503F00F0321F00F010B43C0F8103558
:10A270000C2303FB078700203A7202B0BDE8F08789
:10A280009B0003F5A0730131D650D3580193019B75
:10A290009AE70820F1E700BF008000407C8B0300B4
:10A2A00034B10020088C030014ED00E000E100E070
:10A2B00038B50B4D02790C2101FB02520446127A8B
:10A2C000012A03D007498F2001F0BAF9236801223F
:10A2D0001A6023790C2202FB035302221A7238BD42
:10A2E00034B100207C8B030038B5104A03790C464A
:10A2F0000C2101FB032305461B7A1BB90C49C22024
:10A3000001F09EF96B79A34203D80949C32001F0FB
:10A3100097F904F110039B002A68DBB20121D150A8
:10A3200004F5A8742B6853F8240038BD34B100201C
:10A330007C8B030073B54FF4803405688C408BB17F
:10A3400001F150039B000026EE50EB580193019B56
:10A350000368C3F80443036801F5A87143F821209A
:10A3600002B070BDC5F80843F5E7000038B50F4AE4
:10A3700003790D460C2101FB032304461B7A23B904
:10A380000B4940F2071001F05BF96379AB4204D846
:10A3900007494FF4847001F053F923684FF480317A
:10A3A00001FA05F5C3F8085338BD00BF34B10020E9
:10A3B0007C8B0300024903480422FFF797BE00BFCD
:10A3C00034B1002000800040024903480422FFF716
:10A3D0008DBE00BF40B100200090004002490348FC
:10A3E0000622FFF783BE00BF4CB1002000A0014051
:10A3F0000023435082B043580193019B02B0704741
:10A40000F0B54F4C236887B023B94E4940F2452040
:10A4100001F016F94C48D0F8243105469BB14FF4B1
:10A420009271FFF7E5FFD0F8043163B9A368C0F873
:10A4300008330223A360A368C0F804330123036236
:10A44000436107B0F0BDD5F80431002B49D03F4F30
:10A450003D484FF48271FFF7CBFF0FCF01AE0FC61F
:10A460003B68336094F82E307BB1237B012B0CBF0B
:10A47000D5F83C25D5F84C250292022B324B0CBF67
:10A48000D3F83C35D3F84C3503932F484FF4B071D3
:10A49000FFF7AEFF2C484FF4AE71FFF7A9FF94F819
:10A4A000303013B194F82E303BB1274B0022C3F863
:10A4B0000022A260264AC3F80823234AD2F8C434F3
:10A4C000C2F8C4349A0736D501238DF8003094F8C9
:10A4D00030300BB984F82F30D4E900316846984702
:10A4E000AFE719484FF4A471FFF782FF237B83B9CC
:10A4F000164F0FCF01AE0FC63B68336094F8303073
:10A50000002BDAD1C5F80032A360114BC5F808332F
:10A51000D3E74FF40073C5F8003240F20223A36082
:10A5200003F1CE73C5F80833A368C5F804330123DB
:10A53000AB602B6285E713F0040318BF0223C4E766
:10A5400058B10020918C03000030004064B100201D
:10A5500002029C010023435082B043580193019BA7
:10A5600002B070470A4610B54FF48E71FFF7F2FF44
:10A57000136A9168C95C136A01331362C0F81C1531
:10A5800010BD08B502464FF492710068FFF7E2FF74
:10A590004FF484711068FFF7DDFF136801221A6021
:10A5A00008BD10B58B690A464FF4847123B9FFF7D3
:10A5B000D1FFD0F8183510BDFFF7CCFF536AD16832
:10A5C000D0F81805C854536A01335362F3E700000A
:10A5D00002494FF4F37001F033B800BF368903002D
:10A5E0001FB501238DF80030044BCDE90110D3E9EC
:10A5F00000126846904705B05DF804FB8CB100205E
:10A6000030B54C48D0F8043313F4007F85B00546CC
:10A610004DD0D0F82431002B49D04FF49271FFF780
:10A6200099FF4FF40173C0F80833434B93F8292086
:10A630000AB9012242603F4902228DF80020D1F878
:10A640008024C1F8802403929A690292DA68019208
:10A650000022C3E906226846D3E900129047354834
:10A66000D0F81C315BB134490A6A4B699A420A46F8
:10A670004BD291F82830002B47D1FFF773FF2D48BC
:10A68000D0F844318BB14FF4A271FFF763FF2A4B2E
:10A6900093F829200AB1012202609A692AB10022A6
:10A6A000586AD9689A61FFF79BFF05B030BDD5F8AD
:10A6B00004335B07D3D5D5F80831002BCFD01E4C1F
:10A6C0001C482146FFF76DFF636AA2699A42234640
:10A6D000C5D1E26952B12369E168E3600023606A91
:10A6E000A261E3616362FFF77BFFB8E794F829207A
:10A6F0000AB901226A600F4A4FF40171C2F80813C7
:10A700000022586AD9689A61EDE74FF48E710948C2
:10A71000FFF720FF51690029B1D000230291916811
:10A720008DF80030019153616846D2E900139847D3
:10A73000A5E700BF002000408CB100202DE9F84FB4
:10A74000054692460C4619B97649AA2000F078FFD2
:10A75000754B2E792C2202FB0632984692F82A205D
:10A76000002A40F0DB8071492868FFF725FB074687
:10A77000002840F0D580D4F80090B9F1FF3F18D000
:10A78000B9F11F0F01D9FFF723FF4FF0A0430122BA
:10A7900002FA09F2C3F80825D4F800B0BBF11F0F84
:10A7A000994601D9FFF714FF0BF5E07B032349F825
:10A7B0002B30D4F80490B9F1FF3F0BD0B9F11F0F43
:10A7C00001D9FFF705FF09F5E0794FF0A04300221A
:10A7D00043F829202B68A269C3F82425217D637DD5
:10A7E0002A680B43C2F86C35D4E900212B68C3F802
:10A7F0001415C3F80C25237D012B35D1D4F808900E
:10A80000B9F1FF3F0BD0B9F11F0F01D9FFF7E0FEFF
:10A8100009F5E0794FF0A043002243F82920D4F84D
:10A820000C90B9F1FF3F18D0B9F11F0F01D9FFF714
:10A83000CFFE4FF0A043012202FA09F2C3F8082527
:10A84000D4F80CB0BBF11F0F994601D9FFF7C0FE39
:10A850000BF5E07B032349F82B30D4E902212B6868
:10A86000C3F80815C3F810252C23734308EB030223
:10A87000C2F804A0226948F80320BAF1000F3AD0C8
:10A880002868247F4FF48E71FFF764FE28684FF428
:10A89000A271FFF75FFE2B68254AC3F804232B68DB
:10A8A0004FEA133A43F30739A31E012B06D9631F5E
:10A8B000022B03D91F496B2000F0C2FEB9F1000F33
:10A8C000AEBF09F160431C4B0AF00F024FEA44147B
:10A8D000E4B2AABF03F561439C5483F800432B689C
:10A8E000012143F30732C3F3043301FA03F352099E
:10A8F000124941F822302B680422C3F800252C238A
:10A9000003FB06830022C3E9062283F829205A614B
:10A91000012283F82A203846BDE8F88F0827FAE795
:10A920001127F8E7218D03008CB1002001A6020059
:10A9300080000200088C030014ED00E000E100E05C
:10A940002DE9F84F324E90F804802C2303FB086366
:10A95000054693F82A30012B8946934604D02D49A9
:10A9600040F2151000F06CFEB9F1000F04D1294936
:10A970004FF48B7000F064FEBBF1000F04D1254949
:10A9800040F2171000F05CFE2B792C2404FB0363CB
:10A990005F69002F3AD108FB046A4FF48E71CAF840
:10A9A0002070CAF814B0CAF808908AF8287028688D
:10A9B000FFF7D0FD2B6801229A6028685146FFF707
:10A9C000D1FDDAF80430544683B92868226A6369F5
:10A9D0009A4211D32B68D3F81C21002AFBD0012204
:10A9E000DA602C2303FB0866002373613846BDE858
:10A9F000F88F94F828303BB9D0F81C31002BF8D0F0
:10AA00005146FFF7AFFDE1E70F27EAE71127EDE732
:10AA10008CB10020218D03002DE9F843484F0579C2
:10AA20002C2303FB0573064693F82A30012B884636
:10AA3000144604D0434940F2691000F001FEB8F119
:10AA4000000F04D13F494FF4B57000F0F9FD24B96F
:10AA50003C4940F26B1000F0F3FD2C2303FB05731F
:10AA60005A6822B133684FF40171C3F808132C23DC
:10AA700003FB0573986950B1D96900293FD022B111
:10AA800033684FF40172C3F80423112434E09C614D
:10AA9000C3F80C805862D8612C2303FB057393F82C
:10AAA00029301BB910B93046FFF76BFD4FF02C0968
:10AAB00009FB05783068D8F80430002B35D14FF405
:10AAC000A271C146FFF746FD3068D0F82431D0F8B6
:10AAD0000821D0F84441BAB90CB9002BF4D02C228B
:10AAE00002FB05750022AA612BBB34BB95F8291027
:10AAF00033680122B9B11A602046BDE8F883C3F873
:10AB00001080DC610120C7E7002BE8D1002CE6D1E2
:10AB10004946FFF746FDD8F82430D8F818209A4265
:10AB2000D2D82346DBE75A60E6E74FF40173C0F85A
:10AB300004330024E0E70324DEE70F24DCE700BF52
:10AB40008CB10020218D030070B50279084D2C26B0
:10AB500006FB0252044692F829303BB9FFF711FD7B
:10AB6000237906FB0353012283F8292070BD00BF1F
:10AB70008CB10020036801225A600379034A2C211A
:10AB800001FB0323002283F8292070478CB10020A9
:10AB900008B502464FF492710068FFF7DBFC1368BA
:10ABA000D3F88004C3F8800408BD70B5C0B14AB1C1
:10ABB00016880024B44203D305196D789D4208D04D
:10ABC000A14201D800200BE0055D01352C44A4B260
:10ABD000F0E7A142F6D9A31C1380005D013880B2D2
:10ABE00070BD13B513460022ADF806200DF1060224
:10ABF0000446FFF7DAFF10B1BDF80630E01802B0E6
:10AC000010BD72DF704773DF704738B5012204460C
:10AC10000D46B0F83812D0F83402FFF7E2FF00B169
:10AC2000057004F13C0204F50D7104F15400BDE817
:10AC30003840FFF7E6BFF8B5077804460D46002F09
:10AC400000F0048100F24A2681700722002130467C
:10AC500001F002FCE38813B1A378012B04D0E3795F
:10AC60004BB1A378022B06D1636BA3B1012284F808
:10AC7000512208209847334604F5147113F8012F28
:10AC800012B99942FAD117466B1E032B52D8DFE84E
:10AC900003F0050B0F1284F85132ECE7A3791BB1D6
:10ACA00094F8243003B95FB9E3790BB1002F43D195
:10ACB000237A002B42D1637A002B0CBF0025042598
:10ACC000636BA570002B3BD0033D012D38D8627912
:10ACD000002A35D094F8522292BB84F854220122E3
:10ACE00084F853220720984704F13C0518220021DC
:10ACF000284601F0B1FBE36A94F82420581E012194
:10AD0000022828BF0B4684F83C1084F8513032B139
:10AD1000884296BFA36A84F8521084F85230A17812
:10AD2000002384F8503004291BD8DFE801F0770DA8
:10AD3000223559000025C3E70225C1E70325BFE7F7
:10AD4000002384F85332CFE7C4E91063C4F84432D7
:10AD50000223012284F83C30802384F83120A4F8B7
:10AD60004830A378002B5CD1636B002B6AD10020A4
:10AD700067E00223002A84F8313014BF072303233D
:10AD800084F83C302369A4F848300023C4F84432E6
:10AD9000E36826646364E4E763696364A369A4F811
:10ADA000483012B1062384F83C306379B3B194F88B
:10ADB00052329BB994F8543283B1022384F8503054
:10ADC00004212046FFF721FF0028CAD1052384F87B
:10ADD000313004F50D73C4F84432C2E70323F6E7BB
:10ADE000E3696364236AA4F8483012B1062384F847
:10ADF0003C30637983B194F852326BB994F8543291
:10AE000053B1022384F8503004212046FFF7FDFEA1
:10AE10000028A6D10623DAE70423D8E784F83130E6
:10AE20009FE7D4F844122A4604F15400FFF7E9FEE4
:10AE300038B994F8301094F85400FFF7E4FE002875
:10AE400092D0F8BD94F83100984790E70820F8E7D1
:10AE500010B50388112B0C460AD0262B1FD0102BBF
:10AE600005D1C37B012B02D18388A1F8483210BDE4
:10AE7000002381F852328288B1F848329A42F6D1E2
:10AE80000B79002BF3D101212046FFF7D4FE0028D7
:10AE9000EDD0A36B002BEAD0BDE810401847037A31
:10AEA000013B012BE3D8897805230131B1FBF3F392
:10AEB00003EB8303C91AC9B2E6E77047034B1A884C
:10AEC00082420CBF18460020704700BFD4B100205A
:10AED000024B9B6903B11847704700BFB8B100200F
:10AEE00037B50B46497A0F4A71B9D2E901141D7A78
:10AEF0000246002D18BF21465868FDF79BFD08B19A
:10AF0000FFF7E6FF03B030BD002119725369002B33
:10AF1000F8D00122ADF806008DF8042001A898476A
:10AF2000F0E700BFB8B100204B8802889A4213D8DE
:10AF300042889A4210D380888A8840F2F31398425C
:10AF400094BF031AC31A934206D800F2F31090423A
:10AF500034BF0020012070470020704770B503887F
:10AF6000122B014659D004D8102B1ED0112B44D0DF
:10AF700070BD502BFCD12F4BC288DB899A42F7D190
:10AF8000038A022BF4D186883046FFF797FF0546E7
:10AF90000028EDD001F1120000F050F838BB6868CD
:10AFA000FDF790FD0028E3D009E0C37B012BDFD142
:10AFB0004FF6FF70FFF782FF054620B90420BDE879
:10AFC0007040FFF785BF8E881B4A068000230372FE
:10AFD0001368C0F80A305368C0F80E3010310A30D8
:10AFE000FFF7A2FF134B6872DB89002BC0D1294603
:10AFF0003046BDE87040FFF773BF8088FFF75EFF03
:10B0000004460028B4D04068FDF75CFD08B1FFF7A6
:10B010005FFF4FF6FF732380AAE786883046FFF76D
:10B020004DFF05460028A3D008310A30FFF77CFF0A
:10B030006872DCE7B8B10020E8B10020007800F0C9
:10B040000100704790DF7047A5DF7047B5DF70479C
:10B050007FB50023ADF80810ADF80A106A4602A9C2
:10B06000064603930093ADF80430FFF7EBFF054667
:10B0700000B3124B124CE41AE408FEF79FFB2404C1
:10B0800044F0010403460F4932462046FEF7FBF91F
:10B09000BDF80020BDF8023052EA030103D00A498E
:10B0A0002046FEF7F0F9BDF804201AB10749204602
:10B0B000FEF7E0F9284604B070BD00BF9495030088
:10B0C00004960300B78D0300018E0300408E030039
:10B0D00013B5034680880C46B8B91A88242A00F0B4
:10B0E000968014D8112A71D0232A00F09E80102A4D
:10B0F0003BD0A37A4BB1E1880020FFF7A5FF0028E1
:10B1000040F099804FF48073638102B010BD3A2AF9
:10B1100065D0552AEDD1DB88C988A072172B38BFBE
:10B1200017238B4228BF0B462381FFF78FFF60B1A7
:10B13000FEF744FB484B4949024649481B1ADB08C5
:10B140001B0443F00100FEF795F9E37A002BD0D100
:10B150002369002BCDD040F6772200922289ADF8EA
:10B160000420694620469847C3E70A790A73DB7BC7
:10B17000012B13D0022B14D0E18823898B4205D2F6
:10B180000020FFF761FF70B90123E372217B637B2D
:10B190008B42AED20020FFF75BFFAAE70B88E3806B
:10B1A000EAE74B88FBE7112802D10123A372EDE700
:10B1B000FEF704FB284B2B49024629481B1ADB08E3
:10B1C0001B0443F00100FEF755F9DFE7F723CB80BE
:10B1D00017230B8141F6FB3348818B8189E75B891B
:10B1E000CA88934228BF1346172B0A6938BF172312
:10B1F0000B814AB1C97A39B140F677210091ADF897
:10B2000004306946204690470023638171E71A7A2B
:10B210000B694A73002B3FF46CAF4DF67A218DF821
:10B22000050000918DF804209BE7197A237B994251
:10B2300028BF1946AFE711283FF467AFFEF7BEFA03
:10B24000054B0849024606481B1ADB081B0443F05D
:10B250000100FEF70FF958E704960300C78E0300BC
:10B2600094950300968E0300B0DF704766DF704749
:10B2700010B5002104464088FFF7F8FF034608B9DF
:10B28000237210BD112801D10123F9E76368BDE8DD
:10B290001040184728B10378DE2B04D141800020EC
:10B2A00070470E20704708207047F0B5054685B0FE
:10B2B0000C46F1B1E8B10B78DE2B1AD182884B88AD
:10B2C0009A4204D10B7A13B10846FFF7D1FF2B88BD
:10B2D000112B32D0512B0ED0012B0AD12B7A012BFE
:10B2E00007D1A9886288914203D123722046FFF7D3
:10B2F000BFFF05B0F0BDAE886388B342F9D1AF7926
:10B30000022FF6D1AD7B2B1F022BF2D80021102289
:10B31000684601F0A1F8052D14BF4FF4C073002357
:10B32000694630468DF80070ADF80430FFF79CFF99
:10B330000028DED063689847DBE76388AA889A42D2
:10B3400004BF4FF6FF736380D3E70000014B18780A
:10B35000704700BFF0B1002007B508496846FEF706
:10B36000DBF9019B13B903B05DF804FBD3E90020BE
:10B3700090476846FEF7E8F9F3E700BF0C8F03003B
:10B38000FFF7EABF61DF704730B5134DADF5017DC2
:10B390004FF4FA740DF1020103A8ADF80240FFF773
:10B3A000F1FF70B9294601A8FEF7B6F9029B002B00
:10B3B000F0D003A8D3E90021904701A8FEF7C4F913
:10B3C000F4E7052804D0054A40F23911FDF7F1F8F9
:10B3D0000DF5017D30BD00BFB88F0300188F03004D
:10B3E000024B1B780BB1FFF7CFBF7047F1B10020C4
:10B3F00076DF70477FDF704786DF70478ADF7047F0
:10B400008FDF7047B1DF704733DF704737B5038890
:10B41000212B044632D80F2B06D87D4B13B1204682
:10B42000AFF3008003B030BD103B112BF5D801A263
:10B4300052F823F0B1B40200F5B402001BB40200CC
:10B440002FB502006BB502001BB402001BB4020052
:10B450001BB402001BB402001BB402001BB40200A8
:10B4600087B502001BB40200D7B502001BB402006E
:10B470001BB402001BB40200F5B502003B2B00F028
:10B480008F80503B9AB2062AC7D8062BC5D801A296
:10B4900052F823F011B502001FB502004FB50200AB
:10B4A0001BB402001BB402001BB40200B7B50200BB
:10B4B000584D818858482980FFF7ECFE20B1574A43
:10B4C0004FF49D71FDF775F8002328881A46194638
:10B4D000FFF798FF20B1514A4FF4A171FDF769F8C9
:10B4E0004F4801F01DF84F4B002B96D02046AFF38C
:10B4F000008092E7474B4C484FF6FF721A8001F0EC
:10B500000FF84A4B002B88D02046AFF3008084E729
:10B51000474B002B81D02046AFF300807DE7454BA1
:10B52000002B3FF47AAF2046AFF3008075E739482F
:10B53000002300881A468521FFF75CFF00283FF4AE
:10B540006CAF364A40F28111FDF733F865E73148B8
:10B55000002300881A461946FFF754FF00283FF4DD
:10B560005CAF2E4A40F28711EEE72A48002300889C
:10B570001A461946FFF740FF00283FF44EAF274A0E
:10B5800040F29111E0E7037A012B7FF446AFFFF719
:10B590003BFF00283FF441AF204A4FF4CC71D3E782
:10B5A00080881321FFF724FF00283FF436AF1B4AA1
:10B5B0004FF4D071C8E7A379002B7FF42EAF154B61
:10B5C00013211888FFF714FF00283FF426AF134A11
:10B5D00040F2A711B8E7184B0BB1AFF30080174941
:10B5E0000020FFF70BFF00283FF417AF0B4A40F293
:10B5F000C711A9E700238088ADF8043001A9FFF73F
:10B60000FFFE00283FF409AF044A40F2D1119BE746
:10B61000000000009CB5002060B40020C48F03002F
:10B620003290030000000000429003000000000080
:10B630000000000000000000000000002099002031
:10B6400013B504460548019100F06AFF019A0448C9
:10B650002146FCF7AEFF02B010BD00BF54900300BE
:10B66000EFBEADDE0C4B1B78062B10D10B4B1B68CD
:10B670001A070CD10A4B186800F0F003302B08D0E1
:10B6800000F0E000A0F1400358425841704700200C
:10B6900070470120704700BFE00F00F0E40F00F09A
:10B6A000E80F00F0094B1B78062B0CD1084B1B68E8
:10B6B0001A0708D1074B186800F0F000A0F130031A
:10B6C0005842584170470020704700BFE00F00F01B
:10B6D000E40F00F0E80F00F008B5FFF7C3FF28B152
:10B6E0007D4B7E4A1B68C3F304231360FFF7DAFF28
:10B6F00010B17B4B7B4A1A60FFF7B4FF28B17A4B3D
:10B700007A4A1B68C3F342331360FFF7CBFF20B1C3
:10B71000774AD36823F08073D360FFF7A3FF40B16B
:10B720004FF080430022C3F80C21C3F81021C3F866
:10B730003825FFF7B7FF10B16E4B03221A60FFF7F1
:10B74000B1FF40B16C4B05221A6001229A670022BA
:10B750009A603F225A60694B1B78062B50D1684B88
:10B760001B6819074CD1674B1B6803F0F003502B83
:10B7700046D14FF08052644BD2F80414C3F8201520
:10B78000D2F80814C3F82415D2F80C14C3F82815FD
:10B79000D2F81014C3F82C15D2F81414C3F83015CD
:10B7A000D2F81814C3F83415D2F81C14C3F8401595
:10B7B000D2F82014C3F84415D2F82414C3F848155D
:10B7C000D2F82814C3F84C15D2F82C14C3F850152D
:10B7D000D2F83014C3F85415D2F83414C3F86015F5
:10B7E000D2F83814C3F86415D2F83C14C3F86815BD
:10B7F000D2F84014C3F86C15D2F84424C3F870256D
:10B80000FFF730FF28B1414B414A1B6803F04F035B
:10B810001360FFF727FF48B14FF08043D3F80024AF
:10B82000D20744BF6FF00102C3F80024394B1B68F4
:10B83000062B08D1384B1B68062B01BF374A13680B
:10B8400043F480631360364AD2F8883043F47003BF
:10B85000C2F88830BFF34F8FBFF36F8F4FF01023C4
:10B86000D3F80022002A03DBD3F80432002B2FDAAE
:10B870002C4B0122C3F80425D3F80024002AFBD066
:10B880004FF010221521C2F80012D3F80024002A2C
:10B89000FBD04FF010231522C3F80422214B1A4687
:10B8A000D3F800140029FBD00021C3F80415D2F806
:10B8B0000034002BFBD0BFF34F8F19491A4BCA68D5
:10B8C00002F4E0621343CB60BFF34F8F00BFFDE78C
:10B8D000164B174A1A6008BD24030010403501407A
:10B8E00074C007400DF0ADBA440200103C050040A2
:10B8F000F0ED00E0A005004010560040E00F00F021
:10B90000E40F00F0E80F00F000C000405802001003
:10B91000E40E004030010010340100103C170040DC
:10B9200000ED00E000E001400400FA052899002045
:10B930000090D0030649074A074B9B1A03DD043BDE
:10B94000C858D050FBDCFFF7C7FEFAF7A1FC000097
:10B95000A8960300A898002050A30020FEE7FEE769
:10B96000FEE7FEE7FEE7FEE7FEE7FEE7FEE7FEE7AF
:10B970000028B8BF4042704700B50A4C266805460B
:10B9800085B01C46F06852B1074B0091CDE90132F9
:10B9900006492B46224600F0A1F805F029FD044B8C
:10B9A0001A46F2E7309900207C9003008C90030047
:10B9B0008890030008B513460022FFF7DDFF00BFA3
:10B9C000002301461A46184605F086BC0A220021CB
:10B9D00001F01EBD0A23002201F00CBD0A22002145
:10B9E00001F0F8BD0A23002201F0E6BD024B0A4631
:10B9F0000146186800F002B83099002010B502FB2B
:10BA000001F100F0DDF9044668B150F8042C22F091
:10BA10000302043A242A18D8132A06D8024600231F
:10BA2000C2E900339360204610BD00231B2AC0E901
:10BA300000330FD9242AC0E9023312BF00F11002EB
:10BA4000C0E9043300F11802E9E7002100F004FD29
:10BA5000204610BD00F10802E1E700BF08B500F084
:10BA600075F8BDE8084005F0CBBC00BF08B5002163
:10BA7000044605F065FC044B1868C36B03B1984796
:10BA800020460AF0FBFA00BFC091030038B50A4C0B
:10BA90000A4D641BA4100AD004F18043013B05EB5E
:10BAA0008305013C55F804399847002CF9D1BDE8CD
:10BAB00038400BF09BB900BF50A300204CA30020DE
:10BAC0000CB400B583B004AB53F8042B019303F01E
:10BAD0009FFA03B05DF804EB02B070470EB410B5E6
